:020000040000FA
:10000000020D9E022003FFFFFFFFFF02200BFFFFF8
:10001000FFFFFF020523FFFFFFFFFF02201BFFFF83
:10002000FFFFFF022023FFFFFFFFFF02202BFFFF48
:10003000FFFFFF022033FFFFFFFFFF020577FFFFF7
:10004000FFFFFF022043FFFFFFFFFF02204BFFFFE8
:10005000FFFFFF022053FFFFFFFFFF02205BFFFFB8
:10006000FFFFFF022063FFFFFFFFFF02206BFFFF88
:10007000FFFFFF022073FFFFFFFFFF02207BFFFF58
:10008000FFFFFF022083FFFFFFFFFF02208B002006
:10009000000090200000932000000100000000C834
:1000A0000300380000000000260000000000FFFFF1
:1000B000FFFF0000040074F8120B1B780079008029
:1000C0001A74922EF58274031201F4900412120134
:1000D000FE4005900412E4F01201EB900412E0FEE1
:1000E000A3E06E6007C3E89CE99D40D5806D74F87D
:1000F000120B1B120153C398120153FEE8500B124E
:1001000002CB700B7800790080141202E050F57A6F
:10011000007B00803CE004F0439A041201EBC3E84A
:100120009CE99D50288A828B83E0C0E0900497E090
:10013000FE74162E120308D0E01202BC900498E45C
:10014000F0900497E0C3947F40CBE480CAE8FAE9DA
:10015000FB800C900496E0F8A3E022E8FAE9FB7F2C
:1001600001020C8074F8120B1B7800790090051BBB
:10017000E0705AA3E0705675F900C28FC284A28362
:1001800040FCA28F4004A28350F8E5F9C28FA283FD
:100190005004D2848037C0E0E0FE749B2EF5827458
:1001A0000412030CD0E0F090051C1202F440D3E4DA
:1001B000F080CF749B2EF58274041201F490051B1D
:1001C0001201FE400590051BE4F01201EB90051BA7
:1001D000E0FEA3E06E6007C3E89CE99D40D5E849D6
:1001E0007006E4F090051BF002015BE8240108E9C9
:1001F0003400F92212030CE08A828B83F022E0049F
:100200001202C0C394802274F8120B1B90059D1239
:100210000156C39890059D120156FEE85007120240
:10022000CB700B80051202E04004EC4D70077A00A1
:100230007B000202B98A828B83E0F5F9A3AA82AB24
:1002400083780179008006E004F01201EBC3E89C9A
:10025000E99D50278A828B83E0C0E090059EE0FEF6
:10026000741D2EF582740512030CD0E01202BC90AE
:10027000059EE0C3947F40CFE480CEC28FA283402E
:10028000FCC284A28F4004A28350F890059D120204
:10029000FBE0F5F9C28F90059DE0FAA3E06A9005B6
:1002A0009D70051202FB80051202F44002E4F0A2E8
:1002B0008350D0D284E8FAE9FB02015F1202C02227
:1002C000F08A828B83A3AA82AB8322C39EF895E037
:1002D000F91202D522E824FF18E934FFF9E849228F
:1002E000C39EF895E0F9E8247FF8E93400F9C3E803
:1002F0009CE99D22E004F0C3948022E0FA741D2A58
:10030000F582740512030C22F58274043400F5831F
:100310002274FF120D2D1203FA1206D8E97003029F
:1003200003D77E00900390E06401700DC2849003B7
:10033000917401F09005B38005D2AF9005B77808AD
:10034000120D8F7C017D00851882851983AA82ABEE
:10035000831204DF8B0DEA450D6012E064F8602C17
:10036000E0640770089005BB7808120D8F85080CB3
:1003700085090D850A0E850B0F9005BF7808120DB3
:100380006BE50C450D450E450F70B80E900390E0DF
:1003900064017009D284900391E4F08002C2AFEE50
:1003A000A2E05033900390E06401700C75F800C235
:1003B000AB539AF7D2EA800C758600C2AAC28B535F
:1003C0009AFBC2E990000174CDF0022000C2AF7523
:1003D000C9AB75C95B80FE1204A4C2AF75C9AB7509
:1003E000C95B80FE781075B60FE5B4A2E750FAE558
:1003F000BBC39940F118E870ED22C082C083A2927D
:1004000050047A0080027A8053BEFBE59DA2E6503C
:10041000FA0078F87901001202D570FA8AC6E59ED2
:100420006A70FB43BE049062707408F0794A12034C
:10043000E490000174F5F07403F5D575D488A2A09A
:10044000E433900390F0A2E05029D28453F3F753A1
:10045000F3EF53FDF743FD10538FF753F7DF43FCE2
:100460002043F10253F5DF75F82043F4F0D2FED2B9
:10047000AB802C53FF3F85FFFF53F1FE43F30C533A
:10048000F2F375868075C480900499E4F0A3F0754A
:10049000C2D875C50B75C402438640D2AAD2E9D032
:1004A00083D0822274F5120B1B794E1203E4900361
:1004B00090E07002D2AF1205C8E960FAE0701B90BC
:1004C00005C37808120D8F009005BF7808120D6BD8
:1004D000E5084509450A450B70ED7F04020C80C014
:1004E00082C083900390E070051200B6801E9003D6
:1004F00091E06015A28F500DE5F98A828B83F07A26
:10050000017B0080077A0080F81201648091C0822C
:10051000C083900390E070051200EE800312020782
:1005200002049FC0E074F2120B81900001E064CDE0
:100530007005122013803BE064F57035E5C1C0E022
:10054000900413E0F8749228F582740312030CD01F
:10055000E0F0900412120156687006E595900415BB
:10056000F09004131202F44002E4F0A374C6F08089
:1005700001007F01020BE0C0E074F1120B819000DA
:1005800001E064CD700512203B8038E064F57032E4
:10059000120153687009539AFBA37401F08024C2BE
:1005A000E9900496E0F50874012508F07416250812
:1005B000120308E0F5C1900496E0C394804004E47F
:1005C00080DA007F02020BE074F7120B1B74FF123B
:1005D0000D2D7E008033900384E0F8851882851904
:1005E00083E068700D900382E0644D700512081B73
:1005F000E9FE900385E4F0900387F0851882851961
:1006000083E0F8900384E068F07C017D0085188227
:10061000851983AA82AB831204DF8B09EA4509702E
:10062000030206CCE0C0E0900387E0F8900385E089
:10063000FAE82AF8E434001209D3D0E0F0900387F6
:10064000E0601114602014603E14604E1460641465
:10065000608480A7851882851983E064FE709C9071
:10066000038774018094900384E4F08518828519CF
:1006700083E0900386F0C394809003874004E402F3
:1006800005FA74020205FA851882851983E0900341
:1006900082F090038774030205FA85188285198316
:1006A000E0900383F0900386E06019900387740460
:1006B0000205FA900385E004F0F8900386E0686094
:1006C000030205FB90038774050205FAEEF9740135
:1006D000120CFA7F02020C8074ED120B1B74FB12D9
:1006E0000D2D7508047509007808120D7E7402122C
:1006F0000DC91209C0120CFA851882E0F47003A328
:10070000E0F4600F851882851983E0F8A3E0F9E82A
:1007100049700302080F7402120DC9E0687003A348
:10072000E06970030207E975080090059F781012D0
:100730000D8F800A9005A37810120D43604A750A48
:1007400001750B00780A120D7E7406120DC9AC8279
:10075000AD8385100A85110BAA0AE50B5407FB8AA5
:100760000C85110D85120E85130F740B780C120D6C
:1007700014A90C1209CA120CFAE0F9AA08AB091262
:1007800009DF8A088B0980089005A77810120D8F61
:100790009005AB7810120D6B9005AF7810120CC05D
:1007A0005092E4F91209DFE4F91209DF7402120D24
:1007B000C9EAF0A3EBF07508017509007808120D7D
:1007C0007E7402120DC9AC82AD837A247B08120AB2
:1007D000A07402120CFA7508047808120D7E7402D7
:1007E000120DC91209C0120CFA1209B2120DC9E099
:1007F000687003A3E0697017851882851983E0F497
:100800007003A3E0F46008E849600479018002798C
:10081000007405120CFA7F0C020C8074F3120B1B8F
:1008200074FC120D2D900306E0FAA3E0F9EA24000F
:10083000F8F508E93408F509750A017F007E009093
:100840000383E014600C1460401470030208E20299
:10085000095FE5095401F9E8497011880C85090D13
:100860007409780C120DADA90C120B04750C108EC6
:100870000D780C120D7E7C087D03AA08AB09120AC4
:10088000A07402120CFA02095F880C85090D740924
:10089000780C120DADE50CC3947940040F02095F8A
:1008A000750A408E0B780A120D7E7C097D03EAF5ED
:1008B0000AE5095401F50B7402780A120D58AA0AC8
:1008C000AB0B74097808120DADA9081209CA120CF5
:1008D000FA900307E0A3F0900306E0A3F0750A4343
:1008E000807D7508048E097808120D7E7402120D41
:1008F000C91209C0120CFA7402120DC9E0F8A3E083
:10090000F9851882851983E0687003A3E069603B6C
:100910001209B2120DC9E8F0A3E9F07508017808D0
:10092000120D7E7402120DC9AC82AD837A247B084D
:10093000120AA07402120CFA7508047808120D7ECF
:100940007402120DC91209C0120CFA1209B2120D6A
:10095000C9E0687003A3E06970030E80027F07900E
:100960000305E0D2E7F0EFA3F0E50A900303F0748B
:100970004D650AF5087404250AFB7A0380071209FD
:10098000D0E062080AEAC39BA2D265D033EAF840FD
:10099000ED1209D0E508F074012AFC3395E0FD7AE8
:1009A000027B0312050EEEF97404120CFA7F0602A4
:1009B0000C80851882851983E0F8A3E0F97402227F
:1009C000AC82AD837A907B007904120A1B740222F8
:1009D0003395E0F9740228F582740339F58322C057
:1009E00008C0097C088A088B09740F7808120DADBD
:1009F000EAC333FAEB33FBE9A2E7500474014AFA85
:100A0000E508A2E0500874216AFA74106BFBE9C390
:100A100033F91CEC70CFD009D0082274F5120B1BEF
:100A20008908740B120DC9E0FEA3E0FF740F55088E
:100A3000F50A750B00740B780A120D58EA2400F8B9
:100A4000EB3480F9E82400E9350BF9E5C7F509A294
:100A5000AFE433F50AC2AFE508C4540FFAE5C75452
:100A6000F84AF5C7801C88828983E08C828D83F0E8
:100A700088828983A3A882A9838C828D83A3AC8278
:100A8000AD83EEFAEFFBEA24FF1EEB34FFFFEA4BE7
:100A900070D48509C7E50AA2E092AF7F04020C80FA
:100AA00074F7120B1B7409120DC9E0F508A3E0F5E9
:100AB00009ED900388F0ECA3F0A37462F0A37473C3
:100AC000F0A3E0541FF0E508333354FCA3F07406A0
:100AD0007808120DADE50890038CF090038E741227
:100AE000F0A37442F075D1FE75D601EA906271F000
:100AF000EBA3F0906270E0D2E1F0E0A2E740FB7F70
:100B000002020C80C082C083E9C333906272F0900D
:100B10006270E0D2E0F0D083D082222518C582C076
:100B2000E0E51934FFC583C0E0E518C3958224F9D8
:100B300010AF0885831985821880088583198582FE
:100B400018D2AFCEF0A3E520F0A37808E608F0A312
:100B5000DEFAEFF0A3E58124FBF8E608F0A3E6084F
:100B6000F0A30808E608F0A3E608F0A315811581B4
:100B7000D0E0FED0E0F815811581E8C0E0EEC0E0DD
:100B800022C0D02518C582C0E0E51934FFC583C056
:100B9000E0E518C3958224F310AF08858319858298
:100BA000188008858319858218D2AFC8F0A3E9F0B0
:100BB000A3EAF0A3EBF0A37908E709F0A3D8FAECD5
:100BC000F0A3EDF0A3EEF0A3EFF0A3D0E0F0A3D0FC
:100BD000E0F0A3D0E0F0A3E520F0A3E5F0F0A3223D
:100BE000851983851882E0C0E0A3E0F9A3E0FAA3A9
:100BF000E0FBA37808E0F608A3DFFAE0FCA3E0FD41
:100C0000A3E0FEA3E0FFA3E0C0E0A3E0C0E0A3E018
:100C1000F5D0A3E0F520A3E0A3F5F010AF0885839D
:100C2000198582188008858319858218D2AFD082F1
:100C3000D083D0E0F8D0E032120DD8B90003020C16
:100C40007AE4900302789E79038002F0A3D8FCD95D
:100C5000FA90059FAA82AB8390008E782979018053
:100C600015E493A3AC82AD838A828B83F0A3AA821E
:100C7000AB838C828D83D8E9D9E7120311120DD38F
:100C8000851983851882E0A3FEE0A3F5207808E0AB
:100C9000A3F608DFFAE0A3FFE0A3C0E0E0A3C0E012
:100CA000E0A3C0E0E0A3C0E010AF08858218858310
:100CB000198008858218858319D2AFD083D082220B
:100CC000C008C3E096F50808A3E096420808A3E030
:100CD00096420808A3E09645087001D3D008222563
:100CE00018F58210AF08F518400215198008F5189C
:100CF00040021519D2AF85198322C0D0251810AF34
:100D000008F518500205198008F51850020519D287
:100D1000AFD0D0226016080808C6C313C618C61381
:100D2000C618C613C618C613C6D5E0EA2225181081
:100D3000AF08F518400215198008F518400215197A
:100D4000D2AF22E066701008A3E066700A08A3E044
:100D500066700408A3E06622700422600D18C6C302
:100D600033C608C633C6D5E0F41822E026F608A339
:100D7000E036F608A3E036F608A3E036F622740261
:100D80008000C0E0F404120CDFD0E0120DBC22E0C1
:100D9000F608A3E0F608A3E0F608A3E0F62275D073
:100DA00000758140751802751903020C38600C0833
:100DB000C6C313C618C613C6D5E0F422CAC0E0E6FF
:100DC000F0A308DAFAD0E0FA222518F582E4351902
:100DD000F5832200000080FB790122FFFFFFFFFF67
:100DE000FFFFFFFFFFFFFFFFFFFFFFFFFFFFFFFF13
:100DF000FFFFFFFFFFFFFFFFFFFFFFFFFFFFFFFF03
:100E0000FFFFFFFFFFFFFFFFFFFFFFFFFFFFFFFFF2
:100E1000FFFFFFFFFFFFFFFFFFFFFFFFFFFFFFFFE2
:10200000022AB20221EAFFFFFFFFFFFFFFFFFFFFEF
:10201000FFFFFFFFFFFFFFFFFFFFFFFFFFFFFFFFD0
:10202000FFFFFFFFFFFFFFFFFFFFFF02286CFFFF27
:10203000FFFFFFFFFFFFFFFFFFFFFFFFFFFFFFFFB0
:10204000FFFFFF022651FFFFFFFFFFFFFFFFFFFF24
:10205000FFFFFF022118FFFFFFFFFFFFFFFFFFFF52
:10206000FFFFFFFFFFFFFFFFFFFFFF022786FFFFCE
:10207000FFFFFFFFFFFFFFFFFFFFFFFFFFFFFFFF70
:10208000FFFFFF02217F01FFFFFFFFFFFFFFFFFFB9
:10209000102010200101FF01010503010F10FEFFB8
:1020A0004635463546354635F033EA3346354B49F5
:1020B00000000000AD49000000000C0000000C0012
:1020C000010000E037000000003237FA387A377636
:1020D00038000068370000FF010100180700000009
:1020E000E8039007E80364006400B80102020008F6
:1020F00000000502070101051E02051E020A0A036F
:10210000B80B02803E010201FFFF0A01E096511860
:1021100000020206FFFFE803C0E074F212246EA280
:10212000AFE433FED2AFE5A7FFE5A1F5085F541099
:1021300060061241B875A1EFE5085F540860081207
:1021400041BE75A1F7802BEFA2E0C0D0E508A2E068
:1021500092F01229EF158182F05017906198E0F803
:10216000900C6DE0C398A2D265D0335002E8F075B0
:10217000A1FE751A00EEA2E092AF7F010224CDC04D
:10218000E074F212246EA2AFE433FED2AF9061A4E9
:10219000E0F8759B00E59158540860087591F712B6
:1021A0004206802AE59158541060087591EF12425A
:1021B0000C801BE8A2E0C0D0E591A2E092F01229C9
:1021C000EF158182F05007E0C2E0F01243629061A7
:1021D000A3E0F8E5E9585404600E12433875E9FBB2
:1021E000906193E0A2E640F28088C0E074F212248D
:1021F0006EA2AFE433FED2AF9061A5E0F8E5BF5820
:102200005404600675BFFB12437A022172C3E4983E
:10221000F8E499F912224E8026C3E49AFAE49BFB73
:10222000E920E7E912224EE498F8E499F922C3E4A0
:1022300098F8E499F912224EE498F8E499F9C3E485
:102240009AFAE49BFB22EB20E7CFE920E7E0B90014
:1022500010BB0008E88AF084F8AAF022E4FBC8FA70
:1022600022EB70227B10C833C8C933C9335007C36F
:102270009AC3DBF280069A50012ADBEAC833F4C81D
:10228000C933F4C9FA2275F008E4C833C8C933C9A0
:1022900033C99AC99B5004C92AC93BD5F0ECFBC885
:1022A00033F4C8E4C9FA22080808EAC0E0EBC0E049
:1022B00086F0E7A4FA180986F0E7A42AFA18098636
:1022C000F0E7A42AFA180986F0E7A42AFA1986F09A
:1022D000E7A4FBE5F02AFA190886F0E7A42BFBE552
:1022E000F03AFA190886F0E7A42BFBE5F03AFA1861
:1022F000180986F0E7A4C5F02BFBE43AFA1908E7C1
:10230000C5F0C6A426F6E5F03BFBE43AFA1886F0E1
:10231000E7A4F6E5F00826F6E43B08F6E43A08F60A
:10232000D0E0FBD0E0FA22E4CFC0E0E4CEC0E0E4AD
:10233000CDC0E0E4CCC0E075F020C3E633F608E69B
:1023400033F608E633F608E633F6181818EC33FCD3
:10235000ED33FDEE33FEEF33FFC3EC9709ED970944
:10236000EE9709EF97191919400FFFEC97FC09ED4B
:1023700097FD09EE97FE191906D5F0BEECF709EDA9
:10238000F709EEF709EFF7191919D0E0FCD0E0FDD5
:10239000D0E0FED0E0FF222518C582C0E0E5193468
:1023A000FFC583C0E0E518C3958224F810AF088507
:1023B00083198582188008858319858218D2AFCE4B
:1023C000F0A3E520F0A37808E608F0A3DEFAEFF02A
:1023D000A3E58124FAF8E608F0A3E608F0A3E608EE
:1023E000F0A30808E608F0A3E608F0A3158115811C
:1023F000D0E0FED0E0F8158115811581E8C0E0EE4F
:10240000C0E022122B14B90003022458E49004D136
:1024100078D2790F8002F0A3D8FCD9FA781A9020EC
:10242000867A01BA00028007E493A3F608DAF990ED
:1024300013A2AA82AB83902094788579018015E459
:1024400093A3AC82AD838A828B83F0A3AA82AB83F1
:102450008C828D83D8E9D9E77582E17583C27405D2
:1024600012284E7582B2758347740012284EC0D070
:102470002518C582C0E0E51934FFC583C0E0E51822
:10248000C3958224F310AF088583198582188008CC
:10249000858319858218D2AFC8F0A3E9F0A3EAF0CA
:1024A000A3EBF0A37908E709F0A3D8FAECF0A3EDC9
:1024B000F0A3EEF0A3EFF0A3D0E0F0A3D0E0F0A300
:1024C000D0E0F0A3E520F0A3E5F0F0A32285198386
:1024D000851882E0C0E0A3E0F9A3E0FAA3E0FBA343
:1024E0007808E0F608A3DFFAE0FCA3E0FDA3E0FE35
:1024F000A3E0FFA3E0C0E0A3E0C0E0A3E0F5D0A329
:10250000E0F520A3E0A3F5F010AF088583198582DC
:10251000188008858319858218D2AFD082D083D0E5
:10252000E0F8D0E03215000875F0108E218F22857A
:102530008226858325851882851983E0CEA3E0CF86
:10254000852682852583EBC9EAC8EDCBECCAC3E8B2
:1025500033C8E933C9EA33CAEB33CBC3EA9EF52467
:10256000EB9FF523B35004AB23AA24EC33CCED331B
:10257000CDD5F0DAAE21AF2222D083D082ECC0E0FC
:10258000EDC0E0E493A3FCE493A3FDED4C600D12D9
:102590002694EC24FFFCED34FFFD80EFE493A3FCD4
:1025A000E493A3FDED4C600D122731EC24FFFCED0C
:1025B00034FFFD80EFD0E0FDD0E0FCE493A3C0E069
:1025C000E493C0E022851983851882E0A3FEE0A38E
:1025D000F5207808E0A3F608DFFAE0A3FFE0A3C047
:1025E000E0E0A3C0E0E0A3C0E0E0A3C0E0E0A3C05F
:1025F000E010AF08858218858319800885821885C8
:102600008319D2AFD083D082022854D083D082E9FC
:10261000C0E0E493A3C386F0C5F095F0F908E49315
:10262000A386F0C5F095F0700BE493A3C399400521
:10263000E9048002A3E475F002A42582F582E5F0A6
:102640003583F583D0E0F9E493A3C0E0E493C0E0E0
:1026500022C0E074F212246EA2AFE433FED2AFC205
:10266000C090129AE0700BE5D1A2E4501D12411CFB
:102670008018E5D1A2E3500675D1F71240F2E5D1FA
:10268000A2E4500675D1EF1240F8EEA2E092AF7FBF
:10269000010224CDC0E0C3E4939608740193961818
:1026A000400FE49366700808740193661870007018
:1026B00019A3A3C3E49396087401939618A3A340A7
:1026C0000DD0E0D0E0D0E00225B5A3A3A3A3A3A33F
:1026D000D0E0227404800474028000CCC0E0EDC01D
:1026E000E0E518C39CCCAD1950011D10AF068C1845
:1026F0008D1980068C188D19D2AF1227D0D0E0FD2D
:10270000D0E0FC2274028000CCC0E0EDC0E0E5180F
:10271000C39CCCAD1950011D10AF068C188D1980CB
:10272000068C188D19D2AF1227AED0E0FDD0E0FC98
:1027300022C0E0C0F088F0E493667008087401934A
:1027400066187000A8F0A3A3700BD0F0D0E0D0E022
:10275000D0E00225B5A3A3D0F0D0E022D083D08270
:10276000CCC0E0E493A360061228101470FAE4933E
:10277000A360061229391470FAD0E0FCE493A3C0D8
:10278000E0E493C0E022C0E074F212246E75890088
:10279000C2C590129AE0700E7A007B10900692E00B
:1027A000F9123A50800312463E7F010224CDCAC07E
:1027B000E0E493A3C582CCC582C583CDC583F0A3D5
:1027C000C582CCC582C583CDC583DAE5D0E0CA22F7
:1027D000CAC0E0E0A3C582CCC582C583CDC583F065
:1027E000A3C582CCC582C583CDC583DAE6D0E0CA55
:1027F00022C008C3E096F50808A3E096420808A3A3
:10280000E096420808A3E09645087001D3D008225C
:10281000C0E0E493A3D39C5010E493A3C39C400A6C
:10282000D0E0D0E0D0E0022779A3A3A3D0E02270CB
:1028300009080808226016181818C6C333C608C647
:1028400033C608C633C608C633C6D5E0EA22C09FE1
:10285000F59FE473D09F22D083D082C09FE493C0C1
:10286000E0740193C0E0740293F59F22C0E0C0D0F1
:10287000E8C0E0E5A8D2AFC2C7751A00A2E792AFE0
:10288000D0E0F8D0D0D0E0322518F58210AF08F5AE
:1028900018400215198008F51840021519D2AF85A5
:1028A0001983227404800A740380067402800274FF
:1028B00001C0E0F404122888D0E0122AEF22BB0104
:1028C00002E722C082C08389828A83BB0003E08042
:1028D00002E493D083D08222C0D0251810AF08F52F
:1028E00018500205198008F51850020519D2AFD00A
:1028F000D0226016080808C6C313C618C613C61827
:10290000C613C618C613C6D5E0EA22C3E0C696F6BB
:1029100008A3E0C696F608A3E0C696F608A3E0C6AC
:1029200096F622251810AF08F518400215198008F0
:10293000F51840021519D2AF22C0E0E493A36C70E1
:1029400009D0E0D0E0D0E0022779A3A3D0E022C3F1
:10295000E09608A3E09608A3E09608A3E096A2D22A
:1029600065D03322E066701008A3E066700A08A301
:10297000E066700408A3E06622E76670100809E7C5
:1029800066700A0809E76670040809E76622C3E66C
:1029900097F60809E697F60809E697F60809E69714
:1029A000F622C3E096F008A3E096F008A3E096F0C4
:1029B00008A3E096F022E627F60809E637F60809AC
:1029C000E637F60809E637F622E026F608A3E036F1
:1029D000F608A3E036F608A3E036F622E026F00873
:1029E000A3E036F008A3E036F008A3E036F022C0FA
:1029F000E0E8C0E0E58124FCF8E6A2E7D0E0F8D00A
:102A0000E022700422600D18C6C333C608C633C660
:102A1000D5E0F41822E657F60809E657F60809E665
:102A200057F60809E657F622E056F608A3E056F6F0
:102A300008A3E056F608A3E056F622E056F008A3F5
:102A4000E056F008A3E056F008A3E056F022E6476F
:102A5000F60809E647F60809E647F60809E647F6E4
:102A600022E4C396F608E496F608E496F608E4969F
:102A7000F622C3E7960809E7960809E7960809E7EA
:102A80009622C6F4C608C6F4C608C6F4C608C6F43C
:102A9000C622600D08C6A2E713C618C613C6D5E045
:102AA000F322C3E09608A3E09608A3E09608A3E00B
:102AB000962275D0007581407518D17519040002F1
:102AC0002403E0F608A3E0F608A3E0F608A3E0F686
:102AD00022600C08C6C313C618C613C6D5E0F4227C
:102AE000E6F008A3E6F008A3E6F008A3E6F022CAA1
:102AF000C0E0E6F0A308DAFAD0E0FA22E0FAA3E0B8
:102B0000FBA3E0FCA3E0FD22EAF0A3EBF0A3ECF0D2
:102B1000A3EDF022E5C754F84401F5C77901222559
:102B200018F582E43519F58322C2AF75D69F0200ED
:102B30000022122857D3A40312285735A5031228C0
:102B40005793A503122857BCA5031228572CA60398
:102B500012285785A603122857FEA603122857519C
:102B6000A9031228570BAB03122857B7AB0312283F
:102B700057FEAC031228579CAF03122857A2B2038A
:102B8000122857AFB2031228573DB303122857EF4C
:102B9000B30312285737B40312285797B4031228E7
:102BA00057B3B403122857E7B4031228571CB503D0
:102BB00012285705B603122857BAB6031228570F22
:102BC000B9031228575CBA03122857FFBA03122818
:102BD000578CBB0312285716BC0312285755BC0349
:102BE000122857EABD031228571EBE031228579910
:102BF000BE0312285773BF031228573AC003122886
:102C00005752C003122857E9C0031228575AC3036A
:102C10001228576FC5031228578DC503122857B4C1
:102C2000C503122857008002122857358002122847
:102C3000575B8002122857958002122857A78002FE
:102C4000122857F980021228575A8102122857E495
:102C50008102122857888202122857D08202122835
:102C6000570A83021228572783021228574C8302DF
:102C70001228579E8302122857B78302122857DD65
:102C800083021228571884021228575C84021228E3
:102C900057838402122857D484021228578485024D
:102CA0001228573C8602122857048702122857C45C
:102CB00087021228570888021228572D88021228E6
:102CC00057708802122857BD8802122857158A02A9
:102CD0001228579B8A02122857B98A02122857E3F2
:102CE0008A02122857FD8A021228570C8B021228DA
:102CF00057178B02122857D78B02122857308C0295
:102D0000122857F28C02122857FA8C021228577296
:102D10008D02122857C18D02122857078E021228E1
:102D200057488E02122857D88F02122857909002C7
:102D3000122857FC90021228572792021228574C4B
:102D400092021228575D9202122857D3920212283B
:102D500057659302122857BD93021228577D94029B
:102D60001228579C9402122857AB9502122857C973
:102D70009502122857DB95021228572E9602122828
:102D8000573D9602122857C59602122857029702FD
:102D90001228570F9702122857929802122857F1BB
:102DA00099021228570A9A02122857539B02122896
:102DB00057E49B021228571B9D02122857549D026C
:102DC000122857A09D02122857BC9E0212285705B0
:102DD000A10212285710A1021228571BA102122883
:102DE0005726A10212285730A1021228573BA102F0
:102DF00012285755A1021228575FA10212285769BD
:102E0000A10212285774A1021228577FA10212288A
:102E100057A7A10212285702A2021228570CA20299
:102E200012285730A20212285754A202122857B271
:102E3000A202122857F6A20212285712A302122841
:102E40005789A302122857C1A3021228570DA402C2
:102E50001228576AA40212285724A50212285708DC
:102E6000A70212285761A70212285791A802122818
:102E700057B7A80212285740AA02122857BCAD0221
:102E80001228578EAF0212285757B1021228570442
:102E9000B2021228576FB3021228570EB40212283A
:102EA000575BB402122857C5B402122857D4B40293
:102EB0001228575BB70212285789B8021228571BED
:102EC000BA0212285788BA0212285767BB02122882
:102ED0005780BC02122857FDBD021228571CBE02A3
:102EE00012285771BE0212285776BF021228579E29
:102EF000BF02122857F6BF02122857D5C002122867
:102F00005719C10212285764C102122857CFC102B3
:102F100012285710C30212285774C302122857C22E
:102F2000C40212285722C70212285753C702122878
:102F3000570BC90212285760C90212285772CA02D9
:102F40001228570FCB0212285768CB021228571BA2
:102F5000CC02122857BDCC021228575DCD02122890
:102F60005702CE02122857D580011228571E810120
:102F7000122857968301122857D583011228571F0C
:102F800084011228575D8501122857BC850112283B
:102F900057F085011228572E8601122857A1870164
:102FA000122857648A01122857978B011228572D2F
:102FB0008C011228578495011228571E9601122859
:102FC000570599011228571F9A01122857809A0114
:102FD0001228579C9B01122857E29C01122857C4C3
:102FE0009D01122857A99F01122857BAA101122842
:102FF0005728A201122857FAA201122857B1A3019B
:10300000122857BBA301122857EAA301122857A779
:10301000A4011228577EA50112285745A60112289F
:1030200057E0A6011228574AA70112285768A7019E
:1030300012285791A701122857B3A7011228570346
:10304000AA01122857DBAA011228571FAB01122828
:103050005787AB011228573FAC0112285771AC01BA
:10306000122857B5AC01122857EBAC01122857377C
:10307000AD011228578CAD0112285791AD011228CD
:1030800057E4AD0112285709AE0112285719AF01B4
:1030900012285791AF01122857EDAF011228577926
:1030A000B00112285768B3011228574BB4011228F7
:1030B00057E2B50112285718B801122857C6B801AF
:1030C00012285777B901122857B9BB011228575C4B
:1030D000BC01122857A3BC011228574FBE01122869
:1030E0005763BE011228576DBE0112285795BE01C5
:1030F000122857A1BE01122857C0BE011228570A34
:10310000C1011228573FC10112285749C101122895
:103110005753C101122857AEC1011228570AC201E4
:103120001228571EC3011228577FC301122857CEF9
:10313000C40112285712C501122857BAC501122816
:10314000579DC60112285748C70112285794C80135
:1031500012285792C90112285738CA01122857C895
:10316000CA01122857DFCA0112285716CB011228AC
:103170005720CB011228572ACB0112285735CB01F3
:1031800012285753CB0112285797CB01122857F416
:10319000CB0112285719CC0112285733CC01122821
:1031A00057C5CC01122857EFCD0112285766CE0122
:1031B0001228574DCF0112285783CF01122857F7F5
:1031C000CF0112285771D00112285775D10112284A
:1031D000576BD20112285720D30112285733D4013C
:1031E000122857CFD4011228575CD5011228573A1C
:1031F000D60112285772D601122857CAD6011228B2
:103200005793D701122857B4D7011228573BD8013A
:103210001228575FD80112285781D801122857CA9F
:10322000D801122857E0DA01122857C7DB0112280B
:103230005772DC01122857AFDE01122857FFDE015A
:103240001228573FDF0112285781DF01122857DB70
:10325000DF0112285709E0011228572DE00112283A
:103260005780E001122857AEE001122857E7E0012D
:1032700012285746E101122857B3E10112285702DC
:10328000E30112285725E5011228578EE50112287F
:1032900057B7E50112285742E601122857AEE6015A
:1032A000122857F9E6011228571DE7011228574145
:1032B000E7011228579DE701122857B8E7011228A5
:1032C0005771E801122857ABE80112285728E30488
:1032D00012285760E30412285781E304122857C3C9
:1032E000E30412285729E40412285733E40412286F
:1032F0005743E40412285778E404122857C1E7041E
:103300001228576BE9041228576BEB041228574E0A
:10331000C60312285794C60312285774C7031228ED
:103320005776C80312285779C90312285705CB03CB
:1033300012285763CB0312285720CC031228573E7C
:10334000CD03122857AFCD03122857EBCD03122817
:103350005739CE0312285743CE0312285787CE037E
:10336000122857E3CE031228577ECF03122857FBAB
:10337000CF03122857CAD00312285763D10312284B
:103380005783D103122857B9D103122857EAD10322
:10339000122857ABD203122857BBD2031228570F5B
:1033A000D3031228572AD3031228573CD3031228D9
:1033B0005745D3031228579FD303122857FBD30333
:1033C00012285747D40312285762D4031228579360
:1033D000D403122857B0D403122857BCD4031228A0
:1033E0005730D60312285749D603122857B0D603B0
:1033F000122857C3D603122857D1D603122857854F
:10340000D70312285769D8031228576FD9031228F7
:1034100057F9D90312285703DA0312285770DA0331
:1034200012285787DA03122857B9DA03122857F2FD
:10343000DA031228571CDB031228577DDB031228FE
:10344000579DDB03122857BBDB0312285701DC030F
:1034500012285727DD0312285774DD03122857A3BB
:10346000DD0312285719DE0312285741DE03122804
:10347000577ADE0312285788DE03122857E0DE034E
:103480001228572FDF031228576EDF031228579E8A
:10349000DF03122857CADF03122857D5DF0312288B
:1034A00057F3DF03122857B5E003122857BFE00394
:1034B000122857FAE00312285710E103122857196F
:1034C000E1031228576EE10312285782E103122804
:1034D0005790E203122857A3E203122857BAE203D7
:1034E000122857CFE20312285771E303122857F42A
:1034F000E303122857B2E403122857BDE40312284D
:1035000057E9E50312285705E60312285757E60343
:1035100012285796E603122857ABE6031228570DD8
:10352000E7031228579CE703122857E7E7031228FE
:103530005738EA03122857B6EA031228572BEB0331
:103540001228574DED0312285765ED0312285768CE
:10355000ED0312285774ED0312285788ED03122843
:103560005790ED03122857C3ED0312285773EE034B
:10357000122857E9EE031228575CEF031228571060
:10358000F003122857C5F003122857E4F00312285D
:103590005784F10312285790F103122857BBF10307
:1035A000122857BEF103122857EDF10312285702D3
:1035B000F2031228576CF20312285794F3031228CF
:1035C000576CF403122857F7F40312285710F60328
:1035D000122857CDF60312285706F703122857373B
:1035E000F703122857F5F70312285725F803122876
:1035F0005700F90312285799F90312285724FA03A0
:10360000122857D5FA0312285758FB031228578A55
:10361000FB03122857CBFB0312285700FC03122888
:103620005776CE04122857DBCE0412285718CF0441
:1036300012285767CF041228577DD10412285760EB
:10364000D30412285707D7041228579FD7041228EB
:1036500057DAD704122857FCD7041228575FD8042A
:1036600012285793D804122857BBD804122857DEC3
:10367000D80412285715D90412285768D9041228DB
:1036800057B4D9041228570EB7041228578CB70420
:10369000122857C2B7041228572EB804122857A16F
:1036A000B904122857BDB90412285702BA041228C7
:1036B0005790BA04122857E9BA0412285716BC04C6
:1036C00012285728BD0412285785BD04122857F127
:1036D000BD0412285752BE0412285793BE04122864
:1036E0005740BF0412285752C0041228577DC00407
:1036F000122857C8C0041228570FC104122857A116
:10370000C1041228575CC204122857E3B6051228D8
:1037100057F4B60512285745B7051228578AB7053A
:1037200012285739B80512285773B805122857E2DE
:10373000A90412285777AA0412285725AB04122887
:1037400057B0AB0412285790AE041228573FB0046C
:10375000122857F6B0041228574BB1041228572CE0
:10376000B404122857C4B5041228574EDC05122899
:103770005776DC051228576DDD05122857D69305BC
:103780001228575B9405122857729405122857E7A0
:103790009405122857479505122857709505122849
:1037A00057ED9505122857899605122857F096056A
:1037B0001228575897051228577F9705122857B88F
:1037C0009705122857D69705122857FF97051228F4
:1037D000572D9805122857739805122857D9980520
:1037E000122857EB73001228579A7400122857BA00
:1037F0007400122857DA7400122857EE7400122849
:10380000574A75001228577A7500122857FB760020
:10381000122857A177001228577F7800122857D016
:103820007800122857147900122857577900122867
:1038300057C47900122857E57900122857717A0089
:10384000122857247C00122857987C0012285746CB
:103850007E00122857207F00122857667F0012280A
:1038600057C07F0012285773D4051228577DD405FE
:103870001228579ED405122857D3C204122857F392
:10388000C4041228572EC604122857FBC704122856
:103890005746C80412285713C90412285754C9049C
:1038A00012285784C90412285745CA04122857B849
:1038B000CA04122857BACA04122857BCCA041228CC
:1038C000579F9F03122857DBCA04122857DDCA04EA
:1038D000122857F6CA0412285743CB04122857B6A9
:1038E000CB04122857ECCB0412285765CC041228BD
:1038F000577CCD04122857008004122857268004D4
:10390000122857788104122857A3810412285714CB
:103910008204122857388204122857588204122829
:103920005757A403122857CC8204122857EF830458
:1039300012285725840412285754840412285796B5
:1039400084041228574A85041228576A85041228CD
:1039500057BF860412285741870412285738880415
:10396000122857088904122857788904122857CA40
:103970008904122857FC89041228575E8A041228E9
:1039800057C98A04122857138B04122857468C04EF
:103990001228577B8C04122857DB8C041228579866
:1039A0008D04122857C08D041228575F8F041228E7
:1039B00057CD8F041228570090041228573C9004CA
:1039C000122857559004122857F59004122857C210
:1039D00091041228576C92041228570D9304122850
:1039E00057AE9304122857319404122857CC9404EC
:1039F0001228579C8D05122857E88D051228575616
:103A00008E05122857778E051228578E8E0512289C
:103A1000573E8F05122857478F051228579A8F0552
:103A2000122857C38F051228572A9005122857BB12
:103A30009005122857FD9005122857479105122826
:103A400057A69105122857D291051228576392055F
:103A5000122857A29205122857E1920512285716EC
:103A600093051228572893051228573A93051228D0
:103A7000576D9305122857AD9305122857F9AD05D8
:103A8000122857CCAE05122857E6AE05122857F774
:103A9000AE051228570CB1051228572BB105122874
:103AA00057B9D605122857EED60512285737D7052D
:103AB00012285787D805122857949504122857D3EF
:103AC00096041228570F9704122857CE98041228EC
:103AD00057F798041228578A9B04122857CE9B0444
:103AE000122857579D04122857EF9D041228575744
:103AF0009E04122857F89E041228573A9F04122851
:103B0000577A9F0412285705A10412285775A2045A
:103B10001228579AA404122857C8A404122857EF51
:103B2000A404122857F8A40412285753A5041228F5
:103B300057E6A50412285704A90412285785A9049A
:103B40001228578AE605122857A0E605122857AA18
:103B5000E605122857FAE6051228575EFC031228DC
:103B60005771FC031228570EFD031228574AFD0314
:103B700012285761FD0312285786FD03122857C8E3
:103B8000FD03122857F9FD0312285734FE031228AB
:103B900057AEFF03122857EFFF0312285764E105C1
:103BA000122857B9E10512285712E2051228573B8F
:103BB000E5051228578EE505122857D0E50512288D
:103BC00057E0E505122857F6E7021228574BE8029E
:103BD000122857CDE802122857D0E9021228575E62
:103BE000EA0212285730EB0212285745EB0212283E
:103BF000578FEB02122857DEEB0212285727EC02F0
:103C00001228573AEC021228578FEC02122857E874
:103C1000EC02122857E8EE02122857E9EF021228A8
:103C20005724F0021228576AF00212285777F2023E
:103C300012285707F30212285794F302122857A3A9
:103C4000F302122857B6F30212285705F40212287D
:103C5000571BF40212285732F40212285761F4025B
:103C600012285773F40212285711F5021228571C14
:103C7000F502122857A8F50212285702F602122858
:103C8000575DF60212285782F7021228579BF70257
:103C900012285729FA0212285755FA02122857D724
:103CA000FA021228574FFB0212285772FB02122801
:103CB00057AEFB021228570DFC02122857DDFC02FA
:103CC00012285711FD021228571BFD021228571EF9
:103CD000FD021228572EFD02122857ABFD021228B2
:103CE00057D3FD02122857F5FD0212285721FE0274
:103CF0001228575CFE021228576BFE0212285776D4
:103D0000FE02122857B7FE02122857CAFE021228D6
:103D100057F1FE0212285785E30512285796E3054E
:103D20001228571EE4051228570080051228574F05
:103D30008005122857F18105122857AD83051228F6
:103D400057F58305122857DD84051228570E86057E
:103D50001228573086051228578C860512285710CE
:103D60008705122857144D00122857424D0012287B
:103D7000578D4E00122857D44E00122857264F0058
:103D8000122857A24F001228570B500012285757DD
:103D90005000122857D950001228577F510012287E
:103DA00057075200122857495200122857865600CA
:103DB00012285709580012285748580012285799B6
:103DC0005800122857BF5B001228574A5C0012287F
:103DD00057215E00122857635F0012285781600048
:103DE000122857F36000122857BF61001228572588
:103DF0006200122857396200122857ED620012281B
:103E000057226400122857606600122857E06800A5
:103E1000122857956900122857B16A0012285708CE
:103E20006E00122857186E00122857796F0012285A
:103E300057057000122857377100122857C97100B2
:103E4000122857C672001228575373001228574E73
:103E5000CE0212285704CF0212285776CF0212281A
:103E60005785CF02122857FFCF021228576ED00273
:103E700012285775D1021228579ED1021228573E98
:103E8000D2021228578CD20212285703D3021228CA
:103E900057F5D502122857CAD60212285737D7022B
:103EA000122857B7D8021228576BD902122857196F
:103EB000DA0212285774DA02122857DFDA021228BF
:103EC00057DFDB02122857C7DC021228570BDD022E
:103ED00012285738DD0212285760DD021228579544
:103EE000DD021228571EDE021228577CDF0212283C
:103EF0005749E10212285760E2021228579DE30257
:103F0000122857B0E40212285749E502122857BB7D
:103F1000E50212285783E602122857F5E801122815
:103F20005774E901122857D9E9011228572DEA01DF
:103F30001228576AEA0112285707EB011228574145
:103F4000EC011228578CEC01122857CCEC011228F6
:103F5000571CED0112285792EE0112285745EF0128
:103F60001228577FEF01122857B0F001122857CCC2
:103F7000F00112285719F101122857E3F101122814
:103F80005711F2011228573FF2011228579AF201F5
:103F9000122857C1F20112285772F30112285786CE
:103FA000F3011228579DF301122857C7F301122875
:103FB00057E1F30112285701F40112285727F401A1
:103FC0001228573EF4011228573CF501122857FEDB
:103FD000F501122857D5F60112285736F701122895
:103FE000575BF70112285786F701122857BBF701D4
:103FF0001228571EF80112285789F8011228573F36
:10400000F9011228576AFA0112285744FB011228B5
:10401000570FFC0112285768FC0112285780FC0139
:1040200012285776FD0112285731FE011228571821
:10403000CA0512285753CA051228570DCB05122856
:104040005773CB05122857E4CB0512285778CC05B7
:104050001228575EC305122857C0C40512285721DD
:10406000FF0212285732FF02122857D2FF021228ED
:1040700057ED7F00122857ECFF0212285723E7055F
:1040800012285733E70512285748E7051228579991
:10409000E70512285783E20512285708E30512287E
:1040A000576CE3051228573AE8051228573DE805F2
:1040B000122857D47F00122857E47F00122857E7B0
:1040C0007F00122857EA7F00122857F87F00122835
:1040D00057EAD8051228570CD9051228575CDA057B
:1040E000122857E0DA0512285711E8051228571A46
:1040F000E80512285723E80512285731E805122849
:1041000057909905122857FC9905122857C39A050C
:10411000122857CD9B05122857AF9D051228570A24
:104120009E051228575F9E05122857709E0512287B
:1041300057829E05122857EC9E05122857009F05AE
:104140001228570B9F05122857199F051228572B25
:104150009F051228573EA90512285793A905122832
:10416000578FAB05122857C1AB05122857E3AB0593
:10417000122857FCAB0512285715AC051228571FFB
:10418000AD05122857BAAD05122857E3DA051228F3
:104190005707DB0512285720DB0512285753DB058C
:1041A00012285784DB05122857B2DB05122857BCAA
:1041B000DB051228571EDC051228572DDC051228B6
:1041C0005737DC0512285744DC0512285718CD054F
:1041D0001228573ECD051228577BCD051228578A45
:1041E000CD05122857A9CD0512285711CE05122842
:1041F000571ACE0512285779CE051228579DCE059D
:104200001228575CCF0512285769CF051228577A14
:10421000CF05122857A8E705122857C5E705122829
:10422000573F9F05122857859F05122857F2A00572
:10423000122857FFA00512285712A105122857313E
:10424000A10512285747A1051228575BA10512287E
:1042500057D0A10512285735A205122857BDA2052F
:1042600012285746A3051228571BA4051228572BBE
:10427000A4051228573AA405122857F1E50512287B
:104280005715E6051228573DE60512285765E6053D
:10429000122857A8CF05122857CFCF05122857F05C
:1042A000CF0512285755D0051228570ED2051228CF
:1042B0005727D20512285733D20512285747D2055F
:1042C00012285765D2051228576FD2051228577940
:1042D000D2051228578CD205122857DFD205122892
:1042E0005718D30512285747D30512285795D305D9
:1042F000122857E4D305122857FFD305122857096F
:10430000D4051228571AD40512285760D40512284C
:10431000579EFF04122857EFFF04122857ECD904C8
:1043200012285716DA0412285732DA041228574591
:10433000DA041228575BDA04122857B8DA04122874
:1043400057EBDA0412285727DF041228574DE004F0
:1043500012285780E004122857CCE004122857F89E
:10436000E10412285720E20412285735E2041228EB
:104370005745E20412285789E204122857EAE2045A
:10438000122857FAE20412285731E0051228574C38
:10439000E00512285775E0051228578FE00512280E
:1043A00057B4E005122857D3E005122857EBE00573
:1043B00012285719E10512285733E10512285777BB
:1043C000E405122857CDE40512285798C60512288F
:1043D000579FC605122857ABC705122857DBC705DC
:1043E00012285701C80512285724C8051228574615
:1043F000C80512285780C805122857E6C805122894
:10440000571FC9051228576BC90512285798C905A7
:10441000122857B8C9051228579EDD05122857C023
:10442000DD05122857E7DE05122857EADE051228B7
:1044300057E2FE0112285754FF0112285792FF013C
:10444000122857D3FF01122857B8F404122857BE78
:10445000F40412285704F504122857EDF604122824
:104460005723F7041228577DF7041228575FF804E2
:10447000122857A4F804122857D7F80412285761B5
:10448000F9041228577BF90412285707FB04122855
:104490005705FC041228574EFC041228571DEC0443
:1044A00012285733EC04122857C8EC04122857C4BA
:1044B000ED04122857C8EE041228576DEF04122895
:1044C00057B1EF041228572EF0041228578FF0042A
:1044D0001228579FF004122857C6F00412285718C4
:1044E000F104122857A5F204122857AAF204122840
:1044F00057CCF2041228574B8705122857D187054D
:10450000122857D789051228576D8A0512285798FF
:104510008A05122857648B05122857DE8B0512284E
:10452000577E8C05122857C58C0512285784B20572
:1045300012285796B3051228571DB505122857485B
:10454000B5051228570BB605122857A0B605122834
:104550005728BB051228574EBB051228579DBB058F
:10456000122857B9BB05122857EABB05122857FA7B
:10457000BB0512285707BC0512285714BC05122882
:104580005700BD051228573EBD0512285748BD05E6
:1045900012285755BD0512285760BE0512285772BC
:1045A000BE051228577DBE051228578FBE0512285A
:1045B0005798BE05122857A2BE0512285717BF05E7
:1045C00012285773A405122857B8A805122857D4E3
:1045D000A80512285721BF0512285737BF051228F2
:1045E00057D9C00512285724C1051228578FC10575
:1045F00012285781C205122857B0C205122857C287
:10460000C205122857EDDE0512285787FC04122830
:1046100057E3FC0412285723FD0412285714FE0404
:1046200012285738FE041228574DFE041228576DE1
:10463000FE04122857A4FE04122857B5FE041228BF
:1046400057CCFE04122857F1FE041228577BFF04B2
:10465000122857E4E705122857FC9E03122857C575
:104660009C03122857539C031228570B9C031228B3
:1046700057569A03122857D69903122857BC990304
:104680001228578B9903122857729903122857D072
:104690009803122857A298031228571E980312282D
:1046A00057DE9603122857439603122857A6950300
:1046B0001228579C9403122857499403122857171D
:1046C00094031228575493031228577F91031228FA
:1046D00057109103122857E29003122857DF9003D6
:1046E000122857A5A303122857E3A103122857AF96
:1046F000A1031228577CA10312285767A10312288F
:1047000057CC90031228577590031228575C9003DA
:10471000122857358F0312285750A103122857FF2C
:104720008E03122857858E03122857508E031228A5
:1047300057F18D0312285740A103122857A2820473
:10474000122857C08D03122857888A031228574809
:104750008A031228573C8A031228579C890312287F
:1047600057DC88031228574B8603122857DC830333
:104770001228579A83031228576E82031228572350
:1047800082031228575F81031228573281031228AF
:10479000576A80031228573A8003122857F5FF0101
:1047A00012285700800312285718A003122857BE5A
:1047B000CA0400000080FBE4738F00010024088716
:1047C000000100230824000200F21325000200F477
:1047D0001326000200F61327000200F81328000138
:1047E00000FA1329000100FB1384000400FC138667
:1047F00000010000142A00010001142B0001000236
:10480000142C00010006142D0008000E082E0001D3
:104810000007142F000100081430000100091431B2
:104820000001000A143200010016083300010017CD
:1048300008340001000B143600010018083800018C
:10484000000C1439000100051483000200161463E3
:104850000001002208640001000314650001000447
:10486000146D00010015146E0002000C08430001D5
:10487000000D14440002000E1445000100101446FF
:104880000002001114470008001A08480001001334
:10489000144B0001001414040001001814A10001BD
:1048A000001A143700010019148800010025083C83
:1048B0000001001908000000000000000136360168
:1048C00001000102010001030100010401060605C7
:1048D000020000070100340801000F090401010D66
:1048E0000100FF0E08000017020000190100FF1A66
:1048F0000100011B0100FE1C0100081D0200001F39
:1049000001000120010001210200002301000F2409
:104910000200002601000127010008280200FF2AEA
:104920000100072B0102402C0100002D0100012E87
:104930000100012F0100FF30010B1C310800003A7B
:104940000100083B01000F2F01000003007100303F
:10495000016000110070003102200350048000103B
:1049600000610000001400630073007200620043E5
:104970000000001300060000000000040012000008
:104980000000000000000004000400370037003C75
:104990000244000000000000000000650000003537
:1049A0000081000000050000008300000001037189
:1049B00003010301030103010301032203020301B5
:1049C00003100300030003000300030003000300BF
:1049D000034203000324030603000300030403123D
:1049E0000325032303250323030403040300030017
:1049F00003000344030003000323030003650321B2
:104A000000350381030003050300030003000301D5
:104A100001710101010101110101013101010101D6
:104A2000018001100161013B0014006301730172F8
:104A300001620143010001130106013D013500043B
:104A40000112010001000100010001040104013311
:104A50000133013C014401320136000001000165CF
:104A6000010001350081010001050182018301007F
:104A700001030471040204600411047004020402BE
:104A800004010402041004610400041404630473A8
:104A900004720462044304000413040604000400C6
:104AA000040404120400040004000400045104641B
:104AB0000000040004000444040004000400040096
:104AC00004650400043504810464000504000483C3
:104AD000040004030271023001600211027002013D
:104AE00002020202028002100261023A00410063E7
:104AF00002730272026202430200021302380000D3
:104B0000020002040212020002000200020002047B
:104B1000020402370037003C024402000239000060
:104B200002000265020002350281020002050282D3
:104B300002830200020000883E1300FE3D0100884F
:104B40003E0200863D03008C3D0400923D05009826
:104B50003D0600A43D3000C23D3100BC3D3200CED8
:104B60003D3300D43D3500DA3D3400E03D3600E60B
:104B70003D1100F23D1400F83D1500B63DFFFF0069
:104B80000036000100060000000F000000000000D9
:104B90000000000000000003FFFF00000403FFFF0F
:104BA0000000FFFF0FF4010005C404032000010012
:104BB000000B000000000000000003010F01B82FEF
:104BC00006EE2F08E82F0B063010282F0A1E3002A1
:104BD000BE2F05DC2F07C42F0C9A2F0DAC2FFF0022
:104BE0000003EAF5E5D5D5C5B5A595958585757517
:104BF000656555554545353525251515054A347ADC
:104C00003450345634743468346234803486348C8E
:104C10003498345C3444343E3400160F00000B15D5
:104C20000B020002220F320000065A6967426565D6
:104C3000416C6C69616E6365303901030507090BCE
:104C40000D0F00020406080A0C0D00000000000011
:104C500000008967452301EFCDAB463558355E35F9
:104C6000143464350E341A34B235D035D635B835EF
:104C7000C435BE354E33483384338A337E333633BE
:104C8000303017181921301B1D1F3000011916185C
:104C9000161615230300303016181920231A1C1E6F
:104CA000300C0E020B040B0A0708000F00034948E2
:104CB000424D181725050200383C3E363B3B352B4C
:104CC000432C6E349234CA359E34A4349A356A35F6
:104CD00070357C3576350204020101010109025A62
:104CE000336033543390336633783300BE040A0E96
:104CF0000004007F00E8030000000028000C001002
:104D00000C0A03080900040009FF1E1E0301040C1D
:104D100010080F05C082C083900788E4F0A3F07CE0
:104D2000D57D047A027B07124440122D3690082369
:104D3000E070047900800279011247A0122D3C0234
:104D4000623274F512239774F5122923E9FF8A0859
:104D5000EBFEEF705E74026508703E90071B7408EE
:104D6000F0750A00780A1228AFECF50A780A1228C2
:104D7000AFEEF50A780A1228AF9013FC1226D390F2
:104D80001400E0F97C1A7D08901416125E0E122DA4
:104D90006074071228D8024E64740165086003022B
:104DA0004E6990071B7408F07B00EEFAF9122D9CF7
:104DB000024E6474016F600874026F6003024E69F2
:104DC000EA600674036508705490071B7402124E63
:104DD00083122AFC122D4EE9F8900720E0A2E3404E
:104DE00019E8701690078CE004F06404700C908051
:104DF00094122AFC9013FC122B0874036508706649
:104E000090078DE0F9740129F0E9C39405405790AB
:104E10008094122AFC9013FC122B088049740165BF
:104E200008704674016F90071B702E740AF07401AD
:104E3000122B1FE4F07402122B1F7403F090808475
:104E4000122AFC7404122B1F122B087408122B1F39
:104E5000E4125C3A122FCA8020740A124E83122A7E
:104E6000FC122D84E9F8E860107CE87D037A017B70
:104E700000900718E0F9123B70740B1228D87F03DA
:104E80000225C5F0901400E0F99013FC2274F6128C
:104E90002397E9FFEAFE7AD1F9123A2CEA4B702AFD
:104EA0007A027B00123A14EA4B700E7A107B009063
:104EB0000718E0F9123A5080188A828B8374D1F077
:104EC000EFA3F0EEF9123A208007EF8A828B83A3DA
:104ED000F002505274F7122397890890067BE0FE87
:104EE000A3E080248E828F83A3A3125B4960128E7D
:104EF000828F83A3A3125653125B49FAA908123D6D
:104F00006E8E828F83127303FFEE4F70D7900692DE
:104F1000E0FAA908123D6E1230DE9006EA125842FD
:104F20001230D802712774F1122397890A8C087401
:104F30000F122B1F125DFA7411122B1F12563B75A4
:104F40000900750E00804AE50B124FF3F50CA3E043
:104F5000F50DE50EC333FEE433FFEA2EF582EB3F99
:104F6000F583E0650C7004A3E0650D7019E509C3D5
:104F700033FEE433FFEC2EF582ED3FF583E50CF0D4
:104F8000A3E50DF00509050BE50BC3950840B80531
:104F90000EE50EC3950A5005750B0080EBA90902BA
:104FA000640C74F4122397890B740C122B1F125D7E
:104FB000FA750A008002050AE50AC3950B502F7D99
:104FC0000080010DEDC39C50EDE50AC333FEE433D0
:104FD000FFEA2EF582EB3F125003F509ED124FF375
:104FE00065087004A3E0650970D979018002790031
:104FF000026656C333FEE433FFE82EF582E93FF53F
:1050000083E022F583E0F508A3E02274F6122397EB
:105010001250997003A3E06D701775081E7509078B
:1050200078081228ABEEFA123E8E74021228D8804D
:105030001A75080275098078081228AB8C088D094A
:1050400078081228AB1250C51228D88005740212B5
:1050500028D87F020225C574F61223971250997042
:1050600003A3E06D701775082B75090778081228DF
:10507000ABEEFA123E9474021228D8801A75080317
:1050800075098078081228AB8C088D0978081228D9
:10509000AB1250C51228D880B9EAFEEBFF1250B10E
:1050A000FAA3E0F9EA2400FCE439FD9006EAE06C9A
:1050B00022EE2413F582EF125B9FE0F8A3E0F9885B
:1050C000828983E022EE1270FCEF127250FD7C8028
:1050D0001262DA123EB274042274F612239774FE3E
:1050E000122923EAFEEBFF851882851983E4F0A3D9
:1050F000F0126419FA88828983A3A3E0F975090084
:105100007508006005C394F14005750882804390DE
:1051100006EAE06A7003A3E06B70208518828519A7
:1051200083AA82AB83123654E9F509851882851962
:10513000831268C6701C7508838017900823E0608E
:1051400004640170057508818008E06402700375CD
:10515000088085188285198312563BA908EEFAEF5C
:10516000FB123E9AE509601485188285198312683E
:10517000C6600985188285198312697E02504D74B4
:10518000F2122397EAFEEBFF750A00750B0012512D
:10519000F31230DEEA65087003EB6509701212360F
:1051A00066E914F50A79017A547B0712366C80039C
:1051B000750B801270C4F50C780C1228AF750C5466
:1051C000750D07780C1228AB780A1228AF780812F0
:1051D00028ABE50BF50878081228AF1260E7F582D6
:1051E000EF125F5F7A057B80123EA074071228D809
:1051F000025E1C1270D2125DFE8882898312734097
:10520000F508E439F5092274F6122397E9FE7F00C8
:10521000802F8A828B83125005F9E5082400E43937
:10522000F509EF33F8E433F9EC28F582ED39F5832D
:10523000E508F0A3E509F0EA24020A0AEB3400FBD2
:105240000FEFC39E40CC02505274E812239774FBB8
:105250001229238A168B17851882851983E4F07426
:1052600003122B1FE4F0A3F004122B1FE4F0126FC3
:1052700036F50AA3E0F50B850A82F58312733CFE2E
:10528000E439FF850A82850B83A3A3E0FA850A82AD
:10529000850B83A3A3A3E0F9EAF508E439F509E552
:1052A0000A2404F50AE50B3400F50BEEFAEFFB12C5
:1052B0003180E96401702C126D741228AFE4F50896
:1052C000F50978081228AB78081228AF9006EA1280
:1052D00026D775088078081228AF12565B1228D896
:1052E000025629EEFAEFFB123180E9700C9006EAC3
:1052F000E06E7003A3E06F70BE1256418814602EFA
:10530000C333FAE433FB123AAA7403122B1F125868
:10531000427403122B1F1268C660137403122B1FF2
:10532000125633A914123D9E8A0A8B0B8003751402
:1053300000125641880F602AC333FAE433FB123A55
:10534000AA7401122B1F1258427401122B1F1268EB
:10535000C6600F7401122B1F125633A90F123D9E07
:105360008003750F0090067B805D850A82850B8324
:10537000A3A3A3A3A3A3A3A3E4F0A3F0AA0AAB0B44
:10538000851282851383A3A3125651125B49F91229
:105390003A20851082851183E0C0E0851882851946
:1053A00083E0F8745428F58274071272FFD0E0127B
:1053B000665B04F0E515A2E05007AA10AB11123AA3
:1053C000B0851282851383E0F512A3E0F513E51290
:1053D000451370030255A1851282851383A3A3127E
:1053E0005B4960DD851282851383A3A3A3A3A3A3D6
:1053F000A3A3E0A2E050CA851282851383A3A3A3CE
:10540000A31268C6851282851383A3A3601F125B53
:1054100049FA7901851282851383A3A3A3A3125BA2
:105420004E1247B78A108B11751501800F12565115
:10543000A3A3E0F510A3E0F511751500E5104511E3
:1054400070030253B4851082851183A3E065087050
:1054500004A3E0650960030253B4851082851183BB
:10546000A3A3A3A3A3A3A31226D785108285118388
:10547000A3A3A3A3A3A3E0FC7405122B1F125E0E2B
:10548000A914123D8074021228D8E9703C8510825C
:10549000851183A3A3A3A3A3A3A3A3A3A31226D786
:1054A000851082851183A3A3A3A3A3A3A3A3A3E031
:1054B000FC7403122B1F125E0EA90F123D807402A2
:1054C0001228D8E970030253B4E50F2514C333241E
:1054D0000AFA7B00123A148A0A8B0BEA450B700316
:1054E0000253928A828B8374D2F085168285178349
:1054F000A3A3125DFA8A828B83125C428A828B8319
:10550000A3A3A3A3E514127346E50FF0E5146038D6
:10551000EA2405FAEB3400FBE50A240AF8E50B342B
:1055200000F98A828B83125C447403122B1F12567B
:10553000791228A7E514C333FCE433FD8A828B83F8
:10554000126A7A1228D8800D8A828B83A3A3A3A320
:10555000A3E4F0A3F0E50F700302536AE514C3332C
:10556000F8E433F9E50A28F8E50B39F9E8240AFAF2
:10557000E93400FB850A82850B83A3A3A3A3A3A31D
:10558000A3A31258427401122B1F1256791228A796
:10559000E50FC333FCE433FD1271A01228D8025387
:1055A0007C851882851983E06027126D741228AFFC
:1055B00075085475090778081228AB7403122B1F5D
:1055C000126D7E1228AF9006EA1226D77508008069
:1055D00029EEFAEFFB123180E9702A126D7412285D
:1055E000AF75085475090778081228AB750800785C
:1055F000081228AF9006EA1226D778081228AF12B0
:10560000565B1228D87403122B1F1268C6600874E8
:1056100003122B1F12697E7401122B1F1268C660C1
:10562000087401122B1F12697E74051228D87F108E
:105630000225C512563BAA0AAB0B22E0FCA3E0FDF3
:1056400022850A82850B83E0F8A385820A85830B75
:1056500022E0F8A3E0F5838882A322E5162402FC69
:10566000E5173400FDE51612607CE5171262E77A53
:10567000067B80123EA0740722E0F50CA3E0F50D36
:10568000750E00780C2274F412239774F4122923F7
:105690008A088B09ECFEEDFF740B122B1F7403F0CC
:1056A000122B1FAA82AB831244401230D8EAFCEBC3
:1056B000FD7403122B1FAA82AB8312443AE9600ADD
:1056C0001257D36010E06401600B8518828519833E
:1056D000748402578B8E828F83A3A3A3A3A3A3A357
:1056E000A3E06017C394F150121257D37018EE2440
:1056F000141270C76005C394F1400B851882851998
:1057000083748202578BE508240CF582E509127038
:10571000CA64217002A3E0704F85188285198374D2
:105720008CF01257C61228AF1257E212472E74019E
:105730001228D8E97056851882851983E4F0123C46
:10574000F01257D370467401122B1FAC82AD831236
:105750007278FB12471CE970337D007C00790012DF
:105760007278FB123E5E80241257C61228AF125781
:10577000E212472874011228D8E985188285198316
:105780007007E4F0123CF080037488F01270FAE5C0
:10579000091257CB1228AF7401122B1F85820A857C
:1057A000830B780A1228ABE508240CF582E5091270
:1057B00057D94480F50B780A1228AB12619F122842
:1057C000D8740C026653EE125DEEEF127250F50AB9
:1057D000780A22125894640322125B9BE0F50AA314
:1057E000E022EE240BFCEF3400FD8E828F83A3A316
:1057F000A3A3A3A3A3A3A3125E128E828F83A3A34A
:10580000A3A3A3A3A3A3E0F922C082C08374F312CD
:105810002923851882851983E4F004122B1F12585E
:10582000427403122B1FAA82AB83122C708518823C
:10583000851983AA82AB83122CA6740D1228D80274
:105840006232EAF0A3EBF02274F612239712588426
:10585000126FF7900726E058F508A3E059F509E51F
:10586000084509601C78081228AB9006EA1226D772
:105870001270C4FD7C001262D6123EAC7404122871
:10588000D8025052EAFEEBFF125894F8A3E0F988D0
:10589000828983221270D6E02274EA12239774DB85
:1058A0001229238A148B15751200751300125B439D
:1058B000F50E851882851983AC82AD837A007B0052
:1058C000799C122DAE7A047900122CB8EAF50C8579
:1058D0001882851983E0250CF0F8E50EC398400383
:1058E000025ACBE0C3950EF509C394044003750931
:1058F00003E50975F01AA4FAABF0123AAA8A128BE2
:1059000013EA45137003025ACE750D00AE12AF13A1
:10591000850E080259A0125B22850A82850B83A39B
:10592000A3A3A3E07039850A82850B831268C67031
:1059300012125DE71270BEEE2418F582EF1272FFAC
:10594000E48016125B3AF090055CE014C0E0EE24AF
:1059500018F582EF1272FFD0E0125B8BE4803E906C
:10596000055CE004C0E0EE2418F582EF1272FFD06F
:10597000E0125B83C39403EE4003025A30125DE8E9
:105980001272FF7402125B8364016003025A3D12BB
:105990005B1B1272FFE4F0EE2416125B3D125B57A4
:1059A000E50DC395094003025A61E508C3950C4013
:1059B00003025A46A908122D2A8A0A8B0B05089061
:1059C0000549125B63850A82850B83125DFA125BBF
:1059D00014126FEA125BA4850A82850B83A3A3A32A
:1059E000A3A3A3A3A3A3A3E0C0E0EE2419F582EF31
:1059F0001272FFD0E0F07401122B1FE4126F7112CB
:105A00005DFA7402122B1F125C447401122B1FAA40
:105A100082AB83122C94E96401600302591674046A
:105A2000122B1FAC82AD83EE240A125B340259198B
:105A3000125B3B125B836403700302598FEE2415E3
:105A4000125B3D025996E50CC3950E4005750800A2
:105A50008016E50EC3950CF508800D125B3A125BBB
:105A600057E50DC395095066740E122B1FAC82AD1D
:105A70008385080AAA0A7B007987122DAE0508746F
:105A800018122B1F125B63125B22EE2412F8EF3404
:105A900000F9740E122B1F125E0E88828983EAF0C1
:105AA000A3EB125B8B7403125BA4741D122B1FE01B
:105AB000C0E0EE2419F582EF1272FFD0E01268D632
:105AC0007099125DE71272FFE48093750900750A00
:105AD00000780A1228AF78121228AB78091228AF82
:105AE000E50EF50978091228AF7405122B1FE0FDA9
:105AF0007C00126067123EE874051228D8E5124552
:105B0000136007AA12AB13123AB074251228D87F7B
:105B10000E0225C5EE2412F582EF22EE2415F58241
:105B2000EF227C087D0079FFEE240AFAEF3400FBB7
:105B30001239FC22FAEF125B7C22EE2414125B98DD
:105B4000740122127255125B9B125B4EE022E0F848
:105B5000A3E0F583888222F0EE241AFEEF3400FFE2
:105B6000050D22125DFE8E828F83E8F0A3E9F07CA2
:105B70005D7D05EE2402FAEF125B7C223400FB12FD
:105B800044402212728BA3A3A3E022F0EE2415124C
:105B90005BB42416125B9822F582EF125B9F2234CD
:105BA00000F58322F0EE2417125BB42418125B98E0
:105BB00074FFF022F582EF125B9F7402F0EE227404
:105BC000F612239774F91229238A088B091273BEDF
:105BD000851882851983122B08125C32C0E0740488
:105BE000122B1FD0E01271BEE0FA7405122B1F7445
:105BF00001F07406122B1F7401F09006F4F0900669
:105C0000FD041272A2A3125DFA9006F5125C44EA3A
:105C10009006FEF0E50812607CE5091270CA900655
:105C2000F3125C3A122D54E96003122D5A740702E4
:105C3000504FEE2404FE126F2C22126411AA82AB84
:105C40008322A3A3E8F0A3E9F02274F2122397744D
:105C5000FF1229237508007E007F00122FFA8A0A9E
:105C60008B0B125DDB80050508125DF3E84970F7C8
:105C7000900823E0600764016003025D58125DDB59
:105C80008003125DF3E849603788828983125E0ED3
:105C9000900549E06A7003A3E06B600E125DEDE9C8
:105CA0001272FF125E0EEA4B70D888828983125DF1
:105CB000FA900549E0687003A3E0697003025D583B
:105CC0007A167B00123AAA8A0C8B0DAE0CAF0DEE41
:105CD0004F7003025D58900549125DFA8E828F83E2
:105CE000125C4490053EE08E828F83A3A3F01231B4
:105CF00068E98E828F83A3A3A3A3A3F0901401E08D
:105D00008E828F83A3A3A3A3A3A3F07C5D7D05EE66
:105D1000240B125B34851882851983AA82AB8379A0
:105D20004112455A851882851983E060089006EA79
:105D3000125DFA800478FE79FF8E828F83A3A3A37D
:105D4000A3A3125C42125DE71272FFE50AF0A3E51D
:105D50000BF08E0A8F0B05089006FEE0F8E508C3ED
:105D60009850047A008022E508C398FAC39406404C
:105D7000027A057900800DE50A125DEEE50B1257F7
:105D8000D9F50B09E9C39840EE7509007809122886
:105D9000AF780A1228ABEAF50978091228AF900605
:105DA000FEE0F50978091228AFAD087C007AF57B92
:105DB000069006F3E0F9123EE274051228D8900826
:105DC00023E060046401700BEE4F6007EEFAEFFB16
:105DD000123AB0122D5A74010251ED122FFA8A0CA8
:105DE0008B0DA80CA90D22EE125DEEEF22E8241413
:105DF000F58222125DEDE9125B9B125DFE22E0F856
:105E0000A3E0F922AC82AD83851882851983125EE6
:105E10001222E0FAA3E0FB22EEFAEFFB7F06022556
:105E2000C574EC12239774FF1229238A0A8B0B7E08
:105E3000008E0E8E0F125B43FF851882851983AC8E
:105E400082AD837A007B00799D122DAE8518828504
:105E50001983E0F8EFC3984003025EFDE0C39FFEA4
:105E6000C3940B40027E0AEE75F007A4FAABF01261
:105E70003AAA8A088B098A0E8B0FEA450F607C7557
:105E80000C008017850882850983A3A3A3A3A374AC
:105E900003F0E5082407125F56050CE50CC39E507D
:105EA0005CAC08AD09850C108F12E5102512FAE4E0
:105EB0003400FB798B122DAE850882850983A3A35C
:105EC000A3A3A3E014600814601314601F80B585B9
:105ED0000882850983A3A3A3A3A3E480B4850882D1
:105EE000850983A3A3A3A3A3740180A58508828544
:105EF0000983A3A3A3A3A3740280967E0075080060
:105F000078081228AF780E1228ABEEF50878081240
:105F100028AFEFF50878081228AF7405122B1FE0A0
:105F2000FD7C00E50A2402FAE50B3400FBE50A12C9
:105F3000607CE50B125F5F123EEE74051228D8E517
:105F40000E450F6007AA0EAB0F123AB0740112286B
:105F5000D87F0C0225C5F508E5093400F5092212A1
:105F600062E72274EA12239774FE1229238A148BA3
:105F700015750A00750B00125B43F50885188285BC
:105F80001983AC82AD837A007B0079A31247228506
:105F9000080C851882851983125DFAC3E50C98E414
:105FA00099507F851882851983E0C3950CFEA3E084
:105FB0009400FFC3EE9404EF940040067E037F003C
:105FC0008004EE4F605CEEFAEFFBEA75F015A4FA80
:105FD000A8F075F015EBA428FB123AAA8A0C8B0DD9
:105FE0008A0A8B0BEA450B6039750900750E00852E
:105FF0000E10C3E5109EE49F502DAC0CAD0D850E28
:1060000012850810E5122510FAE43400FB79A2127B
:106010004722E50C2415F50CE50D3400F50D050EB1
:1060200080CD75098B7E00750C00780C1228AF7836
:106030000A1228ABEEF50C780C1228AF780812285B
:10604000AF7405122B1FE0FDAC09126067123EF41D
:1060500074051228D8E50A450B6007AA0AAB0B1293
:106060003AB07402025B0CE5142402FAE515340020
:10607000FBE51412607CE5151262E722240FF5821D
:106080002274F612239774FF122923EAFEEBFF1203
:1060900070CE125E0E8A828B83A3A3A3A3A3A3A3B5
:1060A000A3E0F9122D78E9851882851983F0750827
:1060B0000078081228AF7401122B1F85820885838F
:1060C0000978081228AB75083575098078081228F8
:1060D000AB1260DC1228D8740102504F79011260B3
:1060E000E7FAEF1261B622EE2402FCEF3400FDEE77
:1060F000240F2274F412239774FA1229238A088B2E
:1061000009126FF2FAEFFB122C76E960131230D805
:10611000EAFCEBFDEEFAEFFB12443AE96401700A87
:106120007401122B1FE4F0A380097401122B1FEEDF
:10613000F0A3EF1268CAA3A3A3A3A3A3E0F8A2E667
:1061400050087403122B1F7401F0E8A2E750087482
:1061500004122B1F7401F07405122B1FE4F00412BB
:106160002B1FAA82AB83122DA2E985188285198381
:10617000F0750A00780A1228AF7401122B1F85826D
:106180000A85830B780A1228AB750A34750B807860
:106190000A1228AB12619F1228D87406026653793E
:1061A00001E5082402FCE5093400FDE508240FFAA6
:1061B000E5091261B6223400FB123E5274052274C6
:1061C000F612239774FF122923125884E0F509A3CD
:1061D000E0F508A909122D66E9851882851983F072
:1061E000900823E0700B740165087005A909123F3F
:1061F000B4EE240B1270C7702975080078081228B5
:10620000AF7401122B1F8582088583097808122834
:10621000AB75083675098078081228AB1260DC125D
:1062200028D80260D7C082C083900823E070031290
:106230003FBAD083D08202285474F412239774EFAB
:10624000122923EAFEEBFF1251F39006EAE06508FB
:106250007004A3E0650970588518828519838582CA
:106260000A85830B780A1228AB750A11750B007822
:106270000A1228AB7C007D007A817B00123B3474CB
:10628000041228D8E97029750A00780A1228AF7418
:1062900001122B1F85820A85830B780A1228ABAC6A
:1062A00008AD091262D6123EA674031228D88021C6
:1062B000750A11750B80780A1228AB78081228AB82
:1062C0001270C4FD7C841262D6123EB2740412288D
:1062D000D874110266531262DA22EE2402FAEF3405
:1062E00000FBEE12607CEF125B9FE0F92274F1126A
:1062F000239774EB122923EAFEEBFF1264192400A2
:10630000F508E43BF5099006EAE065087004A3E0AF
:10631000650960030263B588828983A3A3E09410B2
:10632000500F88828983A3A3E08518828519838012
:10633000088518828519837410F0E0C0E074041297
:106340002B1FD0E012710AA3A3A982AA83890C8A09
:106350000D750E00780C1228A77407122B1FE0FC95
:106360007D007408122B1FAA82AB831271A0122821
:10637000D87404122B1F85820A85830B780A122891
:10638000AB750A11750B00780A1228AB7C007D00F2
:106390007A817B00123B2E74041228D87404122BCD
:1063A0001FE090071E6005E0D2E48003E0C2E41223
:1063B0006411E480088518828519837484F0E0C034
:1063C000E07401122B1FD0E0F07402122B1FE508BD
:1063D000F07403122B1FE508F0EE1270FCEF126D43
:1063E0007B1228AF7402122B1F85820885830978DF
:1063F000081228AB75081475098078081228AB7943
:10640000031260DE1228D874151228D87F070225DF
:10641000C5F0851882851983221250B1FCA3E0FBD8
:10642000EC2274F412239774E01229238A088B0952
:10643000851882851983AC82AD83123E4090082373
:10644000E0640270337402122B1FAE82AF831230ED
:10645000D8EEFCEFFD12443AE9601D1230DE8A0AE4
:106460008B0BA80AA90B851882851983E068700335
:10647000A3E06970030266511232A07402122B1F4E
:10648000125E041231AAE9640170030266517418A5
:10649000122B1FAA82AB831230EA7402122B1FAC9C
:1064A00082AD837418122B1FAA82AB8312443AE97F
:1064B00060321230E48A0A8B0BA80AA90B85188275
:1064C000851983E0687003A3E069601885188285E8
:1064D0001983125DFA90053F125C447A3F7B05797F
:1064E0004B124560900823E0600764016003026579
:1064F000771272F7C082C0831230DE8A088B09D00F
:1065000083D082E065087004A3E06509603E7402F0
:10651000122B1FAA82AB83122CE88A088B09A808C9
:10652000A909E849602688828983A3A3A3A3E0641C
:1065300001600D88828983A3A3A3A3E06402700C89
:106540007402122B1FAA82AB83122CF41230DE8A43
:10655000088B09A808A909851882851983E0687045
:1065600003A3E06960117402122B1F125E04122C47
:10657000CAE96003123CF07402122B1F125E04126F
:1065800032827900125E08122EE6740B122B1FE481
:1065900012665BF8A3E0F9740C122B1F125C4474B2
:1065A0000B122B1FAA82AB83122C94E9604B7C0840
:1065B0007D0079007418122B1FAA82AB831239FC5C
:1065C000740E122B1FAC82AD837418122B1FAA827B
:1065D000AB8312443AE960217402122B1FAC82ADE6
:1065E00083740E122B1FAA82AB83122C70740B12B1
:1065F0002B1FAA82AB83122CA67402122B1FAC8213
:10660000AD83740E122B1FAA82AB83122C70740BF5
:10661000122B1FAA82AB83122C9AE96034740C12DD
:106620002B1F125DFA851882851983E0687003A319
:10663000E069601D851882851983125DFA740C1259
:106640002B1F125C44740B122B1FAA82AB83122CDB
:10665000A674201228D87F040225C5126411E022F6
:1066600074F112239774F6122923EAFEEBFF7508E2
:106670000090078A1268C670407A377B00126889DA
:10668000EAF0A3EB126DE660197C377D0079001209
:1066900039FCEEFCEFFD90078A125E0E123E10E907
:1066A000700B85188285198374880267EB126890D5
:1066B0007401F0126D2402687E1268907402F0EE8C
:1066C000FCEFFD126D0A123E10E9700C85188285F0
:1066D00019837488F0750801750A54750B07780AD8
:1066E0001228AB90078AE02429126D581226D79001
:1066F000078AE0242812689A24151268AE2414121E
:1067000068A31228D8E9C0E090078AE02431126D0E
:1067100058D0E0F0126DAA603C126883E024321277
:1067200068CF6025750C54750D07750E00780C1236
:1067300028A7126DAAC333FCE433FD90078AE02436
:1067400032126A761228D8800C85188285198374D3
:1067500088F0750801780A1228AB90078AE02412A5
:10676000126D581226D790078AE0241112689A24D5
:106770002C1268AE242B1268A31228D8E9C0E0902E
:10678000078AE02434126D58D0E0F01270E1602ED8
:10679000126883E024351268CF603F750C54750D84
:1067A00007750E00780C1228A71270E1C333FCE4C1
:1067B00033FD90078AE02435126A761228D8E5085E
:1067C000A2E0401F126DAA70051268B660157B002A
:1067D0007A007900123E1602687E85188285198338
:1067E0007488F08518828519837486F07409122BD9
:1067F0001F74021268CA126DA4122B1F125C448E01
:10680000828F83A3126D7E1228AF7401122B1F8515
:10681000820885830978081228AB750820750980DD
:1068200078081228AB79017406122B1FAC82AD8355
:10683000EEFAEFFB126D401228D8126D90703C7486
:1068400009122B1F7402F0126D9C122B1F126DED9A
:106850001228AF7401122B1F8582088583097808DE
:106860001228AB75082075098078081228AB7901C9
:106870007406122B1F126D321228D8123E0A740AA7
:10688000026409C333FAE433FB123AAA90078A225E
:1068900090078AE0242E126D5C22126DB4FC9007E2
:1068A0008AE02218126DB5F9123D7A740422126939
:1068B0008C90078AE02290078AE0243408080812A6
:1068C0006DB522126D5C126AA9221271BEA322124A
:1068D0006D5CEAF0A3EB127130F8A3E0F9E849220D
:1068E000C082C08390078A1268C6700302697490E0
:1068F000078AE024351268C3600990078AE02435CE
:1069000012698590078AE024321268C360099007F3
:106910008AE0243212698590078AE024121268C343
:10692000600990078AE0241212698590078AE024A2
:10693000151268C3600990078AE0241512698590D2
:10694000078AE024291268C3600990078AE0242995
:1069500012698590078AE0242C1268C360099007A9
:106960008AE0242C12698590078A12697E90078A32
:10697000E4F0A3F0026232F582EF3400F583125E98
:1069800012123AB02212698C123AB022F8126DB982
:10699000FAA3E0FB2274F1122397EAFEEBFF8C08C6
:1069A0008D09750A018C0C8D0D750E00780C12285E
:1069B000A77C177D001271A01228D8125B14126EEA
:1069C000F0125B1B126EFC2411F582E5091270CAED
:1069D000602AEE2412126A81601FE5082412126AEE
:1069E0006A1228A7E5082411126A5F125B15127259
:1069F000FF126A7A1228D88003750A00E508125D32
:106A0000EEE5091270CA6025EE2415126A81604A0B
:106A1000E5082415126A6A1228A7E5082414126AE8
:106A20005F125B1C1272FF126A7A1228D8E50AA262
:106A3000E04022125B141272FF1268C66006EE2458
:106A400012126977125B1B1272FF1268C66006EEA3
:106A50002415126977A90A02640C750A0080D41201
:106A6000724CC333FCE433FDEE2212724CF50CA3DE
:106A7000E0F50D780C2208126D5D125E121271A005
:106A800022F8EF3400F9880C890DE0C333FAE433BF
:106A9000FB123AAA850C82850D83EAF0A3EBF08500
:106AA0000C82850D83126AA922E0F8A3E0F9E84977
:106AB0002274EE12239774ED122923890A8A0E8B11
:106AC0000F750C00750D00750BFF7510FF7511FF2C
:106AD000750800750900851882851983E4126DE632
:106AE00070057900026D007403650A600674026522
:106AF0000A700D90078AE024301270E7650F70E28B
:106B00007C1C7D3E7A007B001247887401650A7008
:106B10000B8518828519837485F08043E50A600629
:106B20007403650A701990078A126D6BF07403651F
:106B30000A7028E50E602885188285198380DA742A
:106B400002650A701AE50E90078A7005126D6B8057
:106B5000C8E0242F126D58740280BEE50A60191235
:106B60006D84701490078AE0243108081270E87070
:106B7000051268B6600214F0126DAA90078A6014BC
:106B8000125005126D462432126DC4241D126D1769
:106B9000242580201268B9602090078AE02417F528
:106BA00008A3E03400126D462435126DC424061289
:106BB0006D17240E1270E7F50B7409122B1F740267
:106BC00012665B6003026C72E50845097003026C93
:106BD00072126D8470047E2280027E218508828577
:106BE0000983126DA2122B1F125C4490078EE0C025
:106BF000E090078AE02430126D58D0E0F074121251
:106C00002B1F7403F0AC0CAD0D740A122B1FAA825B
:106C1000AB83124440850882850983A3E0F50C7894
:106C20000C1228AF780B1228AF740C122B1F858220
:106C30000C85830D780C1228AB78101228ABE50870
:106C40002406F50CE5093400F50D780C1228AB127A
:106C500070FAE509125F5F7409122B1FAC82AD83D5
:106C6000EEFA7B00123EBE74081228D8126D240280
:106C70006CFE126D9C122B1F126DED1228AF740169
:106C8000122B1F85820885830978081228AB7508A6
:106C90002075098078081228AB79017406122B1F21
:106CA000126D321228D8126D90705090078AE0242D
:106CB00019126D58126DA4122B1F125C4490078A92
