:020000040000FA
:10000000021BC6022003FFFFFFFFFF02200BFFFFC2
:10001000FFFFFF022013FFFFFFFFFF02201BFFFF78
:10002000FFFFFF022023FFFFFFFFFF02202BFFFF48
:10003000FFFFFF021305FFFFFFFFFF02203BFFFF53
:10004000FFFFFF022043FFFFFFFFFF02204BFFFFE8
:10005000FFFFFF022053FFFFFFFFFF02205BFFFFB8
:10006000FFFFFF022063FFFFFFFFFF02206BFFFF88
:10007000FFFFFF022073FFFFFFFFFF02207BFFFF58
:10008000FFFFFF022083FFFFFFFFFF02208B002006
:10009000000090200000932000000100000000C834
:1000A00003000000000000000400FFFFFFFF00C28B
:1000B000010000002600FFFFFFFFFFFFFFFF04031A
:1000C00009042403540065007800610073002000D7
:1000D00049006E0073007400720075006D006500C9
:1000E0006E00740073002403540049002000430094
:1000F000430032003500330031002000550053002A
:100100004200200043004400430000035F005F0002
:100110003000580000000000000000000000000057
:1001200000000000000000000000000000000000CF
:10013000000000003031323334353637383941422F
:10014000434445467F18D418D418D418D418DC1862
:1001500074F71217BA1207A3700FA3A3E0700AA3D3
:10016000E064027002A3E060089005A47404020237
:10017000119005B6E02480600814602D14603A8068
:10018000E89005BAE070E29005B0E0600478018084
:100190000278009005BEE8F0A3E4F09005AFE060BF
:1001A000559005BEE04402804990059DE0640470CE
:1001B000B89005BEE4F0A3803C9005BAE0547FF50A
:1001C0000890059DE0640470A0E508C3940650996A
:1001D0009005BAE05480600C1202FBE06403700CDE
:1001E0007801800A1202EEE0640360F47800900562
:1001F000BEE8F0A3E4F09005A4E064046014900568
:10020000B174BEF0A37405F0A3E4F0A37402120865
:1002100002F07F02021A2674F71217BAE9FE90055F
:10022000BC1207A6701090059DE064046010900554
:10023000BA1207A660089005A474040202E89005AB
:10024000B6E0541F600814600D14602380E8900528
:10025000B8E06401600579000202EBEE9005AFF0B2
:1002600060047905800279067A001217B8807A90C6
:1002700005BAE0547FFA9005B8E070DAEAC3940654
:1002800050B4EA90620EF09005BAE05480602AEE15
:100290006004741080027440906211F0EE60047487
:1002A000038001E4C0E08A081202FBD0E0F0EE60B7
:1002B000047908802C79078028EE6004742080027D
:1002C0007480906214F0EE600474038001E4C0E076
:1002D0008A081202EED0E0F0EE6004790A8002791A
:1002E000091217B890620EE4F0790102021274A9A3
:1002F0002508F58274053400F5832274A42508F5D9
:100300008274053400F583227900120217E9700324
:100310001217A7227901120217E970031217B622E9
:10032000C082C0839005BA1207A67014A31207A654
:10033000700E9005B8E05480F8A3E0F9E849600732
:100340009005A47404801D9005B8E0906200F090C0
:10035000059D6009E06402700C74038007E064038B
:1003600070037402F0D083D0822274F51217BA9011
:1003700005B9E014600814601914604C806412130D
:100380009C120527A37B80121AEEA3F0A3E4F002CF
:1003900004DE9005B8E0FA79001213BE1205277B3F
:1003A00080E924020909EA3400FA121AEEFC19194C
:1003B000E0FAA3E92403090909EA3400FA121AEE63
:1003C000F9ECA3F0A3E980C69005B8E0F912142C6B
:1003D0009005B1EAF0A3EBF0A3E4120536A37B008D
:1003E00080A59005B1E4F0A3F0A3F0FA0204B27581
:1003F000090074037808121B91120540E493C0E0D1
:100400009005B9E0F8D0E06860030204B18A08758D
:10041000090074037808121B91120540A3E493C0ED
:10042000E09005B8E0F8D0E06860030204B18A0803
:1004300075090074037808121B91120558E493C0E3
:10044000E09005BBE0F8D0E06870668A08750900A6
:1004500074037808121B91120558A3E493C0E0902E
:1004600005BAE0F8D0E06870488A0875090074039E
:100470007808121B9112054CF988828983A3A3A3E3
:10048000A3E493F508740193F5099005B1E508F02C
:10049000A3E509F0A37480F088828983A3A3A3A3B2
:1004A000A3A3E493F8740193F99005B4E8F0A3E9E9
:1004B000F00A8A0890067A1206AC75830675827C6B
:1004C000E0C398F50AA3E099F50B7403780A121BB0
:1004D000B7C3E508950AE4950B50030203EF9005B6
:1004E000B1E0FCA3E0FDA3E0FEEC4D4E9005A4704E
:1004F000047404802CE0640460289005B41206ACF7
:100500007583057582BCC3E098A3E099500E9005F1
:10051000BC1206AC9005B4E8F0A3E9F09005A47411
:1005200001F07F04021A269005B1EAF0A3EBF0A3D4
:10053000748012053622F09005B1E0F9A3E0FA22AA
:100540001205442212054C8882F5832290067AE037
:100550002508F8A3E0350922120544A3A32274EF6D
:100560001217BA8A088B098A828B83A3A3A3A3E4F8
:1005700093602690067E1206ACE8FEE98007EE2422
:1005800004FEEF3400FF8E828F83E493F8740193AE
:10059000F9EA687002EB6970E5750C00804A9062B8
:1005A000147490F0741012069C70027940750A0160
:1005B000750B00E50E780A121B918E828F83A3A320
:1005C000A393550A6004E9D2E0F9E9906215F0EAD4
:1005D000906213F074A9250EF58274053400F5833A
:1005E000E4F090620EF0050C850882850983A3A3D0
:1005F000A3A3E493F8E50CC39840030206977A009E
:10060000790512132E8A0A8B0BEA450B60D8EA246F
:1006100002F8EB3400F9E8FCE9FD8C828D83E49369
:10062000540FF50E90620EF079008A828B83A3A39B
:10063000A3A3E4932407F510A3E4933400F5117405
:10064000037810121BB7AA108C828D8393A2E74007
:100650000302059E9062117448F0740812069C70A3
:10066000027940750A01750B00E50E780A121B919C
:100670008E828F83A3A393550A6004E9D2E0F9E93F
:10068000906212F0EA906210F0850E0A74A4250AB6
:10069000F58274050205DC7F0A021A26F0850A82BB
:1006A0008B83A3A3A3E4935403640122E0F8A3E0A3
:1006B000F922C082C0831207A37010A31207A6708C
:1006C0000AA3E064017002A3E060079005A474042B
:1006D000800C9005B1749EF0A374051207F8F00227
:1006E000036574F61217BA90059DE06402601490D9
:1006F00005BA1207A6700CA31207A670069005B9DA
:10070000E060099005A47404F00207917A00790171
:100710001217B89005B8E060637A00F91213BE8A28
:10072000088B09AE08AF09EE4F604990059D74042F
:10073000F09005B8E090059EF0750A008E828F83D8
:10074000A3A3A3A3E493F8E50AC398503D850A0840
:10075000120796E4F07A00790412132E8A828B83B2
:10076000A3A3A3E493F8120796E06870E812055E6D
:10077000050A80C89005A47404F0800E90059EF0D0
:1007800090059D7403F0F9120F5E7A00790212173A
:10079000B87F03021A26749F2508F5827405340079
:1007A000F583229005B8E0F8A3E0F9E8492274F651
:1007B0001217BA90059DE0640470199005B6E064C4
:1007C0008170111207A3700C9005BCE064017002E7
:1007D000A3E060079005A47404801A9005BAE02491
:1007E0009FF508A3E03405F5099005B1E508F0A3ED
:1007F000E5091207F8F08099F0A3E4F0A3041208C9
:100800000222F0A3E4F09005A4042274F71217BAB0
:1008100090059DE0640470109005B6E064017008D6
:100820009005BC1207A660089005A47404F08052DD
:100830009005B8E0FB9005BAE0FA90059EE0F91249
:1008400013F68A088B09AE08AF09EE4F60DA9005FF
:10085000BAE0FA79031217B89005B8E0C0E0900545
:10086000BAE0249FF8A3E03405F988828983D0E0B8
:10087000F0EEFAEFFB12055E9005BAE0FA79041289
:1008800017B802021274F81217BA74FF121B517EC5
:10089000008033900384E0F8851882851983E0682E
:1008A000700D900382E0644D7005120AD2E9FE904B
:1008B0000385E4F0900387F0851882851983E0F8BA
:1008C000900384E068F07901851882851983AA82F3
:1008D000AB831210D5E97003020983E0C0E09003F6
:1008E00087E0F8900385E0FAE82AF8E43400120C77
:1008F00086D0E0F0900387E0601114602014603E21
:1009000014604E14606414608A80AD851882851965
:1009100083E064FE70A29003877401809A90038440
:10092000E4F0851882851983E0900386F0C39480F3
:100930009003874004E40208B774020208B78518E0
:1009400082851983E0900382F09003877403020884
:10095000B7851882851983E0900383F0900386E0C1
:10096000601990038774040208B7900385E004F0CF
:10097000F8900386E06860030208B8900387740566
:100980000208B7EEF97401121B087F01021A2674DF
:10099000ED1217BA74FB121B517508047509007823
:1009A00008121B6B7402121C09120C73121B0885AF
:1009B0001882E0F47003A3E0F4600F8518828519B3
:1009C00083E0F8A3E0F9E8497003020AC674021252
:1009D0001C09E0687003A3E0697003020AA07508AF
:1009E000009005C07810121BD5800A9005C47810BD
:1009F000121B7C604A750A01750B00780A121B6B8A
:100A00007406121C09AC82AD8385100A85110BAAED
:100A10000AE50B5407FB8A0C85110D85120E851310
:100A20000F740B780C121B22A90C120C7D121B08E0
:100A3000E0F9AA08AB09120C928A088B0980089089
:100A400005C87810121BD59005CC7810121BA49005
:100A500005D07810121AB45092E4F9120C92E4F90D
:100A6000120C927402121C09EAF0A3EBF075080153
:100A70007509007808121B6B7402121C09AC82AD58
:100A8000837A247B081215D47402121B087508049B
:100A90007808121B6B7402121C09120C73121B08CB
:100AA000120C65121C09E0687003A3E069701785D9
:100AB0001882851983E0F47003A3E0F46008E84924
:100AC00060047901800279007405121B087F0C0212
:100AD0001A2674F31217BA74FC121B51900306E025
:100AE000FAA3E0F9EA2400F8F508E93408F50975F5
:100AF0000A017F007E00900383E014600C146040C4
:100B0000147003020B99020C16E5095401F9E84927
:100B10007011880C85090D7409780C121BB7A90C8B
:100B2000121638750C108E0D780C121B6B7C087D1C
:100B300003AA08AB091215D47402121B08020C1682
:100B4000880C85090D7409780C121BB7E50CC39449
:100B50007940040F020C16750A408E0B780A121B9E
:100B60006B7C097D03EAF50AE5095401F50B740273
:100B7000780A121B91AA0AAB0B74097808121BB7EA
:100B8000A908120C7D121B08900307E0A3F0900344
:100B900006E0A3F0750A43807D7508048E09780885
:100BA000121B6B7402121C09120C73121B087402C4
:100BB000121C09E0F8A3E0F9851882851983E06822
:100BC0007003A3E069603B120C65121C09E8F0A3F6
:100BD000E9F07508017808121B6B7402121C09AC4D
:100BE00082AD837A247B081215D47402121B087517
:100BF00008047808121B6B7402121C09120C731281
:100C00001B08120C65121C09E0687003A3E06970F0
:100C1000030E80027F07900305E0D2E7F0EFA3F018
:100C2000E50A900303F0744D650AF5087404250A7B
:100C3000FB7A038007120C83E062080AEAC39BA2D6
:100C4000D265D033EAF840ED120C83E508F0740168
:100C50002AF97A027B03121115EEF97404121B08AB
:100C60007F06021A26851882851983E0F8A3E0F929
:100C7000740222AC82AD837A907B00790412154F06
:100C80007402223395E0F9740228F582740339F571
:100C90008322C008C0097C088A088B09740F780871
:100CA000121BB7EAC333FAEB33FBE9A2E750047433
:100CB000014AFAE508A2E0500874216AFA74106B40
:100CC000FBE9C333F91CEC70CFD009D00822C082F5
:100CD000C0837A0079011213BE8A828B83A3A3A3F7
:100CE000A3A3A3A3E493A2E69005B05004740180EB
:100CF00001E4F09005AFE4F090620F7403F0E0A21D
:100D0000E750FB90620BE0D2E1F0D083D08222C0AA
:100D100082C08390059D7402F0A3E4F09005A4F0D6
:100D20007903120F5E75210075220080DD74F612C2
:100D300017BA90620EE0FEE4F0906211E0F50AA2AC
:100D4000E4501D7480F09005A47407F0E52145225D
:100D50006009852182852283121C1B9005A4E4F082
:100D6000E50AA2E2500B906211E4F09005A4F08035
:100D7000769005A4E064027057906216E0FF90053B
:100D8000B1121A66EFF97A207B62120F9674031281
:100D90001B088F089005B4120F33120F3EE0F8A322
:100DA000E0F9E8496004744080027448906211F0F0
:100DB000E8497014E5214522600985218285228356
:100DC000121C1B9005A4E4F0EE90620EF0020FDC02
:100DD000E064067009852182852283121C1B900520
:100DE000A4E06003020ECDE50AA2E050DB7508B670
:100DF000750905750A007808121B6779087A207B47
:100E000062120F967403121B087521007522009060
:100E100005B6E054E0601C24E07003020EA724E055
:100E2000606F24C0604524E07003020EB224E060CD
:100E30006B8030A3E014601C24FE601324FE600A63
:100E400024FC601524FE60168019120320806C12A9
:100E50000314806712030880621206E2805D1208A4
:100E60000B80589005A47404F08058A3E0600E2411
:100E7000FA600F24FE601024FE601180E61201501B
:100E8000803912036A80341206B2802F1207AE80B6
:100E90002A7521A37522171217A3801F7521A57526
:100EA00022171217A58014752140752217121740BA
:100EB000800975216E75221712176E9005A4E064E3
:100EC000047004746080027440906211F09005A474
:100ED000E06401704A750A029005B4C3E09420A34F
:100EE000E09400500A9005B4E0FF750A0A80027F82
:100EF000209005B1121A66EFF97A207B62120FBAC0
:100F00007403121B088F08120F3E120F33E50A906C
:100F10006211F0EFC394204003020DC8020DB4E04B
:100F200064056003020DC8852182852283121C1B83
:100F3000020DC8C3E09508F0A3E09400F0229005EC
:100F4000B1E0F9A3E0FAA3E0FBE92508F9EA3400EF
:100F5000FA9005B1E9F0A3EAF0A3EBF0A32274F74D
:100F60001217BA7800880874A52508F5827405124E
:100F70000F8A40F17800880874AA2508F582740564
:100F8000120F8A40F17F02021A263400F583E9F03D
:100F900008E8C394052274F61217BAEAFCEBFDE9DF
:100FA000F8740A121C09120FEC600D8C828D83E01C
:100FB000121B3B120FE170F3802274F61217BAEA8B
:100FC000FCEBFDE9F8740A121C09120FEC600D121B
:100FD0001AEE8C828D83F0120FE170F37F03021AF8
:100FE00026E9240109EA3400FA18E822E0F508A30A
:100FF000E0F509A3E0A908AA09FBE822C082C083A2
:10100000A823E8540460097823E654FBF6120D0F78
:10101000A823E8541060097823E654EFF6120D2D4A
:10102000A823E8A2E05005782354FCF690620EE075
:10103000FA7404F0906214E0A2E05042E5A8F8C20D
:10104000AF906216E0F9A3E0E9FBE8A2E792AF8077
:101050001F906228E0C0E0900391E0F8749228F5B8
:101060008274033400F583D0E0F0900391E004F043
:10107000EBFC74FF2C1B0470D8906214E4F0EA902F
:10108000620EF0E0FD7404F0906211E0A2E0403BDB
:10109000900493E0F8900492E068602F7A40900406
:1010A00092E0F8749428F58274043400F583E0909B
:1010B0006228F0900492E004F008900493E06860E5
:1010C000041AEA70D99062117401F0ED90620EF08A
:1010D000D083D0822274F81217BAE9FE7900801FFB
:1010E000900390E0FC74922CF58274033400F58335
:1010F000E08A828B83F0900390E0041211480990FB
:101100000390E0F8900391E0686005E9C39E40D049
:101110007F01021A26C082C08380228A828B83E0EC
:10112000C0E0900493E0FC74942CF58274043400C5
:10113000F583D0E0121148900493E004F0E9F874CC
:10114000FF28190470D58088F08A828B83A3AA8235
:10115000AB832212120112098FE9603112127AE96F
:10116000602B75AC00759A0053F4FEC29043FE01EB
:1011700090620FE4F0E0A2E740FB90000174CDF034
:10118000022000C2AF75C9AB75C95B80FE9005D463
:10119000780C121BD5794E1211EBD2AF850D099048
:1011A00005CC780C121BA4E5095440600AA28050BB
:1011B00004C2808002D280120FFC120885E960DC34
:1011C000C280D2919005D87808121BD5120FFC90DE
:1011D00005DC7808121BA4E5084509450A450B7093
:1011E000EBC2AF75C9AB75C95B80FE781075B60FE1
:1011F000E5B4A2E750FAE5BBC39940F118E870EDF9
:1012000022C082C08353BEFBE59DA2E650FA00785F
:10121000F8790100E824FF18E934FFF9E84970F390
:1012200075C6807480659E70FA43BE0490627074C7
:1012300008F0D28043FD01C29143FE02794A1211A7
:10124000EB90000174F5F07403F5D575D488900522
:10125000E0121BFD900594121BF1900598E4F0A399
:10126000F0A37408F0120CCE7AFF7BFF12164F53D6
:10127000F4FED29043FE010210D074F11217BA743A
:10128000FF121B519005E4780C121BD57E00D2AFE3
:101290008004C291C280120FFC79018518828519E1
:1012A00083AA82AB831210D5E96012E064F860343F
:1012B000E0640770089005D4780C121BD5A29250F8
:1012C00023A293501E850C08850D09850E0A850FF3
:1012D0000B9005DC780C121BA4E5084509450A456E
:1012E0000B70130EC2AFD280C291EEF97401121BC3
:1012F000087F08021A26850D09E50954207093D24B
:1013000080D2918091C0E074F2121820900001E028
:1013100064CD7005122033800BE064F57005121661
:101320009A8001007F010218DCD083D08222C08223
:10133000C083E9FCEAFD7A007B00800790059CE011
:1013400012138190059BE0F8A3E0F9900678E0681D
:101350007003A3E069601C1213756C700D90059BFF
:10136000E0FAA3E0FB12138180091213756D70CCB3
:10137000ED60C980B490059CE0F5838882A3E49376
:1013800022F5838882E493F890059BE028F8A3E097
:101390003400F990059BE8F0A3E9F022C082C083F5
:1013A0001213AD7A00790112132E021329900676DA
:1013B000E0F8A3E0F990059BE8F0A3E9F02274F7C8
:1013C0001217BAE9FEEAFF1213AD7A00790212137E
:1013D0002EEA4B601CEE60108A828B83A3A3A3A32A
:1013E000A3E4936E70E48009EFF874FF281F047083
:1013F000D97F02021A2674F51217BAEAFF8B087A0F
:10140000001213BE7A02790412132EEA4B60188A76
:10141000828B83A3A3E4936F70EA8A828B83A3A356
:10142000A3E493650870DD7F04021A2674F712178F
:10143000BA74F0121B51E97A007B00600C14601042
:101440001460141460180215377AF07B0502153702
:101450007AF47B050215377A187B06021537900659
:101460003CE060030215337408121C09AC82AD83A2
:101470007583057582E87408121A93750808F509D2
:101480007808121B6B7402121C09AC82AD837AE8D7
:101490007B07797F12154F7402121B087808121B04
:1014A0006B740A121C09AC82AD837402121C09AA67
:1014B00082AB831219347402121B088B09EA4509A6
:1014C000701D7509007808121B6B7C0C7D78740206
:1014D000121C09AA82AB831219E07402121B087C49
:1014E000287D008D08851882851983E5822508F5F9
:1014F00082E5833400F583E0FF8C08743C2508F80E
:1015000074063400F9EF12153F88828983F0EFC426
:1015100012153FC0E0E824FEF582E934FFF583D0E0
:10152000E0F00D74FC2CFCEDC3940840B690063C32
:10153000742AF07A3C7B067410121B080213F154D3
:101540000FFA74662AF58274063400F583E022747B
:10155000F51217BA8908740B121C09E0FEA3E0FF0C
:10156000740F5508F50A750B00740B780A121B915D
:10157000EA2400F8EB3480F9E82400E9350BF9E5BA
:10158000C7F509A2AFE433F50AC2AFE508C4540FAA
:10159000FAE5C754F84AF5C7801C88828983E08C35
:1015A000828D83F088828983A3A882A9838C828D0F
:1015B00083A3AC82AD83EEFAEFFBEA24FF1EEB348B
:1015C000FFFFEA4B70D48509C7E50AA2E092AF7F1E
:1015D00004021A2674F71217BA7409121C09E0F5EE
:1015E00008A3E0F509ED900388F0ECA3F0A3746282
:1015F000F0A37473F0A3E0541FF0E508333354FCF8
:10160000A3F074067808121BB7E50890038CF090DD
:10161000038E7412F0A37442F075D1FE75D601EA00
:10162000906271F0EBA3F0906270E0D2E1F0E0A282
:10163000E740FB7F02021A26C082C083E9C33390D1
:101640006272F0906270E0D2E0F0D083D0822274B7
:10165000F71217BA7523007524007525008A268BAA
:1016600027EA90620BF08A088B0974047808121B31
:10167000B7E508906207F08A088B097409780812A8
:101680001BB7E508543E906209F0758B00C2E84331
:10169000AC20439A027F02021A2674F71217BAE5A9
:1016A0009DA2E650FA906206E0FAA2E25035A82622
:1016B000E890620BF0F50885270974047808121B7E
:1016C000B7E508906207F085260885270974097830
:1016D00008121BB7E508543E906209F0906201E0E1
:1016E000D2E0F07823EA46F6906202E0F508750948
:1016F0000074047808121B917823E50846F608E583
:101700000946F6906204E0F5087509007409780846
:10171000121B917824E50946F6EAA2E050037525EC
:101720000174065A6003752500E58BA2E550067525
:101730008BDF7525001217B9758B00C2E80216956C
:10174000C082C0839005B7E06422700A9005A4E0CF
:10175000701A74028015E064209005A4700BE0708C
:101760000B1217959005A480E97404F08043C082A1
:10177000C0839005B7E064219005A47013E0701356
:10178000121795A37407F0A3E4F09005A404800257
:101790007404F0801C9005B17494F0A37405F0A358
:1017A000E4F02280028000C082C0839005A474040B
:1017B000F0D083D0822280EF22222518C582C0E09B
:1017C000E51934FFC583C0E0E518C3958224F910FC
:1017D000AF0885831985821880088583198582184A
:1017E000D2AFCEF0A3E520F0A37808E608F0A3DEA0
:1017F000FAEFF0A3E58124FBF8E608F0A3E608F091
:10180000A30808E608F0A3E608F0A315811581D027
:10181000E0FED0E0F815811581E8C0E0EEC0E022DE
:10182000C0D02518C582C0E0E51934FFC583C0E0EB
:10183000E518C3958224F310AF08858319858218B3
:101840008008858319858218D2AFC8F0A3E9F0A378
:10185000EAF0A3EBF0A37908E709F0A3D8FAECF0DB
:10186000A3EDF0A3EEF0A3EFF0A3D0E0F0A3D0E05F
:10187000F0A3D0E0F0A3E520F0A3E5F0F0A322125E
:10188000010002020000205104A816090001020311
:10189000010902430002010080190904000001024D
:1018A00002010005240010010424020205240600A0
:1018B00001052401000107058203400040090401DD
:1018C00000020A000000070584024000000705042A
:1018D000024000009A180000BD1800008519838599
:1018E0001882E0C0E0A3E0F9A3E0FAA3E0FBA3784C
:1018F00008E0F608A3DFFAE0FCA3E0FDA3E0FEA306
:10190000E0FFA3E0C0E0A3E0C0E0A3E0F5D0A3E0E7
:10191000F520A3E0A3F5F010AF08858319858218A0
:101920008008858319858218D2AFD082D083D0E019
:10193000F8D0E03274F81217BA7408121C09E0F8F3
:10194000A3E08015A3AA82AB838C828D83A3AC8293
:10195000AD83E824FF18E934FFF9E84960238A825F
:101960008B83E0FE8C828D83E06E8A828B8360D4D1
:10197000E0F88C828D83E0FAE8C39AFA95E0FB8068
:10198000047A007B007F01021A26121C18B900039A
:101990000219DAE479217807B800028004F709D83F
:1019A000FCE490030278BF79038002F0A3D8FCD94D
:1019B000FA9005C0AA82AB8390008E78C37901802B
:1019C00015E493A3AC82AD838A828B83F0A3AA82B1
:1019D000AB838C828D83D8E9D9E7121153121C1383
:1019E00074F71217BA7409121C09E0FEA3E0FFEAAB
:1019F000F8EBF980188C828D83E088828983F0A3CC
:101A0000A882A9838C828D83A3AC82AD838E088F3C
:101A100009E50824FF1EE50934FFFFE508450970C4
:101A2000D47F02021A26851983851882E0A3FEE07E
:101A3000A3F5207808E0A3F608DFFAE0A3FFE0A30F
:101A4000C0E0E0A3C0E0E0A3C0E0E0A3C0E010AFCE
:101A5000088582188583198008858218858319D2A4
:101A6000AFD083D0822274038000CCC0E0EDC0E010
:101A7000E518C39CCCAD1950011D10AF068C188D14
:101A80001980068C188D19D2AF121A93D0E0FDD0B0
:101A9000E0FC22CAC0E0E0A3C582CCC582C583CDEC
:101AA000C583F0A3C582CCC582C583CDC583DAE6E4
:101AB000D0E0CA22C008C3E096F50808A3E0964229
:101AC0000808A3E096420808A3E09645087001D3F1
:101AD000D008222518F58210AF08F5184002151914
:101AE0008008F51840021519D2AF85198322BB0171
:101AF00002E722C082C08389828A83BB0003E08020
:101B000002E493D083D08222C0D0251810AF08F50C
:101B100018500205198008F51850020519D2AFD0E7
:101B2000D0226016080808C6C313C618C613C61804
:101B3000C613C618C613C6D5E0EA22BB000EC08283
:101B4000C0838A838982F0D083D08222BB0101F7CF
:101B500022251810AF08F518400215198008F5184D
:101B600040021519D2AF227403800474028000C0B1
:101B7000E0F404121AD3D0E0121BE422E0667010E5
:101B800008A3E066700A08A3E066700408A3E06694
:101B900022700422600D18C6C333C608C633C6D5EA
:101BA000E0F41822E026F608A3E036F608A3E036B3
:101BB000F608A3E036F622600C08C6C313C618C6A2
:101BC00013C6D5E0F42275D00075814075180275F2
:101BD000190302198AE0F608A3E0F608A3E0F60864
:101BE000A3E0F622CAC0E0E6F0A308DAFAD0E0FAF1
:101BF00022EAF0A3EBF0A3ECF0A3EDF022E0FAA3CD
:101C0000E0FBA3E0FCA3E0FD222518F582E43519F2
:101C1000F5832200000080FB790122E473FFFFFFBF
:101C2000FFFFFFFFFFFFFFFFFFFFFFFFFFFFFFFFC4
:101C3000FFFFFFFFFFFFFFFFFFFFFFFFFFFFFFFFB4
:101C4000FFFFFFFFFFFFFFFFFFFFFFFFFFFFFFFFA4
:101C5000FFFFFFFFFFFFFFFFFFFFFFFFFFFFFFFF94
:10200000022C62022237FFFFFFFFFFFFFFFFFFFFEF
:10201000FFFFFFFFFFFFFFFFFFFFFFFFFFFFFFFFD0
:10202000FFFFFFFFFFFFFFFFFFFFFF022A06FFFF8B
:10203000FFFFFF02225AFFFFFFFFFFFFFFFFFFFF2F
:10204000FFFFFFFFFFFFFFFFFFFFFFFFFFFFFFFFA0
:10205000FFFFFF022165FFFFFFFFFFFFFFFFFFFF05
:10206000FFFFFFFFFFFFFFFFFFFFFF022920FFFF32
:10207000FFFFFFFFFFFFFFFFFFFFFF0227B1FFFF93
:10208000FFFFFF0221CC01FFFFFFFFFFFFFFFFFF6C
:10209000102010200101FF01010503010F10FEFFB8
:1020A00074377437743774371E3618367437A74D43
:1020B000000000002F4F000000000C0000000C008A
:1020C0000100000E3A0000000060393A3BA839A434
:1020D0003A000096390000FF0101001C07000000D3
:1020E000E803940703E80364006400B801020200F7
:1020F0000800000502070401051E02051E020A0A67
:1021000003B80B02803E010201FFFF0A01E0965175
:102110001800020206FFFF00035F005F0030005856
:1021200000000000000000000000000000000000AF
:10213000000000000000000000000000000000009F
:1021400000D22527262726272627262F26FF000808
:1021500010E8030A09010705000144810142810AD0
:102160001411441200C0E074F2122573A2AFE433DC
:10217000FED2AFE5A7FFE5A1F5085F541060061297
:10218000446A75A1EFE5085F540860081244707551
:10219000A1F7802BEFA2E0C0D0E508A2E092F012F8
:1021A0002BEB158182F05017906198E0F8900B1E90
:1021B000E0C398A2D265D0335002E8F075A1FE7555
:1021C0001A00EEA2E092AF7F0102262FC0E074F267
:1021D000122573A2AFE433FED2AF9061A4E0F8758C
:1021E0009B00E59158540860087591F71244B88037
:1021F0002AE59158541060087591EF1244BE801B77
:10220000E8A2E0C0D0E591A2E092F0122BEB15819C
:1022100082F05007E0C2E0F01246149061A3E0F8AB
:10222000E5E9585404600E1245EA75E9FB906193A4
:10223000E0A2E640F28088C0E074F2122573A2AFFB
:10224000E433FED2AF9061A5E0F8E5BF58540460D6
:102250000675BFFB12462C0221BFC0E074F11225A7
:1022600073E59DA2E650FA906206E0FAA2E25035CC
:10227000A82CE890620BF0F508852D097404780805
:10228000122C81E508906207F0852C08852D0974D1
:10229000097808122C81E508543E906209F090629A
:1022A00001E0D2E0F07829EA46F6906202E0F50813
:1022B00075090074047808122B9F7829E50846F602
:1022C00008E50946F6906204E0F50875090074090E
:1022D0007808122B9F782AE50946F6EAA2E0500317
:1022E000752B0174065A6003752B00E58BA2E5502F
:1022F00006758BDF752B001247D0758B00C2E87F07
:102300000202262FC3E498F8E499F91223458026A7
:10231000C3E49AFAE49BFBE920E7E9122345E49839
:10232000F8E499F922C3E498F8E499F9122345E412
:1023300098F8E499F9C3E49AFAE49BFB22EB20E7CE
:10234000CFE920E7E0B90010BB0008E88AF084F884
:10235000AAF022E4FBC8FA22EB70227B10C833C833
:10236000C933C9335007C39AC3DBF280069A5001C0
:102370002ADBEAC833F4C8C933F4C9FA2275F00875
:10238000E4C833C8C933C933C99AC99B5004C92AA0
:10239000C93BD5F0ECFBC833F4C8E4C9FA220808FD
:1023A00008EAC0E0EBC0E086F0E7A4FA180986F07E
:1023B000E7A42AFA180986F0E7A42AFA180986F091
:1023C000E7A42AFA1986F0E7A4FBE5F02AFA19082F
:1023D00086F0E7A42BFBE5F03AFA190886F0E7A4AB
:1023E0002BFBE5F03AFA18180986F0E7A4C5F02BA4
:1023F000FBE43AFA1908E7C5F0C6A426F6E5F03B77
:10240000FBE43AFA1886F0E7A4F6E5F00826F6E4CD
:102410003B08F6E43A08F6D0E0FBD0E0FA22122CB2
:10242000C4B90003022481E47921780DB800028048
:1024300004F709D8FCE49004D178B5790D8002F056
:10244000A3D8FCD9FA781A9020867A01BA000280C3
:1024500007E493A3F608DAF9901185AA82AB83907A
:10246000209478D279018015E493A3AC82AD838A5D
:10247000828B83F0A3AA82AB838C828D83D8E9D927
:10248000E775827E75839B74061229E875820E7546
:10249000834C74001229E8E4CFC0E0E4CEC0E0E44D
:1024A000CDC0E0E4CCC0E075F020C3E633F608E62A
:1024B00033F608E633F608E633F6181818EC33FC62
:1024C000ED33FDEE33FEEF33FFC3EC9709ED9709D3
:1024D000EE9709EF97191919400FFFEC97FC09EDDA
:1024E00097FD09EE97FE191906D5F0BEECF709ED38
:1024F000F709EEF709EFF7191919D0E0FCD0E0FD64
:10250000D0E0FED0E0FF222518C582C0E0E51934F6
:10251000FFC583C0E0E518C3958224F810AF088595
:1025200083198582188008858319858218D2AFCED9
:10253000F0A3E520F0A37808E608F0A3DEFAEFF0B8
:10254000A3E58124FAF8E608F0A3E608F0A3E6087C
:10255000F0A30808E608F0A3E608F0A315811581AA
:10256000D0E0FED0E0F8158115811581E8C0E0EEDD
:10257000C0E022C0D02518C582C0E0E51934FFC5EF
:1025800083C0E0E518C3958224F310AF0885831952
:102590008582188008858319858218D2AFC8F0A378
:1025A000E9F0A3EAF0A3EBF0A37908E709F0A3D8D8
:1025B000FAECF0A3EDF0A3EEF0A3EFF0A3D0E0F07F
:1025C000A3D0E0F0A3D0E0F0A3E520F0A3E5F0F085
:1025D000A32212010002020000205104A8160900E3
:1025E00001020301090243000201008019090400ED
:1025F000000102020100052400100104240202056A
:102600002406000105240100010705820340004063
:1026100009040100020A00000007058402400000CE
:1026200007050402400000ED25000010260000858B
:102630001983851882E0C0E0A3E0F9A3E0FAA3E0E3
:10264000FBA37808E0F608A3DFFAE0FCA3E0FDA313
:10265000E0FEA3E0FFA3E0C0E0A3E0C0E0A3E0F55C
:10266000D0A3E0F520A3E0A3F5F010AF088583190F
:102670008582188008858319858218D2AFD082D0D0
:1026800083D0E0F8D0E0321075F0108E218F2285D3
:102690008226858325851882851983E0CEA3E0CF25
:1026A000852682852583EBC9EAC8EDCBECCAC3E851
:1026B00033C8E933C9EA33CAEB33CBC3EA9EF52406
:1026C000EB9FF523B35004AB23AA24EC33CCED33BA
:1026D000CDD5F0DAAE21AF2222D083D082ECC0E09B
:1026E000EDC0E0E493A3FCE493A3FDED4C600D1278
:1026F00027F4EC24FFFCED34FFFD80EFE493A3FC12
:10270000E493A3FDED4C600D1228CBEC24FFFCED0F
:1027100034FFFD80EFD0E0FDD0E0FCE493A3C0E007
:10272000E493C0E022D083D082E9C0E0E493A3C365
:1027300086F0C5F095F0F908E493A386F0C5F0950E
:10274000F0700BE493A3C3994005E9048002A3E46D
:1027500075F002A42582F582E5F03583F583D0E09B
:10276000F9E493A3C0E0E493C0E0228519838518BF
:1027700082E0A3FEE0A3F5207808E0A3F608DFFAE4
:10278000E0A3FFE0A3C0E0E0A3C0E0E0A3C0E0E07E
:10279000A3C0E0E0A3C0E010AF08858218858319CC
:1027A0008008858218858319D2AFD083D082022910
:1027B000EEC0E074F2122573A2AFE433FED2AFE5AF
:1027C0008AA2E250079008DEE0D2E0F0E58AA2E3B8
:1027D00050079008DEE0D2E1F0758A00C2EB7A0182
:1027E0007B009008DAE0F9123C90EEA2E092AF7F15
:1027F0000102262FC0E0C3E4939608740193961853
:10280000400FE493667008087401936618700070B6
:1028100019A3A3C3E49396087401939618A3A34045
:102820000DD0E0D0E0D0E0022715A3A3A3A3A3A37B
:10283000D0E022D083D082C5F0E493A3C5F0C39545
:10284000F0F5F0E493A3C395F04005E5F0048001B2
:10285000E475F002A42582F582E5F03583F583E482
:1028600093A3C0E0E493C0E0227404800874038062
:102870000474028000CCC0E0EDC0E0E518C39CCC3D
:10288000AD1950011D10AF068C188D1980068C18DB
:102890008D19D2AF12296AD0E0FDD0E0FC2274027B
:1028A0008000CCC0E0EDC0E0E518C39CCCAD195071
:1028B000011D10AF068C188D1980068C188D19D249
:1028C000AF122948D0E0FDD0E0FC22C0E0C0F08883
:1028D000F0E4936670080874019366187000A8F01D
:1028E000A3A3700BD0F0D0E0D0E0D0E0022715A376
:1028F000A3D0F0D0E022D083D082CCC0E0E493A378
:1029000060061229AA1470FAE493A36006122AD36F
:102910001470FAD0E0FCE493A3C0E0E493C0E0229A
:10292000C0E074F2122573758900C2C590117DE074
:10293000700E7A007B10900696E0F9123C908003AE
:10294000124A8E7F0102262FCAC0E0E493A3C582FB
:10295000CCC582C583CDC583F0A3C582CCC582C555
:1029600083CDC583DAE5D0E0CA22CAC0E0E0A3C5C2
:1029700082CCC582C583CDC583F0A3C582CCC58278
:10298000C583CDC583DAE6D0E0CA22C008C3E0968D
:10299000F50808A3E096420808A3E096420808A3B9
:1029A000E09645087001D3D00822C0E0E493A3D399
:1029B0009C5010E493A3C39C400AD0E0D0E0D0E048
:1029C000022913A3A3A3D0E02270090808082260FB
:1029D00016181818C6C333C608C633C608C633C689
:1029E00008C633C6D5E0EA22C09FF59FE473D09FA6
:1029F00022D083D082C09FE493C0E0740193C0E0F2
:102A0000740293F59F22C0E0C0D0E8C0E0E5A8D2F0
:102A1000AFC2C7751A00A2E792AFD0E0F8D0D0D00D
:102A2000E0322518F58210AF08F51840021519801C
:102A300008F51840021519D2AF8519832274048055
:102A40000A74038006740280027401C0E0F4041268
:102A50002A22D0E0122C9F22C0D0251810AF08F5F2
:102A600018500205198008F51850020519D2AFD088
:102A7000D022BB0102E722C082C08389828A83BB45
:102A80000003E08002E493D083D08222601608081D
:102A900008C6C313C618C613C618C613C618C6136D
:102AA000C6D5E0EA22C3E0C696F608A3E0C696F6CD
:102AB00008A3E0C696F608A3E0C696F622BB000E71
:102AC000C082C0838A838982F0D083D08222BB01F6
:102AD00001F722C0E0E493A36C7009D0E0D0E0D00D
:102AE000E0022913A3A3D0E022251810AF08F5189F
:102AF000400215198008F51840021519D2AF22E0DE
:102B000066701008A3E066700A08A3E06670040807
:102B1000A3E06622E76670100809E766700A0809F4
:102B2000E76670040809E76622C3E09608A3E0960A
:102B300008A3E09608A3E096A2D265D03322C3E0B2
:102B400096F008A3E096F008A3E096F008A3E096BC
:102B5000F022C3E697F60809E697F60809E697F625
:102B60000809E697F622E026F008A3E036F008A36D
:102B7000E036F008A3E036F022E627F60809E6374B
:102B8000F60809E637F60809E637F622E056F608B1
:102B9000A3E056F608A3E056F608A3E056F6227026
:102BA0000422600D18C6C333C608C633C6D5E0F488
:102BB0001822E647F60809E647F60809E647F60848
:102BC00009E647F622E026F608A3E036F608A3E079
:102BD00036F608A3E036F622E056F008A3E056F0F9
:102BE00008A3E056F008A3E056F022C0E0E8C0E0F9
:102BF000E58124FCF8E6A2E7D0E0F8D0E022E65731
:102C0000F60809E657F60809E657F60809E657F602
:102C100022E4C396F608E496F608E496F608E496ED
:102C2000F622C3E09608A3E09608A3E09608A3E086
:102C30009622C6F4C608C6F4C608C6F4C608C6F48A
:102C4000C622600D08C6A2E713C618C613C6D5E093
:102C5000F322C3E7960809E7960809E7960809E70B
:102C6000962275D0007581407518D175190400023F
:102C7000241EE0F608A3E0F608A3E0F608A3E0F6B9
:102C800022600C08C6C313C618C613C6D5E0F422CA
:102C9000E6F008A3E6F008A3E6F008A3E6F022CAEF
:102CA000C0E0E6F0A308DAFAD0E0FA22E0FAA3E006
:102CB000FBA3E0FCA3E0FD22EAF0A3EBF0A3ECF021
:102CC000A3EDF022E5C754F84401F5C779012225A8
:102CD00018F582E43519F58322C2AF75D69F02003C
:102CE00000221229F1A1A8021229F144A9021229F5
:102CF000F1BDA9021229F119AB021229F129AB0287
:102D00001229F140AB021229F166AB021229F199A6
:102D1000AB021229F1CDAB021229F18FAD021229BB
:102D2000F144AE021229F1C0AE021229F117AF022E
:102D30001229F176AF021229F1D4AF021229F1FD66
:102D4000AF021229F16DB0021229F1C6B0021229A8
:102D5000F13FB1021229F194B3021229F14EB502EA
:102D60001229F1FAB5021229F141B7021229F1DF55
:102D7000B9021229F1E5BC021229F1F2BC021229B2
:102D8000F180BD021229F132BE021229F17ABE028F
:102D90001229F1DABE021229F1F6BE021229F12A35
:102DA000BF021229F15FBF021229F148C0021229A5
:102DB000F1FDC0021229F152C3021229F19FC4028F
:102DC0001229F142C5021229F1CFC5021229F1E9F7
:102DD000C5021229F142C6021229F1F4C6021229D3
:102DE000F1C6C7021229F181C9021229F10BCA02E8
:102DF0001229F14ACA021229F1DFCB021229F1137A
:102E0000CC021229F18ECC021229F168CD021229CE
:102E1000F12FCE021229F174CE021229F18CCE02CA
:102E20001229F123CF021229F194D1021229F1A91A
:102E3000D3021229F1C7D3021229F1E5D3021229D4
:102E4000F1BFD4021229F1DDD7021229F10080036B
:102E50001229F13580031229F15B80031229F195C3
:102E600080031229F1A780031229F1F980031229A6
:102E7000F15A81031229F1E481031229F1888203B6
:102E80001229F1D082031229F10A83031229F127B2
:102E900083031229F14C83031229F19E8303122923
:102EA000F1B783031229F1DD83031229F1FC8303B7
:102EB0001229F13784031229F17B84031229F1A22C
:102EC00084031229F1F384031229F1A38503122943
:102ED000F15B86031229F12387031229F1E38703AB
:102EE0001229F12788031229F14C88031229F18F46
:102EF00088031229F1DC88031229F1348A0312298C
:102F0000F1BA8A031229F1D88A031229F1028B033C
:102F10001229F11C8B031229F12B8B031229F13694
:102F20008B031229F1F68B031229F14F8C0312291E
:102F3000F1118D031229F1198D031229F1918D03DD
:102F40001229F1E08D031229F1268E031229F1676F
:102F50008E031229F1F78F031229F1AF9003122982
:102F6000F11B91031229F14692031229F16B92038E
:102F70001229F17C92031229F1F292031229F184B1
:102F800093031229F1DC93031229F19C9403122973
:102F9000F1BB94031229F1CA95031229F1E89503B4
:102FA0001229F1FA95031229F14D96031229F15CC9
:102FB00096031229F1E496031229F12197031229AD
:102FC000F12E97031229F1B198031229F1109A03F7
:102FD0001229F1299A031229F1729B031229F10394
:102FE0009C031229F13A9D031229F1739D031229C2
:102FF000F1BF9D031229F1DB9E031229F124A103E5
:103000001229F12FA1031229F13AA1031229F14546
:10301000A1031229F14FA1031229F15AA103122988
:10302000F174A1031229F17EA1031229F188A103F1
:103030001229F193A1031229F19EA1031229F1C6CD
:10304000A1031229F121A2031229F12BA2031229B3
:10305000F14FA2031229F173A2031229F1D1A203A5
:103060001229F115A3031229F131A3031229F1A8A2
:10307000A3031229F1E0A3031229F12CA4031229BE
:10308000F189A4031229F143A5031229F127A7030B
:103090001229F180A7031229F1B0A8031229F1D651
:1030A000A8031229F15FAA031229F1DBAD0312294B
:1030B000F1ADAF031229F176B1031229F123B20366
:1030C0001229F18EB3031229F12DB4031229F17ADA
:1030D000B4031229F1E4B4031229F1F3B403122961
:1030E000F17AB7031229F1A8B8031229F13ABA0309
:1030F0001229F1A7BA031229F186BB031229F19F05
:10310000BC031229F11CBE031229F13BBE03122994
:10311000F190BE031229F195BF031229F1BDBF033F
:103120001229F115C0031229F1F4C0031229F13854
:10313000C1031229F183C1031229F1EEC10312293F
:10314000F12FC3031229F193C3031229F1E1C40340
:103150001229F141C7031229F172C7031229F12A7A
:10316000C9031229F17FC9031229F191CA03122957
:10317000F12ECB031229F187CB031229F13ACC03AC
:103180001229F1DCCC031229F17CCD031229F121A3
:10319000CE031229F14781011229F19081011229F0
:1031A000F10884011229F14784011229F191840167
:1031B0001229F1CF85011229F12E86011229F1621F
:1031C00086011229F1A086011229F1138801122922
:1031D000F1D68A011229F1098C011229F19F8C0183
:1031E0001229F1F695011229F19096011229F17731
:1031F00099011229F1919A011229F1F29A011229E9
:10320000F10E9C011229F1549D011229F1369E0103
:103210001229F11BA0011229F12CA2011229F19A05
:10322000A2011229F16CA3011229F123A401122990
:10323000F12DA4011229F15CA4011229F119A501B3
:103240001229F1F0A5011229F1B7A6011229F152B4
:10325000A7011229F1BCA7011229F1DAA70112294D
:10326000F103A8011229F125A8011229F175AA017B
:103270001229F14DAB011229F191AB011229F1F99B
:10328000AB011229F1B1AC011229F1E3AC01122911
:10329000F127AD011229F15DAD011229F1A9AD01AE
:1032A0001229F1FEAD011229F103AE011229F156E6
:1032B000AE011229F17BAE011229F18BAF01122967
:1032C000F103B0011229F15FB0011229F1EBB00155
:1032D0001229F1DAB3011229F1BDB4011229F15416
:1032E000B6011229F18AB8011229F138B90112295F
:1032F000F1E9B9011229F12BBC011229F1CEBC016F
:103300001229F115BD011229F1C1BE011229F1D511
:10331000BE011229F1DFBE011229F107BF011229F6
:10332000F113BF011229F132BF011229F17CC10151
:103330001229F1B1C1011229F1BBC1011229F1C554
:10334000C1011229F120C2011229F17CC201122906
:10335000F190C3011229F1F1C3011229F140C50115
:103360001229F184C5011229F12CC6011229F10F8D
:10337000C7011229F1BAC7011229F106C9011229A0
:10338000F104CA011229F1AACA011229F13ACB01AA
:103390001229F151CB011229F188CB011229F192A6
:1033A000CB011229F19CCB011229F1A7CB011229E3
:1033B000F1C5CB011229F109CC011229F166CC012A
:1033C0001229F18BCC011229F1A5CC011229F13778
:1033D000CD011229F161CE011229F1D8CE011229B5
:1033E000F1BFCF011229F1F5CF011229F169D00106
:1033F0001229F1E3D0011229F1E7D1011229F1DDFF
:10340000D2011229F192D3011229F1A5D401122976
:10341000F141D5011229F1CED5011229F1ACD60125
:103420001229F1E4D6011229F13CD7011229F10544
:10343000D8011229F126D8011229F1ADD80112299B
:10344000F1D1D8011229F1F3D8011229F13CD901A7
:103450001229F152DB011229F139DC011229F1E4C0
:10346000DC011229F121DF011229F171DF0112299A
:10347000F1B1DF011229F1F3DF011229F14DE00171
:103480001229F17BE0011229F19FE0011229F1F2EA
:10349000E0011229F120E1011229F159E10112297B
:1034A000F1B8E1011229F125E2011229F174E301D9
:1034B0001229F197E5011229F100E6011229F129FB
:1034C000E6011229F1B4E6011229F120E7011229DF
:1034D000F16BE7011229F18FE7011229F1B3E7013E
:1034E0001229F10FE8011229F12AE8011229F1E36A
:1034F000E8011229F11DE9011229F170CF05122905
:10350000F1A8CF051229F1C9CF051229F10BD00579
:103510001229F171D0051229F17BD0051229F18B06
:10352000D0051229F1C0D0051229F109D4051229BC
:10353000F1B3D5051229F1B3D7051229F17C800426
:103540001229F1C280041229F1A281041229F1A4E6
:1035500082041229F1A783041229F1338504122968
:10356000F19185041229F14E86041229F16C870429
:103570001229F1DD87041229F11988041229F16753
:1035800088041229F17188041229F1B588041229DE
:10359000F11189041229F1AC89041229F1298A0454
:1035A0001229F1F88A041229F1918B041229F1B140
:1035B0008B041229F1E78B041229F1188C041229CB
:1035C000F1D98C041229F1E98C041229F13D8D0402
:1035D0001229F1588D041229F16A8D041229F17310
:1035E0008D041229F1CD8D041229F1298E0412299E
:1035F000F1758E041229F1908E041229F1C18E0406
:103600001229F1DE8E041229F1EA8E041229F15EEC
:1036100090041229F17790041229F1DE9004122906
:10362000F1F190041229F1FF90041229F1B39104F1
:103630001229F19792041229F19D93041229F1277E
:1036400094041229F13194041229F19E9404122950
:10365000F1B594041229F1E794041229F12095049C
:103660001229F14A95041229F1AB95041229F1CBE4
:1036700095041229F1E995041229F12F96041229D3
:10368000F15597041229F1A297041229F1D1970458
:103690001229F14798041229F16F98041229F1A810
:1036A00098041229F1B698041229F10E99041229EE
:1036B000F15D99041229F19C99041229F1CC990425
:1036C0001229F1F899041229F1039A041229F1211F
:1036D0009A041229F1E39A041229F1ED9A041229AD
:1036E000F1289B041229F13E9B041229F1479B0407
:1036F0001229F19C9B041229F1B09B041229F1BEFE
:103700009C041229F1D19C041229F1E89C0412298D
:10371000F1FD9C041229F19F9D041229F1229E04BF
:103720001229F1E09E041229F1EB9E041229F117EF
:10373000A0041229F133A0041229F185A004122952
:10374000F1C4A0041229F1D9A0041229F13BA1046B
:103750001229F1CAA1041229F115A2041229F16655
:10376000A4041229F1E4A4041229F159A504122990
:10377000F17BA7041229F193A7041229F196A7045B
:103780001229F1A2A7041229F1B6A7041229F1BE49
:10379000A7041229F1F1A7041229F1A1A804122902
:1037A000F117A9041229F18AA9041229F13EAA04E9
:1037B0001229F1F3AA041229F112AB041229F1B271
:1037C000AB041229F1BEAB041229F1E9AB041229B2
:1037D000F1ECAB041229F11BAC041229F130AC045A
:1037E0001229F19AAC041229F1C2AD041229F19AFE
:1037F000AE041229F125AF041229F13EB0041229BA
:10380000F1FBB0041229F134B1041229F165B104BD
:103810001229F123B2041229F153B2041229F12E14
:10382000B3041229F1C7B3041229F152B4041229C6
:10383000F103B5041229F186B5041229F1B8B504D3
:103840001229F1F9B5041229F12EB6041229F16DED
:10385000B0051229F1D2B0051229F10FB1051229D4
:10386000F15EB1051229F174B3051229F157B505BE
:103870001229F1FEB8051229F196B9051229F1D1E4
:10388000B9051229F1F3B9051229F156BA05122921
:10389000F18ABA051229F1B2BA051229F1D5BA0591
:1038A0001229F10CBB051229F15FBB051229F1ABFE
:1038B000BB051229F1A8A4051229F126A505122994
:1038C000F15CA5051229F1C8A5051229F13BA70550
:1038D0001229F157A7051229F19CA7051229F12AEF
:1038E000A8051229F183A8051229F1B0A90512290A
:1038F000F1C2AA051229F11FAB051229F18BAB0504
:103900001229F1ECAB051229F12DAC051229F1DADF
:10391000AC051229F1ECAD051229F117AE051229FB
:10392000F162AE051229F1A9AE051229F13BAF05EE
:103930001229F1F6AF051229F13893061229F1493F
:1039400093061229F19A93061229F1DF93061229A0
:10395000F18E94061229F1C894061229F17C97057C
:103960001229F11198051229F1BF98051229F14A7F
:1039700099051229F12A9C051229F1D99D051229D0
:10398000F1909E051229F1E59E051229F1C6A105C7
:103990001229F15EA3051229F1BABD061229F1E23E
:1039A000BD061229F1D9BE061229F14DF6051229DC
:1039B000F1D2F6051229F1E9F6051229F15EF705B3
:1039C0001229F1BEF7051229F1E7F7051229F16472
:1039D000F8051229F100F9051229F167F9051229F4
:1039E000F1CFF9051229F1F6F9051229F12FFA059F
:1039F0001229F14DFA051229F176FA051229F1A4DE
:103A0000FA051229F1EAFA051229F150FB051229EB
:103A1000F1E3BB051229F188BC051229F1A8BC0508
:103A20001229F1C8BC051229F1DCBC051229F134B8
:103A3000BD051229F164BD051229F1E5BE05122963
:103A4000F18BBF051229F16DC0051229F1BEC00529
:103A50001229F101C1051229F144C1051229F1AA67
:103A6000C1051229F1CBC1051229F157C20512294E
:103A7000F188C2051229F1FCC2051229F1AAC40578
:103A80001229F184C5051229F1C6C5051229F120B4
:103A9000C6051229F162B4061229F16CB406122986
:103AA000F18DB4061229F139F0031229F1B6F203AF
:103AB0001229F1F1F3031229F1D0F5031229F11DB6
:103AC000F6031229F1D1F6031229F112F703122994
:103AD000F142F7031229F1D9F7031229F173F80320
:103AE0001229F1E6F8031229F160F9031229F162B3
:103AF000F9031229F164F9031229F166F903122975
:103B0000F183F9031229F185F9031229F19EF903D2
:103B10001229F1EBF9031229F15EFA031229F18F50
:103B2000FA031229F108FB031229F11FFC031229E1
:103B3000F1F0FC031229F167E9011229F18DE90185
:103B40001229F1DFEA011229F10AEB011229F17BB6
:103B5000EB011229F19FEB011229F1BFEB011229B0
:103B6000F109EC011229F133EC011229F156ED01B2
:103B70001229F18CED011229F1BBED011229F1FDA1
:103B8000ED011229F1B1EE011229F1D1EE01122954
:103B9000F126F0011229F1A8F0011229F19FF1019B
:103BA0001229F16FF2011229F1DFF2011229F1312C
:103BB000F3011229F163F3011229F1ABA1021229D9
:103BC000F130F4011229F17AF4011229F1ADF50175
:103BD0001229F1E2F5011229F142F6011229F1FF51
:103BE000F6011229F127F7011229F1C6F80112296D
:103BF000F134F9011229F167F9011229F1A3F90150
:103C00001229F1BCF9011229F15CFA011229F129FA
:103C1000FB011229F1D3FB011229F174FC011229D5
:103C2000F16AA6021229F198FD011229F133FE0171
:103C30001229F113F0051229F15FF0051229F1CDD7
:103C4000F0051229F1EEF0051229F105F10512290E
:103C5000F1B5F1051229F1BEF1051229F111F205B4
:103C60001229F13AF2051229F1A1F2051229F132D5
:103C7000F3051229F174F3051229F1BEF305122997
:103C8000F11DF4051229F149F4051229F1DAF405C0
:103C90001229F119F5051229F158F5051229F18DAE
:103CA000F5051229F19FF5051229F1B1F505122943
:103CB000F1E4F5051229F124F6051229F1AD8E067D
:103CC0001229F1808F061229F19A8F061229F1AB81
:103CD0008F061229F1C091061229F1DF91061229EF
:103CE000F1A8B6061229F1DEB6061229F127B706A9
:103CF0001229F177B8061229F11DEB041229F15CA3
:103D0000EC041229F198EC041229F157EE0412295F
:103D1000F180EE041229F113F1041229F157F10494
:103D20001229F1E0F2041229F178F3041229F1E0EA
:103D3000F3041229F181F4041229F1C3F4041229C5
:103D4000F103F5041229F18EF6041229F1FEF704AD
:103D50001229F123FA041229F151FA041229F178F7
:103D6000FA041229F181FA041229F1DCFA04122969
:103D7000F16FFB041229F18DFE041229F10EFF04EC
:103D80001229F103CA061229F119CA061229F123D0
:103D9000CA061229F173CA061229F1379F061229A1
:103DA000F14A9F061229F1E79F061229F123A00686
:103DB0001229F13AA0061229F15FA0061229F1A1F9
:103DC000A0061229F1D2A0061229F10DA10612298E
:103DD000F187A2061229F1C8A2061229F1D0C20663
:103DE0001229F12AC3061229F183C3061229F165AB
:103DF000C9061229F1A7C9061229F1E9C906122933
:103E0000F1F9C9061229F10080051229F15880053F
:103E10001229F1DA80051229F1DD81051229F17CE0
:103E200082051229F14E83051229F16383051229B7
:103E3000F1AD83051229F1FC83051229F1458405B2
:103E40001229F15884051229F1AD84051229F106D1
:103E500085051229F11A85051229F11A87051229FB
:103E6000F11B88051229F15688051229F1AA880547
:103E70001229F1B78A051229F1478B051229F1D4CD
:103E80008B051229F1E38B051229F1F68B05122916
:103E9000F1458C051229F15B8C051229F1728C0514
:103EA0001229F1A18C051229F1B38C051229F151C7
:103EB0008D051229F15C8D051229F1E88D05122975
:103EC000F1428E051229F19D8E051229F1C28F054E
:103ED0001229F1E48F051229F17292051229F1A736
:103EE00092051229F13293051229F1AA930512299C
:103EF000F1CD93051229F10994051229F168940571
:103F00001229F13895051229F16C95051229F176DF
:103F100095051229F17995051229F189950512293E
:103F2000F10696051229F12E96051229F1509605F3
:103F30001229F17C96051229F1B796051229F1C6CE
:103F400096051229F1D196051229F1129705122929
:103F5000F12597051229F14C97051229F107C5069D
:103F60001229F118C5061229F1A0C5061229F1CFB0
:103F7000E8051229F11EE9051229F1C0EA05122906
:103F8000F17CEC051229F1C4EC051229F1ACED0528
:103F90001229F1DDEE051229F1FFEE051229F15B80
:103FA000EF051229F1DFEF051229F1AA51001229BC
:103FB000F1D851001229F12353001229F16A53005C
:103FC0001229F1BC53001229F13854001229F1A131
:103FD00054001229F1ED54001229F16F55001229F5
:103FE000F11556001229F19D56001229F1DF5600F5
:103FF0001229F11C5B001229F19F5C001229F1DEED
:104000005C001229F12F5D001229F1556000122980
:10401000F1E060001229F1B762001229F1F96300A2
:104020001229F11765001229F18965001229F1554D
:1040300066001229F1BB66001229F1CF6600122931
:10404000F18367001229F1B868001229F1F66A00BD
:104050001229F1766D001229F12B6E001229F14719
:104060006F001229F19E72001229F1AE720012291E
:10407000F10F74001229F19B74001229F1CD750023
:104080001229F15F76001229F15C77001229F1E91B
:1040900077001229F175D1041229F12BD2041229CB
:1040A000F19DD2041229F1ACD2041229F126D304D5
:1040B0001229F195D3041229F19CD4041229F1C5D7
:1040C000D4041229F165D5041229F1B3D5041229BB
:1040D000F12AD6041229F11CD9041229F1F1D904CC
:1040E0001229F15EDA041229F1DEDB041229F192C1
:1040F000DC041229F140DD041229F19BDD041229B0
:10410000F106DE041229F106DF041229F1EEDF04C4
:104110001229F132E0041229F15FE0041229F1873B
:10412000E0041229F1BCE0041229F145E10412294E
:10413000F1A3E2041229F170E4041229F187E504E5
:104140001229F1C4E6041229F1D7E7041229F1700B
:10415000E8041229F1E2E8041229F1AAE90412297B
:10416000F1FBD7021229F170D8021229F1D3D8023B
:104170001229F127D9021229F164D9021229F10179
:10418000DA021229F12ADB021229F181DB0212295B
:10419000F1CCDB021229F10FDC021229F1A2DC02C0
:1041A0001229F1F2DC021229F150DE021229F1C3C8
:1041B000DE021229F125DF021229F1D8DF021229CD
:1041C000F109E0021229F1F4E0021229F15BE102A7
:1041D0001229F15CE2021229F163E3021229F17F54
:1041E000E3021229F1CBE3021229F155E40212296C
:1041F000F12BE5021229F167E5021229F195E5029A
:104200001229F1F4E5021229F117E6021229F1CD83
:10421000E6021229F1E1E6021229F104E70212296D
:10422000F122E7021229F14AE7021229F16BE702B3
:104230001229F192E7021229F1AAE7021229F1618B
:10424000E8021229F184E9021229F16FEA02122927
:10425000F1FDEB021229F14CEC021229F170EC0293
:104260001229F10EED021229F134ED021229F16545
:10427000EE021229F189EE021229F10EEF02122943
:10428000F17BEF021229F1C9EF021229F14EF0027F
:104290001229F192F0021229F142F1021229F1E8F9
:1042A000F2021229F193F3021229F1F2F402122917
:1042B000F11FF6021229F1AAF7021229F1D9F70229
:1042C0001229F1B3F8021229F183F9021229F1DC63
:1042D000F9021229F1F4F9021229F1DAFA0212298B
:1042E000F1F7FB021229F1B6A9061229F1F1A9068C
:1042F0001229F1ABAA061229F111AB061229F1829B
:10430000AB061229F116AC061229F1FD9B06122903
:10431000F15F9D061229F1F9C5061229F10AC606B8
:104320001229F1AAC6061229F1F4FF021229F1D8C6
:10433000FF021229F123C8061229F133C8061229F7
:10434000F14BC8061229F1B8C8061229F1FBFE018B
:104350001229F180FF011229F1E4FF011229F178FD
:10436000C7061229F17BC7061229F1B4C706122924
:10437000F105C8061229F117C8061229F11AC80654
:104380001229F17D97061229F18B97061229F10562
:1043900098061229F1E998061229F1A29A06122923
:1043A000F1079B061229F16A9B061229F1F87F009A
:1043B0001229F1DAB8061229F1FCB8061229F12FF8
:1043C000BA061229F1B3BA061229F1ACAC061229C9
:1043D000F14AAD061229F191AD061229F1D4AD06CC
:1043E0001229F197AE061229F1C3AE061229F1FA8D
:1043F000AE061229F10DAF061229F122AF061229DD
:10440000F12BAF061229F1F289061229F1478A062B
:104410001229F1438C061229F1758C061229F197A5
:104420008C061229F1B08C061229F1C98C061229CA
:10443000F1D38D061229F16E8E061229F14FBC06BA
:104440001229F173BC061229F18CBC061229F1BFA6
:10445000BC061229F1F0BC061229F11EBD06122974
:10446000F128BD061229F18ABD061229F199BD066F
:104470001229F1A3BD061229F1B0BD061229F16D72
:10448000AF061229F193AF061229F1D0AF06122917
:10449000F1DFAF061229F1FEAF061229F166B00670
:1044A0001229F16FB0061229F1CEB0061229F1F2ED
:1044B000B0061229F1B1B1061229F1BEB1061229D6
:1044C000F1CFB1061229F18CCB061229F1A9CB0646
:1044D0001229F10080061229F14680061229F1A660
:1044E00081061229F1B381061229F1C6810612292B
:1044F000F1E581061229F1FB81061229F10F8206EE
:104500001229F18482061229F1E982061229F17139
:1045100083061229F1FA83061229F1CF84061229A3
:10452000F1DF84061229F1EE84061229F1CCC806C7
:104530001229F1F0C8061229F118C9061229F14012
:10454000C9061229F183FD031229F1AAFD031229DC
:10455000F1CBFD031229F130FE031229F1FDB10662
:104560001229F116B2061229F122B2061229F136E9
:10457000B2061229F154B2061229F15EB2061229CE
:10458000F168B2061229F17BB2061229F1CEB20609
:104590001229F107B3061229F136B3061229F18464
:1045A000B3061229F1D3B3061229F1EEB30612298C
:1045B000F1F8B3061229F109B4061229F14FB40635
:1045C0001229F19CCA061229F1EDCA061229F1340A
:1045D000C6051229F15EC6051229F17AC60512290F
:1045E000F18DC6051229F1A3C6051229F100C705F0
:1045F0001229F133C7051229F16FCB051229F19564
:10460000CC051229F1C8CC051229F114CD051229C7
:10461000F140CE051229F168CE051229F17DCE05B3
:104620001229F18DCE051229F1D1CE051229F132D0
:10463000CF051229F142CF051229F19DC106122999
:10464000F1B8C1061229F1E1C1061229F1FBC10638
:104650001229F120C2061229F13FC2061229F15790
:10466000C2061229F185C2061229F19FC20612293B
:10467000F1C4C6061229F10AC7061229F1D5A2060D
:104680001229F1DCA2061229F1E8A3061229F11879
:10469000A4061229F13EA4061229F161A4061229EA
:1046A000F183A4061229F1BDA4061229F123A5065F
:1046B0001229F15CA5061229F1A8A5061229F1D547
:1046C000A5061229F1F5A5061229F10ABF0612293D
:1046D000F12CBF061229F153C0061229F156C0066B
:1046E0001229F1F4C3061229F166C4061229F1A4B5
:1046F000C4061229F1E5C4061229F100E1051229C8
:10470000F106E1051229F14CE1051229F135E30525
:104710001229F16BE3051229F1C5E3051229F1A76E
:10472000E4051229F1ECE4051229F11FE50512292F
:10473000F1A9E5051229F1C3E5051229F14FE705B5
:104740001229F14DE8051229F196E8051229F165C3
:10475000D8051229F17BD8051229F110D9051229A3
:10476000F10CDA051229F110DB051229F1B5DB0590
:104770001229F1F9DB051229F176DC051229F1D7AE
:10478000DC051229F1E7DC051229F10EDD051229FD
:10479000F160DD051229F1EDDE051229F1F2DE05E9
:1047A0001229F114DF051229F16BFF041229F19986
:1047B000FF041229F1CEFF041229F1D0FF041229BF
:1047C000F1D2FF041229F1E3FF041229F1E5FF04FD
:1047D0001229F1E8FF041229F1BDBA061229F12BC2
:1047E000BB061229F14DBB061229F185BB06122921
:1047F000F1BBBB061229F1A8FC021229F1EBFC0265
:104800001229F109FD021229F13AFF021229F1726F
:10481000FF021229F196FF021229F1F9CA061229A4
:10482000F18178001229F14879001229F1397A00D2
:104830001229F14A7A001229F15B7A001229F1A7B4
:104840007A001229F19B7C001229F1F87D001229CF
:10485000F1287E001229F1F47E001229F1517F0027
:104860001229F16DCE031229F1F6CE031229F16C53
:10487000CF031229F1F2CF031229F1F5D103122946
:10488000F1F5D3031229F106D5031229F1BFD5039F
:104890001229F181DA031229F171DB031229F107E0
:1048A000DC031229F136DC031229F102DD0312299F
:1048B000F118DD031229F13BDD031229F1B5DD0307
:1048C0001229F1D4DD031229F135DF031229F1D5C4
:1048D000DF031229F11CE0031229F18EE0031229F3
:1048E000F1FAE0031229F15EE1031229F11CE2035F
:1048F0001229F193E2031229F1CFE2031229F137D1
:10490000E3031229F135E4031229F1C7E503122963
:10491000F174E6031229F195E6031229F17CE8030C
:104920001229F11FEA031229F11BEB031229F1628C
:10493000EF031229F18CB6041229F1E0B604122912
:10494000F175B7041229F187B8041229F168B90486
:104950001229F1DAB9041229F123BA041229F1C893
:10496000BA041229F193BB041229F1E3BB04122902
:10497000F131BC041229F1F1BC041229F12FBF045A
:104980001229F119C0041229F14DC3041229F1367C
:10499000C4041229F1E5C5041229F1EFC604122955
:1049A000F1A5C7041229F18DC9041229F126CC04FE
:1049B0001229F151CC041229F179CC041229F13CCD
:1049C000CD041229F1D1CD041229F114CE041229FB
:1049D000F145CE041229F103CF041229F18ED0043F
:1049E0001229F107FC051229F12DFC051229F17C91
:1049F000FC051229F198FC051229F1C9FC051229C0
:104A0000F1D9FC051229F1E6FC051229F1F3FC05A8
:104A10001229F1DFFD051229F11DFE051229F127EA
:104A2000FE051229F134FE051229F13FFF05122976
:104A3000F151FF051229F15CFF051229F16EFF0506
:104A40001229F177FF051229F181FF051229F1F6EC
:104A5000FF051229F12785061229F16C8906122912
:104A6000F18889061229F155A6061229F16BA606CE
:104A70001229F115A8061229F13FA8061229F1877B
:104A8000A8061229F187A9061229F159C006122990
:104A9000F167CB061229F1CB7F001229F121A10287
:104AA0001229F1DFA0021229F1B7A0021229F13375
:104AB000A0021229F1F39E021229F1539E0212293B
:104AC000F1B69D021229F1AC9C021229F1599C0207
:104AD0001229F1279C021229F1649B021229F18FFD
:104AE00099021229F12099021229F1F29802122951
:104AF000F1EF98021229F17697021229F1779602C6
:104B00001229F14195021229F18594021229F1FB33
:104B100093021229F10193021229F15D92021229E6
:104B2000F1A491021229F16791021229F1C59002B4
:104B30001229F18FA5021229F164A5021229F11C94
:104B4000A5021229F163A3021229F1E3A20212299C
:104B5000F13090021229F11F90021229F18C8F027C
:104B60001229F1568F021229F1BBA2021229F1FD7E
:104B70008E021229F18B8E021229F1568E02122911
:104B8000F1F78D021229F18FA2021229F115FD0110
:104B90001229F1C68D021229F18E8A021229F148DA
:104BA0008A021229F13C8A021229F19C89021229F7
:104BB000F1DC88021229F14B86021229F1DC830212
:104BC0001229F19A83021229F16E82021229F1232D
:104BD00082021229F15F81021229F1328102122927
:104BE000F16A80021229F13A80021229F100800252
:104BF0001229F1E9FF021229F1EDFF021229F16BEE
:104C0000A2021229F1EBFF021229F1C5F301000003
:104C10000080FBE4738F000100AF0887000100AE45
:104C20000824000200D61125000200D81126000237
:104C300000DA1127000200DC1128000100DE112932
:104C4000000100DF1184000400E01186000100E48F
:104C5000112A000100E5112B000100E6112C0001D2
:104C600000EA112D00080099082E000100EB112F19
:104C7000000100EC1130000100ED1131000100EEE7
:104C80001132000100A10833000100A20834000124
:104C900000EF1136000100A30838000100F01139BF
:104CA000000100E91183000200FA1163000100AD68
:104CB0000864000100E71165000100E8116D0001C2
:104CC00000F9116E000200970843000100F1114441
:104CD000000200F21145000100F41146000200F547
:104CE0001147000800A50848000100F7114B00011A
:104CF00000F81104000100FC11A1000100FE1137B1
:104D0000000100FD1188000100B0083C000100A472
:104D10000800000000000000013636010100010219
:104D2000010001030100010401060605020000075D
:104D30000100340801000F090401010D0100FF0EFC
:104D400008000017020000190100FF1A0100011BF2
:104D50000100FE1C0100081D0200001F01000120CF
:104D6000010001210200002301000F24020000269F
:104D700001000127010008280200FF2A0100072B7B
:104D80000102402C0100002D0100012E0100012F25
:104D90000100FF30010B1C310800003A0100083B04
:104DA00001000F2F010000030071003001600011AD
:104DB00000700031022003500480001000610000E8
:104DC00000140063007300720062004300000013CF
:104DD00000060000000000040012000000000000B7
:104DE00000000004000400370037003C02440000CB
:104DF0000000000000000065000000350081000098
:104E000000050000008300000001017101010101A3
:104E10000111010101310101010101800110016154
:104E2000013B001400630173017201620143010040
:104E300001130106013D01350004011201000100CA
:104E4000010001000104010401330133013C01446C
:104E500001320136000001000165010001350081C9
:104E600001000105018201830100010304710402B4
:104E7000046004110470040204020401040204101A
:104E800004610400041404630473047204620443A0
:104E900004000413040604000400040404120400C3
:104EA0000400040004000451046400000400040031
:104EB00004440400040004000400046504000435F4
:104EC00004810464000504000483040004030271E7
:104ED000023001600211027002010202020202802D
:104EE00002100261023A0041006302730272026220
:104EF0000243020002130238000002000204021200
:104F0000020002000200020002040204023700371D
:104F1000003C024402000239000002000265020067
:104F200002350281020002050282028302000201B0
:104F300003710301030103010301030103220302BF
:104F40000301031003000300030003000300030038
:104F500003000342030003240306030003000304C9
:104F6000031203250323032503230304030403007F
:104F7000030003000344030003000323030003654D
:104F80000321003503810300030503000300030030
:104F9000030000CE40130044400100CE400200CC8C
:104FA0003F0300D23F0400D83F0500DE3F0600EA81
:104FB0003F30000840310002403200144033001AF4
:104FC00040350020403400264036002C4011003887
:104FD0004014003E401500FC3FFFFF00003600017A
:104FE00000060000000F00000000000000000000AC
:104FF00000000003FFFF00000403FFFF0000FFFFAD
:105000000FF4010005C4040320000100000B0000A0
:1050100000000000000003010FF6481449FC482C72
:105020004902491A490249264908492C4902491AA4
:105030004900000000000000000000000000000027
:1050400000000000000E492C490000000000000094
:105050000001E631061C320816320B34321056318C
:105060000A4C3202EC31050A3207F2310CC8310D1C
:10507000DA31FF000003EAF5E5D5D5C5B5A595956C
:105080008585757565655555454535352525151550
:10509000057836A8367E368436A23696369036AEF9
:1050A00036B436BA36C6368A3672366C3600160FC5
:1050B00000000B150B020002220F32000006010354
:1050C0000507090B0D0F00020406080A0C0D00006D
:1050D0000000000000008967452301EFCDAB5A694D
:1050E00067426565416C6C69616E63653039743720
:1050F00086378C37423692373C364836E037FE37B3
:105100000438E637F237EC377C357635B235B835CA
:10511000AC356435303017181921301B1D1F300095
:10512000034948424D18172505023030161819203A
:10513000231A1C1E30000119161816161523030019
:105140000C0E020B040B0A0708000F00383C3E3619
:105150003B3B352B432CC83798379E37AA37A437AB
:105160009C36C036F837CC36D23602040201010133
:1051700001090288358E358235BE359435A6350055
:10518000BE040A15000E0004007F00000000002885
:10519000000C00E8030C0A03080900040008FF1EC5
:1051A0001E09030401100C080F05C082C08390077C
:1051B0008CE4F0A3F07CD57D047A067B071246F2DE
:1051C000122F649008AEE070047900800279011219
:1051D0004BEA122F6A0266C874F512250774F5129D
:1051E0002AE9E9FF8A08EBFEEF705E740265087039
:1051F0003E90071F7408F0750A00780A122A49ECDD
:10520000F50A780A122A49EEF50A780A122A499014
:1052100011E01228699011E4E0F97CA57D08901155
:10522000FA1262A4122F8E7407122A580252FA74CC
:1052300001650860030252FF90071F7408F07B00AD
:10524000EEFAF9122FCA0252FA74016F6008740262
:105250006F60030252FFEA600674036508705490A1
:10526000071F7402125319122CAC122F7CE9F8900C
:105270000724E0A2E34019E87016900790E004F0DC
:105280006404700C9080E2122CAC9011E0122CB8E7
:10529000740365087066900791E0F9740129F0E9DC
:1052A000C3940540579080E2122CAC9011E0122C70
:1052B000B8804974016508704674016F90071F70CB
:1052C0002E740AF07401122CCFE4F07402122CCF69
:1052D0007403F0908122122CAC7404122CCF122C87
:1052E000B87408122CCFE41260D01231F880207408
:1052F0000A125319122CAC122FB2E9F8E860107C94
:10530000E87D037A017B0090071CE0F9123DB07440
:105310000B122A587F0302276BF09011E4E0F990FA
:1053200011E02274F6122507E9FFEAFE7AD1F9129C
:105330003C6CEA4B702A7A027B00123C54EA4B70B8
:105340000E7A107B0090071CE0F9123C9080188ABE
:10535000828B8374D1F0EFA3F0EEF9123C608007EA
:10536000EF8A828B83A3F00254E874F71225078931
:105370000890067FE0FEA3E080248E828F83A3A3A3
:10538000125FDF60128E828F83A3A3125AE9125F2D
:10539000DFFAA908123FB48E828F83127799FFEE4D
:1053A0004F70D7900696E0FAA908123FB412330C5A
:1053B0009006EE125CD81233060275BD74F1122508
:1053C00007890A8C08740F122CCF12629074111284
:1053D0002CCF125AD1750900750E00804AE50B12C8
:1053E0005489F50CA3E0F50DE50EC333FEE433FF5D
:1053F000EA2EF582EB3FF583E0650C7004A3E065CF
:105400000D7019E509C333FEE433FFEC2EF582ED90
:105410003FF583E50CF0A3E50DF00509050BE50B61
:10542000C3950840B8050EE50EC3950A5005750BE7
:105430000080EBA9090268A274F4122507890B7495
:105440000C122CCF126290750A008002050AE50A40
:10545000C3950B502F7D0080010DEDC39C50EDE5F1
:105460000AC333FEE433FFEA2EF582EB3F12549970
:10547000F509ED12548965087004A3E0650970D937
:10548000790180027900026AECC333FEE433FFE85D
:105490002EF582E93FF583E022F583E0F508A3E0ED
:1054A0002274F612250712552F7003A3E06D7017B2
:1054B0007508227509077808122A45EEFA1240D4B9
:1054C0007402122A58801A75080275098078081229
:1054D0002A458C088D097808122A4512555B122A34
:1054E0005880057402122A587F0202276B74F61244
:1054F000250712552F7003A3E06D701775082F75DF
:1055000009077808122A45EEFA1240DA7402122AC4
:1055100058801A7508037509807808122A458C0886
:105520008D097808122A4512555B122A5880B9EA6B
:10553000FEEBFF125547FAA3E0F9EA2400FCE43938
:10554000FD9006EEE06C22EE2413F582EF1260353A
:10555000E0F8A3E0F988828983E022EE127592EFE9
:105560001276E6FD7C801267701240F87404227493
:10557000F612250774FE122AE9EAFEEBFF8518826F
:10558000851983E4F0A3F01268AFFA88828983A3B7
:10559000A3E0F97509007508006005C394F14005A2
:1055A00075088280439006EEE06A7003A3E06B709A
:1055B00020851882851983AA82AB83123882E9F587
:1055C00009851882851983126D5C701C75088380AB
:1055D000179008AEE06004640170057508818008CA
:1055E000E064027003750880851882851983125A59
:1055F000D1A908EEFAEFFB1240E0E5096014851826
:1056000082851983126D5C60098518828519831261
:105610006E140254E374F2122507EAFEEBFF750ADA
:1056200000750B0012568912330CEA65087003EB03
:1056300065097012123894E914F50A79017A587BD9
:105640000712389A8003750B8012755AF50C780C86
:10565000122A49750C58750D07780C122A45780ADC
:10566000122A497808122A45E50BF5087808122A0B
:105670004912657DF582EF1263F57A057B80124051
:10568000E67407122A580262B21275681262948890
:105690008289831277D6F508E439F5092274F61267
:1056A0002507E9FE7F00802F8A828B8312549BF9A5
:1056B000E5082400E439F509EF33F8E433F9EC2880
:1056C000F582ED39F583E508F0A3E509F0EA240257
:1056D0000A0AEB3400FB0FEFC39E40CC0254E8747F
:1056E000E812250774FB122AE98A168B178518829F
:1056F000851983E4F07403122CCFE4F0A3F00412B4
:105700002CCFE4F01273CCF50AA3E0F50B850A82E6
:10571000F5831277D2FEE439FF850A82850B83A3D5
:10572000A3E0FA850A82850B83A3A3A3E0F9EAF537
:1057300008E439F509E50A2404F50AE50B3400F517
:105740000BEEFAEFFB1233AEE96401702C12720A11
:10575000122A49E4F508F5097808122A4578081252
:105760002A499006EE1228717508807808122A4995
:10577000125AF1122A58025ABFEEFAEFFB1233AE58
:10578000E9700C9006EEE06E7003A3E06F70BE123D
:105790005AD78814602EC333FAE433FB123CEA7400
:1057A00003122CCF125CD87403122CCF126D5C60E4
:1057B000137403122CCF125AC9A914123FE48A0A97
:1057C0008B0B8003751400125AD7880F602AC333DD
:1057D000FAE433FB123CEA7401122CCF125CD87449
:1057E00001122CCF126D5C600F7401122CCF125A73
:1057F000C9A90F123FE48003750F0090067F805DFA
:10580000850A82850B83A3A3A3A3A3A3A3A3E4F088
:10581000A3F0AA0AAB0B851282851383A3A3125AA5
:10582000E7125FDFF9123C60851082851183E0C0CA
:10583000E0851882851983E0F8745828F58274078A
:10584000127795D0E0126AF104F0E515A2E0500756
:10585000AA10AB11123CF0851282851383E0F51279
:10586000A3E0F513E51245137003025A378512823F
:10587000851383A3A3125FDF60DD85128285138306
:10588000A3A3A3A3A3A3A3A3E0A2E050CA8512826B
:10589000851383A3A3A3A3126D5C85128285138352
:1058A000A3A3601F125FDFFA79018512828513833B
:1058B000A3A3A3A3125FE4124C138A108B117515D6
:1058C00001800F125AE7A3A3E0F510A3E0F51175CC
:1058D0001500E5104511700302584A8510828511A4
:1058E00083A3E065087004A3E06509600302584AD9
:1058F000851082851183A3A3A3A3A3A3A312287158
:10590000851082851183A3A3A3A3A3A3E0FC740540
:10591000122CCF1262A4A914123FC67402122A5884
:10592000E9703C851082851183A3A3A3A3A3A3A33D
:10593000A3A3A3122871851082851183A3A3A3A317
:10594000A3A3A3A3A3E0FC7403122CCF1262A4A907
:105950000F123FC67402122A58E9700302584AE532
:105960000F2514C333240AFA7B00123C548A0A8B95
:105970000BEA450B70030258288A828B8374D2F09D
:10598000851682851783A3A31262908A828B831265
:1059900060D88A828B83A3A3A3A3E5141277DCE5E6
:1059A0000FF0E5146038EA2405FAEB3400FBE50A51
:1059B000240AF8E50B3400F98A828B831260DA74CA
:1059C00003122CCF125B0F122A41E514C333FCE4FF
:1059D00033FD8A828B83126F10122A58800D8A82BF
:1059E0008B83A3A3A3A3A3E4F0A3F0E50F700302AA
:1059F0005800E514C333F8E433F9E50A28F8E50B59
:105A000039F9E8240AFAE93400FB850A82850B8318
:105A1000A3A3A3A3A3A3A3A3125CD87401122CCFA6
:105A2000125B0F122A41E50FC333FCE433FD1276FB
:105A300036122A58025812851882851983E0602789
:105A400012720A122A497508587509077808122A2D
:105A5000457403122CCF127214122A499006EE12CA
:105A600028717508008029EEFAEFFB1233AEE97059
:105A70002A12720A122A49750858750907780812FD
:105A80002A457508007808122A499006EE122871F6
:105A90007808122A49125AF1122A587403122CCF8C
:105AA000126D5C60087403122CCF126E1474011214
:105AB0002CCF126D5C60087401122CCF126E14741E
:105AC00005122A587F1002276B125AD1AA0AAB0B73
:105AD00022E0FCA3E0FD22850A82850B83E0F8A387
:105AE00085820A85830B22E0F8A3E0F5838882A3F0
:105AF00022E5162402FCE5173400FDE516126512B6
:105B0000E51712677D7A067B801240E6740722E073
:105B1000F50CA3E0F50D750E00780C2274F4122537
:105B20000774F4122AE98A088B09ECFEEDFF740B66
:105B3000122CCF7403F0122CCFAA82AB831246F240
:105B4000123306EAFCEBFD7403122CCFAA82AB835E
:105B50001246ECE9600A125C696010E06401600BB7
:105B60008518828519837484025C218E828F83A3B9
:105B7000A3A3A3A3A3A3A3E06017C394F15012129D
:105B80005C697018EE241412755D6005C394F140D1
:105B90000B8518828519837482025C21E508240C28
:105BA000F582E50912756064217002A3E0704F85EB
:105BB0001882851983748CF0125C5C122A49125C7D
:105BC00078124B7E7401122A58E970568518828526
:105BD0001983E4F0123F36125C6970467401122C8E
:105BE000CFAC82AD8312770EFB124B60E970337D30
:105BF000007C00790012770EFB1240A48024125C16
:105C00005C122A49125C78124B787401122A58E906
:105C10008518828519837007E4F0123F368003747B
:105C200088F0127590E509125C61122A497401121C
:105C30002CCF85820A85830B780A122A45E5082431
:105C40000CF582E509125C6F4480F50B780A122A84
:105C500045126635122A58740C026AE9EE12628403
:105C6000EF1276E6F50A780A22125D2A6403221200
:105C70006031E0F50AA3E022EE240BFCEF3400FDD6
:105C80008E828F83A3A3A3A3A3A3A3A3A31262A81B
:105C90008E828F83A3A3A3A3A3A3A3A3E0F922C00F
:105CA00082C08374F3122AE9851882851983E4F08F
:105CB00004122CCF125CD87403122CCFAA82AB83AF
:105CC000122E98851882851983AA82AB83122ED44E
:105CD000740D122A580266C8EAF0A3EBF02274F69B
:105CE000122507125D1A12748D90072AE058F508E4
:105CF000A3E059F509E5084509601C7808122A4512
:105D00009006EE12287112755AFD7C0012676C1213
:105D100040F27404122A580254E8EAFEEBFF125DC6
:105D20002AF8A3E0F9888289832212756CE0227434
:105D3000EA12250774DB122AE98A148B1575120002
:105D4000751300125FD9F50E851882851983AC8210
:105D5000AD837A007B00799C122FDC7A04790012E3
:105D60002EE6EAF50C851882851983E0250CF0F8FB
:105D7000E50EC3984003025F61E0C3950EF509C3C9
:105D800094044003750903E50975F01AA4FAABF011
:105D9000123CEA8A128B13EA45137003025F6475A2
:105DA0000D00AE12AF13850E08025E36125FB88585
:105DB0000A82850B83A3A3A3A3E07039850A828599
:105DC0000B83126D5C701212627D127554EE2418F2
:105DD000F582EF127795E48016125FD0F09005609F
:105DE000E014C0E0EE2418F582EF127795D0E012AF
:105DF0006021E4803E900560E004C0E0EE2418F5E8
:105E000082EF127795D0E0126019C39403EE40033D
:105E1000025EC612627E12779574021260196401E6
:105E20006003025ED3125FB1127795E4F0EE2416A0
:105E3000125FD3125FEDE50DC395094003025EF7D3
:105E4000E508C3950C4003025EDCA908122F588AAE
:105E50000A8B0B050890054D125FF9850A82850BA8
:105E600083126290125FAA12748012603A850A82CD
:105E7000850B83A3A3A3A3A3A3A3A3A3A3E0C0E031
