:020000040000FA
:10000000020D9E022003FFFFFFFFFF02200BFFFFF8
:10001000FFFFFF020523FFFFFFFFFF02201BFFFF83
:10002000FFFFFF022023FFFFFFFFFF02202BFFFF48
:10003000FFFFFF022033FFFFFFFFFF020577FFFFF7
:10004000FFFFFF022043FFFFFFFFFF02204BFFFFE8
:10005000FFFFFF022053FFFFFFFFFF02205BFFFFB8
:10006000FFFFFF022063FFFFFFFFFF02206BFFFF88
:10007000FFFFFF022073FFFFFFFFFF02207BFFFF58
:10008000FFFFFF022083FFFFFFFFFF02208B002006
:10009000000090200000932000000100000000C834
:1000A0000300380000000000260000000000FFFFF1
:1000B000FFFF0000040074F8120B1B780079008029
:1000C0001A74922EF58274031201F4900412120134
:1000D000FE4005900412E4F01201EB900412E0FEE1
:1000E000A3E06E6007C3E89CE99D40D5806D74F87D
:1000F000120B1B120153C398120153FEE8500B124E
:1001000002CB700B7800790080141202E050F57A6F
:10011000007B00803CE004F0439A041201EBC3E84A
:100120009CE99D50288A828B83E0C0E0900497E090
:10013000FE74162E120308D0E01202BC900498E45C
:10014000F0900497E0C3947F40CBE480CAE8FAE9DA
:10015000FB800C900496E0F8A3E022E8FAE9FB7F2C
:1001600001020C8074F8120B1B7800790090051BBB
:10017000E0705AA3E0705675F900C28FC284A28362
:1001800040FCA28F4004A28350F8E5F9C28FA283FD
:100190005004D2848037C0E0E0FE749B2EF5827458
:1001A0000412030CD0E0F090051C1202F440D3E4DA
:1001B000F080CF749B2EF58274041201F490051B1D
:1001C0001201FE400590051BE4F01201EB90051BA7
:1001D000E0FEA3E06E6007C3E89CE99D40D5E849D6
:1001E0007006E4F090051BF002015BE8240108E9C9
:1001F0003400F92212030CE08A828B83F022E0049F
:100200001202C0C394802274F8120B1B90059D1239
:100210000156C39890059D120156FEE85007120240
:10022000CB700B80051202E04004EC4D70077A00A1
:100230007B000202B98A828B83E0F5F9A3AA82AB24
:1002400083780179008006E004F01201EBC3E89C9A
:10025000E99D50278A828B83E0C0E090059EE0FEF6
:10026000741D2EF582740512030CD0E01202BC90AE
:10027000059EE0C3947F40CFE480CEC28FA283402E
:10028000FCC284A28F4004A28350F890059D120204
:10029000FBE0F5F9C28F90059DE0FAA3E06A9005B6
:1002A0009D70051202FB80051202F44002E4F0A2E8
:1002B0008350D0D284E8FAE9FB02015F1202C02227
:1002C000F08A828B83A3AA82AB8322C39EF895E037
:1002D000F91202D522E824FF18E934FFF9E849228F
:1002E000C39EF895E0F9E8247FF8E93400F9C3E803
:1002F0009CE99D22E004F0C3948022E0FA741D2A58
:10030000F582740512030C22F58274043400F5831F
:100310002274FF120D2D1203FA1206D8E97003029F
:1003200003D77E00900390E06401700DC2849003B7
:10033000917401F09005B38005D2AF9005B77808AD
:10034000120D8F7C017D00851882851983AA82ABEE
:10035000831204DF8B0DEA450D6012E064F8602C17
:10036000E0640770089005BB7808120D8F85080CB3
:1003700085090D850A0E850B0F9005BF7808120DB3
:100380006BE50C450D450E450F70B80E900390E0DF
:1003900064017009D284900391E4F08002C2AFEE50
:1003A000A2E05033900390E06401700C75F800C235
:1003B000AB539AF7D2EA800C758600C2AAC28B535F
:1003C0009AFBC2E990000174CDF0022000C2AF7523
:1003D000C9AB75C95B80FE1204A4C2AF75C9AB7509
:1003E000C95B80FE781075B60FE5B4A2E750FAE558
:1003F000BBC39940F118E870ED22C082C083A2927D
:1004000050047A0080027A8053BEFBE59DA2E6503C
:10041000FA0078F87901001202D570FA8AC6E59ED2
:100420006A70FB43BE049062707408F0794A12034C
:10043000E490000174F5F07403F5D575D488A2A09A
:10044000E433900390F0A2E05029D28453F3F753A1
:10045000F3EF53FDF743FD10538FF753F7DF43FCE2
:100460002043F10253F5DF75F82043F4F0D2FED2B9
:10047000AB802C53FF3F85FFFF53F1FE43F30C533A
:10048000F2F375868075C480900499E4F0A3F0754A
:10049000C2D875C50B75C402438640D2AAD2E9D032
:1004A00083D0822274F5120B1B794E1203E4900361
:1004B00090E07002D2AF1205C8E960FAE0701B90BC
:1004C00005C37808120D8F009005BF7808120D6BD8
:1004D000E5084509450A450B70ED7F04020C80C014
:1004E00082C083900390E070051200B6801E9003D6
:1004F00091E06015A28F500DE5F98A828B83F07A26
:10050000017B0080077A0080F81201648091C0822C
:10051000C083900390E070051200EE800312020782
:1005200002049FC0E074F2120B81900001E064CDE0
:100530007005122013803BE064F57035E5C1C0E022
:10054000900413E0F8749228F582740312030CD01F
:10055000E0F0900412120156687006E595900415BB
:10056000F09004131202F44002E4F0A374C6F08089
:1005700001007F01020BE0C0E074F1120B819000DA
:1005800001E064CD700512203B8038E064F57032E4
:10059000120153687009539AFBA37401F08024C2BE
:1005A000E9900496E0F50874012508F07416250812
:1005B000120308E0F5C1900496E0C394804004E47F
:1005C00080DA007F02020BE074F7120B1B74FF123B
:1005D0000D2D7E008033900384E0F8851882851904
:1005E00083E068700D900382E0644D700512081B73
:1005F000E9FE900385E4F0900387F0851882851961
:1006000083E0F8900384E068F07C017D0085188227
:10061000851983AA82AB831204DF8B09EA4509702E
:10062000030206CCE0C0E0900387E0F8900385E089
:10063000FAE82AF8E434001209D3D0E0F0900387F6
:10064000E0601114602014603E14604E1460641465
:10065000608480A7851882851983E064FE709C9071
:10066000038774018094900384E4F08518828519CF
:1006700083E0900386F0C394809003874004E402F3
:1006800005FA74020205FA851882851983E0900341
:1006900082F090038774030205FA85188285198316
:1006A000E0900383F0900386E06019900387740460
:1006B0000205FA900385E004F0F8900386E0686094
:1006C000030205FB90038774050205FAEEF9740135
:1006D000120CFA7F02020C8074ED120B1B74FB12D9
:1006E0000D2D7508047509007808120D7E7402122C
:1006F0000DC91209C0120CFA851882E0F47003A328
:10070000E0F4600F851882851983E0F8A3E0F9E82A
:1007100049700302080F7402120DC9E0687003A348
:10072000E06970030207E975080090059F781012D0
:100730000D8F800A9005A37810120D43604A750A48
:1007400001750B00780A120D7E7406120DC9AC8279
:10075000AD8385100A85110BAA0AE50B5407FB8AA5
:100760000C85110D85120E85130F740B780C120D6C
:1007700014A90C1209CA120CFAE0F9AA08AB091262
:1007800009DF8A088B0980089005A77810120D8F61
:100790009005AB7810120D6B9005AF7810120CC05D
:1007A0005092E4F91209DFE4F91209DF7402120D24
:1007B000C9EAF0A3EBF07508017509007808120D7D
:1007C0007E7402120DC9AC82AD837A247B08120AB2
:1007D000A07402120CFA7508047808120D7E7402D7
:1007E000120DC91209C0120CFA1209B2120DC9E099
:1007F000687003A3E0697017851882851983E0F497
:100800007003A3E0F46008E849600479018002798C
:10081000007405120CFA7F0C020C8074F3120B1B8F
:1008200074FC120D2D900306E0FAA3E0F9EA24000F
:10083000F8F508E93408F509750A017F007E009093
:100840000383E014600C1460401470030208E20299
:10085000095FE5095401F9E8497011880C85090D13
:100860007409780C120DADA90C120B04750C108EC6
:100870000D780C120D7E7C087D03AA08AB09120AC4
:10088000A07402120CFA02095F880C85090D740924
:10089000780C120DADE50CC3947940040F02095F8A
:1008A000750A408E0B780A120D7E7C097D03EAF5ED
:1008B0000AE5095401F50B7402780A120D58AA0AC8
:1008C000AB0B74097808120DADA9081209CA120CF5
:1008D000FA900307E0A3F0900306E0A3F0750A4343
:1008E000807D7508048E097808120D7E7402120D41
:1008F000C91209C0120CFA7402120DC9E0F8A3E083
:10090000F9851882851983E0687003A3E069603B6C
:100910001209B2120DC9E8F0A3E9F07508017808D0
:10092000120D7E7402120DC9AC82AD837A247B084D
:10093000120AA07402120CFA7508047808120D7ECF
:100940007402120DC91209C0120CFA1209B2120D6A
:10095000C9E0687003A3E06970030E80027F07900E
:100960000305E0D2E7F0EFA3F0E50A900303F0748B
:100970004D650AF5087404250AFB7A0380071209FD
:10098000D0E062080AEAC39BA2D265D033EAF840FD
:10099000ED1209D0E508F074012AFC3395E0FD7AE8
:1009A000027B0312050EEEF97404120CFA7F0602A4
:1009B0000C80851882851983E0F8A3E0F97402227F
:1009C000AC82AD837A907B007904120A1B740222F8
:1009D0003395E0F9740228F582740339F58322C057
:1009E00008C0097C088A088B09740F7808120DADBD
:1009F000EAC333FAEB33FBE9A2E7500474014AFA85
:100A0000E508A2E0500874216AFA74106BFBE9C390
:100A100033F91CEC70CFD009D0082274F5120B1BEF
:100A20008908740B120DC9E0FEA3E0FF740F55088E
:100A3000F50A750B00740B780A120D58EA2400F8B9
:100A4000EB3480F9E82400E9350BF9E5C7F509A294
:100A5000AFE433F50AC2AFE508C4540FFAE5C75452
:100A6000F84AF5C7801C88828983E08C828D83F0E8
:100A700088828983A3A882A9838C828D83A3AC8278
:100A8000AD83EEFAEFFBEA24FF1EEB34FFFFEA4BE7
:100A900070D48509C7E50AA2E092AF7F04020C80FA
:100AA00074F7120B1B7409120DC9E0F508A3E0F5E9
:100AB00009ED900388F0ECA3F0A37462F0A37473C3
:100AC000F0A3E0541FF0E508333354FCA3F07406A0
:100AD0007808120DADE50890038CF090038E741227
:100AE000F0A37442F075D1FE75D601EA906271F000
:100AF000EBA3F0906270E0D2E1F0E0A2E740FB7F70
:100B000002020C80C082C083E9C333906272F0900D
:100B10006270E0D2E0F0D083D082222518C582C076
:100B2000E0E51934FFC583C0E0E518C3958224F9D8
:100B300010AF0885831985821880088583198582FE
:100B400018D2AFCEF0A3E520F0A37808E608F0A312
:100B5000DEFAEFF0A3E58124FBF8E608F0A3E6084F
:100B6000F0A30808E608F0A3E608F0A315811581B4
:100B7000D0E0FED0E0F815811581E8C0E0EEC0E0DD
:100B800022C0D02518C582C0E0E51934FFC583C056
:100B9000E0E518C3958224F310AF08858319858298
:100BA000188008858319858218D2AFC8F0A3E9F0B0
:100BB000A3EAF0A3EBF0A37908E709F0A3D8FAECD5
:100BC000F0A3EDF0A3EEF0A3EFF0A3D0E0F0A3D0FC
:100BD000E0F0A3D0E0F0A3E520F0A3E5F0F0A3223D
:100BE000851983851882E0C0E0A3E0F9A3E0FAA3A9
:100BF000E0FBA37808E0F608A3DFFAE0FCA3E0FD41
:100C0000A3E0FEA3E0FFA3E0C0E0A3E0C0E0A3E018
:100C1000F5D0A3E0F520A3E0A3F5F010AF0885839D
:100C2000198582188008858319858218D2AFD082F1
:100C3000D083D0E0F8D0E032120DD8B90003020C16
:100C40007AE4900302789E79038002F0A3D8FCD95D
:100C5000FA90059FAA82AB8390008E782979018053
:100C600015E493A3AC82AD838A828B83F0A3AA821E
:100C7000AB838C828D83D8E9D9E7120311120DD38F
:100C8000851983851882E0A3FEE0A3F5207808E0AB
:100C9000A3F608DFFAE0A3FFE0A3C0E0E0A3C0E012
:100CA000E0A3C0E0E0A3C0E010AF08858218858310
:100CB000198008858218858319D2AFD083D082220B
:100CC000C008C3E096F50808A3E096420808A3E030
:100CD00096420808A3E09645087001D3D008222563
:100CE00018F58210AF08F518400215198008F5189C
:100CF00040021519D2AF85198322C0D0251810AF34
:100D000008F518500205198008F51850020519D287
:100D1000AFD0D0226016080808C6C313C618C61381
:100D2000C618C613C618C613C6D5E0EA2225181081
:100D3000AF08F518400215198008F518400215197A
:100D4000D2AF22E066701008A3E066700A08A3E044
:100D500066700408A3E06622700422600D18C6C302
:100D600033C608C633C6D5E0F41822E026F608A339
:100D7000E036F608A3E036F608A3E036F622740261
:100D80008000C0E0F404120CDFD0E0120DBC22E0C1
:100D9000F608A3E0F608A3E0F608A3E0F62275D073
:100DA00000758140751802751903020C38600C0833
:100DB000C6C313C618C613C6D5E0F422CAC0E0E6FF
:100DC000F0A308DAFAD0E0FA222518F582E4351902
:100DD000F5832200000080FB790122FFFFFFFFFF67
:100DE000FFFFFFFFFFFFFFFFFFFFFFFFFFFFFFFF13
:100DF000FFFFFFFFFFFFFFFFFFFFFFFFFFFFFFFF03
:100E0000FFFFFFFFFFFFFFFFFFFFFFFFFFFFFFFFF2
:100E1000FFFFFFFFFFFFFFFFFFFFFFFFFFFFFFFFE2
:10200000022AFC022201FFFFFFFFFFFFFFFFFFFF8D
:10201000FFFFFFFFFFFFFFFFFFFFFFFFFFFFFFFFD0
:10202000FFFFFFFFFFFFFFFFFFFFFF0228B6FFFFDD
:10203000FFFFFFFFFFFFFFFFFFFFFFFFFFFFFFFFB0
:10204000FFFFFF022665FFFFFFFFFFFFFFFFFFFF10
:10205000FFFFFF02212FFFFFFFFFFFFFFFFFFFFF3B
:10206000FFFFFFFFFFFFFFFFFFFFFF0227D0FFFF84
:10207000FFFFFFFFFFFFFFFFFFFFFFFFFFFFFFFF70
:10208000FFFFFF02219601FFFFFFFFFFFFFFFFFFA2
:10209000102010200101FF01010503010F10FEFFB8
:1020A0002036203620362036CA34C4342036C94B78
:1020B00000000000514D000000000C0000000C006A
:1020C000010000BA38000000000C38DA39543850EA
:1020D00039000042380000FF0101001C0700000029
:1020E000E803940703E80364006400B801020200F7
:1020F0000800000502070401051E02051E020A0A67
:1021000003B80B02803E010201FFFF0A01E0965175
:102110001800020206FFFFFF000810E8030A090189
:1021200007050001E48001DE800AC212BC1400C071
:10213000E074F2122485A2AFE433FED2AFE5A7FF2C
:10214000E5A1F5085F5410600612430A75A1EFE59A
:10215000085F5408600812431075A1F7802BEFA2A6
:10216000E0C0D0E508A2E092F0122A39158182F091
:102170005017906198E0F8900CF8E0C398A2D265EF
:10218000D0335002E8F075A1FE751A00EEA2E0927D
:10219000AF7F010224E4C0E074F2122485A2AFE410
:1021A00033FED2AF9061A4E0F8759B00E5915854DE
:1021B0000860087591F7124358802AE59158541029
:1021C00060087591EF12435E801BE8A2E0C0D0E585
:1021D00091A2E092F0122A39158182F05007E0C2F4
:1021E000E0F01244B49061A3E0F8E5E958540460CB
:1021F0000E12448A75E9FB906193E0A2E640F280FA
:1022000088C0E074F2122485A2AFE433FED2AF900E
:1022100061A5E0F8E5BF585404600675BFFB1244A1
:10222000CC022189C3E498F8E499F912226580264A
:10223000C3E49AFAE49BFBE920E7E9122265E498FB
:10224000F8E499F922C3E498F8E499F9122265E4D4
:1022500098F8E499F9C3E49AFAE49BFB22EB20E7AF
:10226000CFE920E7E0B90010BB0008E88AF084F865
:10227000AAF022E4FBC8FA22EB70227B10C833C814
:10228000C933C9335007C39AC3DBF280069A5001A1
:102290002ADBEAC833F4C8C933F4C9FA2275F00856
:1022A000E4C833C8C933C933C99AC99B5004C92A81
:1022B000C93BD5F0ECFBC833F4C8E4C9FA220808DE
:1022C00008EAC0E0EBC0E086F0E7A4FA180986F05F
:1022D000E7A42AFA180986F0E7A42AFA180986F072
:1022E000E7A42AFA1986F0E7A4FBE5F02AFA190810
:1022F00086F0E7A42BFBE5F03AFA190886F0E7A48C
:102300002BFBE5F03AFA18180986F0E7A4C5F02B84
:10231000FBE43AFA1908E7C5F0C6A426F6E5F03B57
:10232000FBE43AFA1886F0E7A4F6E5F00826F6E4AE
:102330003B08F6E43A08F6D0E0FBD0E0FA22E4CF1E
:10234000C0E0E4CEC0E0E4CDC0E0E4CCC0E075F095
:1023500020C3E633F608E633F608E633F608E6333C
:10236000F6181818EC33FCED33FDEE33FEEF33FFB7
:10237000C3EC9709ED9709EE9709EF9719191940E2
:102380000FFFEC97FC09ED97FD09EE97FE19190672
:10239000D5F0BEECF709EDF709EEF709EFF71919DB
:1023A00019D0E0FCD0E0FDD0E0FED0E0FF222518FF
:1023B000C582C0E0E51934FFC583C0E0E518C395C8
:1023C0008224F810AF0885831985821880088583D8
:1023D00019858218D2AFCEF0A3E520F0A37808E6E5
:1023E00008F0A3DEFAEFF0A3E58124FAF8E608F09E
:1023F000A3E608F0A3E608F0A30808E608F0A3E6C1
:1024000008F0A315811581D0E0FED0E0F815811504
:10241000811581E8C0E0EEC0E022122B5EB9000316
:1024200002246FE49004D1786379108002F0A3D87D
:10243000FCD9FA781A9020867A01BA00028007E463
:1024400093A3F608DAF9901433AA82AB8390209410
:10245000789C79018015E493A3AC82AD838A828B4A
:1024600083F0A3AA82AB838C828D83D8E9D9E775E8
:10247000823E75839A740612289875823075834A55
:102480007400122898C0D02518C582C0E0E5193420
:10249000FFC583C0E0E518C3958224F310AF08851B
:1024A00083198582188008858319858218D2AFC860
:1024B000F0A3E9F0A3EAF0A3EBF0A37908E709F0B1
:1024C000A3D8FAECF0A3EDF0A3EEF0A3EFF0A3D0C5
:1024D000E0F0A3D0E0F0A3D0E0F0A3E520F0A3E586
:1024E000F0F0A322851983851882E0C0E0A3E0F90B
:1024F000A3E0FAA3E0FBA37808E0F608A3DFFAE084
:10250000FCA3E0FDA3E0FEA3E0FFA3E0C0E0A3E0A6
:10251000C0E0A3E0F5D0A3E0F520A3E0A3F5F01020
:10252000AF088583198582188008858319858218EC
:10253000D2AFD082D083D0E0F8D0E03275F0108EE8
:10254000218F22858226858325851882851983E03F
:10255000CEA3E0CF852682852583EBC9EAC8EDCBE3
:10256000ECCAC3E833C8E933C9EA33CAEB33CBC397
:10257000EA9EF524EB9FF523B35004AB23AA24EC89
:1025800033CCED33CDD5F0DAAE21AF2222D083D0DB
:1025900082ECC0E0EDC0E0E493A3FCE493A3FDED86
:1025A0004C600D1226A8EC24FFFCED34FFFD80EFFB
:1025B000E493A3FCE493A3FDED4C600D12277BECA8
:1025C00024FFFCED34FFFD80EFD0E0FDD0E0FCE423
:1025D00093A3C0E0E493C0E022851983851882E0CC
:1025E000A3FEE0A3F5207808E0A3F608DFFAE0A355
:1025F000FFE0A3C0E0E0A3C0E0E0A3C0E0E0A3C030
:10260000E0E0A3C0E010AF08858218858319800838
:10261000858218858319D2AFD083D08202289ED0BC
:1026200083D082E9C0E0E493A3C386F0C5F095F0BF
:10263000F908E493A386F0C5F095F0700BE493A33A
:10264000C3994005E9048002A3E475F002A4258241
:10265000F582E5F03583F583D0E0F9E493A3C0E09B
:10266000E493C0E022C0E074F2122485A2AFE43308
:10267000FED2AFC2C090132BE0700BE5D1A2E450A4
:102680001D12426E8018E5D1A2E3500675D1F712F3
:102690004244E5D1A2E4500675D1EF12424AEEA2BF
:1026A000E092AF7F010224E4C0E0C3E49396087493
:1026B00001939618400FE4936670080874019366BE
:1026C0001870007019A3A3C3E4939608740193963D
:1026D00018A3A3400DD0E0D0E0D0E00225C9A3A309
:1026E000A3A3A3A3D0E022D083D082C5F0E493A318
:1026F000C5F0C395F0F5F0E493A3C395F04005E56C
:10270000F0048001E475F002A42582F582E5F0353D
:1027100083F583E493A3C0E0E493C0E022740480D3
:102720000474028000CCC0E0EDC0E0E518C39CCC8E
:10273000AD1950011D10AF068C188D1980068C182C
:102740008D19D2AF12281AD0E0FDD0E0FC2274021D
:102750008000CCC0E0EDC0E0E518C39CCCAD1950C2
:10276000011D10AF068C188D1980068C188D19D29A
:10277000AF1227F8D0E0FDD0E0FC22C0E0C0F08826
:10278000F0E4936670080874019366187000A8F06E
:10279000A3A3700BD0F0D0E0D0E0D0E00225C9A315
:1027A000A3D0F0D0E022D083D082CCC0E0E493A3C9
:1027B000600612285A1470FAE493A3600612298363
:1027C0001470FAD0E0FCE493A3C0E0E493C0E022EC
:1027D000C0E074F2122485758900C2C590132BE005
:1027E000700E7A007B10900696E0F9123B30800361
:1027F0001248B67F010224E4CAC0E0E493A3C58274
:10280000CCC582C583CDC583F0A3C582CCC582C5A6
:1028100083CDC583DAE5D0E0CA22CAC0E0E0A3C513
:1028200082CCC582C583CDC583F0A3C582CCC582C9
:10283000C583CDC583DAE6D0E0CA22C008C3E096DE
:10284000F50808A3E096420808A3E096420808A30A
:10285000E09645087001D3D00822C0E0E493A3D3EA
:102860009C5010E493A3C39C400AD0E0D0E0D0E099
:102870000227C3A3A3A3D0E022700908080822609E
:1028800016181818C6C333C608C633C608C633C6DA
:1028900008C633C6D5E0EA22C09FF59FE473D09FF7
:1028A00022D083D082C09FE493C0E0740193C0E043
:1028B000740293F59F22C0E0C0D0E8C0E0E5A8D242
:1028C000AFC2C7751A00A2E792AFD0E0F8D0D0D05F
:1028D000E0322518F58210AF08F51840021519806E
:1028E00008F51840021519D2AF85198322740480A7
:1028F0000A74038006740280027401C0E0F40412BA
:1029000028D2D0E0122B3922BB0102E722C082C0BC
:102910008389828A83BB0003E08002E493D083D062
:102920008222C0D0251810AF08F518500205198072
:1029300008F51850020519D2AFD0D0226016080849
:1029400008C6C313C618C613C618C613C618C613BE
:10295000C6D5E0EA22C3E0C696F608A3E0C696F61E
:1029600008A3E0C696F608A3E0C696F6222518103E
:10297000AF08F518400215198008F518400215191E
:10298000D2AF22C0E0E493A36C7009D0E0D0E0D0D5
:10299000E00227C3A3A3D0E022C3E09608A3E096F9
:1029A00008A3E09608A3E096A2D265D03322E066A1
:1029B000701008A3E066700A08A3E066700408A31C
:1029C000E06622E76670100809E766700A0809E702
:1029D0006670040809E76622C3E697F60809E697D9
:1029E000F60809E697F60809E697F622C3E096F09E
:1029F00008A3E096F008A3E096F008A3E096F02282
:102A0000E627F60809E637F60809E637F60809E684
:102A100037F622E026F608A3E036F608A3E036F6FD
:102A200008A3E036F622E026F008A3E036F008A37B
:102A3000E036F008A3E036F022C0E0E8C0E0E5812F
:102A400024FCF8E6A2E7D0E0F8D0E022700422608F
:102A50000D18C6C333C608C633C6D5E0F41822E63F
:102A600057F60809E657F60809E657F60809E65743
:102A7000F622E056F608A3E056F608A3E056F6085C
:102A8000A3E056F622E056F008A3E056F008A3E0D3
:102A900056F008A3E056F022E647F60809E647F6A6
:102AA0000809E647F60809E647F622E4C396F60861
:102AB000E496F608E496F608E496F622C3E796084C
:102AC00009E7960809E7960809E79622C6F4C608BA
:102AD000C6F4C608C6F4C608C6F4C622600D08C609
:102AE000A2E713C618C613C6D5E0F322C3E09608C2
:102AF000A3E09608A3E09608A3E0962275D000759F
:102B000081407518D17519040002241AE0F608A353
:102B1000E0F608A3E0F608A3E0F622600C08C6C3BE
:102B200013C618C613C6D5E0F422E6F008A3E6F0F3
:102B300008A3E6F008A3E6F022CAC0E0E6F0A30886
:102B4000DAFAD0E0FA22E0FAA3E0FBA3E0FCA3E08B
:102B5000FD22EAF0A3EBF0A3ECF0A3EDF022E5C731
:102B600054F84401F5C77901222518F582E4351996
:102B7000F58322C2AF75D69F020000221228A164FD
:102B8000A5021228A18FA5021228A16AA602122866
:102B9000A1A1A8021228A144A9021228A1BDA9023C
:102BA0001228A119AB021228A129AB021228A140B8
:102BB000AB021228A166AB021228A199AB0212281F
:102BC000A1CDAB021228A18FAD021228A144AE0202
:102BD0001228A1C0AE021228A117AF021228A176B6
:102BE000AF021228A1D4AF021228A1FDAF02122811
:102BF000A16DB0021228A1C6B0021228A13FB102F5
:102C00001228A194B3021228A14EB5021228A1FAEB
:102C1000B5021228A141B7021228A1DFB902122879
:102C2000A1E5BC021228A1F2BC021228A180BD02BB
:102C30001228A132BE021228A17ABE021228A1DAFD
:102C4000BE021228A1F6BE021228A12ABF02122833
:102C5000A15FBF021228A148C0021228A1FDC00234
:102C60001228A152C3021228A19FC4021228A14215
:102C7000C5021228A1CFC5021228A1E9C502122857
:102C8000A142C6021228A1F4C6021228A1C6C70298
:102C90001228A181C9021228A10BCA021228A14A36
:102CA000CA021228A1DFCB021228A113CC021228DB
:102CB000A18ECC021228A168CD021228A12FCE022B
:102CC0001228A174CE021228A18CCE021228A123B0
:102CD000CF021228A194D1021228A1A9D30212284E
:102CE000A1C7D3021228A1E5D3021228A1BFD402A2
:102CF0001228A1DDD7021228A10080031228A135D5
:102D000080031228A15B80031228A195800312285A
:102D1000A1A780031228A1F980031228A15A8103D8
:102D20001228A1E481031228A18882031228A1D0CD
:102D300082031228A10A83031228A12783031228E1
:102D4000A14C83031228A19E83031228A1B78303F9
:102D50001228A1DD83031228A1FC83031228A137C6
:102D600084031228A17B84031228A1A284031228C1
:102D7000A1F384031228A1A385031228A15B860373
:102D80001228A12387031228A1E387031228A12771
:102D900088031228A14C88031228A18F88031228C7
:102DA000A1DC88031228A1348A031228A1BA8A035D
:102DB0001228A1D88A031228A1028B031228A11C71
:102DC0008B031228A12B8B031228A1368B03122808
:102DD000A1F68B031228A14F8C031228A1118D0399
:102DE0001228A1198D031228A1918D031228A1E0A8
:102DF0008D031228A1268E031228A1678E031228A4
:102E0000A1F78F031228A1AF90031228A11B9103F1
:102E10001228A14692031228A16B92031228A17CCA
:102E200092031228A1F292031228A184930312287C
:102E3000A1DC93031228A19C94031228A1BB940344
:102E40001228A1CA95031228A1E895031228A1FA15
:102E500095031228A14D96031228A15C960312280F
:102E6000A1E496031228A12197031228A12E97030B
:102E70001228A1B198031228A1109A031228A1299F
:102E80009A031228A1729B031228A1039C03122803
:102E9000A13A9D031228A1739D031228A1BF9D038F
:102EA0001228A1DB9E031228A124A1031228A12F1E
:102EB000A1031228A13AA1031228A145A1031228B7
:102EC000A14FA1031228A15AA1031228A174A103A2
:102ED0001228A17EA1031228A188A1031228A19380
:102EE000A1031228A19EA1031228A1C6A1031228A2
:102EF000A121A2031228A12BA2031228A14FA203F1
:102F00001228A173A2031228A1D1A2031228A1158D
:102F1000A3031228A131A3031228A1A8A3031228F6
:102F2000A1E0A3031228A12CA4031228A189A403C1
:102F30001228A143A5031228A127A7031228A180C4
:102F4000A7031228A1B0A8031228A1D6A80312280B
:102F5000A15FAA031228A1DBAD031228A1ADAF0324
:102F60001228A176B1031228A123B2031228A18E40
:102F7000B3031228A12DB4031228A17AB403122896
:102F8000A1E4B4031228A1F3B4031228A17AB70371
:102F90001228A1A8B8031228A13ABA031228A1A79F
:102FA000BA031228A186BB031228A19FBC031228D2
:102FB000A11CBE031228A13BBE031228A190BE0390
:102FC0001228A195BF031228A1BDBF031228A11585
:102FD000C0031228A1F4C0031228A138C10312288B
:102FE000A183C1031228A1EEC1031228A12FC3039C
:102FF0001228A193C3031228A1E1C4031228A141FE
:10300000C7031228A172C7031228A12AC9031228D4
:10301000A17FC9031228A191CA031228A12ECB03B4
:103020001228A187CB031228A13ACC031228A1DCD5
:10303000CC031228A17CCD031228A121CE03122893
:10304000A1E780011228A13081011228A1A88301E3
:103050001228A1E783011228A13184011228A16F4F
:1030600085011228A1CE85011228A102860112280D
:10307000A14086011228A1B387011228A1768A01F6
:103080001228A1A98B011228A13F8C011228A19618
:1030900095011228A13096011228A1179901122832
:1030A000A1319A011228A1929A011228A1AE9B0186
:1030B0001228A1F49C011228A1D69D011228A1BBBF
:1030C0009F011228A1CCA1011228A13AA201122825
:1030D000A10CA3011228A1C3A3011228A1CDA30111
:1030E0001228A1FCA3011228A1B9A4011228A190C1
:1030F000A5011228A157A6011228A1F2A6011228A3
:10310000A15CA7011228A17AA7011228A1A3A701F7
:103110001228A1C5A7011228A115AA011228A1ED04
:10312000AA011228A131AB011228A199AB011228E2
:10313000A151AC011228A183AC011228A1C7AC0196
:103140001228A1FDAC011228A149AD011228A19EAF
:10315000AD011228A1A3AD011228A1F6AD011228DC
:10316000A11BAE011228A12BAF011228A1A3AF0110
:103170001228A1FFAF011228A18BB0011228A17A59
:10318000B3011228A15DB4011228A1F4B5011228DF
:10319000A12AB8011228A1D8B8011228A189B90121
:1031A0001228A1CBBB011228A16EBC011228A1B527
:1031B000BC011228A161BE011228A175BE0112280E
:1031C000A17FBE011228A1A7BE011228A1B3BE0192
:1031D0001228A1D2BE011228A11CC1011228A1519E
:1031E000C1011228A15BC1011228A165C1011228E9
:1031F000A1C0C1011228A11CC2011228A130C30123
:103200001228A191C3011228A1E0C4011228A1240F
:10321000C5011228A1CCC5011228A1AFC6011228F0
:10322000A15AC7011228A1A6C8011228A1A4C90148
:103230001228A14ACA011228A1DACA011228A1F152
:10324000CA011228A128CB011228A132CB011228D1
:10325000A13CCB011228A147CB011228A165CB01CB
:103260001228A1A9CB011228A106CC011228A12B5A
:10327000CC011228A145CC011228A1D7CC011228DB
:10328000A101CE011228A178CE011228A15FCF01A1
:103290001228A195CF011228A109D0011228A183DB
:1032A000D0011228A187D1011228A17DD2011228B4
:1032B000A132D3011228A145D4011228A1E1D401E1
:1032C0001228A16ED5011228A14CD6011228A18482
:1032D000D6011228A1DCD6011228A1A5D7011228F7
:1032E000A1C6D7011228A14DD8011228A171D80179
:1032F0001228A193D8011228A1DCD8011228A1F22A
:10330000DA011228A1D9DB011228A184DC011228DC
:10331000A1C1DE011228A111DF011228A151DF0194
:103320001228A193DF011228A1EDDF011228A11BB1
:10333000E0011228A13FE0011228A192E001122829
:10334000A1C0E0011228A1F9E0011228A158E10171
:103350001228A1C5E1011228A114E3011228A13706
:10336000E5011228A1A0E5011228A1C9E501122852
:10337000A154E6011228A1C0E6011228A10BE70121
:103380001228A12FE7011228A153E7011228A1AFAB
:10339000E7011228A1CAE7011228A183E801122837
:1033A000A1BDE8011228A1CFC6051228A107C705B3
:1033B0001228A128C7051228A16AC7051228A1D082
:1033C000C7051228A1DAC7051228A1EAC7051228E5
:1033D000A11FC8051228A168CB051228A112CD058E
:1033E0001228A112CF051228A17C80041228A1C2A4
:1033F00080041228A1A281041228A1A48204122808
:10340000A1A783041228A13385041228A191850461
:103410001228A14E86041228A16C87041228A1DD6F
:1034200087041228A11988041228A1678804122889
:10343000A17188041228A1B588041228A111890459
:103440001228A1AC89041228A1298A041228A1F803
:103450008A041228A1918B041228A1B18B0412288E
:10346000A1E78B041228A1188C041228A1D98C047E
:103470001228A1E98C041228A13D8D041228A1581C
:103480008D041228A16A8D041228A1738D041228BC
:10349000A1CD8D041228A1298E041228A1758E04B5
:1034A0001228A1908E041228A1C18E041228A1DE38
:1034B0008E041228A1EA8E041228A15E900412281C
:1034C000A17790041228A1DE90041228A1F19004A3
:1034D0001228A1FF90041228A1B391041228A197E9
:1034E00092041228A19D93041228A1279404122863
:1034F000A13194041228A19E94041228A1B5940429
:103500001228A1E794041228A12095041228A14AA8
:1035100095041228A1AB95041228A1CB950412287A
:10352000A1E995041228A12F96041228A155970409
:103530001228A1A297041228A1D197041228A1470A
:1035400098041228A16F98041228A1A898041228A0
:10355000A1B698041228A10E99041228A15D99041D
:103560001228A19C99041228A1CC99041228A1F830
:1035700099041228A1039A041228A1219A0412285E
:10358000A1E39A041228A1ED9A041228A1289B0411
:103590001228A13E9B041228A1479B041228A19C3B
:1035A0009B041228A1B09B041228A1BE9C041228DF
:1035B000A1D19C041228A1E89C041228A1FD9C041E
:1035C0001228A19F9D041228A1229E041228A1E086
:1035D0009E041228A1EB9E041228A117A004122811
:1035E000A133A0041228A185A0041228A1C4A0041C
:1035F0001228A1D9A0041228A13BA1041228A1CA13
:10360000A1041228A115A2041228A166A40412285C
:10361000A1E4A4041228A159A5041228A17BA7049F
:103620001228A193A7041228A196A7041228A1A2E8
:10363000A7041228A1B6A7041228A1BEA704122825
:10364000A1F1A7041228A1A1A8041228A117A90476
:103650001228A18AA9041228A13EAA041228A1F3C3
:10366000AA041228A112AB041228A1B2AB0412289A
:10367000A1BEAB041228A1E9AB041228A1ECAB0453
:103680001228A11BAC041228A130AC041228A19A64
:10369000AC041228A1C2AD041228A19AAE041228CB
:1036A000A125AF041228A13EB0041228A1FBB0044A
:1036B0001228A134B1041228A165B1041228A12353
:1036C000B2041228A153B2041228A12EB304122866
:1036D000A1C7B3041228A152B4041228A103B5044F
:1036E0001228A186B5041228A1B8B5041228A1F9A0
:1036F000B5041228A12EB6041228A159BB05122820
:10370000A1BEBB051228A1FBBB051228A14ABC051E
:103710001228A160BE051228A143C0051228A1EA03
:10372000C3051228A182C4051228A1BDC405122810
:10373000A1DFC4051228A142C5051228A176C5053E
:103740001228A19EC5051228A1C1C5051228A1F8FD
:10375000C5051228A14BC6051228A197C605122837
:10376000A194AF051228A112B0051228A148B005F6
:103770001228A1B4B0051228A127B2051228A1432E
:10378000B2051228A188B2051228A116B305122885
:10379000A16FB3051228A19CB4051228A1AEB505EE
:1037A0001228A10BB6051228A177B6051228A1D8B8
:1037B000B6051228A119B7051228A1C6B705122807
:1037C000A1D8B8051228A103B9051228A14EB90540
:1037D0001228A195B9051228A127BA051228A1E23D
:1037E000BA051228A1118E061228A1228E061228CF
:1037F000A1738E061228A1B88E061228A1678F0623
:103800001228A1A18F061228A139F0031228A1CEF7
:10381000F0031228A17CF1031228A107F203122859
:10382000A1E7F4031228A196F6031228A14DF7038D
:103830001228A1A2F7031228A183FA031228A11BC0
:10384000FC031228A19BFE011228A1C3FE0112282D
:10385000A1BAFF011228A1ACED051228A131EE0595
:103860001228A148EE051228A1BDEE051228A11DBF
:10387000EF051228A146EF051228A1C3EF05122873
:10388000A15FF0051228A1C6F0051228A12EF105AE
:103890001228A155F1051228A18EF1051228A1AC1C
:1038A000F1051228A1D5F1051228A103F20512286D
:1038B000A149F2051228A1AFF2051228A1B5A3056E
:1038C0001228A15AA4051228A17AA4051228A19AA7
:1038D000A4051228A1AEA4051228A10AA505122844
:1038E000A13AA5051228A1BBA6051228A161A7052A
:1038F0001228A13FA8051228A190A8051228A1D43A
:10390000A8051228A117A9051228A184A905122823
:10391000A1A5A9051228A131AA051228A1E4AB0589
:103920001228A158AC051228A106AE051228A1E064
:10393000AE051228A126AF051228A180AF051228D6
:10394000A1D4AC061228A1DEAC061228A1FFAC0659
:103950001228A14A97051228A1BB99051228A1F6A1
:103960009A051228A1D59C051228A1209D05122890
:10397000A1E89D051228A1299E051228A1599E059E
:103980001228A11A9F051228A18D9F051228A18F28
:103990009F051228A1919F051228A1939F05122827
:1039A000A1B09F051228A1B29F051228A1CB9F05A7
:1039B0001228A118A0051228A18BA0051228A1C1C8
:1039C000A0051228A13AA1051228A151A20512288A
:1039D000A122A3051228A107E9011228A12DE901BE
:1039E0001228A17FEA011228A1AAEA011228A11B2C
:1039F000EB011228A13FEB011228A15FEB01122875
:103A0000A1A9EB011228A1D3EB011228A1F6EC0128
:103A10001228A12CED011228A15BED011228A1B7FB
:103A2000A0021228A151EE011228A171EE01122864
:103A3000A1C6EF011228A148F0011228A13FF1010F
:103A40001228A10FF2011228A17FF2011228A1D1A0
:103A5000F2011228A103F3011228A165F301122833
:103A6000A1D0F3011228A11AF4011228A14DF501E9
:103A70001228A182F5011228A1E2F5011228A11C49
:103A8000A5021228A1C7F6011228A166F801122882
:103A9000A1D4F8011228A107F9011228A143F901C4
:103AA0001228A15CF9011228A1FCF9011228A1C970
:103AB000FA011228A173FB011228A114FC0112289B
:103AC000A1B5FC011228A138FD011228A1D3FD01E6
:103AD0001228A172E7051228A1BEE7051228A12C21
:103AE000E8051228A14DE8051228A164E80512286E
:103AF000A114E9051228A11DE9051228A170E90504
:103B00001228A199E9051228A100EA051228A1911D
:103B1000EA051228A1D3EA051228A11DEB051228F7
:103B2000A17CEB051228A1A8EB051228A139EC0510
:103B30001228A178EC051228A1B7EC051228A1ECF7
:103B4000EC051228A1FEEC051228A110ED051228A3
:103B5000A143ED051228A183ED051228A18689064F
:103B60001228A1598A061228A1738A061228A18454
:103B70008A061228A1998C061228A1B88C06122850
:103B8000A11AAF061228A150AF061228A199AF06BC
:103B90001228A1E9B0061228A11DEB041228A15C8D
:103BA000EC041228A198EC041228A157EE04122864
:103BB000A180EE041228A113F1041228A157F104E8
:103BC0001228A1E0F2041228A178F3041228A1E03F
:103BD000F3041228A181F4041228A1C3F4041228CA
:103BE000A103F5041228A18EF6041228A1FEF70401
:103BF0001228A123FA041228A151FA041228A1784C
:103C0000FA041228A181FA041228A1DCFA0412286D
:103C1000A16FFB041228A18DFE041228A10EFF043F
:103C20001228A114BE061228A12ABE061228A13409
:103C3000BE061228A184BE061228A1F59D061228F0
:103C4000A1089E061228A1A59E061228A1E19E06A3
:103C50001228A1F89E061228A11D9F061228A15F16
:103C60009F061228A1909F061228A1CB9F0612281A
:103C7000A145A1061228A186A1061228A10BB7060C
:103C80001228A165B7061228A1BEB7061228A1C541
:103C9000BC061228A118BD061228A15ABD0612287A
:103CA000A16ABD061228A10080051228A155800531
:103CB0001228A1D780051228A1DA81051228A1793E
:103CC00082051228A14B83051228A16083051228C2
:103CD000A1AA83051228A1F983051228A14284050F
:103CE0001228A15584051228A1AA84051228A1032F
:103CF00085051228A10387051228A104880512282A
:103D0000A13F88051228A19388051228A1A08A0541
:103D10001228A1308B051228A1BD8B051228A1CC39
:103D20008B051228A1DF8B051228A12E8C051228E5
:103D3000A1448C051228A15B8C051228A18A8C0550
:103D40001228A19C8C051228A13A8D051228A145A4
:103D50008D051228A1D18D051228A12B8E051228C0
:103D6000A1868E051228A1AB8F051228A1C48F054C
:103D70001228A15292051228A17E92051228A100B4
:103D800093051228A17893051228A19B9305122868
:103D9000A1D793051228A13694051228A1069505EE
:103DA0001228A13A95051228A14495051228A14789
:103DB00095051228A15795051228A1D4950512281A
:103DC000A1FC95051228A11E96051228A14A960568
:103DD0001228A18596051228A19496051228A19F64
:103DE00096051228A1E096051228A1F3960512283F
:103DF000A11A97051228A144BA061228A155BA069D
:103E00001228A1DDBA061228A12EE0051228A17DF4
:103E1000E0051228A11FE2051228A1DBE305122804
:103E2000A123E4051228A10BE5051228A13CE60513
:103E30001228A15EE6051228A1BAE6051228A13EC5
:103E4000E7051228A1CD4F001228A1FB4F00122830
:103E5000A14651001228A18D51001228A1DF510066
:103E60001228A15B52001228A1C452001228A110EE
:103E700053001228A19253001228A138540012288E
:103E8000A1C054001228A10255001228A13F5900D8
:103E90001228A1C25A001228A1015B001228A152C7
:103EA0005B001228A1785E001228A1035F0012288F
:103EB000A1DA60001228A11C62001228A13A630056
:103EC0001228A1AC63001228A17864001228A1DE98
:103ED00064001228A1F264001228A1A6650012282D
:103EE000A1DB66001228A11969001228A1996B00B4
:103EF0001228A14E6C001228A16A6D001228A1C1DF
:103F000070001228A1D170001228A132720012286C
:103F1000A1BE72001228A1F073001228A1827400C1
:103F20001228A17F75001228A10C76001228A17515
:103F3000D1041228A12BD2041228A19DD204122848
:103F4000A1ACD2041228A126D3041228A195D3042F
:103F50001228A19CD4041228A1C5D4041228A1655A
:103F6000D5041228A1B3D5041228A12AD6041228F8
:103F7000A11CD9041228A1F1D9041228A15EDA04E7
:103F80001228A1DEDB041228A192DC041228A14031
:103F9000DD041228A19BDD041228A106DE041228EC
:103FA000A106DF041228A1EEDF041228A132E004EA
:103FB0001228A15FE0041228A187E0041228A1BC06
:103FC000E0041228A145E1041228A1A3E20412286A
:103FD000A170E4041228A187E5041228A1C4E60414
:103FE0001228A1D7E7041228A170E8041228A1E240
:103FF000E8041228A1AAE9041228A1FBD70212287A
:10400000A170D8021228A1D3D8021228A127D90260
:104010001228A164D9021228A101DA021228A12AC9
:10402000DB021228A181DB021228A1CCDB021228BC
:10403000A10FDC021228A1A2DC021228A1F2DC02EC
:104040001228A150DE021228A1C3DE021228A125E7
:10405000DF021228A1D8DF021228A109E0021228EB
:10406000A1F4E0021228A15BE1021228A15CE202A5
:104070001228A163E3021228A17FE3021228A1CB38
:10408000E3021228A155E4021228A12BE50212280E
:10409000A167E5021228A195E5021228A1F4E50224
:1040A0001228A117E6021228A1CDE6021228A1E1EA
:1040B000E6021228A104E7021228A122E702122830
:1040C000A14AE7021228A16BE7021228A192E70297
:1040D0001228A1AAE7021228A161E8021228A184ED
:1040E000E9021228A16FEA021228A1FDEB021228B0
:1040F000A14CEC021228A170EC021228A10EED02D4
:104100001228A134ED021228A165EE021228A1891D
:10411000EE021228A10EEF021228A17BEF02122854
:10412000A1C9EF021228A14EF0021228A192F002BA
:104130001228A142F1021228A1E8F2021228A1934A
:10414000F3021228A1F2F4021228A11FF60212288B
:10415000A1AAF7021228A1D9F7021228A1B3F802E6
:104160001228A183F9021228A1DCF9021228A1F475
:10417000F9021228A1DAFA021228A1F7FB0212288A
:10418000A113A5061228A14EA5061228A108A6066D
:104190001228A16EA6061228A1DFA6061228A17376
:1041A000A7061228A1BB9A061228A11D9C06122858
:1041B000A136BB061228A147BB061228A1E7BB0601
:1041C0001228A1F6FF011228A1E07F001228A16B9E
:1041D000FF041228A17BFF041228A190FF041228DB
:1041E000A1E1FF041228A142B9061228A1C7B9060D
:1041F0001228A12BBA061228A1F0FF041228A1F35D
:10420000FF041228A1E1FF051228A1F1FF051228E1
:10421000A1F4FF051228A1F7FF051228A1F87F00DD
:104220001228A14CB1061228A16EB1061228A1BE17
:10423000B2061228A142B3061228A10ABF0612280C
:10424000A113BF061228A11CBF061228A12ABF066F
:104250001228A166F3051228A1D2F3051228A1990C
:10426000F4051228A1A3F5051228A185F705122847
:10427000A1E0F7051228A135F8051228A146F80596
:104280001228A158F8051228A1C2F8051228A1D6B3
:10429000F8051228A1E1F8051228A1EFF805122867
:1042A000A101F9051228A1CB84061228A1208506B8
:1042B0001228A11C87061228A14E87061228A17079
:1042C00087061228A18987061228A1A2870612282C
:1042D000A1AC88061228A14789061228A149FE052B
:1042E0001228A16DFE051228A186FE051228A1B98B
:1042F000FE051228A1EAFE051228A118FF051228C2
:10430000A122FF051228A184FF051228A193FF0511
:104310001228A19DFF051228A1AAFF051228A16F4E
:10432000FD031228A195FD031228A1D2FD03122836
:10433000A1E1FD031228A100FE031228A168FE03DB
:104340001228A171FE031228A1D0FE031228A1F4A5
:10435000FE031228A1B3FF031228A1C0FF031228F5
:10436000A1D1FF031228A1BFFF021228A1DCFF0286
:104370001228A115F9051228A15BF9051228A1C878
:10438000FA051228A1D5FA051228A1E8FA05122883
:10439000A107FB051228A11DFB051228A131FB0571
:1043A0001228A1A6FB051228A10BFC051228A19337
:1043B000FC051228A11CFD051228A1F1FD051228FB
:1043C000A101FE051228A110FE051228A17BBD0641
:1043D0001228A19FBD061228A1C7BD061228A1EF71
:1043E000BD061228A109A8061228A130A806122885
:1043F000A151A8061228A1B6A8061228A16FAA06E4
:104400001228A188AA061228A194AA061228A1A8F7
:10441000AA061228A1C6AA061228A1D0AA06122806
:10442000A1DAAA061228A1EDAA061228A140AB061D
:104430001228A179AB061228A1A8AB061228A1F672
:10444000AB061228A145AC061228A160AC061228C2
:10445000A16AAC061228A17BAC061228A1C1AC0649
:104460001228A1ADBE061228A1FEBE061228A1A4E4
:1044700076001228A1CE76001228A1EA7600122832
:10448000A1FD76001228A11377001228A1707700F1
:104490001228A1A377001228A1DF7B001228A10512
:1044A0007D001228A1387D001228A1847D001228E9
:1044B000A1B07E001228A1D87E001228A1ED7E00B6
:1044C0001228A1FD7E001228A1417F001228A1A27E
:1044D0007F001228A1B27F001228A1D8B5061228A9
:1044E000A1F3B5061228A11CB6061228A136B606FD
:1044F0001228A15BB6061228A17AB6061228A1924C
:10450000B6061228A1C0B6061228A1DAB6061228ED
:10451000A101BC061228A157BC061228A193A1062E
:104520001228A19AA1061228A1A6A2061228A1D695
:10453000A2061228A1FCA2061228A11FA306122877
:10454000A141A3061228A17BA3061228A1E1A3067C
:104550001228A11AA4061228A166A4061228A19363
:10456000A4061228A1B3A4061228A145B306122856
:10457000A167B3061228A18EB4061228A191B40631
:104580001228A12FB8061228A1A1B8061228A1DF6F
:10459000B8061228A120B9061228A15FD805122852
:1045A000A165D8051228A1ABD8051228A194DA0577
:1045B0001228A1CADA051228A124DB051228A106B7
:1045C000DC051228A14BDC051228A17EDC0512288F
:1045D000A108DD051228A122DD051228A1AEDE0505
:1045E0001228A1ACDF051228A1F5DF051228A1C40D
:1045F000CF051228A1DACF051228A16FD005122805
:10460000A16BD1051228A16FD2051228A114D305E0
:104610001228A158D3051228A1D5D3051228A136F6
:10462000D4051228A146D4051228A16DD40512285C
:10463000A1BFD4051228A14CD6051228A151D60538
:104640001228A173D6051228A16DCE031228A1F657
:10465000CE031228A16CCF031228A1F2CF03122897
:10466000A1F5D1031228A1F5D3031228A106D50381
:104670001228A1BFD5031228A181DA031228A17143
:10468000DB031228A107DC031228A136DC03122861
:10469000A102DD031228A118DD031228A13BDD03CE
:1046A0001228A1B5DD031228A1D4DD031228A135FB
:1046B000DF031228A1D5DF031228A11CE003122872
:1046C000A18EE0031228A1FAE0031228A15EE10303
:1046D0001228A11CE2031228A193E2031228A1CF01
:1046E000E2031228A137E3031228A135E4031228BC
:1046F000A1C7E5031228A174E6031228A195E603D9
:104700001228A17CE8031228A11FEA031228A11B8A
:10471000EB031228A162EF031228A18CB604122821
:10472000A1E0B6041228A175B7041228A187B80425
:104730001228A168B9041228A1DAB9041228A12309
:10474000BA041228A1C8BA041228A193BB041228E3
:10475000A1E3BB041228A131BC041228A1F1BC04BE
:104760001228A12FBF041228A119C0041228A14D9C
:10477000C3041228A136C4041228A1E5C5041228D6
:10478000A1EFC6041228A1A5C7041228A18DC9044F
:104790001228A126CC041228A151CC041228A179F8
:1047A000CC041228A13CCD041228A1D1CD0412289A
:1047B000A114CE041228A145CE041228A103CF04CF
:1047C0001228A18ED0041228A15692061228A17C8C
:1047D00092061228A1CB92061228A1E7920612286F
:1047E000A11893061228A12893061228A135930632
:1047F0001228A14293061228A12E94061228A16C19
:1048000094061228A17694061228A18394061228F1
:10481000A18E95061228A1A095061228A1AB950697
:104820001228A1BD95061228A1C695061228A1D06E
:1048300095061228A14596061228A1008006122886
:10484000A14584061228A16184061228A14F96066C
:104850001228A16596061228A12E98061228A17981
:1048600098061228A1E498061228A1DE99061228BB
:10487000A10D9A061228A11F9A061228A194B40627
:104880001228A1A8FC021228A104FD021228A144AA
:10489000FD021228A135FE021228A159FE0212289B
:1048A000A16EFE021228A18EFE021228A1C5FE02F0
:1048B0001228A1D6FE021228A1EDFE021228A11292
:1048C000FF021228A19CFF021228A1B4FF051228A2
:1048D000A133A0021228A1F39E021228A1539E0226
:1048E0001228A1B69D021228A1AC9C021228A1593F
:1048F0009C021228A1279C021228A1649B02122864
:10490000A18F99021228A12099021228A1F29802DF
:104910001228A1EF98021228A17697021228A177F7
:1049200096021228A14195021228A185940212280C
:10493000A1FB93021228A10193021228A15D920209
:104940001228A1A491021228A16791021228A1C5E0
:1049500090021228A13090021228A163A30212280B
:10496000A1E3A2021228A1BBA2021228A18FA202D7
:104970001228A16BA2021228A11F90021228A18C5A
:104980008F021228A1568F021228A1FD8E02122832
:10499000A1ABA1021228A18B8E021228A1568E0271
:1049A0001228A1F78D021228A1C68D021228A1217A
:1049B000A1021228A19FF6011228A18E8A021228B4
:1049C000A1488A021228A13C8A021228A19C8902CD
:1049D0001228A1DC88021228A14B86021228A1DC31
:1049E00083021228A19A83021228A16E8202122841
:1049F000A12382021228A15F81021228A132810222
:104A00001228A16A80021228A13A80021228A1006D
:104A100080021228A1EFFF011228A1EBFF0112284A
:104A2000A1EDFF011228A1DFA0021228A19DED0136
:104A300000000080FBE4738F000100AF08870001D5
:104A400000AE08240002008414250002008614260B
:104A50000002008814270002008A14280001008C3C
:104A600014290001008D14840004008E14860001B6
:104A70000092142A00010093142B00010094142CBE
:104A800000010098142D00080099082E00010099DB
:104A9000142F0001009A14300001009B1431000112
:104AA000009C1432000100A10833000100A2083468
:104AB0000001009D1436000100A308380001009E8B
:104AC0001439000100971483000200A81463000148
:104AD00000AD086400010095146500010096146D96
:104AE000000100A7146E0002009708430001009F18
:104AF0001444000200A01445000100A21446000264
:104B000000A31447000800A50848000100A5144BA5
:104B1000000100A61404000100AA14A1000100ACC9
:104B20001437000100AB1488000100B0083C0001FC
:104B300000A408000000000000000136360101005A
:104B40000102010001030100010401060605020043
:104B500000070100340801000F090401010D0100E4
:104B6000FF0E08000017020000190100FF1A0100E3
:104B7000011B0100FE1C0100081D0200001F0100B6
:104B80000120010001210200002301000F24020086
:104B9000002601000127010008280200FF2A010069
:104BA000072B0102402C0100002D0100012E010005
:104BB000012F0100FF30010B1C310800003A0100F9
:104BC000083B01000F2F010000030071003001605D
:104BD00000110070003102200350048000100061B9
:104BE00000000014006300730072006200430000C4
:104BF0000013000600000000000400120000000086
:104C0000000000000004000400370037003C0244AC
:104C10000000000000000000006500000035008179
:104C20000000000500000083000000010171010187
:104C30000101011101010131010101010180011096
:104C40000161013B001400630173017201620143C1
:104C5000010001130106013D0135000401120100AC
:104C60000100010001000104010401330133013C92
:104C700001440132013600000100016501000135E7
:104C8000008101000105018201830100010304711B
:104C9000040204600411047004020402040104020A
:104CA00004100461040004140463047304720462B5
:104CB0000443040004130406040004000404041262
:104CC0000400040004000400045104640000040013
:104CD000040004440400040004000400046504000B
:104CE0000435048104640005040004830400040303
:104CF000027102300160021102700201020202021E
:104D0000028002100261023A0041006302730272E3
:104D10000262024302000213023800000200020491
:104D20000212020002000200020002040204023722
:104D30000037003C02440200023900000200026514
:104D40000200023502810200020502820283020093
:104D500002010371030103010301030103010322A3
:104D60000302030103100300030003000300030018
:104D700003000300034203000324030603000300AF
:104D8000030403120325032303250323030403045D
:104D90000300030003000344030003000323030094
:104DA00003650321003503810300030503000300AD
:104DB0000300030000683F1300DE3E0100683F026D
:104DC00000663E03006C3E0400723E0500783E061D
:104DD00000843E3000A23E31009C3E3200AE3E33A5
:104DE00000B43E3500BA3E3400C03E3600C63E1127
:104DF00000D23E1400D83E1500963EFFFF0000365C
:104E0000000100060000000F00000000000000008C
:104E1000000000000003FFFF00000403FFFF00008C
:104E2000FFFF0FF4010005C4040320000100000B84
:104E3000000000000000000003010FDC46FA46E21B
:104E4000461247E8460047E8460C47EE461247E858
:104E500046004700000000000000000000000000C5
:104E600000000000000000F44612470000000000AF
:104E700000000001923006C83008C2300BE030104C
:104E800002300AF83002983005B630079E300C74B4
:104E9000300D8630FF000003EAF5E5D5D5C5B5A590
:104EA0009595858575756565555545453535252532
:104EB000151505243554352A3530354E3542353CE7
:104EC000355A3560356635723536351E351835003C
:104ED000160F00000B150B020002220F3200000615
:104EE00001030507090B0D0F00020406080A0C0D4B
:104EF00000000000000000008967452301EFCDABF2
:104F00005A6967426565416C6C69616E63653039E9
:104F1000203632363836EE343E36E834F4348C36C9
:104F2000AA36B03692369E369836283422345E340D
:104F3000643458341034303017181921301B1D1FB9
:104F40003000034948424D18172505023030161825
:104F50001920231A1C1E30000119161816161523C5
:104F600003000C0E020B040B0A0708000F00383C6C
:104F70003E363B3B352B432C743644364A36563648
:104F8000503648356C35A43678357E35020402013A
:104F9000010101090234343A342E346A3440345267
:104FA0003400BE040A15000E0004007F000000005B
:104FB0000028000C00E803100C0A03080900040094
:104FC00008FF1E1E09030401100C080F05C082C053
:104FD0008390078CE4F0A3F07CD57D047A067B07F0
:104FE000124592122E109008AEE0700479008002F3
:104FF0007901124A0C122E160264EB74F51223AEDC
:1050000074F512296DE9FF8A08EBFEEF705E7402F9
:105010006508703E90071F7408F0750A00780A1240
:1050200028F9ECF50A780A1228F9EEF50A780A123E
:1050300028F990148E12271D901492E0F97CA57D1A
:10504000089014A81260C7122E3A7407122922027F
:10505000511D74016508600302512290071F7408F6
:10506000F07B00EEFAF9122E7602511D74016F608A
:105070000874026F6003025122EA60067403650837
:10508000705490071F740212513C122B46122E28A6
:10509000E9F8900724E0A2E34019E8701690079021
:1050A000E004F06404700C908096122B4690148EED
:1050B000122B52740365087066900791E0F9740131
:1050C00029F0E9C394054057908096122B4690141E
:1050D0008E122B52804974016508704674016F90DE
:1050E000071F702E740AF07401122B69E4F0740229
:1050F000122B697403F0908086122B467404122BD5
:1051000069122B527408122B69E4125EF31230A458
:105110008020740A12513C122B46122E5EE9F8E8E8
:1051200060107CE87D037A017B0090071CE0F91297
:105130003C50740B1229227F030225D9F09014925F
:10514000E0F990148E2274F61223AEE9FFEAFE7A9B
:10515000D1F9123B0CEA4B702A7A027B00123AF426
:10516000EA4B700E7A107B0090071CE0F9123B307E
:1051700080188A828B8374D1F0EFA3F0EEF9123B92
:10518000008007EF8A828B83A3F002530B74F7121F
:1051900023AE890890067FE0FEA3E080248E828FF4
:1051A00083A3A3125E0260128E828F83A3A312597F
:1051B0000C125E02FAA908123E4E8E828F8312757F
:1051C000BCFFEE4F70D7900696E0FAA908123E4E4B
:1051D0001231B89006EE125AFB1231B20273E0742B
:1051E000F11223AE890A8C08740F122B691260B376
:1051F0007411122B691258F4750900750E00804A5B
:10520000E50B1252ACF50CA3E0F50DE50EC333FE31
:10521000E433FFEA2EF582EB3FF583E0650C700482
:10522000A3E0650D7019E509C333FEE433FFEC2EEE
:10523000F582ED3FF583E50CF0A3E50DF0050905DA
:105240000BE50BC3950840B8050EE50EC3950A5053
:1052500005750B0080EBA9090266C574F41223AE34
:10526000890B740C122B691260B3750A0080020559
:105270000AE50AC3950B502F7D0080010DEDC39CFC
:1052800050EDE50AC333FEE433FFEA2EF582EB3F2F
:105290001252BCF509ED1252AC65087004A3E0652A
:1052A0000970D979018002790002690FC333FEE4E5
:1052B00033FFE82EF582E93FF583E022F583E0F540
:1052C00008A3E02274F61223AE1253527003A3E037
:1052D0006D701775082275090778081228F5EEFA1F
:1052E000123F6E7402122922801A75080275098015
:1052F00078081228F58C088D0978081228F51253C1
:105300007E122922800574021229227F020225D9E9
:1053100074F61223AE1253527003A3E06D7017752A
:10532000082F75090778081228F5EEFA123F7474F1
:1053300002122922801A750803750980780812283C
:10534000F58C088D0978081228F512537E1229224F
:1053500080B9EAFEEBFF12536AFAA3E0F9EA2400EF
:10536000FCE439FD9006EEE06C22EE2413F582EFAA
:10537000125E58E0F8A3E0F988828983E022EE12F9
:1053800073B5EF127509FD7C80126593123F92741C
:10539000042274F61223AE74FE12296DEAFEEBFFAE
:1053A000851882851983E4F0A3F01266D2FA888208
:1053B0008983A3A3E0F97509007508006005C3940B
:1053C000F1400575088280439006EEE06A7003A301
:1053D000E06B7020851882851983AA82AB8312370F
:1053E0002EE9F509851882851983126B7F701C756B
:1053F000088380179008AEE06004640170057508AA
:10540000818008E064027003750880851882851920
:10541000831258F4A908EEFAEFFB123F7AE509600F
:1054200014851882851983126B7F6009851882851F
:105430001983126C3702530674F21223AEEAFEEBA4
:10544000FF750A00750B001254AC1231B8EA6508FA
:105450007003EB65097012123740E914F50A7901FF
:105460007A587B071237468003750B8012737DF5DF
:105470000C780C1228F9750C58750D07780C122849
:10548000F5780A1228F978081228F5E50BF508785E
:10549000081228F91263A0F582EF1262187A057BD0
:1054A00080123F8074071229220260D512738B127A
:1054B00060B7888289831275F9F508E439F5092205
:1054C00074F61223AEE9FE7F00802F8A828B83124E
:1054D00052BEF9E5082400E439F509EF33F8E43366
:1054E000F9EC28F582ED39F583E508F0A3E509F03C
:1054F000EA24020A0AEB3400FB0FEFC39E40CC0201
:10550000530B74E81223AE74FB12296D8A168B17A5
:10551000851882851983E4F07403122B69E4F0A3E3
:10552000F004122B69E4F01271EFF50AA3E0F50B19
:10553000850A82F5831275F5FEE439FF850A8285B6
:105540000B83A3A3E0FA850A82850B83A3A3A3E0C0
:10555000F9EAF508E439F509E50A2404F50AE50B4A
:105560003400F50BEEFAEFFB12325AE96401702CAD
:1055700012702D1228F9E4F508F50978081228F5BB
:1055800078081228F99006EE12272175088078080D
:105590001228F91259141229220258E2EEFAEFFBEE
:1055A00012325AE9700C9006EEE06E7003A3E06FC1
:1055B00070BE1258FA8814602EC333FAE433FB121B
:1055C0003B8A7403122B69125AFB7403122B691263
:1055D0006B7F60137403122B691258ECA914123EEE
:1055E0007E8A0A8B0B80037514001258FA880F60AC
:1055F0002AC333FAE433FB123B8A7401122B69127B
:105600005AFB7401122B69126B7F600F7401122B0D
:10561000691258ECA90F123E7E8003750F009006A8
:105620007F805D850A82850B83A3A3A3A3A3A3A385
:10563000A3E4F0A3F0AA0AAB0B851282851383A31F
:10564000A312590A125E02F9123B008510828511DD
:1056500083E0C0E0851882851983E0F8745828F546
:105660008274071275B8D0E012691404F0E515A22F
:10567000E05007AA10AB11123B908512828513836C
:10568000E0F512A3E0F513E5124513700302585A32
:10569000851282851383A3A3125E0260DD851282C8
:1056A000851383A3A3A3A3A3A3A3A3E0A2E050CA4B
:1056B000851282851383A3A3A3A3126B7F85128215
:1056C000851383A3A3601F125E02FA7901851282FB
:1056D000851383A3A3A3A3125E07124A358A108BF6
:1056E00011751501800F12590AA3A3E0F510A3E06C
:1056F000F511751500E5104511700302566D851002
:1057000082851183A3E065087004A3E06509600346
:1057100002566D851082851183A3A3A3A3A3A3A31F
:10572000122721851082851183A3A3A3A3A3A3E03D
:10573000FC7405122B691260C7A914123E60740232
:10574000122922E9703C851082851183A3A3A3A3AB
:10575000A3A3A3A3A3A3122721851082851183A34A
:10576000A3A3A3A3A3A3A3A3E0FC7403122B691216
:1057700060C7A90F123E607402122922E970030269
:10578000566DE50F2514C333240AFA7B00123AF450
:105790008A0A8B0BEA450B700302564B8A828B8375
:1057A00074D2F0851682851783A3A31260B38A8210
:1057B0008B83125EFB8A828B83A3A3A3A3E51412BF
:1057C00075FFE50FF0E5146038EA2405FAEB3400C4
:1057D000FBE50A240AF8E50B3400F98A828B831270
:1057E0005EFD7403122B691259321228F1E514C3BD
:1057F00033FCE433FD8A828B83126D3312292280BD
:105800000D8A828B83A3A3A3A3A3E4F0A3F0E50FE7
:105810007003025623E514C333F8E433F9E50A288C
:10582000F8E50B39F9E8240AFAE93400FB850A8225
:10583000850B83A3A3A3A3A3A3A3A3125AFB740161
:10584000122B691259321228F1E50FC333FCE433ED
:10585000FD12745912292202563585188285198342
:10586000E0602712702D1228F9750858750907781D
:10587000081228F57403122B691270371228F99058
:1058800006EE1227217508008029EEFAEFFB12328E
:105890005AE9702A12702D1228F9750858750907EF
:1058A00078081228F575080078081228F99006EE95
:1058B00012272178081228F9125914122922740388
:1058C000122B69126B7F60087403122B69126C37FC
:1058D0007401122B69126B7F60087401122B69121C
:1058E0006C3774051229227F100225D91258F4AAA8
:1058F0000AAB0B22E0FCA3E0FD22850A82850B8324
:10590000E0F8A385820A85830B22E0F8A3E0F58303
:105910008882A322E5162402FCE5173400FDE51673
:10592000126335E5171265A07A067B80123F8074FA
:105930000722E0F50CA3E0F50D750E00780C22743B
:10594000F41223AE74F412296D8A088B09ECFEED73
:10595000FF740B122B697403F0122B69AA82AB83BC
:105960001245921231B2EAFCEBFD7403122B69AAC4
:1059700082AB8312458CE9600A125A8C6010E06495
:1059800001600B8518828519837484025A448E82C3
:105990008F83A3A3A3A3A3A3A3A3E06017C394F13E
:1059A0005012125A8C7018EE24141273806005C3C2
:1059B00094F1400B8518828519837482025A44E55C
:1059C00008240CF582E50912738364217002A3E0B8
:1059D000704F851882851983748CF0125A7F1228B3
:1059E000F9125A9B1249A07401122922E9705685B6
:1059F0001882851983E4F0123DD0125A8C704674D7
:105A000001122B69AC82AD83127531FB124982E918
:105A100070337D007C007900127531FB123F3E80AF
:105A200024125A7F1228F9125A9B12499A740112B1
:105A30002922E98518828519837007E4F0123DD088
:105A400080037488F01273B3E509125A841228F99E
:105A50007401122B6985820A85830B780A1228F556
:105A6000E508240CF582E509125A924480F50B787A
:105A70000A1228F5126458122922740C02690CEEDD
:105A80001260A7EF127509F50A780A22125B4D64BD
:105A90000322125E54E0F50AA3E022EE240BFCEF91
:105AA0003400FD8E828F83A3A3A3A3A3A3A3A3A3E8
:105AB0001260CB8E828F83A3A3A3A3A3A3A3A3E08F
:105AC000F922C082C08374F312296D85188285196A
:105AD00083E4F004122B69125AFB7403122B69AA97
:105AE00082AB83122D44851882851983AA82AB83E9
:105AF000122D80740D1229220264EBEAF0A3EBF060
:105B00002274F61223AE125B3D1272B090072AE0A7
:105B100058F508A3E059F509E5084509601C78081F
:105B20001228F59006EE12272112737DFD7C0012DB
:105B3000658F123F8C740412292202530BEAFEEB8C
:105B4000FF125B4DF8A3E0F9888289832212738FDC
:105B5000E02274EA1223AE74DB12296D8A148B15CD
:105B6000751200751300125DFCF50E8518828519FB
:105B700083AC82AD837A007B00799C122E887A04F4
:105B80007900122D92EAF50C851882851983E0259B
:105B90000CF0F8E50EC3984003025D84E0C3950E57
:105BA000F509C394044003750903E50975F01AA4C7
:105BB000FAABF0123B8A8A128B13EA451370030288
:105BC0005D87750D00AE12AF13850E08025C591289
:105BD0005DDB850A82850B83A3A3A3A3E0703985CF
:105BE0000A82850B83126B7F70121260A01273778A
:105BF000EE2418F582EF1275B8E48016125DF3F00A
:105C0000900560E014C0E0EE2418F582EF1275B83C
:105C1000D0E0125E44E4803E900560E004C0E0EE17
:105C20002418F582EF1275B8D0E0125E3CC39403DD
:105C3000EE4003025CE91260A11275B87402125EB4
:105C40003C64016003025CF6125DD41275B8E4F0A6
:105C5000EE2416125DF6125E10E50DC395094003A1
:105C6000025D1AE508C3950C4003025CFFA9081207
:105C70002E048A0A8B0B050890054D125E1C850ABE
:105C800082850B831260B3125DCD1272A3125E5D2A
:105C9000850A82850B83A3A3A3A3A3A3A3A3A3A382
:105CA000E0C0E0EE2419F582EF1275B8D0E0F07490
:105CB00001122B69E412722A1260B37402122B696A
:105CC000125EFD7401122B69AA82AB83122D6EE95C
:105CD00064016003025BCF7404122B69AC82AD8354
:105CE000EE240A125DED025BD2125DF4125E3C649A
:105CF000037003025C48EE2415125DF6025C4FE56A
:105D00000CC3950E40057508008016E50EC3950C72
:105D1000F508800D125DF3125E10E50DC395095074
:105D200066740E122B69AC82AD8385080AAA0A7BC1
:105D3000007987122E8805087418122B69125E1CD0
:105D4000125DDBEE2412F8EF3400F9740E122B69A9
:105D50001260C788828983EAF0A3EB125E44740361
:105D6000125E5D741D122B69E0C0E0EE2419F5820D
:105D7000EF1275B8D0E0126B8F70991260A0127597
:105D8000B8E48093750900750A00780A1228F9783A
:105D9000121228F578091228F9E50EF5097809128A
:105DA00028F97405122B69E0FD7C00126320123F74
:105DB000C87405122922E51245136007AA12AB1315
:105DC000123B9074251229227F0E0225D9EE24124F
:105DD000F582EF22EE2415F582EF227C087D007912
:105DE000FFEE240AFAEF3400FB123ADC22FAEF123B
:105DF0005E3522EE2414125E5174012212750E12C9
:105E00005E54125E07E022E0F8A3E0F58388822268
:105E1000F0EE241AFEEF3400FF050D221260B78E5B
:105E2000828F83E8F0A3E9F07C617D05EE2402FA1D
:105E3000EF125E35223400FB12459222127544A304
:105E4000A3A3E022F0EE2415125E6D2416125E511B
:105E500022F582EF125E58223400F58322F0EE2400
:105E600017125E6D2418125E5174FFF022F582EF56
:105E7000125E587402F0EE2274F61223AE74F91218
:105E8000296D8A088B091276778518828519831205
:105E90002B52125EEBC0E07404122B69D0E0127436
:105EA00077E0FA7405122B697401F07406122B69FD
:105EB0007401F09006F8F09007010412755BA312CC
:105EC00060B39006F9125EFDEA900702F0E5081251
:105ED0006335E5091273839006F7125EF3122E2ED6
:105EE000E96003122E347407025308EE2404FE12F4
:105EF00071E5221266CAAA82AB8322A3A3E8F0A3AB
:105F0000E9F02274F21223AE74FF12296D750800B5
:105F10007E007F001230D48A0A8B0B1260948005B9
:105F200005081260ACE84970F79008AEE0600764BD
:105F300001600302601112609480031260ACE849B2
:105F40006037888289831260C790054DE06A7003CC
:105F5000A3E06B600E1260A6E91275B81260C7EA82
:105F60004B70D8888289831260B390054DE06870C9
:105F700003A3E06970030260117A167B00123B8A6A
:105F80008A0C8B0DAE0CAF0DEE4F700302601190BA
:105F9000054D1260B38E828F83125EFD900542E044
:105FA0008E828F83A3A3F0123242E98E828F83A365
:105FB000A3A3A3A3F0901493E08E828F83A3A3A343
:105FC000A3A3A3F07C617D05EE240B125DED851883
:105FD00082851983AA82AB8379411247D2851882C0
:105FE000851983E060089006EE1260B3800478FEA5
:105FF00079FF8E828F83A3A3A3A3A3125EFB1260FB
:10600000A01275B8E50AF0A3E50BF08E0A8F0B0518
:1060100008900702E0F8E508C39850047A0080224F
:10602000E508C398FAC3940640027A057900800D0A
:10603000E50A1260A7E50B125A92F50B09E9C3981D
:1060400040EE75090078091228F9780A1228F5EA55
:10605000F50978091228F9900702E0F50978091284
:1060600028F9AD087C007AF97B069006F7E0F91272
:106070003FC274051229229008AEE06004640170EA
:106080000BEE4F6007EEFAEFFB123B90122E3474CA
:10609000010254A61230D48A0C8B0DA80CA90D2233
:1060A000EE1260A7EF22E82414F582221260A6E91E
:1060B000125E541260B722E0F8A3E0F922AC82AD80
:1060C000838518828519831260CB22E0FAA3E0FB56
:1060D00022EEFAEFFB7F060225D974EC1223AE7490
:1060E000FF12296D8A0A8B0B7E008E0E8E0F125DB9
:1060F000FCFF851882851983AC82AD837A007B0012
:10610000799D122E88851882851983E0F8EFC3984F
:1061100040030261B6E0C39FFEC3940B40027E0AB7
:10612000EE75F007A4FAABF0123B8A8A088B098A55
:106130000E8B0FEA450F607C750C00801785088276
:10614000850983A3A3A3A3A37403F0E5082407127E
:10615000620F050CE50CC39E505CAC08AD09850CC4
:10616000108F12E5102512FAE43400FB798B122E01
:1061700088850882850983A3A3A3A3A3E0146008EC
:1061800014601314601F80B5850882850983A3A35A
:10619000A3A3A3E480B4850882850983A3A3A3A352
:1061A000A3740180A5850882850983A3A3A3A3A363
:1061B000740280967E0075080078081228F9780E1F
:1061C0001228F5EEF50878081228F9EFF508780896
:1061D0001228F97405122B69E0FD7C00E50A2402FF
:1061E000FAE50B3400FBE50A126335E50B12621881
:1061F000123FCE7405122922E50E450F6007AA0E44
:10620000AB0F123B9074011229227F0C0225D9F5A5
:1062100008E5093400F509221265A02274EA122368
:10622000AE74FE12296D8A148B15750A00750B0069
:10623000125DFCF508851882851983AC82AD837ADE
:10624000007B0079A312499485080C851882851972
:10625000831260B3C3E50C98E499507F851882855A
:106260001983E0C3950CFEA3E09400FFC3EE9404F1
:10627000EF940040067E037F008004EE4F605CEEEA
:10628000FAEFFBEA75F015A4FAA8F075F015EBA487
:1062900028FB123B8A8A0C8B0D8A0A8B0BEA450B72
:1062A0006039750900750E00850E10C3E5109EE477
:1062B0009F502DAC0CAD0D850E12850810E51225F2
:1062C00010FAE43400FB79A2124994E50C2415F588
:1062D0000CE50D3400F50D050E80CD75098B7E00A3
:1062E000750C00780C1228F9780A1228F5EEF50CD6
:1062F000780C1228F978081228F97405122B69E035
:10630000FDAC09126320123FD47405122922E50A5C
:10631000450B6007AA0AAB0B123B907402025DC5E5
:10632000E5142402FAE5153400FBE514126335E5A3
:10633000151265A022240FF5822274F61223AE7482
:10634000FF12296DEAFEEBFF1273871260C78A8283
:106350008B83A3A3A3A3A3A3A3A3E0F9122E52E9C3
:10636000851882851983F075080078081228F97459
:1063700001122B6985820885830978081228F57532
:10638000083575098078081228F5126395122922BC
:10639000740102530879011263A0FAEF12646F22AC
:1063A000EE2402FCEF3400FDEE240F2274F41223DD
:1063B000AE74FA12296D8A088B091272ABFAEFFBE0
:1063C000122D4AE960131231B2EAFCEBFDEEFAEF4E
:1063D000FB12458CE96401700A7401122B69E4F028
:1063E000A380097401122B69EEF0A3EF126B83A353
:1063F000A3A3A3A3A3E0F8A2E650087403122B6999
:106400007401F0E8A2E750087404122B697401F0DB
:106410007405122B69E4F004122B69AA82AB831273
:106420002E7CE9851882851983F0750A00780A1296
:1064300028F97401122B6985820A85830B780A1268
:1064400028F5750A34750B80780A1228F5126458FD
:10645000122922740602690C7901E5082402FCE580
:10646000093400FDE508240FFAE50912646F2234AF
:1064700000FB123F3274052274F61223AE74FF1231
:10648000296D125B3DE0F509A3E0F508A909122E7C
:1064900040E9851882851983F09008AEE0700B748E
:1064A0000165087005A9091240C4EE240B1273801F
:1064B000702975080078081228F97401122B698573
:1064C000820885830978081228F5750836750980D1
:1064D00078081228F5126395122922026390C0826F
:1064E000C0839008AEE070031240CAD083D082020D
:1064F000289E74F41223AE74EF12296DEAFEEBFFAE
:106500001254AC9006EEE065087004A3E0650970D3
:106510005885188285198385820A85830B780A122B
:1065200028F5750A11750B00780A1228F57C007D94
:10653000007A817B00123C147404122922E970292C
:10654000750A00780A1228F97401122B6985820AEB
:1065500085830B780A1228F5AC08AD0912658F12F5
:106560003F8674031229228021750A11750B8078E9
:106570000A1228F578081228F512737DFD7C841222
:10658000658F123F927404122922741102690C1251
:10659000659322EE2402FAEF3400FBEE126335EF2E
:1065A000125E58E0F92274F11223AE74EB12296DD9
:1065B000EAFEEBFF1266D22400F508E43BF50990F1
:1065C00006EEE065087004A3E06509600302666EEC
:1065D00088828983A3A3E09410500F88828983A3C3
:1065E000A3E0851882851983800885188285198320
:1065F0007410F0E0C0E07404122B69D0E01273C391
:10660000A3A3A982AA83890C8A0D750E00780C12A7
:1066100028F17407122B69E0FC7D007408122B69C5
:10662000AA82AB831274591229227404122B698531
:10663000820A85830B780A1228F5750A11750B00FA
:10664000780A1228F57C007D007A817B00123C0ECE
:1066500074041229227404122B69E0900722600549
:10666000E0D2E48003E0C2E41266CAE48008851840
:10667000828519837484F0E0C0E07401122B69D024
:10668000E0F07402122B69E508F07403122B69E53F
:1066900008F0EE1273B5EF1270341228F97402127A
:1066A0002B6985820885830978081228F5750814F6
:1066B00075098078081228F5790312639712292248
:1066C00074151229227F070225D9F08518828519B1
:1066D000832212536AFCA3E0FBEC2274F41223AE73
:1066E00074E012296D8A088B09851882851983AC9C
:1066F00082AD83123F209008AEE0640270337402D2
:10670000122B69AE82AF831231B2EEFCEFFD12455F
:106710008CE9601D1231B88A0A8B0BA80AA90B8577
:106720001882851983E0687003A3E0697003026929
:106730000A12337A7402122B691260BD123284E994
:106740006401700302690A7418122B69AA82AB8370
:106750001231C47402122B69AC82AD837418122BEF
:1067600069AA82AB8312458CE960321231BE8A0A73
:106770008B0BA80AA90B851882851983E068700322
:10678000A3E06960188518828519831260B39005AB
:1067900043125EFD7A437B05794B1247D89008AED1
:1067A000E06007640160030268301275B0C082C007
:1067B000831231B88A088B09D083D082E0650870D3
:1067C00004A3E06509603E7402122B69AA82AB83C0
:1067D000122DC28A088B09A808A909E849602688F1
:1067E000828983A3A3A3A3E06401600D88828983C7
:1067F000A3A3A3A3E06402700C7402122B69AA8203
:10680000AB83122DCE1231B88A088B09A808A909CA
:10681000851882851983E0687003A3E069601174AC
:1068200002122B691260BD122DA4E96003123DD043
:106830007402122B691260BD12335C79001260C1C0
:10684000122FC0740B122B69E4126914F8A3E0F93B
:10685000740C122B69125EFD740B122B69AA82ABA9
:1068600083122D6EE9604B7C087D0079007418124C
:106870002B69AA82AB83123ADC740E122B69AC82AC
:10688000AD837418122B69AA82AB8312458CE96020
:10689000217402122B69AC82AD83740E122B69AA8B
:1068A00082AB83122D44740B122B69AA82AB831224
:1068B0002D807402122B69AC82AD83740E122B6989
:1068C000AA82AB83122D44740B122B69AA82AB836C
:1068D000122D74E96034740C122B691260B38518A0
:1068E00082851983E0687003A3E069601D851882C2
:1068F0008519831260B3740C122B69125EFD740B40
:10690000122B69AA82AB83122D8074201229227F58
:10691000040225D91266CAE02274F11223AE74F67D
:1069200012296DEAFEEBFF75080090078E126B7F4F
:1069300070407A377B00126B42EAF0A3EB12709F33
:1069400060197C377D007900123ADCEEFCEFFD9097
:10695000078E1260C7123EF0E9700B851882851908
:10696000837488026AA4126B497401F0126FDD020D
:106970006B37126B497402F0EEFCEFFD126FC3121D
:106980003EF0E9700C8518828519837488F07508CB
:1069900001750A58750B07780A1228F590078EE0E2
:1069A000242912701112272190078EE02428126BDF
:1069B000532415126B672414126B5C122922E9C050
:1069C000E090078EE02431127011D0E0F012706375
:1069D000603C126B3CE02432126B886025750C58C9
:1069E000750D07750E00780C1228F1127063C33311
:1069F000FCE433FD90078EE02432126D2F12292221
:106A0000800C8518828519837488F0750801780ACE
:106A10001228F590078EE02412127011122721908F
:106A2000078EE02411126B53242C126B67242B1257
:106A30006B5C122922E9C0E090078EE024341270CA
:106A400011D0E0F012739A602E126B3CE0243512E4
:106A50006B88603F750C58750D07750E00780C1229
:106A600028F112739AC333FCE433FD90078EE024BF
:106A700035126D2F122922E508A2E0401F12706323
:106A80007005126B6F60157B007A007900123EF67C
:106A9000026B378518828519837488F08518828582
:106AA00019837486F07409122B697402126B8312B5
:106AB000705D122B69125EFD8E828F83A312703778
:106AC0001228F97401122B698582088583097808D8
:106AD0001228F575082075098078081228F57901C3
:106AE0007406122B69AC82AD83EEFAEFFB126FF9DC
:106AF000122922127049703C7409122B697402F039
:106B0000127055122B691270A61228F97401122BFB
:106B10006985820885830978081228F5750820752B
:106B2000098078081228F579017406122B69126F12
:106B3000EB122922123EEA740A0266C2C333FAE457
:106B400033FB123B8A90078E2290078EE0242E1290
:106B500070152212706DFC90078EE0221812706E74
:106B6000F9123E5A740422126C4590078EE022906E
:106B7000078EE0243408080812706E221270151275
:106B80006D6222127477A322127015EAF0A3EB1241
:106B900073E9F8A3E0F9E84922C082C08390078E28
:106BA000126B7F7003026C2D90078EE02435126B00
:106BB0007C600990078EE02435126C3E90078EE0D1
:106BC0002432126B7C600990078EE02432126C3EF6
:106BD00090078EE02412126B7C600990078EE024EF
:106BE00012126C3E90078EE02415126B7C600990A7
:106BF000078EE02415126C3E90078EE02429126B5C
:106C00007C600990078EE02429126C3E90078EE08C
:106C1000242C126B7C600990078EE0242C126C3EB1
:106C200090078E126C3790078EE4F0A3F00264EBAD
:106C3000F582EF3400F5831260CB123B9022126C88
:106C400045123B9022F8127072FAA3E0FB2274F115
:106C50001223AEEAFEEBFF8C088D09750A018C0C3D
:106C60008D0D750E00780C1228F17C177D001274C2
:106C700059122922125DCD1271A9125DD41271B57B
:106C80002411F582E509127383602AEE2412126D35
:106C90003A601FE5082412126D231228F1E508243A
:106CA00011126D18125DCE1275B8126D33122922B1
:106CB0008003750A00E5081260A7E5091273836076
