:020000040000FA
:10000000020D9E022003FFFFFFFFFF02200BFFFFF8
:10001000FFFFFF020523FFFFFFFFFF02201BFFFF83
:10002000FFFFFF022023FFFFFFFFFF02202BFFFF48
:10003000FFFFFF022033FFFFFFFFFF020577FFFFF7
:10004000FFFFFF022043FFFFFFFFFF02204BFFFFE8
:10005000FFFFFF022053FFFFFFFFFF02205BFFFFB8
:10006000FFFFFF022063FFFFFFFFFF02206BFFFF88
:10007000FFFFFF022073FFFFFFFFFF02207BFFFF58
:10008000FFFFFF022083FFFFFFFFFF02208B002006
:10009000000090200000932000000100000000C834
:1000A0000300380000000000260000000000FFFFF1
:1000B000FFFF0000040074F8120B1B780079008029
:1000C0001A74922EF58274031201F4900412120134
:1000D000FE4005900412E4F01201EB900412E0FEE1
:1000E000A3E06E6007C3E89CE99D40D5806D74F87D
:1000F000120B1B120153C398120153FEE8500B124E
:1001000002CB700B7800790080141202E050F57A6F
:10011000007B00803CE004F0439A041201EBC3E84A
:100120009CE99D50288A828B83E0C0E0900497E090
:10013000FE74162E120308D0E01202BC900498E45C
:10014000F0900497E0C3947F40CBE480CAE8FAE9DA
:10015000FB800C900496E0F8A3E022E8FAE9FB7F2C
:1001600001020C8074F8120B1B7800790090051BBB
:10017000E0705AA3E0705675F900C28FC284A28362
:1001800040FCA28F4004A28350F8E5F9C28FA283FD
:100190005004D2848037C0E0E0FE749B2EF5827458
:1001A0000412030CD0E0F090051C1202F440D3E4DA
:1001B000F080CF749B2EF58274041201F490051B1D
:1001C0001201FE400590051BE4F01201EB90051BA7
:1001D000E0FEA3E06E6007C3E89CE99D40D5E849D6
:1001E0007006E4F090051BF002015BE8240108E9C9
:1001F0003400F92212030CE08A828B83F022E0049F
:100200001202C0C394802274F8120B1B90059D1239
:100210000156C39890059D120156FEE85007120240
:10022000CB700B80051202E04004EC4D70077A00A1
:100230007B000202B98A828B83E0F5F9A3AA82AB24
:1002400083780179008006E004F01201EBC3E89C9A
:10025000E99D50278A828B83E0C0E090059EE0FEF6
:10026000741D2EF582740512030CD0E01202BC90AE
:10027000059EE0C3947F40CFE480CEC28FA283402E
:10028000FCC284A28F4004A28350F890059D120204
:10029000FBE0F5F9C28F90059DE0FAA3E06A9005B6
:1002A0009D70051202FB80051202F44002E4F0A2E8
:1002B0008350D0D284E8FAE9FB02015F1202C02227
:1002C000F08A828B83A3AA82AB8322C39EF895E037
:1002D000F91202D522E824FF18E934FFF9E849228F
:1002E000C39EF895E0F9E8247FF8E93400F9C3E803
:1002F0009CE99D22E004F0C3948022E0FA741D2A58
:10030000F582740512030C22F58274043400F5831F
:100310002274FF120D2D1203FA1206D8E97003029F
:1003200003D77E00900390E06401700DC2849003B7
:10033000917401F09005B38005D2AF9005B77808AD
:10034000120D8F7C017D00851882851983AA82ABEE
:10035000831204DF8B0DEA450D6012E064F8602C17
:10036000E0640770089005BB7808120D8F85080CB3
:1003700085090D850A0E850B0F9005BF7808120DB3
:100380006BE50C450D450E450F70B80E900390E0DF
:1003900064017009D284900391E4F08002C2AFEE50
:1003A000A2E05033900390E06401700C75F800C235
:1003B000AB539AF7D2EA800C758600C2AAC28B535F
:1003C0009AFBC2E990000174CDF0022000C2AF7523
:1003D000C9AB75C95B80FE1204A4C2AF75C9AB7509
:1003E000C95B80FE781075B60FE5B4A2E750FAE558
:1003F000BBC39940F118E870ED22C082C083A2927D
:1004000050047A0080027A8053BEFBE59DA2E6503C
:10041000FA0078F87901001202D570FA8AC6E59ED2
:100420006A70FB43BE049062707408F0794A12034C
:10043000E490000174F5F07403F5D575D488A2A09A
:10044000E433900390F0A2E05029D28453F3F753A1
:10045000F3EF53FDF743FD10538FF753F7DF43FCE2
:100460002043F10253F5DF75F82043F4F0D2FED2B9
:10047000AB802C53FF3F85FFFF53F1FE43F30C533A
:10048000F2F375868075C480900499E4F0A3F0754A
:10049000C2D875C50B75C402438640D2AAD2E9D032
:1004A00083D0822274F5120B1B794E1203E4900361
:1004B00090E07002D2AF1205C8E960FAE0701B90BC
:1004C00005C37808120D8F009005BF7808120D6BD8
:1004D000E5084509450A450B70ED7F04020C80C014
:1004E00082C083900390E070051200B6801E9003D6
:1004F00091E06015A28F500DE5F98A828B83F07A26
:10050000017B0080077A0080F81201648091C0822C
:10051000C083900390E070051200EE800312020782
:1005200002049FC0E074F2120B81900001E064CDE0
:100530007005122013803BE064F57035E5C1C0E022
:10054000900413E0F8749228F582740312030CD01F
:10055000E0F0900412120156687006E595900415BB
:10056000F09004131202F44002E4F0A374C6F08089
:1005700001007F01020BE0C0E074F1120B819000DA
:1005800001E064CD700512203B8038E064F57032E4
:10059000120153687009539AFBA37401F08024C2BE
:1005A000E9900496E0F50874012508F07416250812
:1005B000120308E0F5C1900496E0C394804004E47F
:1005C00080DA007F02020BE074F7120B1B74FF123B
:1005D0000D2D7E008033900384E0F8851882851904
:1005E00083E068700D900382E0644D700512081B73
:1005F000E9FE900385E4F0900387F0851882851961
:1006000083E0F8900384E068F07C017D0085188227
:10061000851983AA82AB831204DF8B09EA4509702E
:10062000030206CCE0C0E0900387E0F8900385E089
:10063000FAE82AF8E434001209D3D0E0F0900387F6
:10064000E0601114602014603E14604E1460641465
:10065000608480A7851882851983E064FE709C9071
:10066000038774018094900384E4F08518828519CF
:1006700083E0900386F0C394809003874004E402F3
:1006800005FA74020205FA851882851983E0900341
:1006900082F090038774030205FA85188285198316
:1006A000E0900383F0900386E06019900387740460
:1006B0000205FA900385E004F0F8900386E0686094
:1006C000030205FB90038774050205FAEEF9740135
:1006D000120CFA7F02020C8074ED120B1B74FB12D9
:1006E0000D2D7508047509007808120D7E7402122C
:1006F0000DC91209C0120CFA851882E0F47003A328
:10070000E0F4600F851882851983E0F8A3E0F9E82A
:1007100049700302080F7402120DC9E0687003A348
:10072000E06970030207E975080090059F781012D0
:100730000D8F800A9005A37810120D43604A750A48
:1007400001750B00780A120D7E7406120DC9AC8279
:10075000AD8385100A85110BAA0AE50B5407FB8AA5
:100760000C85110D85120E85130F740B780C120D6C
:1007700014A90C1209CA120CFAE0F9AA08AB091262
:1007800009DF8A088B0980089005A77810120D8F61
:100790009005AB7810120D6B9005AF7810120CC05D
:1007A0005092E4F91209DFE4F91209DF7402120D24
:1007B000C9EAF0A3EBF07508017509007808120D7D
:1007C0007E7402120DC9AC82AD837A247B08120AB2
:1007D000A07402120CFA7508047808120D7E7402D7
:1007E000120DC91209C0120CFA1209B2120DC9E099
:1007F000687003A3E0697017851882851983E0F497
:100800007003A3E0F46008E849600479018002798C
:10081000007405120CFA7F0C020C8074F3120B1B8F
:1008200074FC120D2D900306E0FAA3E0F9EA24000F
:10083000F8F508E93408F509750A017F007E009093
:100840000383E014600C1460401470030208E20299
:10085000095FE5095401F9E8497011880C85090D13
:100860007409780C120DADA90C120B04750C108EC6
:100870000D780C120D7E7C087D03AA08AB09120AC4
:10088000A07402120CFA02095F880C85090D740924
:10089000780C120DADE50CC3947940040F02095F8A
:1008A000750A408E0B780A120D7E7C097D03EAF5ED
:1008B0000AE5095401F50B7402780A120D58AA0AC8
:1008C000AB0B74097808120DADA9081209CA120CF5
:1008D000FA900307E0A3F0900306E0A3F0750A4343
:1008E000807D7508048E097808120D7E7402120D41
:1008F000C91209C0120CFA7402120DC9E0F8A3E083
:10090000F9851882851983E0687003A3E069603B6C
:100910001209B2120DC9E8F0A3E9F07508017808D0
:10092000120D7E7402120DC9AC82AD837A247B084D
:10093000120AA07402120CFA7508047808120D7ECF
:100940007402120DC91209C0120CFA1209B2120D6A
:10095000C9E0687003A3E06970030E80027F07900E
:100960000305E0D2E7F0EFA3F0E50A900303F0748B
:100970004D650AF5087404250AFB7A0380071209FD
:10098000D0E062080AEAC39BA2D265D033EAF840FD
:10099000ED1209D0E508F074012AFC3395E0FD7AE8
:1009A000027B0312050EEEF97404120CFA7F0602A4
:1009B0000C80851882851983E0F8A3E0F97402227F
:1009C000AC82AD837A907B007904120A1B740222F8
:1009D0003395E0F9740228F582740339F58322C057
:1009E00008C0097C088A088B09740F7808120DADBD
:1009F000EAC333FAEB33FBE9A2E7500474014AFA85
:100A0000E508A2E0500874216AFA74106BFBE9C390
:100A100033F91CEC70CFD009D0082274F5120B1BEF
:100A20008908740B120DC9E0FEA3E0FF740F55088E
:100A3000F50A750B00740B780A120D58EA2400F8B9
:100A4000EB3480F9E82400E9350BF9E5C7F509A294
:100A5000AFE433F50AC2AFE508C4540FFAE5C75452
:100A6000F84AF5C7801C88828983E08C828D83F0E8
:100A700088828983A3A882A9838C828D83A3AC8278
:100A8000AD83EEFAEFFBEA24FF1EEB34FFFFEA4BE7
:100A900070D48509C7E50AA2E092AF7F04020C80FA
:100AA00074F7120B1B7409120DC9E0F508A3E0F5E9
:100AB00009ED900388F0ECA3F0A37462F0A37473C3
:100AC000F0A3E0541FF0E508333354FCA3F07406A0
:100AD0007808120DADE50890038CF090038E741227
:100AE000F0A37442F075D1FE75D601EA906271F000
:100AF000EBA3F0906270E0D2E1F0E0A2E740FB7F70
:100B000002020C80C082C083E9C333906272F0900D
:100B10006270E0D2E0F0D083D082222518C582C076
:100B2000E0E51934FFC583C0E0E518C3958224F9D8
:100B300010AF0885831985821880088583198582FE
:100B400018D2AFCEF0A3E520F0A37808E608F0A312
:100B5000DEFAEFF0A3E58124FBF8E608F0A3E6084F
:100B6000F0A30808E608F0A3E608F0A315811581B4
:100B7000D0E0FED0E0F815811581E8C0E0EEC0E0DD
:100B800022C0D02518C582C0E0E51934FFC583C056
:100B9000E0E518C3958224F310AF08858319858298
:100BA000188008858319858218D2AFC8F0A3E9F0B0
:100BB000A3EAF0A3EBF0A37908E709F0A3D8FAECD5
:100BC000F0A3EDF0A3EEF0A3EFF0A3D0E0F0A3D0FC
:100BD000E0F0A3D0E0F0A3E520F0A3E5F0F0A3223D
:100BE000851983851882E0C0E0A3E0F9A3E0FAA3A9
:100BF000E0FBA37808E0F608A3DFFAE0FCA3E0FD41
:100C0000A3E0FEA3E0FFA3E0C0E0A3E0C0E0A3E018
:100C1000F5D0A3E0F520A3E0A3F5F010AF0885839D
:100C2000198582188008858319858218D2AFD082F1
:100C3000D083D0E0F8D0E032120DD8B90003020C16
:100C40007AE4900302789E79038002F0A3D8FCD95D
:100C5000FA90059FAA82AB8390008E782979018053
:100C600015E493A3AC82AD838A828B83F0A3AA821E
:100C7000AB838C828D83D8E9D9E7120311120DD38F
:100C8000851983851882E0A3FEE0A3F5207808E0AB
:100C9000A3F608DFFAE0A3FFE0A3C0E0E0A3C0E012
:100CA000E0A3C0E0E0A3C0E010AF08858218858310
:100CB000198008858218858319D2AFD083D082220B
:100CC000C008C3E096F50808A3E096420808A3E030
:100CD00096420808A3E09645087001D3D008222563
:100CE00018F58210AF08F518400215198008F5189C
:100CF00040021519D2AF85198322C0D0251810AF34
:100D000008F518500205198008F51850020519D287
:100D1000AFD0D0226016080808C6C313C618C61381
:100D2000C618C613C618C613C6D5E0EA2225181081
:100D3000AF08F518400215198008F518400215197A
:100D4000D2AF22E066701008A3E066700A08A3E044
:100D500066700408A3E06622700422600D18C6C302
:100D600033C608C633C6D5E0F41822E026F608A339
:100D7000E036F608A3E036F608A3E036F622740261
:100D80008000C0E0F404120CDFD0E0120DBC22E0C1
:100D9000F608A3E0F608A3E0F608A3E0F62275D073
:100DA00000758140751802751903020C38600C0833
:100DB000C6C313C618C613C6D5E0F422CAC0E0E6FF
:100DC000F0A308DAFAD0E0FA222518F582E4351902
:100DD000F5832200000080FB790122FFFFFFFFFF67
:100DE000FFFFFFFFFFFFFFFFFFFFFFFFFFFFFFFF13
:100DF000FFFFFFFFFFFFFFFFFFFFFFFFFFFFFFFF03
:100E0000FFFFFFFFFFFFFFFFFFFFFFFFFFFFFFFFF2
:100E1000FFFFFFFFFFFFFFFFFFFFFFFFFFFFFFFFE2
:10200000022AE40221E7FFFFFFFFFFFFFFFFFFFFC0
:10201000FFFFFFFFFFFFFFFFFFFFFFFFFFFFFFFFD0
:10202000FFFFFFFFFFFFFFFFFFFFFF02289EFFFFF5
:10203000FFFFFFFFFFFFFFFFFFFFFFFFFFFFFFFFB0
:10204000FFFFFF02264DFFFFFFFFFFFFFFFFFFFF28
:10205000FFFFFF022115FFFFFFFFFFFFFFFFFFFF55
:10206000FFFFFFFFFFFFFFFFFFFFFF0227B8FFFF9C
:10207000FFFFFFFFFFFFFFFFFFFFFFFFFFFFFFFF70
:10208000FFFFFF02217C01FFFFFFFFFFFFFFFFFFBC
:10209000102010200101FF01010503010F10FEFFB8
:1020A000A634A634A634A63450334A33A634D347D4
:1020B000000000003548000000000C0000000C008B
:1020C00001000040370000000092365A38DA36D658
:1020D000370000C8360000FF0101001007000000B3
:1020E0008807E80364006400B801020200080000E9
:1020F00005020701051E02051E020A0A03B80B02AB
:10210000803E010201FFFF0A01E096511800020221
:1021100006FFFFE803C0E074F212246BA2AFE433C1
:10212000FED2AFE5A7FFE5A1F5085F5410600612E7
:10213000403475A1EFE5085F5408600812403A7515
:10214000A1F7802BEFA2E0C0D0E508A2E092F01248
:102150002A21158182F05017906198E0F8900C4088
:10216000E0C398A2D265D0335002E8F075A1FE75A5
:102170001A00EEA2E092AF7F010224CAC0E074F21E
:1021800012246BA2AFE433FED2AF9061A4E0F875E5
:102190009B00E59158540860087591F712408280C1
:1021A0002AE59158541060087591EF124088801B01
:1021B000E8A2E0C0D0E591A2E092F0122A211581B8
:1021C00082F05007E0C2E0F01241DE9061A3E0F837
:1021D000E5E9585404600E1241B475E9FB9061932F
:1021E000E0A2E640F28088C0E074F212246BA2AF55
:1021F000E433FED2AF9061A5E0F8E5BF5854046027
:102200000675BFFB1241F602216FC3E498F8E4990A
:10221000F912224B8026C3E49AFAE49BFBE920E7FB
:10222000E912224BE498F8E499F922C3E498F8E41F
:1022300099F912224BE498F8E499F9C3E49AFAE484
:102240009BFB22EB20E7CFE920E7E0B90010BB00C1
:1022500008E88AF084F8AAF022E4FBC8FA22EB70BE
:10226000227B10C833C8C933C9335007C39AC3DBB4
:10227000F280069A50012ADBEAC833F4C8C933F465
:10228000C9FA2275F008E4C833C8C933C933C99AFA
:10229000C99B5004C92AC93BD5F0ECFBC833F4C82C
:1022A000E4C9FA22080808EAC0E0EBC0E086F0E7DB
:1022B000A4FA180986F0E7A42AFA180986F0E7A418
:1022C0002AFA180986F0E7A42AFA1986F0E7A4FB8F
:1022D000E5F02AFA190886F0E7A42BFBE5F03AFAB4
:1022E000190886F0E7A42BFBE5F03AFA18180986DE
:1022F000F0E7A4C5F02BFBE43AFA1908E7C5F0C6ED
:10230000A426F6E5F03BFBE43AFA1886F0E7A4F6DB
:10231000E5F00826F6E43B08F6E43A08F6D0E0FBE0
:10232000D0E0FA22E4CFC0E0E4CEC0E0E4CDC0E0EB
:10233000E4CCC0E075F020C3E633F608E633F608D7
:10234000E633F608E633F6181818EC33FCED33FDE7
:10235000EE33FEEF33FFC3EC9709ED9709EE9709D3
:10236000EF97191919400FFFEC97FC09ED97FD093C
:10237000EE97FE191906D5F0BEECF709EDF709EE58
:10238000F709EFF7191919D0E0FCD0E0FDD0E0FE15
:10239000D0E0FF222518C582C0E0E51934FFC583CF
:1023A000C0E0E518C3958224F810AF08858319852D
:1023B00082188008858319858218D2AFCEF0A3E5F4
:1023C00020F0A37808E608F0A3DEFAEFF0A3E58199
:1023D00024FAF8E608F0A3E608F0A3E608F0A3085C
:1023E00008E608F0A3E608F0A315811581D0E0FE09
:1023F000D0E0F8158115811581E8C0E0EEC0E0223B
:10240000122B46B90003022455E49004D178A57933
:102410000F8002F0A3D8FCD9FA781A9020867A01AE
:10242000BA00028007E493A3F608DAF9901375AABC
:1024300082AB83902094788279018015E493A3ACD9
:1024400082AD838A828B83F0A3AA82AB838C828D38
:1024500083D8E9D9E77582EF7583907405122880D7
:1024600075823A7583467400122880C0D02518C53D
:1024700082C0E0E51934FFC583C0E0E518C395824A
:1024800024F310AF08858319858218800885831985
:10249000858218D2AFC8F0A3E9F0A3EAF0A3EBF06D
:1024A000A37908E709F0A3D8FAECF0A3EDF0A3EEC6
:1024B000F0A3EFF0A3D0E0F0A3D0E0F0A3D0E0F0E1
:1024C000A3E520F0A3E5F0F0A32285198385188207
:1024D000E0C0E0A3E0F9A3E0FAA3E0FBA37808E002
:1024E000F608A3DFFAE0FCA3E0FDA3E0FEA3E0FF13
:1024F000A3E0C0E0A3E0C0E0A3E0F5D0A3E0F520B6
:10250000A3E0A3F5F010AF08858319858218800831
:10251000858319858218D2AFD082D083D0E0F8D0DD
:10252000E0320E0075F0108E218F22858226858381
:1025300025851882851983E0CEA3E0CF8526828584
:102540002583EBC9EAC8EDCBECCAC3E833C8E9334D
:10255000C9EA33CAEB33CBC3EA9EF524EB9FF523DC
:10256000B35004AB23AA24EC33CCED33CDD5F0DA51
:10257000AE21AF2222D083D082ECC0E0EDC0E0E4F7
:1025800093A3FCE493A3FDED4C600D122690EC2484
:10259000FFFCED34FFFD80EFE493A3FCE493A3FD87
:1025A000ED4C600D122763EC24FFFCED34FFFD8041
:1025B000EFD0E0FDD0E0FCE493A3C0E0E493C0E002
:1025C00022851983851882E0A3FEE0A3F520780810
:1025D000E0A3F608DFFAE0A3FFE0A3C0E0E0A3C0B9
:1025E000E0E0A3C0E0E0A3C0E0E0A3C0E010AF08DB
:1025F0008582188583198008858218858319D2AF52
:10260000D083D082022886D083D082E9C0E0E493D0
:10261000A3C386F0C5F095F0F908E493A386F0C54E
:10262000F095F0700BE493A3C3994005E904800290
:10263000A3E475F002A42582F582E5F03583F583E5
:10264000D0E0F9E493A3C0E0E493C0E022C0E074DA
:10265000F212246BA2AFE433FED2AFC2C090126D6F
:10266000E0700BE5D1A2E4501D123F988018E5D12F
:10267000A2E3500675D1F7123F6EE5D1A2E45006F1
:1026800075D1EF123F74EEA2E092AF7F010224CA2F
:10269000C0E0C3E49396087401939618400FE49346
:1026A00066700808740193661870007019A3A3C3BC
:1026B000E49396087401939618A3A3400DD0E0D03C
:1026C000E0D0E00225B1A3A3A3A3A3A3D0E022D02E
:1026D00083D082C5F0E493A3C5F0C395F0F5F0E490
:1026E00093A3C395F04005E5F0048001E475F00282
:1026F000A42582F582E5F03583F583E493A3C0E059
:10270000E493C0E0227404800474028000CCC0E032
:10271000EDC0E0E518C39CCCAD1950011D10AF060B
:102720008C188D1980068C188D19D2AF122802D002
:10273000E0FDD0E0FC2274028000CCC0E0EDC0E0FF
:10274000E518C39CCCAD1950011D10AF068C188D37
:102750001980068C188D19D2AF1227E0D0E0FDD079
:10276000E0FC22C0E0C0F088F0E4936670080874D2
:10277000019366187000A8F0A3A3700BD0F0D0E00E
:10278000D0E0D0E00225B1A3A3D0F0D0E022D083E6
:10279000D082CCC0E0E493A360061228421470FA01
:1027A000E493A3600612296B1470FAD0E0FCE49362
:1027B000A3C0E0E493C0E022C0E074F212246B7581
:1027C0008900C2C590126DE0700E7A007B109006F1
:1027D0008CE0F91239B080031244C07F010224CA90
:1027E000CAC0E0E493A3C582CCC582C583CDC583AE
:1027F000F0A3C582CCC582C583CDC583DAE5D0E020
:10280000CA22CAC0E0E0A3C582CCC582C583CDC5BB
:1028100083F0A3C582CCC582C583CDC583DAE6D05B
:10282000E0CA22C008C3E096F50808A3E096420873
:1028300008A3E096420808A3E09645087001D3D0AB
:102840000822C0E0E493A3D39C5010E493A3C39C5C
:10285000400AD0E0D0E0D0E00227ABA3A3A3D0E0B1
:10286000227009080808226016181818C6C333C653
:1028700008C633C608C633C608C633C6D5E0EA2242
:10288000C09FF59FE473D09F22D083D082C09FE485
:1028900093C0E0740193C0E0740293F59F22C0E0FE
:1028A000C0D0E8C0E0E5A8D2AFC2C7751A00A2E761
:1028B00092AFD0E0F8D0D0D0E0322518F58210AF3A
:1028C00008F518400215198008F51840021519D2AC
:1028D000AF851983227404800A7403800674028011
:1028E000027401C0E0F4041228BAD0E0122B2122B5
:1028F000BB0102E722C082C08389828A83BB0003B6
:10290000E08002E493D083D08222C0D0251810AF9B
:1029100008F518500205198008F51850020519D25B
:10292000AFD0D0226016080808C6C313C618C61355
:10293000C618C613C618C613C6D5E0EA22C3E0C639
:1029400096F608A3E0C696F608A3E0C696F608A396
:10295000E0C696F622251810AF08F51840021519A2
:102960008008F51840021519D2AF22C0E0E493A305
:102970006C7009D0E0D0E0D0E00227ABA3A3D0E098
:1029800022C3E09608A3E09608A3E09608A3E09689
:10299000A2D265D03322E066701008A3E066700A08
:1029A00008A3E066700408A3E06622E766701008DA
:1029B00009E766700A0809E76670040809E76622F5
:1029C000C3E697F60809E697F60809E697F60809B8
:1029D000E697F622C3E096F008A3E096F008A3E09D
:1029E00096F008A3E096F022E627F60809E637F607
:1029F0000809E637F60809E637F622E026F608A3C6
:102A0000E036F608A3E036F608A3E036F622E02624
:102A1000F008A3E036F008A3E036F008A3E036F0B3
:102A200022C0E0E8C0E0E58124FCF8E6A2E7D0E0BF
:102A3000F8D0E022700422600D18C6C333C608C661
:102A400033C6D5E0F41822E657F60809E657F6082B
:102A500009E657F60809E657F622E056F608A3E01D
:102A600056F608A3E056F608A3E056F622E056F024
:102A700008A3E056F008A3E056F008A3E056F022C1
:102A8000E647F60809E647F60809E647F60809E6C4
:102A900047F622E4C396F608E496F608E496F608AC
:102AA000E496F622C3E7960809E7960809E7960830
:102AB00009E79622C6F4C608C6F4C608C6F4C608D6
:102AC000C6F4C622600D08C6A2E713C618C613C610
:102AD000D5E0F322C3E09608A3E09608A3E09608A9
:102AE000A3E0962275D0007581407518D175190440
:102AF00000022400E0F608A3E0F608A3E0F608A32D
:102B0000E0F622600C08C6C313C618C613C6D5E08B
:102B1000F422E6F008A3E6F008A3E6F008A3E6F046
:102B200022CAC0E0E6F0A308DAFAD0E0FA22E0FA1E
:102B3000A3E0FBA3E0FCA3E0FD22EAF0A3EBF0A3FB
:102B4000ECF0A3EDF022E5C754F84401F5C7790194
:102B5000222518F582E43519F58322C2AF75D69F78
:102B600002000022122889E9E1031228891EE203EB
:102B700012288900E303122889B5E3031228890A81
:102B8000E60312288957E703122889FAE703122877
:102B900089EDE8031228892CE90312288922EB0326
:102BA00012288940EB0312288967EB031228890059
:102BB00080021228893580021228895B800212283F
:102BC00089958002122889A78002122889F980023B
:102BD0001228895A8102122889E4810212288988E0
:102BE0008202122889D082021228890A83021228BE
:102BF000892783021228894C83021228899E830226
:102C0000122889B78302122889DD830212288918C5
:102C100084021228895C8402122889838402122883
:102C200089D484021228898485021228893C86026C
:102C3000122889048702122889C487021228890869
:102C400088021228892D8802122889708802122889
:102C500089BD8802122889158A021228899B8A0256
:102C6000122889B98A02122889E38A02122889FD6A
:102C70008A021228890C8B02122889178B021228CB
:102C800089D78B02122889308C02122889F28C0293
:102C9000122889FA8C021228897E8D02122889C492
:102CA0008D02122889058E02122889958F0212281A
:102CB000894D9002122889B99002122889E4910264
:102CC0001228890992021228891A920212288990E0
:102CD00092021228892293021228897A93021228DA
:102CE000893A940212288959940212288968950217
:102CF000122889869502122889989502122889EB54
:102D00009502122889FA95021228898296021228C1
:102D100089BF9602122889CC96021228894F980200
:102D2000122889AE9902122889C79902122889109F
:102D30009B02122889A19B02122889D89C02122882
:102D400089119D021228895D9D02122889799E02AF
:102D5000122889C2A002122889CDA002122889D87F
:102D6000A002122889E3A002122889EDA0021228ED
:102D700089F8A00212288912A1021228891CA10236
:102D800012288926A10212288931A1021228893C21
:102D9000A10212288964A102122889BFA102122867
:102DA00089C9A102122889EDA10212288911A20263
:102DB0001228896FA202122889B3A202122889CF91
:102DC000A20212288946A3021228897EA302122891
:102DD00089CAA30212288927A402122889E1A40221
:102DE000122889C5A6021228891EA7021228894E18
:102DF000A80212288974A802122889FDA9021228A3
:102E00008979AD021228894BAF0212288914B102C8
:102E1000122889C1B1021228892CB302122889CB49
:102E2000B30212288918B40212288982B402122827
:102E30008991B40212288918B70212288946B8026B
:102E4000122889D8B90212288945BA021228892481
:102E5000BB021228893DBC02122889BABD02122881
:102E600089D9BD021228892EBE0212288933BF02D9
:102E70001228895BBF02122889B3BF0212288992E7
:102E8000C002122889D6C00212288921C102122844
:102E9000898CC102122889CDC20212288931C3024D
:102EA0001228897FC402122889DFC60212288910DD
:102EB000C702122889C8C8021228891DC90212280F
:102EC000892FCA02122889CCCA0212288925CB026E
:102ED000122889D8CB021228897ACC021228891AA2
:102EE000CD02122889BFCD02122889D18001122873
:102EF000891A8101122889928301122889D18301BC
:102F00001228891B8401122889598501122889B841
:102F10008501122889EC85011228892A8601122848
:102F2000899D8701122889608A01122889938B0163
:102F3000122889298C011228898095011228891A62
:102F400096011228890199011228891B9A011228D9
:102F5000897C9A01122889989B01122889DE9C019C
:102F6000122889C09D01122889A59F01122889B6BF
:102F7000A10112288924A201122889F6A20112288F
:102F800089ADA301122889B7A301122889E6A301FC
:102F9000122889A3A4011228897AA501122889413F
:102FA000A601122889DCA60112288946A701122849
:102FB0008964A7011228898DA701122889AFA7016A
:102FC000122889FFA901122889D7AA011228891B72
:102FD000AB0112288983AB011228893BAC0112286E
:102FE000896DAC01122889B1AC01122889E7AC01C6
:102FF00012288933AD0112288988AD011228898DE4
:10300000AD01122889E0AD0112288905AE01122810
:103010008915AF011228898DAF01122889E9AF0106
:1030200012288975B00112288964B30112288947D2
:10303000B401122889DEB50112288914B8011228BA
:1030400089C2B80112288973B901122889B5BB0158
:1030500012288958BC011228899FBC011228894B6B
:10306000BE011228895FBE0112288969BE0112289B
:103070008991BE011228899DBE01122889BCBE011A
:1030800012288906C1011228893BC10112288945ED
:10309000C1011228894FC101122889AAC101122831
:1030A0008906C2011228891AC3011228897BC3012B
:1030B000122889CAC4011228890EC501122889B6AE
:1030C000C50112288999C60112288944C70112280E
:1030D0008990C8011228898EC90112288934CA0131
:1030E000122889C4CA01122889DBCA011228891250
:1030F000CB011228891CCB0112288926CB0112286A
:103100008931CB011228894FCB0112288993CB0139
:10311000122889F0CB0112288915CC011228892F99
:10312000CC01122889C1CC01122889EBCD011228CB
:103130008962CE0112288949CF011228897FCF01E7
:10314000122889F3CF011228896DD00112288971C4
:10315000D10112288967D2011228891CD3011228B3
:10316000892FD401122889CBD40112288958D5017E
:1031700012288936D6011228896ED601122889C6EE
:10318000D6011228898FD701122889B0D7011228B9
:103190008937D8011228895BD8011228897DD80186
:1031A000122889C6D801122889DCDA01122889C3BD
:1031B000DB011228896EDC01122889ABDE0112289E
:1031C00089FBDE011228893BDF011228897DDF019E
:1031D000122889D7DF0112288905E00112288929E0
:1031E000E0011228897CE001122889AAE001122856
:1031F00089E3E00112288942E101122889AFE10147
:10320000122889FEE20112288921E5011228898A03
:10321000E501122889B3E5011228893EE60112284A
:1032200089AAE601122889F5E60112288919E70121
:103230001228893DE70112288999E701122889B4EB
:10324000E7011228896DE801122889B6B005122815
:1032500089EEB00512288930B10512288996B1058A
:10326000122889A0B105122889B0B1051228897CDD
:103270008003122889C28003122889A281031228A0
:1032800089A48203122889A783031228893385031E
:103290001228899185031228894E86031228896C89
:1032A0008703122889DD87031228891988031228C9
:1032B00089678803122889718803122889B58803D1
:1032C000122889118903122889AC890312288929B7
:1032D0008A03122889F88A03122889918B031228FD
:1032E00089B18B03122889E78B03122889188C0374
:1032F000122889D98C03122889E98C031228893D68
:103300008D03122889588D031228896A8D0312288B
:1033100089738D03122889CD8D03122889298E0384
:10332000122889758E03122889908E03122889C16C
:103330008E03122889DE8E03122889EA8E03122852
:10334000895E9003122889779003122889DE900302
:10335000122889F19003122889FF9003122889B35B
:1033600091031228899792031228899D93031228AA
:10337000892794031228893194031228899E940383
:10338000122889B59403122889E79403122889200A
:1033900095031228894A9503122889AB95031228B0
:1033A00089CB9503122889E995031228892F960362
:1033B000122889559703122889A29703122889D1C8
:1033C00097031228894798031228896F98031228B7
:1033D00089A89803122889B698031228890E9903A0
:1033E0001228895D99031228899C9903122889CC97
:1033F0009903122889F89903122889039A0312283D
:1034000089219A03122889E39A03122889ED9A03E5
:10341000122889289B031228893E9B03122889477A
:103420009B031228899C9B03122889B09B031228B6
:1034300089BE9C03122889D19C03122889E89C0329
:10344000122889FD9C031228899F9D031228892236
:103450009E03122889E09E03122889EB9E031228FE
:103460008917A00312288933A00312288985A00395
:10347000122889C4A003122889D9A0031228893BE5
:10348000A103122889CAA10312288915A2031228B0
:103490008966A403122889E4A40312288959A50384
:1034A0001228897BA70312288993A70312288996DB
:1034B000A703122889A2A703122889B6A7031228F6
:1034C00089BEA703122889F1A703122889A1A8039E
:1034D00012288917A9031228898AA9031228893E6C
:1034E000AA03122889F3AA0312288912AB0312280F
:1034F00089B2AB03122889BEAB03122889E9AB035A
:10350000122889ECAB031228891BAC0312288930DE
:10351000AC031228899AAC03122889C2AD03122881
:10352000899AAE0312288925AF031228893EB00379
:10353000122889FBB00312288934B1031228896547
:10354000B10312288923B20312288953B203122827
:10355000892EB303122889C7B30312288952B403F2
:1035600012288903B50312288986B503122889B861
:10357000B503122889F9B5031228892EB60312283B
:103580008947A304122889ACA304122889E9A3045B
:1035900012288938A4041228894EA60412288931D9
:1035A000A804122889D8AB0412288970AC04122808
:1035B00089ABAC04122889CDAC0412288930AD0443
:1035C00012288964AD041228898CAD04122889AFB1
:1035D000AD04122889E6AD0412288939AE041228F8
:1035E0008985AE04122889DF8B041228895D8C043A
:1035F000122889938C04122889FF8C04122889725E
:103600008E041228898E8E04122889D38E041228E3
:1036100089618F04122889BA8F04122889E79004DF
:10362000122889F99104122889569204122889C215
:10363000920412288923930412288964930412287F
:10364000891194041228892395041228894E95041F
:10365000122889999504122889E095041228897204
:1036600096041228892D9704122889EA88051228C1
:1036700089FB88051228894C8905122889918905BA
:10368000122889408A051228897A8A051228891FFA
:103690007200122889B472001228896273001228FD
:1036A00089ED7300122889CD76001228897C780074
:1036B00012288933790012288988790012288969AB
:1036C0007C00122889017E00122889D5AC051228B9
:1036D00089FDAC05122889F4AD0512288990E30410
:1036E00012288915E4041228892CE404122889A1DF
:1036F000E40412288901E5041228892AE504122825
:1037000089A7E50412288943E604122889AAE60459
:1037100012288912E70412288939E70412288972CD
:10372000E70412288990E704122889B9E7041228CF
:1037300089E7E7041228892DE80412288993E80410
:10374000122889008004122889A58004122889C5BE
:103750008004122889E58004122889F9800412283F
:1037600089558104122889858104122889068304D9
:10377000122889AC83041228898A8404122889DBE0
:1037800084041228891F850412288962850412285E
:1037900089CF8504122889F085041228897C860443
:1037A0001228892F8804122889A388041228895195
:1037B0008A041228892B8B04122889718B04122801
:1037C00089CB8B0412288996A805122889A0A80500
:1037D000122889C1A805122889A49704122889C42F
:1037E0009904122889FF9A04122889CC9C04122873
:1037F00089179D04122889E49D04122889259E04B6
:10380000122889559E04122889169F041228898936
:103810009F041228898B9F04122889C9D803122873
:10382000898F9F04122889AC9F04122889AE9F04B7
:10383000122889C79F0412288914A0041228898796
:10384000A004122889BDA00412288936A1041228D8
:10385000894DA204122889A7E801122889CDE80120
:103860001228891FEA011228894AEA01122889BB15
:10387000EA01122889DFEA01122889B5E10312283A
:103880008949EB0112288973EB0112288996EC0112
:10389000122889CCEC01122889FBEC011228893D01
:1038A000ED01122889F1ED0112288911EE0112288B
:1038B0008966EF01122889E8EF01122889DFF001FB
:1038C000122889AFF1011228891FF201122889718B
:1038D000F201122889A3F20112288905F3011228A6
:1038E0008970F301122889BAF301122889EDF401D5
:1038F00012288922F50112288982F5011228893FB0
:10390000F60112288967F60112288906F8011228A3
:103910008974F801122889A7F801122889E3F801AF
:10392000122889FCF8011228899CF901122889695A
:10393000FA0112288913FB01122889B4FB0112280D
:103940008955FC01122889D8FC0112288973FD01D0
:1039500012288956DD04122889A2DD041228891054
:10396000DE0412288931DE0412288948DE04122878
:1039700089F8DE0412288901DF0412288954DF0443
:103980001228897DDF04122889E4DF041228897552
:10399000E004122889B7E00412288901E104122802
:1039A0008960E1041228898CE1041228891DE2044F
:1039B0001228895CE2041228899BE204122889D02B
:1039C000E204122889E2E204122889F4E2041228AF
:1039D0008927E30412288967E304122889008005F7
:1039E000122889D38005122889ED8005122889FEC6
:1039F000800512288913830512288932830512282D
:103A000089B3FD04122889E8FD0412288931FE04D7
:103A100012288981FF04122889B3E702122889F24B
:103A2000E8021228892EE902122889EDEA021228FA
:103A30008916EB02122889A9ED02122889EDED0200
:103A400012288976EF021228890EF0021228897650
:103A5000F00212288917F10212288959F10212285E
:103A60008999F10212288924F30212288994F40218
:103A7000122889B9F602122889E7F6021228890E5F
:103A8000F70212288917F70212288972F702122802
:103A90008905F80212288923FB02122889A4FB0257
:103AA00012288989B9051228899FB905122889A980
:103AB000B905122889F9B905122889A69405122892
:103AC00089B9940512288956950512288992950579
:103AD000122889A99505122889CE950512288910E2
:103AE00096051228894196051228897C9605122888
:103AF00089F6970512288937980512288925B30574
:103B00001228897AB305122889D3B305122889DAD5
:103B1000B8051228892DB9051228896FB905122810
:103B2000897FB90512288985EB03122889DAEB030E
:103B3000122889DFEC03122889AFED03122889C40B
:103B4000ED031228890EEE031228895DEE03122878
:103B50008970EE03122889B1EE031228890AEF0357
:103B6000122889E9F003122889F0F1031228892B21
:103B7000F2031228893FF4031228894EF403122815
:103B8000899DF403122889B3F403122889C0F40331
:103B9000122889F9F40312288912F503122889B032
:103BA000F503122889BBF50312288914F60312289D
:103BB000896EF603122889C9F603122889EEF703E5
:103BC00012288907F8031228898FFA03122889BB63
:103BD000FA031228893BFB03122889B3FB0312283E
:103BE00089BFFB03122889FBFB031228895AFC03B7
:103BF00012288957FD031228898BFD031228899505
:103C0000FD0312288998FD03122889A7FD031228B5
:103C10008924FE031228893FFE0312288961FE03CE
:103C20001228898DFE03122889C8FE03122889D71D
:103C3000FE03122889E2FE031228891EFF031228C0
:103C40008931FF0312288958FF0312288959B605C4
:103C50001228896AB605122889F2B60512288963E6
:103C6000C804122889B2C80412288954CA04122828
:103C70008910CC0412288958CC0412288940CD041C
:103C800012288971CE0412288993CE04122889EF54
:103C9000CE0412288973CF041228896D4B00122894
:103CA000899B4B00122889E64C001228892D4D0073
:103CB0001228897F4D00122889FB4D001228896443
:103CC0004E00122889B04E00122889314F00122868
:103CD00089D74F001228895F5000122889A150000F
:103CE000122889DE5400122889625600122889A100
:103CF0005600122889E55600122889F15900122829
:103D0000897C5A00122889535C00122889955D002D
:103D1000122889B35E00122889255F00122889F1D4
:103D20005F001228895D60001228896060001228F7
:103D30008914610012288949620012288987640069
:103D4000122889076700122889C06700122889DCB9
:103D50006800122889336C00122889436C001228ED
:103D600089A46D00122889316E00122889606F00C5
:103D7000122889F46F00122889EF700012288987B1
:103D800071001228890BCE02122889C1CE02122896
:103D90008933CF0212288942CF02122889BCCF0270
:103DA0001228892BD00212288932D1021228895B6D
:103DB000D102122889FBD10212288949D202122885
:103DC00089C0D202122889B2D50212288987D60268
:103DD000122889F4D60212288974D8021228892858
:103DE000D902122889D6D90212288931DA0212287A
:103DF000899CDA021228899CDB0212288984DC0261
:103E0000122889C8DC02122889F5DC021228891DD3
:103E1000DD0212288952DD02122889DBDD02122818
:103E20008939DF0212288906E1021228891DE2027F
:103E30001228895AE3021228896DE40212288906A1
:103E4000E50212288978E50212288940E602122844
:103E500089C0CF0412288914D00412288960D004A4
:103E6000122889ABD004122889EBD0041228893B90
:103E7000D104122889B1D20412288964D3041228EB
:103E800089A7D304122889C3D30412288923D40410
:103E90001228897DD404122889A3D404122889CA3F
:103EA000D40412288935D50412288938D60412285A
:103EB0008938A60512288969A60512288923A7052D
:103EC00012288989A705122889FAA7051228896C62
:103ED0009105122889CE92051228894BB705122820
:103EE000895CB705122889FCB705122889EB7F0089
:103EF000122889E5FF0312288922BA05122889327F
:103F0000BA0512288947BA0512288998BA051228D5
:103F10008957B505122889DCB50512288940B605F0
:103F2000122889F8FF03122889FBFF03122889E26F
:103F3000FF01122889F2FF01122889F5FF011228DA
:103F400089F8FF01122889F87F00122889DCAA0568
:103F5000122889FEAA051228894EAC05122889D29A
:103F6000AC05122889D4BA05122889DDBA051228B1
:103F700089E6BA05122889F4BA051228894AE904A3
:103F8000122889B6E9041228897DEA041228898753
:103F9000EB0412288969ED04122889C4ED04122863
:103FA0008919EE041228892AEE041228893CEE04AD
:103FB000122889A6EE04122889BAEE04122889C5AF
:103FC000EE04122889D3EE04122889E5EE041228A3
:103FD00089F8F8041228894DF90412288949FB044C
:103FE0001228897BFB041228899DFB04122889B6BC
:103FF000FB04122889CFFB04122889D9FC0412285B
:104000008974FD041228893BFE011228895FFE0194
:1040100012288978FE01122889ABFE01122889DC5A
:10402000FE011228890AFF0112288914FF011228B3
:104030008976FF0112288985FF011228898FFF01E7
:104040001228899CFF01122889E59E051228890BF8
:104050009F05122889489F05122889579F05122815
:1040600089769F05122889DE9F05122889E79F051A
:1040700012288946A0051228896AA00512288929D4
:10408000A10512288936A10512288947A105122801
:1040900089A6FF01122889C3FF01122889F9EE04BD
:1040A0001228893FEF04122889ACF004122889B93C
:1040B000F004122889CCF004122889EBF0041228AD
:1040C0008901F10412288915F1041228898AF10462
:1040D000122889EFF10412288977F2041228890046
:1040E000F304122889D5F304122889E5F304122871
:1040F00089F4F304122889527F00122889767F0000
:104100001228899E7F00122889C67F00122889758F
:10411000A1051228899CA105122889BDA105122894
:104120008922A205122889DBA305122889F4A30598
:1041300012288900A40512288914A405122889329E
:10414000A4051228893CA40512288946A405122832
:104150008959A405122889ACA405122889E5A4056B
:1041600012288914A50512288962A505122889B18B
:10417000A505122889CCA505122889D6A5051228DF
:1041800089E7A5051228892DA60512288988FF032D
:10419000122889D9FF03122889BDAE04122889E7A5
:1041A000AE0412288903AF0412288916AF0412281E
:1041B000892CAF0412288989AF04122889BCAF0466
:1041C000122889F8B3041228891EB50412288951CF
:1041D000B5041228899DB504122889C9B60412288D
:1041E00089F1B60412288906B70412288916B70483
:1041F0001228895AB704122889BBB704122889CB20
:10420000B704122889F2B1051228890DB2051228C7
:104210008936B20512288950B20512288975B2056F
:1042200012288994B205122889ACB205122889DABD
:10423000B205122889F4B20512288916B805122889
:10424000896CB8051228894498051228894B98056D
:10425000122889579905122889879905122889AD4E
:104260009905122889D09905122889F299051228F2
:10427000892C9A05122889929A05122889CB9A05C9
:10428000122889179B05122889449B0512288964E6
:104290009B0512288925AE0512288947AE051228EC
:1042A000896CAF051228896FAF0512288944B405BF
:1042B000122889B6B405122889F4B4051228893564
:1042C000B50512288994C0041228899AC0041228BE
:1042D00089E0C004122889C9C204122889FFC204D7
:1042E00012288959C3041228893BC40412288980E2
:1042F000C404122889B3C4041228893DC5041228B5
:104300008957C504122889E3C604122889E1C70425
:104310001228892AC804122889F9B7041228890F9B
:10432000B804122889A4B804122889A0B904122854
:1043300089A4BA0412288949BB041228898DBB04B8
:104340001228890ABC041228896BBC041228897BB4
:10435000BC04122889A2BC04122889F4BC041228C7
:104360008981BE0412288986BE04122889A8BE0449
:10437000122889F0D60412288976D7041228896C6D
:10438000D90412288902DA041228892DDA041228A5
:1043900089F9DA0412288973DB0412288998DB046E
:1043A00012288938DC041228897FDC041228898BC2
:1043B00084051228899D85051228892487051228DD
:1043C000894F8705122889128805122889A7880530
:1043D00012288901FC0212288927FC0212288976FA
:1043E000FC0212288992FC02122889C3FC021228BE
:1043F00089D3FC02122889E0FC02122889EDFC0214
:10440000122889D9FD0212288917FE021228892153
:10441000FE021228892EFE0212288939FF02122874
:10442000894BFF0212288956FF0212288968FF0271
:1044300012288971FF021228897BFF02122889F055
:10444000FF021228892DF40412288972F804122818
:10445000898EF8041228892F8D05122889458D052B
:10446000122889E78E05122889328F051228899D26
:104470008F051228898F9005122889BE9005122871
:1044800089D0900512288972AF05122889C49B052E
:10449000122889209C05122889609C0512288951C0
:1044A0009D05122889759D051228898A9D05122867
:1044B00089AA9D05122889E19D05122889F29D058A
:1044C000122889099E051228892E9E05122889B86E
:1044D0009E05122889A7BA051228891DD80312281B
:1044E0008963D60312288913D4031228899AD30327
:1044F00012288941D303122889D1D203122889A80E
:10450000D20312288988D00312288954D003122894
:104510008921D00312288905D003122889DDCE0312
:104520001228893DCE03122889F5CD03122889402F
:10453000CC03122889C0CB03122889BDCB031228D3
:1045400089A9CA0312288977CA03122889B4C90322
:10455000122889DFC70312288970C70312288942ED
:10456000C70312288999E10312288939E103122827
:1045700089F1E0031228893FE003122889B1DF03A3
:104580001228893FC7031228892CC703122889D70C
:10459000C603122889C6C603122889A4DF0312287D
:1045A00089B8C50312288982C50312288908C50362
:1045B000122889D3C4031228899EDC03122889FF9C
:1045C000EA0112288974C40312288943C4031228FB
:1045D000890BC103122889CBC003122889BFC003ED
:1045E0001228891FC0031228895FBF03122889D7A8
:1045F000BC0312288968BA0312288926BA03122834
:1046000089FAB803122889AFB803122889EBB703D7
:10461000122889BEB703122889F6B603122889C664
:10462000B603122889E4FF041228898CB6031228E5
:104630008900DA031228898D9F0400000080FBE4C2
:10464000738F000100F70787000100F607240002BE
:1046500000C31325000200C51326000200C713275C
:10466000000200C91328000100CB1329000100CC6F
:104670001384000400CD1386000100D1132A000129
:1046800000D2132B000100D3132C000100D6132DF0
:10469000000800E1072E000100D7132F000100D809
:1046A0001330000100D91331000100DA1332000188
:1046B00000E90733000100EA0734000100DB13368C
:1046C000000100EB0738000100DC1339000100D5C0
:1046D0001383000200E61363000100F50764000184
:1046E00000DE0765000100D4136D000100E5136EC4
:1046F000000200DF0743000100DD1344000200DE7A
:104700001345000100E01346000200E113470008D2
:1047100000ED0748000100E3134B000100E413041F
:10472000000100E813A1000100EA1337000100E9CD
:104730001388000100F8073C000100EC07000000AE
:1047400000000000013636010100010201000103F2
:1047500001000104010606050200000701003408FB
:1047600001000F090401010D0100FF0E08000017F0
:10477000020000190100FF1A0100011B0100FE1CCC
:104780000100081D0200001F01000120010001219D
:104790000200002301000F2402000026010001276F
:1047A000010008280200FF2A0100072B0102402C0B
:1047B0000100002D0100012E0100012F0100FF303A
:1047C000010B1C310800003A0100083B01000F2FCB
:1047D0000100000300710030016000110070003121
:1047E00002200350048000100061000000140063E8
:1047F0000073007200620043000000130006000016
:10480000000000040012000000000000000000048E
:10481000000400370037003C0244000000000000A4
:104820000000006500000035008100000005000068
:104830000083000000010371030103010301030170
:10484000030103220302030103100300030003001A
:1048500003000300030003000342030003240306D4
:10486000030003000304031203250323032503238A
:1048700003040304030003000300034403000300D4
:1048800003230300036503210035038103000305AF
:104890000300030003000301017101010101011183
:1048A0000101013101010101018001100161013BA0
:1048B00000140063017301720162014301000113DE
:1048C0000106013D01350004011201000100010053
:1048D00001000104010401330133013C01440132B0
:1048E0000136000001000165010001350081010071
:1048F00001050182018301000103047104020460C7
:10490000041104700402040204010402041004618E
:104910000400041404630473047204620443040076
:104920000413040604000400040404120400040038
:104930000400040004510464000004000400044462
:10494000040004000400040004650400043504812C
:1049500004640005040004830400040302710230AF
:1049600001600211027002010202020202800210C2
:104970000261023A00410063027302720262024362
:1049800002000213023800000200020402120200B8
:104990000200020002000204020402370037003C59
:1049A00002440200023900000200026502000235E2
:1049B000028102000205028202830200020000BEA0
:1049C0003D1300343D0100BE3D0200BC3C0300C26B
:1049D0003C0400C83C0500CE3C0600DA3C3000F840
:1049E0003C3100F23C3200043D33000A3D350010FA
:1049F0003D3400163D36001C3D1100283D14002EAC
:104A00003D1500EC3CFFFF000036000100060000F1
:104A1000000F000000000000000000000000000384
:104A2000FFFF00000403FFFF0000FFFF0FF4010081
:104A300005C4040320000100000B0000000000007A
:104A4000000003010F013C2F06722F086C2F0B8A08
:104A50002F10AC2E0AA22F02422F05602F07482FDD
:104A60000C1E2F0D302FFF000003EAF5E5D5D5C54C
:104A7000B5A5959585857575656555554545353556
:104A80002525151505AA33DA33B033B633D433C828
:104A900033C233E033E633EC33F833BC33A4339E14
:104AA0003300160F00000B150B020002220F32001C
:104AB0000006A634B834BE347433C4346E337A334B
:104AC000AE32A832E432EA32DE3296321235303576
:104AD0003635183524351E350C0E020B040B0A072B
:104AE00008000F303016181920231A1C1E30000140
:104AF00019161816161523030000034948424D18CD
:104B000017250502303017181921301B1D1F3000E2
:104B1000383C3E363B3B352B432CFA34CA34D03438
:104B2000DC34D634CE33F2332A35FE330434020477
:104B300002010101010902BA32C032B432F032C6B8
:104B400032D83200BE040A150004007F00E8030CCE
:104B500000280000000000090308100C0A030809DF
:104B600000040001FF1E1E0C05040F1008C082C0C7
:104B700083900780E4F0A3F07CD57D047AFA7B066D
:104B80001242BC122CBA9007F6E070047900800241
:104B90007901124628122CC002679B74F5122394E7
:104BA00074F5122955E9FF8A08EBFEEF705E740276
:104BB0006508703E9007137408F0750A00780A12B1
:104BC00028E1ECF50A780A1228E1EEF50A780A12D3
:104BD00028E19013CD1227059013D1E0F97CED7DEB
:104BE000079013E6125C40122CE4740712290A02A3
:104BF0004CBD740165086003024CC2900713740831
:104C0000F07B00EEFAF9122D20024CBD74016F60AA
:104C10000874026F6003024CC2EA60067403650800
:104C200070549007137402124CDC122B2E122CD2EB
:104C3000E9F8900718E0A2E34019E870169007849D
:104C4000E004F06404700C908094122B2E9013CD2D
:104C5000122B3A740365087066900785E0F97401B9
:104C600029F0E9C394054057908094122B2E90139D
:104C7000CD122B3A804974016508704674016F901B
:104C80000713702E740AF07401122B51E4F07402B1
:104C9000122B517403F0908084122B2E7404122B6B
:104CA00051122B3A7408122B51E4125A6C122F4EE7
:104CB0008020740A124CDC122B2E122D08E9F8E821
:104CC00060107CE87D037A017B00900710E0F91208
:104CD0003AD0740B12290A7F030225C1F09013D138
:104CE000E0F99013CD2274F6122394E9FFEAFE7ADC
:104CF000D1F912398CEA4B702A7A027B001239748E
:104D0000EA4B700E7A107B00900710E0F91239B070
:104D100080188A828B8374D1F0EFA3F0EEF91239F8
:104D2000808007EF8A828B83A3F0024EAB74F71268
:104D300023948908900675E0FEA3E080248E828F7C
:104D400083A3A312604960128E828F83A3A312549F
:104D5000AB126049FAA908123CA48E828F831271AB
:104D600037FFEE4F70D790068CE0FAA908123CA4EA
:104D70001230629006E412569B12305C026F50743F
:104D8000F1122394890A8C08740F122B51125C2C97
:104D90007411122B51125493750900750E00804A3C
:104DA000E50B124E4CF50CA3E0F50DE50EC333FEFA
:104DB000E433FFEA2EF582EB3FF583E0650C7004E7
:104DC000A3E0650D7019E509C333FEE433FFEC2E53
:104DD000F582ED3FF583E50CF0A3E50DF00509053F
:104DE0000BE50BC3950840B8050EE50EC3950A50B8
:104DF00005750B0080EBA90902623374F412239449
:104E0000890B740C122B51125C2C750A0080020560
:104E10000AE50AC3950B502F7D0080010DEDC39C60
:104E200050EDE50AC333FEE433FFEA2EF582EB3F93
:104E3000124E5CF509ED124E4C65087004A3E06556
:104E40000970D979018002790002647DC333FEE4E0
:104E500033FFE82EF582E93FF583E022F583E0F5A4
:104E600008A3E02274F6122394124EF27003A3E01A
:104E70006D701775081675090778081228DDEEFAA7
:104E8000123DC4740212290A801A7508027509803D
:104E900078081228DD8C088D0978081228DD124F59
:104EA0001D12290A8005740212290A7F020225C1F7
:104EB00074F6122394124EF27003A3E06D7017750E
:104EC000082375090778081228DDEEFA123DCA7426
:104ED0000212290A801A75080375098078081228B9
:104EE000DD8C088D0978081228DD124F1D12290A61
:104EF00080B9EAFEEBFF124F0AFAA3E0F9EA2400B8
:104F0000FCE439FD9006E4E06C22EE12604FEF12F3
:104F10006F05E0F8A3E0F988828983E022EE126F42
:104F200025EF127080FD7C80126101123DE874044F
:104F30002274F612239474FE122955EAFEEBFF85C3
:104F40001882851983E4F0A3F0126240FA888289FE
:104F500083A3A3E0F97509007508006005C394F107
:104F6000400575088280439006E4E06A7003A3E080
:104F70006B7020851882851983AA82AB831235B4A1
:104F8000E9F5098518828519831266ED701C75088C
:104F90008380179007F6E06004640170057508814E
:104FA0008008E06402700375088085188285198383
:104FB000125493A908EEFAEFFB123DD0E5096014F4
:104FC0008518828519831266ED6009851882851916
:104FD000831267A9024EA674F2122394EAFEEBFF35
:104FE000750A00750B0012504B123062EA650870AA
:104FF00003EB650970121235C6E914F50A79017AD6
:105000004C7B071235CC8003750B80126EEEF50CCD
:10501000780C1228E1750C4C750D07780C1228DD00
:10502000780A1228E178081228DDE50BF5087808DF
:105030001228E1125F19F582EF125D917A057B80EB
:10504000123DD6740712290A025C4E126EFC125CE5
:105050003088828983127174F508E439F509227465
:10506000F6122394E9FE7F00802F8A828B83124EF2
:105070005EF9E5082400E439F509EF33F8E433F983
:10508000EC28F582ED39F583E508F0A3E509F0EAAF
:1050900024020A0AEB3400FB0FEFC39E40CC024E01
:1050A000AB74E812239474FB1229558A168B17856A
:1050B0001882851983E4F07403122B51E4F0A3F0F5
:1050C00004122B51E4F0126D61F50AA3E0F50B8593
:1050D0000A82F583127170FEE439FF850A82850B1E
:1050E00083A3A3E0FA850A82850B83A3A3A3E0F937
:1050F000EAF508E439F509E50A2404F50AE50B3474
:1051000000F50BEEFAEFFB123104E96401702C128A
:105110006B9F1228E1E4F508F50978081228DD787C
:10512000081228E19006E412270975088078081211
:1051300028E11254B312290A025481EEFAEFFB124D
:105140003104E9700C9006E4E06E7003A3E06F7028
:10515000BE1254998814602EC333FAE433FB123A1A
:105160000A7403122B5112569B7403122B511266B0
:10517000ED60137403122B5112548BA914123CD4FA
:105180008A0A8B0B8003751400125499880F602AC9
:10519000C333FAE433FB123A0A7401122B5112564C
:1051A0009B7401122B511266ED600F7401122B518A
:1051B00012548BA90F123CD48003750F0090067512
:1051C000805D850A82850B83A3A3A3A3A3A3A3A3C6
:1051D000E4F0A3F0AA0AAB0B851282851383A3A384
:1051E0001254A9126049F912398085108285118301
:1051F000E0C0E0851882851983E0F8744C28F582B8
:10520000740712712AD0E012648204F0E515A2E05E
:105210005007AA10AB11123A10851282851383E051
:10522000F512A3E0F513E512451370030253F98557
:105230001282851383A3A312604960DD85128285E3
:105240001383A3A3A3A3A3A3A3A3E0A2E050CA85AF
:105250001282851383A3A3A3A31266ED8512828510
:105260001383A3A3601F126049FA79018512828516
:105270001383A3A3A3A312605412463F8A108B1179
:10528000751501800F1254A9A3A3E0F510A3E0F552
:1052900011751500E5104511700302520C8510823E
:1052A000851183A3E065087004A3E065096003022B
:1052B000520C851082851183A3A3A3A3A3A3A312D9
:1052C0002709851082851183A3A3A3A3A3A3E0FCD0
:1052D0007405122B51125C40A914123CB6740212D0
:1052E000290AE9703C851082851183A3A3A3A3A397
:1052F000A3A3A3A3A3122709851082851183A3A3C7
:10530000A3A3A3A3A3A3A3E0FC7403122B51125CD9
:1053100040A90F123CB6740212290AE97003025226
:105320000CE50F2514C333240AFA7B001239748A62
:105330000A8B0BEA450B70030251EA8A828B837455
:10534000D2F0851682851783A3A3125C2C8A828BE8
:1053500083125A748A828B83A3A3A3A3E5141271C8
:105360007AE50FF0E5146038EA2405FAEB3400FB27
:10537000E50A240AF8E50B3400F98A828B83125A75
:10538000767403122B511254D11228D9E514C33369
:10539000FCE433FD8A828B831268A512290A800DF2
:1053A0008A828B83A3A3A3A3A3E4F0A3F0E50F70E9
:1053B000030251C2E514C333F8E433F9E50A28F8CF
:1053C000E50B39F9E8240AFAE93400FB850A8285FD
:1053D0000B83A3A3A3A3A3A3A3A312569B7401129D
:1053E0002B511254D11228D9E50FC333FCE433FDFD
:1053F000126FCB12290A0251D4851882851983E0D5
:105400006027126B9F1228E175084C750907780810
:105410001228DD7403122B51126BA91228E1900699
:10542000E41227097508008029EEFAEFFB12310417
:10543000E9702A126B9F1228E175084C75090778EC
:10544000081228DD75080078081228E19006E41299
:10545000270978081228E11254B312290A7403129A
:105460002B511266ED60087403122B511267A97458
:1054700001122B511266ED60087401122B51126754
:10548000A9740512290A7F100225C1125493AA0A91
:10549000AB0B22E0FCA3E0FD22850A82850B83E0B2
:1054A000F8A385820A85830B22E0F8A3E0F58388C0
:1054B00082A322E5162402FCE5173400FDE516124E
:1054C0005EAEE51712610E7A067B80123DD6740738
:1054D00022E0F50CA3E0F50D750E00780C2274F4B3
:1054E00012239474F41229558A088B09ECFEEDFFFF
:1054F000740B122B517403F0122B51AA82AB83123E
:1055000042BC12305CEAFCEBFD7403122B51AA8200
:10551000AB831242B6E9600A12562B6010E06401B8
:10552000600B85188285198374840255E38E828FFF
:1055300083A3A3A3A3A3A3A3A3E06017C394F150E1
:105540001212562B7018EE2414126EF16005C394DB
:10555000F1400B85188285198374820255E3E508B2
:10556000240CF582E509126EF464217002A3E07048
:105570004F851882851983748CF012561E1228E10B
:1055800012563B1245C2740112290AE97056851859
:1055900082851983E4F0123C2612562B7046740162
:1055A000122B51AC82AD831270A1FB1245A4E9709D
:1055B000337D007C0079001270A1FB123D948024A1
:1055C00012561E1228E112563B1245B074011229E0
:1055D0000AE98518828519837007E4F0123C268059
:1055E000037488F0126F23E5091256231228E17420
:1055F00001122B5185820A85830B780A1228DDE57A
:1056000008240CF582E5091256324480F50B780A1D
:105610001228DD125FD112290A740C02647AEE128C
:105620005C20EF127080F50A780A22126EFCE064AA
:1056300003221259D3E0F50AA3E022EE240BFCEF7B
:105640003400FD8E828F83A3A3A3A3A3A3A3A3A34C
:10565000125C448E828F83A3A3A3A3A3A3A3A3E07E
:10566000F922C082C08374F31229558518828519E6
:1056700083E4F004122B5112569B7403122B51AA8F
:1056800082AB83122BFA851882851983AA82AB8399
:10569000122C30740D12290A02679BEAF0A3EBF07A
:1056A0002274F612239412712EEF125C29888289DB
:1056B00083126E2390071EE058F508A3E059F50900
:1056C000E5084509601C78081228DD9006E41227D9
:1056D00009126EEEFD7C001260FD123DE2740412B0
:1056E000290A024EAB74EA12239474DB1229558AFC
:1056F000148B15751200751300126042F50E851893
:1057000082851983AC82AD837A007B00799C122D4F
:10571000327A047900122C42EAF50C851882851938
:1057200083E0250CF0F8E50EC3984003025917E01A
:10573000C3950EF509C394044003750903E5097583
:10574000F01AA4FAABF0123A0A8A128B13EA451344
:10575000700302591A750D00AE12AF13850E0802C0
:1057600057EC12596E850A82850B83A3A3A3A3E08D
:105770007039850A82850B831266ED7012125C19EE
:10578000126EE8EE2418F582EF12712AE4801612E8
:105790005986F0900558E014C0E0EE2418F582EF29
:1057A00012712AD0E01259C3E4803E900558E004FB
:1057B000C0E0EE2418F582EF12712AD0E01259BB36
:1057C000C39403EE400302587C125C1A12712A74CF
:1057D000021259BB640160030258891259671271A1
:1057E0002AE4F0EE241612598912598FE50DC3955B
:1057F0000940030258ADE508C3950C4003025892D6
:10580000A908122CAE8A0A8B0B050890054512597F
:105810009B850A82850B83125C2C125960126E16CE
:105820001259D7850A82850B83A3A3A3A3A3A3A39D
:10583000A3A3A3E0C0E0EE2419F582EF12712AD0F1
:10584000E0F07401122B51E4126D9C125C2C740276
:10585000122B51125A767401122B51AA82AB831269
:105860002C1EE9640160030257627404122B51ACD0
:1058700082AD83EE240A12598002576512598712AD
:1058800059BB640370030257DBEE241512598902D9
:1058900057E2E50CC3950E40057508008016E50E2D
:1058A000C3950CF508800D12598612598FE50DC36A
:1058B00095095066740E122B51AC82AD8385080A8F
:1058C000AA0A7B007987122D3205087418122B5111
:1058D00012599B12596EEE2412F8EF3400F9740E2F
:1058E000122B51125C4088828983EAF0A3EB125993
:1058F000C374031259D7741D122B51E0C0E0EE247B
:1059000019F582EF12712AD0E01266FD7099125CCF
:105910001912712AE48093750900750A00780A1239
:1059200028E178121228DD78091228E1E50EF50940
:1059300078091228E17405122B51E0FD7C00125EFB
:1059400099123E1E740512290AE51245136007AA32
:1059500012AB13123A10742512290A7F0E0225C1C8
:10596000EE2412F582EF22EE2415F582EF227C0858
:105970007D0079FFEE240AFAEF3400FB12395C2235
:10598000FAEF1259B422EE24141259D0740122F005
:10599000EE241AFEEF3400FF050D22125C308E82D9
:1059A0008F83E8F0A3E9F07C597D05EE2402FAEF3D
:1059B0001259B4223400FB1242BC221270B4A3A3C9
:1059C000A3E022F0EE24151259E724161259D02232
:1059D000F582EF126F0522F0EE24171259E7241812
:1059E0001259D074FFF022F582126F047402F0EEA7
:1059F0002274F612239474F91229558A088B09121D
:105A000071F2851882851983122B3A125A64C0E00C
:105A10007404122B51D0E0126FE9E0FA7405122BD6
:105A2000517401F07406122B517401F09006EEF0DF
:105A30009006F7041270CBA3125C2C9006EF125A5A
:105A400076EA9006F8F0E508125EAEE509126EF40B
:105A50009006ED125A6C122CD8E96003122CDE74F9
:105A600007024EA8EE2404FE126D5722126238AAD5
:105A700082AB8322A3A3E8F0A3E9F02274F21223FD
:105A80009474FF1229557508007E007F00122F7E46
:105A90008A0A8B0B125C0D80050508125C25E8490B
:105AA00070F79007F6E0600764016003025B8A12FA
:105AB0005C0D8003125C25E8496037888289831277
:105AC0005C40900545E06A7003A3E06B600E125CD9
:105AD0001FE912712A125C40EA4B70D888828983D0
:105AE000125C2C900545E0687003A3E06970030226
:105AF0005B8A7A167B00123A0A8A0C8B0DAE0CAFC9
:105B00000DEE4F7003025B8A900545125C2C8E826D
:105B10008F83125A7690053AE08E828F83A3A3F08A
:105B20001230ECE98E828F83A3A3A3A3A3F090137A
:105B3000D2E08E828F83A3A3A3A3A3A3F07C597D7D
:105B400005EE240B125980851882851983AA82AB31
:105B50008379411243DC851882851983E0600890BF
:105B600006E4125C2C800478FE79FF8E828F83A37A
:105B7000A3A3A3A3125A74125C1912712AE50AF0A6
:105B8000A3E50BF08E0A8F0B05089006F8E0F8E508
:105B900008C39850047A008022E508C398FAC39499
:105BA0000640027A057900800DE50A125C20E50BBB
:105BB000125632F50B09E9C39840EE7509007809D1
:105BC0001228E1780A1228DDEAF50978091228E19D
:105BD0009006F8E0F50978091228E1AD087C007A12
:105BE000EF7B069006EDE0F9123E18740512290AC3
:105BF0009007F6E060046401700BEE4F6007EEFA68
:105C0000EFFB123A10122CDE7401025045122F7E67
:105C10008A0C8B0DA80CA90D22EE125C20EF22E855
:105C20002414F58222125C1FE91259D3125C30222F
:105C3000E0F8A3E0F922AC82AD8385188285198350
:105C4000125C4422E0FAA3E0FB22EEFAEFFB7F06AF
:105C50000225C174EC12239474FF1229558A0A8B11
:105C60000B7E008E0E8E0F126042FF851882851902
:105C700083AC82AD837A007B00799D122D3285182A
:105C800082851983E0F8EFC3984003025D2FE0C3DB
:105C90009FFEC3940B40027E0AEE75F007A4FAAB98
:105CA000F0123A0A8A088B098A0E8B0FEA450F60B8
:105CB0007C750C008017850882850983A3A3A3A3A4
:105CC000A37403F0E5082407125D88050CE50CC3F6
:105CD0009E505CAC08AD09850C108F12E5102512A2
:105CE000FAE43400FB798B122D3285088285098312
:105CF000A3A3A3A3A3E014600814601314601F807F
:105D0000B5850882850983A3A3A3A3A3E480B485F2
:105D10000882850983A3A3A3A3A3740180A5850892
:105D200082850983A3A3A3A3A3740280967E007532
:105D3000080078081228E1780E1228DDEEF50878C0
:105D4000081228E1EFF50878081228E17405122BF3
:105D500051E0FD7C00E50A2402FAE50B3400FBE586
:105D60000A125EAEE50B125D91123E2474051229F3
:105D70000AE50E450F6007AA0EAB0F123A10740128
:105D800012290A7F0C0225C1F508E5093400F5093E
:105D90002212610E2274EA12239474FE1229558A8B
:105DA000148B15750A00750B00126042F5088518F2
:105DB00082851983AC82AD837A007B0079A312457A
:105DC000AA85080C851882851983125C2CC3E50C02
:105DD00098E499507F851882851983E0C3950CFE5D
:105DE000A3E09400FFC3EE9404EF940040067E030A
:105DF0007F008004EE4F605CEEFAEFFBEA75F01571
:105E0000A4FAA8F075F015EBA428FB123A0A8A0C44
:105E10008B0D8A0A8B0BEA450B6039750900750EEC
:105E200000850E10C3E5109EE49F502DAC0CAD0D07
:105E3000850E12850810E5122510FAE43400FB796E
:105E4000A21245AAE50C2415F50CE50D3400F50D5C
:105E5000050E80CD75098B7E00750C00780C12281C
:105E6000E1780A1228DDEEF50C780C1228E17808AA
:105E70001228E17405122B51E0FDAC09125E991253
:105E80003E2A740512290AE50A450B6007AA0AABE7
:105E90000B123A107402025958E5142402FAE5155F
:105EA0003400FBE514125EAEE51512610E22240FDC
:105EB000F5822274F612239474FF122955EAFEEB40
:105EC000FF126EF8125C408A828B83A3A3A3A3A364
:105ED000A3A3A3E0F9122CFCE9851882851983F0AD
:105EE00075080078081228E17401122B5185820888
:105EF00085830978081228DD7508357509807808CA
:105F00001228DD125F0E12290A7401024EA87901CF
:105F1000125F19FAEF125FE822EE2402FCEF340060
:105F2000FDEE240F2274F412239474FA1229558A78
:105F3000088B09126E1EFAEFFB122C00E960131297
:105F4000305CEAFCEBFDEEFAEFFB1242B6E96401CD
:105F5000700A7401122B51E4F0A380097401122B12
:105F600051EEF0A3EF1266F1A3A3A3A3A3A3E0F85D
:105F7000A2E650087403122B517401F0E8A2E75016
:105F8000087404122B517401F07405122B51E4F0C3
:105F900004122B51AA82AB83122D26E98518828523
:105FA0001983F0750A00780A1228E17401122B5146
:105FB00085820A85830B780A1228DD750A34750BF1
:105FC00080780A1228DD125FD112290A7406026451
:105FD0007A7901E5082402FCE5093400FDE508248E
:105FE0000FFAE509125FE8223400FB123D887405C0
:105FF0002274F612239474FF12295512712EEF1297
:106000006046F9122CEAE9851882851983F0EE249E
:106010000B126EF1702975080078081228E17401DE
:10602000122B5185820885830978081228DD7508AE
:106030003675098078081228DD125F0E12290A02CF
:106040005F0912604EEB1259D3126054E022EA2429
:1060500013F58222E0F8A3E0F583888222022886E5
:1060600074F412239474EF122955EAFEEBFF1250D8
:106070004B9006E4E065087004A3E065097058855C
:10608000188285198385820A85830B780A1228DD98
:10609000750A11750B00780A1228DD7C007D007AE4
:1060A000817B00123A94740412290AE97029750A56
:1060B00000780A1228E17401122B5185820A858327
:1060C0000B780A1228DDAC08AD091260FD123DDC28
:1060D000740312290A8021750A11750B80780A123F
:1060E00028DD78081228DD126EEEFD7C841260FD3A
:1060F000123DE8740412290A741102647A126101D3
:1061000022EE2402FAEF3400FBEE125EAEEF126FC5
:1061100005E0F92274F112239474EB122955EAFE7A
:10612000EBFF1262402400F508E43BF5099006E419
:10613000E065087004A3E0650960030261DC888201
:106140008983A3A3E09410500F88828983A3A3E0DE
:1061500085188285198380088518828519837410B3
:10616000F0E0C0E07404122B51D0E0126F33A3A30F
:10617000A982AA83890C8A0D750E00780C1228D981
:106180007407122B51E0FC7D007408122B51AA8277
:10619000AB83126FCB12290A7404122B5185820A29
:1061A00085830B780A1228DD750A11750B00780AB1
:1061B0001228DD7C007D007A817B00123A8E740407
:1061C00012290A7404122B51E09007166005E0D2E0
:1061D000E48003E0C2E4126238E480088518828516
:1061E00019837484F0E0C0E07401122B51D0E0F008
:1061F0007402122B51E508F07403122B51E508F0DC
:10620000EE126F25EF126BA61228E17402122B51C9
:1062100085820885830978081228DD7508147509B8
:106220008078081228DD7903125F1012290A74158C
:1062300012290A7F070225C1F08518828519832259
:10624000124F0AFCA3E0FBEC2274F412239474E0D6
:106250001229558A088B09851882851983AC82AD6D
:1062600083123D769007F6E0640270337402122BBD
:1062700051AE82AF8312305CEEFCEFFD1242B6E904
:10628000601D1230628A0A8B0BA80AA90B8518823E
:10629000851983E0687003A3E069700302647812D3
:1062A00032247402122B51125C3612312EE9640131
:1062B00070030264787418122B51AA82AB831230D7
:1062C0006E7402122B51AC82AD837418122B51AA3A
:1062D00082AB831242B6E960321230688A0A8B0BB5
:1062E000A80AA90B851882851983E0687003A3E0CA
:1062F000696018851882851983125C2C90053B1201
:106300005A767A3B7B05794B1243E29007F6E060C0
:10631000076401600302639E127122C082C083126F
:1063200030628A088B09D083D082E065087004A3AC
:10633000E06509603E7402122B51AA82AB83122CD5
:10634000728A088B09A808A909E849602688828909
:1063500083A3A3A3A3E06401600D88828983A3A320
:10636000A3A3E06402700C7402122B51AA82AB83C7
:10637000122C7E1230628A088B09A808A909851898
:1063800082851983E0687003A3E0696011740212CA
:106390002B51125C36122C54E96003123C26740215
:1063A000122B51125C361232067900125C3A122E10
:1063B0006A740B122B51E4126482F8A3E0F9740C96
:1063C000122B51125A76740B122B51AA82AB8312E4
:1063D0002C1EE9604B7C087D0079007418122B514B
:1063E000AA82AB8312395C740E122B51AC82AD833E
:1063F0007418122B51AA82AB831242B6E960217441
:1064000002122B51AC82AD83740E122B51AA82ABB7
:1064100083122BFA740B122B51AA82AB83122C30ED
:106420007402122B51AC82AD83740E122B51AA82CE
:10643000AB83122BFA740B122B51AA82AB83122C52
:1064400024E96034740C122B51125C2C851882855F
:106450001983E0687003A3E069601D8518828519BF
:1064600083125C2C740C122B51125A76740B122B63
:1064700051AA82AB83122C30742012290A7F0402A5
:1064800025C1126238E02274F112239474F61229A5
:1064900055EAFEEBFF7508009007821266ED70402A
:1064A0007A377B001266B0EAF0A3EB126C11601928
:1064B0007C377D00790012395CEEFCEFFD9007829D
:1064C000125C40123D46E9700B8518828519837471
:1064D000880266121266B77401F0126B4F0266A54D
:1064E0001266B77402F0EEFCEFFD126B35123D46FA
:1064F000E9700C8518828519837488F07508017518
:106500000A4C750B07780A1228DD900782E02429CF
:10651000126B83122709900782E024281266C12497
:10652000151266D524141266CA12290AE9C0E09031
:106530000782E02431126B83D0E0F0126BD5603C0F
:106540001266AAE024321266F66025750C4C750DB1
:1065500007750E00780C1228D9126BD5C333FCE4F2
:1065600033FD900782E024321268A112290A800CC0
:106570008518828519837488F0750801780A1228B5
:10658000DD900782E02412126B83122709900782A4
:10659000E024111266C1242C1266D5242B1266CA7F
:1065A00012290AE9C0E0900782E02434126B83D0FC
:1065B000E0F0126F0A602E1266AAE024351266F629
:1065C000603F750C4C750D07750E00780C1228D9BC
:1065D000126F0AC333FCE433FD900782E0243512C6
:1065E00068A112290AE508A2E0401F126BD57005C8
:1065F0001266DD60157B007A007900123D4C026660
:10660000A58518828519837488F085188285198379
:106610007486F07409122B5174021266F1126BCF5A
:10662000122B51125A768E828F83A3126BA91228D5
:10663000E17401122B51858208858309780812289C
:10664000DD75082075098078081228DD7901740647
:10665000122B51AC82AD83EEFAEFFB126B6B122959
:106660000A126BBB703C7409122B517402F0126B4E
:10667000C7122B51126C181228E17401122B51858C
:10668000820885830978081228DD7508207509803D
:1066900078081228DD79017406122B51126B5D12F5
:1066A000290A123D40740A026230C333FAE433FB14
:1066B000123A0A90078222900782E0242E126B87FA
:1066C00022126BDFFC900782E02218126BE0F912B5
:1066D0003CB07404221267B7900782E022900782D0
:1066E000E02434080808126BE022126B871268D489
:1066F00022126FE9A322126B87EAF0A3EB126F5903
:10670000F8A3E0F9E84922C082C0839007821266AC
:10671000ED700302679B900782E024351266EA6001
:1067200009900782E024351267B0900782E0243296
:106730001266EA6009900782E024321267B090077F
:1067400082E024121266EA6009900782E0241212A5
:1067500067B0900782E024151266EA60099007820C
:10676000E024151267B0900782E024291266EA60DF
:1067700009900782E024291267B0900782E0242C58
:106780001266EA6009900782E0242C1267B0900735
:10679000821267A9900782E4F0A3F0D083D082022E
:1067A0002886F582EF3400F583125C44123A1022F9
:1067B0001267B7123A1022F8126BE4FAA3E0FB2238
:1067C00074F1122394EAFEEBFF8C088D09750A011F
:1067D0008C0C8D0D750E00780C1228D97C177D005D
:1067E000126FCB12290A125960126D1B12596712CF
:1067F0006D272411F582E509126EF4602AEE241249
:106800001268AC601FE50824121268951228D9E5B9
:1068100008241112688A12596112712A1268A5128D
:10682000290A8003750A00E508125C20E509126E4A
:10683000F46025EE24151268AC604AE508241512B0
:1068400068951228D9E508241412688A125968122A
:10685000712A1268A512290AE50AA2E040221259FB
:106860006012712A1266ED6006EE24121267A212FF
:10687000596712712A1266ED6006EE24151267A29E
:10688000A90A026233750A0080D412707CC333FCFB
:10689000E433FDEE2212707CF50CA3E0F50D780CCC
:1068A0002208126B88125C44126FCB22F8EF34007E
:1068B000F9880C890DE0C333FAE433FB123A0A85F8
:1068C0000C82850D83EAF0A3EBF0850C82850D83A5
:1068D0001268D422E0F8A3E0F9E8492274EE12230A
:1068E0009474ED122955890A8A0E8B0F750C007568
:1068F0000D00750BFF7510FF7511FF750800750908
:1069000000851882851983E4126C117005790002E4
:106910006B2B7403650A60067402650A700D90079C
:1069200082E02430126F10650F70E27C527D3D7A58
:10693000007B001246107401650A700B8518828571
:1069400019837485F08043E50A60067403650A7054
:1069500019900782126B96F07403650A7028E50E91
:10696000602885188285198380DA7402650A701A96
:10697000E50E9007827005126B9680C8E0242F12F6
:106980006B83740280BEE50A6019126BAF701490BD
:106990000782E024310808126F1170051266DD606D
:1069A0000214F0126BD59007826014124E5E126BC7
:1069B000712432126BEF241D126B422425802012A9
:1069C00066E06020900782E02417F508A3E0340019
:1069D000126B712435126BEF2406126B42240E12D7
:1069E0006F10F50B7409122B51740212648260034C
:1069F000026A9DE50845097003026A9D126BAF703B
:106A0000047E2280027E21850882850983126BCD57
:106A1000122B51125A76900786E0C0E0900782E070
:106A20002430126B83D0E0F07412122B517403F0F7
:106A3000AC0CAD0D740A122B51AA82AB831242BC6E
:106A4000850882850983A3E0F50C780C1228E1788B
:106A50000B1228E1740C122B5185820C85830D7862
:106A60000C1228DD78101228DDE5082406F50CE567
:106A7000093400F50D780C1228DD126F23E5091298
:106A80005D917409122B51AC82AD83EEFA7B00123A
:106A90003DF4740812290A126B4F026B29126BC75E
:106AA000122B51126C181228E17401122B5185829D
:106AB0000885830978081228DD7508207509807813
:106AC000081228DD79017406122B51126B5D122910
:106AD0000A126BBB7050900782E02419126B83126C
:106AE0006BCF122B51125A76900782E02418126B4A
:106AF00083126BA91228E17401122B51858208853B
:106B0000830978081228DD75082075098078081235
:106B100028DD79017406122B51AC82AD83126B35DE
:106B2000126B6B12290A123D407901741312290A63
:106B30007F0A0225C1900782E02417FAA3E03400FF
:106B4000FB22F50CA3E03400F50D900782E0227CD7
:106B5000527D3D9004D3125C4412461022AC82ADAB
:106B600083900782125C44126B6B22123D8874057D
:106B700022F50988828983E0C333F8E433F990076A
:106B800082E022126B8722F8A3E0126B8E2234007F
:106B9000F98882898322E0242F126B87740122E511
:106BA00016126F25E5171259D3E0F50878082290E0
:106BB0000782E0242F126BDF640122900782E02419
:106BC0002E126BDF640222900782126054A3A3127C
:106BD0005C30740122900782E02431126BDF22F8CE
:106BE000126BE422A3E03400F988828983E022FA60
:106BF000A3E0126F2A28F8A3E039F9E824FEF58211
:106C0000E934FFF583E0F510A3E0F511900782E089
:106C100022126C2AF9E84922E8F0A3E9126C2AF55D
:106C2000838882A3E0F508780822F0900782E0F8D4
:106C3000A3E022C082C0837B007A857901123D4C9B
:106C400002679B74F41223948C088D09EA240F12B6
:106C500070D4127085125C2C8C828D83125A74EA67
:106C6000240E1270D4126D61FEA3E012713EA3A334
:106C7000A3A31271662406FAE509126D49C0E0E586
:106C800008240E127126D0E0126E28F8E508240FB1
:106C9000127126E8126F152412F582E509126D278C
:106CA0002415F582E509126D1B8E828F83E0A30EF9
:106CB000AF83C0E0127122D0E0F0601FE50824121B
