:020000040000FA
:10000000021BC6022003FFFFFFFFFF02200BFFFFC2
:10001000FFFFFF022013FFFFFFFFFF02201BFFFF78
:10002000FFFFFF022023FFFFFFFFFF02202BFFFF48
:10003000FFFFFF021305FFFFFFFFFF02203BFFFF53
:10004000FFFFFF022043FFFFFFFFFF02204BFFFFE8
:10005000FFFFFF022053FFFFFFFFFF02205BFFFFB8
:10006000FFFFFF022063FFFFFFFFFF02206BFFFF88
:10007000FFFFFF022073FFFFFFFFFF02207BFFFF58
:10008000FFFFFF022083FFFFFFFFFF02208B002006
:10009000000090200000932000000100000000C834
:1000A00003000000000000000400FFFFFFFF00C28B
:1000B000010000002600FFFFFFFFFFFFFFFF04031A
:1000C00009042403540065007800610073002000D7
:1000D00049006E0073007400720075006D006500C9
:1000E0006E00740073002403540049002000430094
:1000F000430032003500330031002000550053002A
:100100004200200043004400430000035F005F0002
:100110003000580000000000000000000000000057
:1001200000000000000000000000000000000000CF
:10013000000000003031323334353637383941422F
:10014000434445467F18D418D418D418D418DC1862
:1001500074F71217BA1207A3700FA3A3E0700AA3D3
:10016000E064027002A3E060089005A47404020237
:10017000119005B6E02480600814602D14603A8068
:10018000E89005BAE070E29005B0E0600478018084
:100190000278009005BEE8F0A3E4F09005AFE060BF
:1001A000559005BEE04402804990059DE0640470CE
:1001B000B89005BEE4F0A3803C9005BAE0547FF50A
:1001C0000890059DE0640470A0E508C3940650996A
:1001D0009005BAE05480600C1202FBE06403700CDE
:1001E0007801800A1202EEE0640360F47800900562
:1001F000BEE8F0A3E4F09005A4E064046014900568
:10020000B174BEF0A37405F0A3E4F0A37402120865
:1002100002F07F02021A2674F71217BAE9FE90055F
:10022000BC1207A6701090059DE064046010900554
:10023000BA1207A660089005A474040202E89005AB
:10024000B6E0541F600814600D14602380E8900528
:10025000B8E06401600579000202EBEE9005AFF0B2
:1002600060047905800279067A001217B8807A90C6
:1002700005BAE0547FFA9005B8E070DAEAC3940654
:1002800050B4EA90620EF09005BAE05480602AEE15
:100290006004741080027440906211F0EE60047487
:1002A000038001E4C0E08A081202FBD0E0F0EE60B7
:1002B000047908802C79078028EE6004742080027D
:1002C0007480906214F0EE600474038001E4C0E076
:1002D0008A081202EED0E0F0EE6004790A8002791A
:1002E000091217B890620EE4F0790102021274A9A3
:1002F0002508F58274053400F5832274A42508F5D9
:100300008274053400F583227900120217E9700324
:100310001217A7227901120217E970031217B622E9
:10032000C082C0839005BA1207A67014A31207A654
:10033000700E9005B8E05480F8A3E0F9E849600732
:100340009005A47404801D9005B8E0906200F090C0
:10035000059D6009E06402700C74038007E064038B
:1003600070037402F0D083D0822274F51217BA9011
:1003700005B9E014600814601914604C806412130D
:100380009C120527A37B80121AEEA3F0A3E4F002CF
:1003900004DE9005B8E0FA79001213BE1205277B3F
:1003A00080E924020909EA3400FA121AEEFC19194C
:1003B000E0FAA3E92403090909EA3400FA121AEE63
:1003C000F9ECA3F0A3E980C69005B8E0F912142C6B
:1003D0009005B1EAF0A3EBF0A3E4120536A37B008D
:1003E00080A59005B1E4F0A3F0A3F0FA0204B27581
:1003F000090074037808121B91120540E493C0E0D1
:100400009005B9E0F8D0E06860030204B18A08758D
:10041000090074037808121B91120540A3E493C0ED
:10042000E09005B8E0F8D0E06860030204B18A0803
:1004300075090074037808121B91120558E493C0E3
:10044000E09005BBE0F8D0E06870668A08750900A6
:1004500074037808121B91120558A3E493C0E0902E
:1004600005BAE0F8D0E06870488A0875090074039E
:100470007808121B9112054CF988828983A3A3A3E3
:10048000A3E493F508740193F5099005B1E508F02C
:10049000A3E509F0A37480F088828983A3A3A3A3B2
:1004A000A3A3E493F8740193F99005B4E8F0A3E9E9
:1004B000F00A8A0890067A1206AC75830675827C6B
:1004C000E0C398F50AA3E099F50B7403780A121BB0
:1004D000B7C3E508950AE4950B50030203EF9005B6
:1004E000B1E0FCA3E0FDA3E0FEEC4D4E9005A4704E
:1004F000047404802CE0640460289005B41206ACF7
:100500007583057582BCC3E098A3E099500E9005F1
:10051000BC1206AC9005B4E8F0A3E9F09005A47411
:1005200001F07F04021A269005B1EAF0A3EBF0A3D4
:10053000748012053622F09005B1E0F9A3E0FA22AA
:100540001205442212054C8882F5832290067AE037
:100550002508F8A3E0350922120544A3A32274EF6D
:100560001217BA8A088B098A828B83A3A3A3A3E4F8
:1005700093602690067E1206ACE8FEE98007EE2422
:1005800004FEEF3400FF8E828F83E493F8740193AE
:10059000F9EA687002EB6970E5750C00804A9062B8
:1005A000147490F0741012069C70027940750A0160
:1005B000750B00E50E780A121B918E828F83A3A320
:1005C000A393550A6004E9D2E0F9E9906215F0EAD4
:1005D000906213F074A9250EF58274053400F5833A
:1005E000E4F090620EF0050C850882850983A3A3D0
:1005F000A3A3E493F8E50CC39840030206977A009E
:10060000790512132E8A0A8B0BEA450B60D8EA246F
:1006100002F8EB3400F9E8FCE9FD8C828D83E49369
:10062000540FF50E90620EF079008A828B83A3A39B
:10063000A3A3E4932407F510A3E4933400F5117405
:10064000037810121BB7AA108C828D8393A2E74007
:100650000302059E9062117448F0740812069C70A3
:10066000027940750A01750B00E50E780A121B919C
:100670008E828F83A3A393550A6004E9D2E0F9E93F
:10068000906212F0EA906210F0850E0A74A4250AB6
:10069000F58274050205DC7F0A021A26F0850A82BB
:1006A0008B83A3A3A3E4935403640122E0F8A3E0A3
:1006B000F922C082C0831207A37010A31207A6708C
:1006C0000AA3E064017002A3E060079005A474042B
:1006D000800C9005B1749EF0A374051207F8F00227
:1006E000036574F61217BA90059DE06402601490D9
:1006F00005BA1207A6700CA31207A670069005B9DA
:10070000E060099005A47404F00207917A00790171
:100710001217B89005B8E060637A00F91213BE8A28
:10072000088B09AE08AF09EE4F604990059D74042F
:10073000F09005B8E090059EF0750A008E828F83D8
:10074000A3A3A3A3E493F8E50AC398503D850A0840
:10075000120796E4F07A00790412132E8A828B83B2
:10076000A3A3A3E493F8120796E06870E812055E6D
:10077000050A80C89005A47404F0800E90059EF0D0
:1007800090059D7403F0F9120F5E7A00790212173A
:10079000B87F03021A26749F2508F5827405340079
:1007A000F583229005B8E0F8A3E0F9E8492274F651
:1007B0001217BA90059DE0640470199005B6E064C4
:1007C0008170111207A3700C9005BCE064017002E7
:1007D000A3E060079005A47404801A9005BAE02491
:1007E0009FF508A3E03405F5099005B1E508F0A3ED
:1007F000E5091207F8F08099F0A3E4F0A3041208C9
:100800000222F0A3E4F09005A4042274F71217BAB0
:1008100090059DE0640470109005B6E064017008D6
:100820009005BC1207A660089005A47404F08052DD
:100830009005B8E0FB9005BAE0FA90059EE0F91249
:1008400013F68A088B09AE08AF09EE4F60DA9005FF
:10085000BAE0FA79031217B89005B8E0C0E0900545
:10086000BAE0249FF8A3E03405F988828983D0E0B8
:10087000F0EEFAEFFB12055E9005BAE0FA79041289
:1008800017B802021274F81217BA74FF121B517EC5
:10089000008033900384E0F8851882851983E0682E
:1008A000700D900382E0644D7005120AD2E9FE904B
:1008B0000385E4F0900387F0851882851983E0F8BA
:1008C000900384E068F07901851882851983AA82F3
:1008D000AB831210D5E97003020983E0C0E09003F6
:1008E00087E0F8900385E0FAE82AF8E43400120C77
:1008F00086D0E0F0900387E0601114602014603E21
:1009000014604E14606414608A80AD851882851965
:1009100083E064FE70A29003877401809A90038440
:10092000E4F0851882851983E0900386F0C39480F3
:100930009003874004E40208B774020208B78518E0
:1009400082851983E0900382F09003877403020884
:10095000B7851882851983E0900383F0900386E0C1
:10096000601990038774040208B7900385E004F0CF
:10097000F8900386E06860030208B8900387740566
:100980000208B7EEF97401121B087F01021A2674DF
:10099000ED1217BA74FB121B517508047509007823
:1009A00008121B6B7402121C09120C73121B0885AF
:1009B0001882E0F47003A3E0F4600F8518828519B3
:1009C00083E0F8A3E0F9E8497003020AC674021252
:1009D0001C09E0687003A3E0697003020AA07508AF
:1009E000009005C07810121BD5800A9005C47810BD
:1009F000121B7C604A750A01750B00780A121B6B8A
:100A00007406121C09AC82AD8385100A85110BAAED
:100A10000AE50B5407FB8A0C85110D85120E851310
:100A20000F740B780C121B22A90C120C7D121B08E0
:100A3000E0F9AA08AB09120C928A088B0980089089
:100A400005C87810121BD59005CC7810121BA49005
:100A500005D07810121AB45092E4F9120C92E4F90D
:100A6000120C927402121C09EAF0A3EBF075080153
:100A70007509007808121B6B7402121C09AC82AD58
:100A8000837A247B081215D47402121B087508049B
:100A90007808121B6B7402121C09120C73121B08CB
:100AA000120C65121C09E0687003A3E069701785D9
:100AB0001882851983E0F47003A3E0F46008E84924
:100AC00060047901800279007405121B087F0C0212
:100AD0001A2674F31217BA74FC121B51900306E025
:100AE000FAA3E0F9EA2400F8F508E93408F50975F5
:100AF0000A017F007E00900383E014600C146040C4
:100B0000147003020B99020C16E5095401F9E84927
:100B10007011880C85090D7409780C121BB7A90C8B
:100B2000121638750C108E0D780C121B6B7C087D1C
:100B300003AA08AB091215D47402121B08020C1682
:100B4000880C85090D7409780C121BB7E50CC39449
:100B50007940040F020C16750A408E0B780A121B9E
:100B60006B7C097D03EAF50AE5095401F50B740273
:100B7000780A121B91AA0AAB0B74097808121BB7EA
:100B8000A908120C7D121B08900307E0A3F0900344
:100B900006E0A3F0750A43807D7508048E09780885
:100BA000121B6B7402121C09120C73121B087402C4
:100BB000121C09E0F8A3E0F9851882851983E06822
:100BC0007003A3E069603B120C65121C09E8F0A3F6
:100BD000E9F07508017808121B6B7402121C09AC4D
:100BE00082AD837A247B081215D47402121B087517
:100BF00008047808121B6B7402121C09120C731281
:100C00001B08120C65121C09E0687003A3E06970F0
:100C1000030E80027F07900305E0D2E7F0EFA3F018
:100C2000E50A900303F0744D650AF5087404250A7B
:100C3000FB7A038007120C83E062080AEAC39BA2D6
:100C4000D265D033EAF840ED120C83E508F0740168
:100C50002AF97A027B03121115EEF97404121B08AB
:100C60007F06021A26851882851983E0F8A3E0F929
:100C7000740222AC82AD837A907B00790412154F06
:100C80007402223395E0F9740228F582740339F571
:100C90008322C008C0097C088A088B09740F780871
:100CA000121BB7EAC333FAEB33FBE9A2E750047433
:100CB000014AFAE508A2E0500874216AFA74106B40
:100CC000FBE9C333F91CEC70CFD009D00822C082F5
:100CD000C0837A0079011213BE8A828B83A3A3A3F7
:100CE000A3A3A3A3E493A2E69005B05004740180EB
:100CF00001E4F09005AFE4F090620F7403F0E0A21D
:100D0000E750FB90620BE0D2E1F0D083D08222C0AA
:100D100082C08390059D7402F0A3E4F09005A4F0D6
:100D20007903120F5E75210075220080DD74F612C2
:100D300017BA90620EE0FEE4F0906211E0F50AA2AC
:100D4000E4501D7480F09005A47407F0E52145225D
:100D50006009852182852283121C1B9005A4E4F082
:100D6000E50AA2E2500B906211E4F09005A4F08035
:100D7000769005A4E064027057906216E0FF90053B
:100D8000B1121A66EFF97A207B62120F9674031281
:100D90001B088F089005B4120F33120F3EE0F8A322
:100DA000E0F9E8496004744080027448906211F0F0
:100DB000E8497014E5214522600985218285228356
:100DC000121C1B9005A4E4F0EE90620EF0020FDC02
:100DD000E064067009852182852283121C1B900520
:100DE000A4E06003020ECDE50AA2E050DB7508B670
:100DF000750905750A007808121B6779087A207B47
:100E000062120F967403121B087521007522009060
:100E100005B6E054E0601C24E07003020EA724E055
:100E2000606F24C0604524E07003020EB224E060CD
:100E30006B8030A3E014601C24FE601324FE600A63
:100E400024FC601524FE60168019120320806C12A9
:100E50000314806712030880621206E2805D1208A4
:100E60000B80589005A47404F08058A3E0600E2411
:100E7000FA600F24FE601024FE601180E61201501B
:100E8000803912036A80341206B2802F1207AE80B6
:100E90002A7521A37522171217A3801F7521A57526
:100EA00022171217A58014752140752217121740BA
:100EB000800975216E75221712176E9005A4E064E3
:100EC000047004746080027440906211F09005A474
:100ED000E06401704A750A029005B4C3E09420A34F
:100EE000E09400500A9005B4E0FF750A0A80027F82
:100EF000209005B1121A66EFF97A207B62120FBAC0
:100F00007403121B088F08120F3E120F33E50A906C
:100F10006211F0EFC394204003020DC8020DB4E04B
:100F200064056003020DC8852182852283121C1B83
:100F3000020DC8C3E09508F0A3E09400F0229005EC
:100F4000B1E0F9A3E0FAA3E0FBE92508F9EA3400EF
:100F5000FA9005B1E9F0A3EAF0A3EBF0A32274F74D
:100F60001217BA7800880874A52508F5827405124E
:100F70000F8A40F17800880874AA2508F582740564
:100F8000120F8A40F17F02021A263400F583E9F03D
:100F900008E8C394052274F61217BAEAFCEBFDE9DF
:100FA000F8740A121C09120FEC600D8C828D83E01C
:100FB000121B3B120FE170F3802274F61217BAEA8B
:100FC000FCEBFDE9F8740A121C09120FEC600D121B
:100FD0001AEE8C828D83F0120FE170F37F03021AF8
:100FE00026E9240109EA3400FA18E822E0F508A30A
:100FF000E0F509A3E0A908AA09FBE822C082C083A2
:10100000A823E8540460097823E654FBF6120D0F78
:10101000A823E8541060097823E654EFF6120D2D4A
:10102000A823E8A2E05005782354FCF690620EE075
:10103000FA7404F0906214E0A2E05042E5A8F8C20D
:10104000AF906216E0F9A3E0E9FBE8A2E792AF8077
:101050001F906228E0C0E0900391E0F8749228F5B8
:101060008274033400F583D0E0F0900391E004F043
:10107000EBFC74FF2C1B0470D8906214E4F0EA902F
:10108000620EF0E0FD7404F0906211E0A2E0403BDB
:10109000900493E0F8900492E068602F7A40900406
:1010A00092E0F8749428F58274043400F583E0909B
:1010B0006228F0900492E004F008900493E06860E5
:1010C000041AEA70D99062117401F0ED90620EF08A
:1010D000D083D0822274F81217BAE9FE7900801FFB
:1010E000900390E0FC74922CF58274033400F58335
:1010F000E08A828B83F0900390E0041211480990FB
:101100000390E0F8900391E0686005E9C39E40D049
:101110007F01021A26C082C08380228A828B83E0EC
:10112000C0E0900493E0FC74942CF58274043400C5
:10113000F583D0E0121148900493E004F0E9F874CC
:10114000FF28190470D58088F08A828B83A3AA8235
:10115000AB832212120112098FE9603112127AE96F
:10116000602B75AC00759A0053F4FEC29043FE01EB
:1011700090620FE4F0E0A2E740FB90000174CDF034
:10118000022000C2AF75C9AB75C95B80FE9005D463
:10119000780C121BD5794E1211EBD2AF850D099048
:1011A00005CC780C121BA4E5095440600AA28050BB
:1011B00004C2808002D280120FFC120885E960DC34
:1011C000C280D2919005D87808121BD5120FFC90DE
:1011D00005DC7808121BA4E5084509450A450B7093
:1011E000EBC2AF75C9AB75C95B80FE781075B60FE1
:1011F000E5B4A2E750FAE5BBC39940F118E870EDF9
:1012000022C082C08353BEFBE59DA2E650FA00785F
:10121000F8790100E824FF18E934FFF9E84970F390
:1012200075C6807480659E70FA43BE0490627074C7
:1012300008F0D28043FD01C29143FE02794A1211A7
:10124000EB90000174F5F07403F5D575D488900522
:10125000E0121BFD900594121BF1900598E4F0A399
:10126000F0A37408F0120CCE7AFF7BFF12164F53D6
:10127000F4FED29043FE010210D074F11217BA743A
:10128000FF121B519005E4780C121BD57E00D2AFE3
:101290008004C291C280120FFC79018518828519E1
:1012A00083AA82AB831210D5E96012E064F860343F
:1012B000E0640770089005D4780C121BD5A29250F8
:1012C00023A293501E850C08850D09850E0A850FF3
:1012D0000B9005DC780C121BA4E5084509450A456E
:1012E0000B70130EC2AFD280C291EEF97401121BC3
:1012F000087F08021A26850D09E50954207093D24B
:1013000080D2918091C0E074F2121820900001E028
:1013100064CD7005122033800BE064F57005121661
:101320009A8001007F010218DCD083D08222C08223
:10133000C083E9FCEAFD7A007B00800790059CE011
:1013400012138190059BE0F8A3E0F9900678E0681D
:101350007003A3E069601C1213756C700D90059BFF
:10136000E0FAA3E0FB12138180091213756D70CCB3
:10137000ED60C980B490059CE0F5838882A3E49376
:1013800022F5838882E493F890059BE028F8A3E097
:101390003400F990059BE8F0A3E9F022C082C083F5
:1013A0001213AD7A00790112132E021329900676DA
:1013B000E0F8A3E0F990059BE8F0A3E9F02274F7C8
:1013C0001217BAE9FEEAFF1213AD7A00790212137E
:1013D0002EEA4B601CEE60108A828B83A3A3A3A32A
:1013E000A3E4936E70E48009EFF874FF281F047083
:1013F000D97F02021A2674F51217BAEAFF8B087A0F
:10140000001213BE7A02790412132EEA4B60188A76
:10141000828B83A3A3E4936F70EA8A828B83A3A356
:10142000A3E493650870DD7F04021A2674F712178F
:10143000BA74F0121B51E97A007B00600C14601042
:101440001460141460180215377AF07B0502153702
:101450007AF47B050215377A187B06021537900659
:101460003CE060030215337408121C09AC82AD83A2
:101470007583057582E87408121A93750808F509D2
:101480007808121B6B7402121C09AC82AD837AE8D7
:101490007B07797F12154F7402121B087808121B04
:1014A0006B740A121C09AC82AD837402121C09AA67
:1014B00082AB831219347402121B088B09EA4509A6
:1014C000701D7509007808121B6B7C0C7D78740206
:1014D000121C09AA82AB831219E07402121B087C49
:1014E000287D008D08851882851983E5822508F5F9
:1014F00082E5833400F583E0FF8C08743C2508F80E
:1015000074063400F9EF12153F88828983F0EFC426
:1015100012153FC0E0E824FEF582E934FFF583D0E0
:10152000E0F00D74FC2CFCEDC3940840B690063C32
:10153000742AF07A3C7B067410121B080213F154D3
:101540000FFA74662AF58274063400F583E022747B
:10155000F51217BA8908740B121C09E0FEA3E0FF0C
:10156000740F5508F50A750B00740B780A121B915D
:10157000EA2400F8EB3480F9E82400E9350BF9E5BA
:10158000C7F509A2AFE433F50AC2AFE508C4540FAA
:10159000FAE5C754F84AF5C7801C88828983E08C35
:1015A000828D83F088828983A3A882A9838C828D0F
:1015B00083A3AC82AD83EEFAEFFBEA24FF1EEB348B
:1015C000FFFFEA4B70D48509C7E50AA2E092AF7F1E
:1015D00004021A2674F71217BA7409121C09E0F5EE
:1015E00008A3E0F509ED900388F0ECA3F0A3746282
:1015F000F0A37473F0A3E0541FF0E508333354FCF8
:10160000A3F074067808121BB7E50890038CF090DD
:10161000038E7412F0A37442F075D1FE75D601EA00
:10162000906271F0EBA3F0906270E0D2E1F0E0A282
:10163000E740FB7F02021A26C082C083E9C33390D1
:101640006272F0906270E0D2E0F0D083D0822274B7
:10165000F71217BA7523007524007525008A268BAA
:1016600027EA90620BF08A088B0974047808121B31
:10167000B7E508906207F08A088B097409780812A8
:101680001BB7E508543E906209F0758B00C2E84331
:10169000AC20439A027F02021A2674F71217BAE5A9
:1016A0009DA2E650FA906206E0FAA2E25035A82622
:1016B000E890620BF0F50885270974047808121B7E
:1016C000B7E508906207F085260885270974097830
:1016D00008121BB7E508543E906209F0906201E0E1
:1016E000D2E0F07823EA46F6906202E0F508750948
:1016F0000074047808121B917823E50846F608E583
:101700000946F6906204E0F5087509007409780846
:10171000121B917824E50946F6EAA2E050037525EC
:101720000174065A6003752500E58BA2E550067525
:101730008BDF7525001217B9758B00C2E80216956C
:10174000C082C0839005B7E06422700A9005A4E0CF
:10175000701A74028015E064209005A4700BE0708C
:101760000B1217959005A480E97404F08043C082A1
:10177000C0839005B7E064219005A47013E0701356
:10178000121795A37407F0A3E4F09005A404800257
:101790007404F0801C9005B17494F0A37405F0A358
:1017A000E4F02280028000C082C0839005A474040B
:1017B000F0D083D0822280EF22222518C582C0E09B
:1017C000E51934FFC583C0E0E518C3958224F910FC
:1017D000AF0885831985821880088583198582184A
:1017E000D2AFCEF0A3E520F0A37808E608F0A3DEA0
:1017F000FAEFF0A3E58124FBF8E608F0A3E608F091
:10180000A30808E608F0A3E608F0A315811581D027
:10181000E0FED0E0F815811581E8C0E0EEC0E022DE
:10182000C0D02518C582C0E0E51934FFC583C0E0EB
:10183000E518C3958224F310AF08858319858218B3
:101840008008858319858218D2AFC8F0A3E9F0A378
:10185000EAF0A3EBF0A37908E709F0A3D8FAECF0DB
:10186000A3EDF0A3EEF0A3EFF0A3D0E0F0A3D0E05F
:10187000F0A3D0E0F0A3E520F0A3E5F0F0A322125E
:10188000010002020000205104A816090001020311
:10189000010902430002010080190904000001024D
:1018A00002010005240010010424020205240600A0
:1018B00001052401000107058203400040090401DD
:1018C00000020A000000070584024000000705042A
:1018D000024000009A180000BD1800008519838599
:1018E0001882E0C0E0A3E0F9A3E0FAA3E0FBA3784C
:1018F00008E0F608A3DFFAE0FCA3E0FDA3E0FEA306
:10190000E0FFA3E0C0E0A3E0C0E0A3E0F5D0A3E0E7
:10191000F520A3E0A3F5F010AF08858319858218A0
:101920008008858319858218D2AFD082D083D0E019
:10193000F8D0E03274F81217BA7408121C09E0F8F3
:10194000A3E08015A3AA82AB838C828D83A3AC8293
:10195000AD83E824FF18E934FFF9E84960238A825F
:101960008B83E0FE8C828D83E06E8A828B8360D4D1
:10197000E0F88C828D83E0FAE8C39AFA95E0FB8068
:10198000047A007B007F01021A26121C18B900039A
:101990000219DAE479217807B800028004F709D83F
:1019A000FCE490030278BF79038002F0A3D8FCD94D
:1019B000FA9005C0AA82AB8390008E78C37901802B
:1019C00015E493A3AC82AD838A828B83F0A3AA82B1
:1019D000AB838C828D83D8E9D9E7121153121C1383
:1019E00074F71217BA7409121C09E0FEA3E0FFEAAB
:1019F000F8EBF980188C828D83E088828983F0A3CC
:101A0000A882A9838C828D83A3AC82AD838E088F3C
:101A100009E50824FF1EE50934FFFFE508450970C4
:101A2000D47F02021A26851983851882E0A3FEE07E
:101A3000A3F5207808E0A3F608DFFAE0A3FFE0A30F
:101A4000C0E0E0A3C0E0E0A3C0E0E0A3C0E010AFCE
:101A5000088582188583198008858218858319D2A4
:101A6000AFD083D0822274038000CCC0E0EDC0E010
:101A7000E518C39CCCAD1950011D10AF068C188D14
:101A80001980068C188D19D2AF121A93D0E0FDD0B0
:101A9000E0FC22CAC0E0E0A3C582CCC582C583CDEC
:101AA000C583F0A3C582CCC582C583CDC583DAE6E4
:101AB000D0E0CA22C008C3E096F50808A3E0964229
:101AC0000808A3E096420808A3E09645087001D3F1
:101AD000D008222518F58210AF08F5184002151914
:101AE0008008F51840021519D2AF85198322BB0171
:101AF00002E722C082C08389828A83BB0003E08020
:101B000002E493D083D08222C0D0251810AF08F50C
:101B100018500205198008F51850020519D2AFD0E7
:101B2000D0226016080808C6C313C618C613C61804
:101B3000C613C618C613C6D5E0EA22BB000EC08283
:101B4000C0838A838982F0D083D08222BB0101F7CF
:101B500022251810AF08F518400215198008F5184D
:101B600040021519D2AF227403800474028000C0B1
:101B7000E0F404121AD3D0E0121BE422E0667010E5
:101B800008A3E066700A08A3E066700408A3E06694
:101B900022700422600D18C6C333C608C633C6D5EA
:101BA000E0F41822E026F608A3E036F608A3E036B3
:101BB000F608A3E036F622600C08C6C313C618C6A2
:101BC00013C6D5E0F42275D00075814075180275F2
:101BD000190302198AE0F608A3E0F608A3E0F60864
:101BE000A3E0F622CAC0E0E6F0A308DAFAD0E0FAF1
:101BF00022EAF0A3EBF0A3ECF0A3EDF022E0FAA3CD
:101C0000E0FBA3E0FCA3E0FD222518F582E43519F2
:101C1000F5832200000080FB790122E473FFFFFFBF
:101C2000FFFFFFFFFFFFFFFFFFFFFFFFFFFFFFFFC4
:101C3000FFFFFFFFFFFFFFFFFFFFFFFFFFFFFFFFB4
:101C4000FFFFFFFFFFFFFFFFFFFFFFFFFFFFFFFFA4
:101C5000FFFFFFFFFFFFFFFFFFFFFFFFFFFFFFFF94
:10200000022C4A02221DFFFFFFFFFFFFFFFFFFFF21
:10201000FFFFFFFFFFFFFFFFFFFFFFFFFFFFFFFFD0
:10202000FFFFFFFFFFFFFFFFFFFFFF0229EEFFFFA4
:10203000FFFFFF022240FFFFFFFFFFFFFFFFFFFF49
:10204000FFFFFFFFFFFFFFFFFFFFFFFFFFFFFFFFA0
:10205000FFFFFF02214BFFFFFFFFFFFFFFFFFFFF1F
:10206000FFFFFFFFFFFFFFFFFFFFFF022908FFFF4A
:10207000FFFFFFFFFFFFFFFFFFFFFF022799FFFFAB
:10208000FFFFFF0221B201FFFFFFFFFFFFFFFFFF86
:10209000102010200101FF01010503010F10FEFFB8
:1020A000FA35FA35FA35FA35A4349E34FA35B149A1
:1020B00000000000134A000000000C0000000C00AB
:1020C000010000943800000000E637BA392E382AA3
:1020D0003900001C380000FF01010010070000005B
:1020E0008807E80364006400B801020200080000E9
:1020F00005020701051E02051E020A0A03B80B02AB
:10210000803E010201FFFF0A01E096511800020221
:1021100006FFFF00035F005F003000580000000072
:1021200000000000000000000000000000000000AF
:1021300000000000000000000000000000B8250DB5
:10214000260D260D260D261526E803C0E074F21292
:102150002559A2AFE433FED2AFE5A7FFE5A1F5080C
:102160005F5410600612419475A1EFE5085F5408B2
:10217000600812419A75A1F7802BEFA2E0C0D0E56C
:1021800008A2E092F0122BD3158182F050179061D3
:1021900098E0F8900A66E0C398A2D265D033500266
:1021A000E8F075A1FE751A00EEA2E092AF7F010281
:1021B0002615C0E074F2122559A2AFE433FED2AF67
:1021C0009061A4E0F8759B00E5915854086008758B
:1021D00091F71241E2802AE59158541060087591F8
:1021E000EF1241E8801BE8A2E0C0D0E591A2E092A6
:1021F000F0122BD3158182F05007E0C2E0F01243B9
:102200003E9061A3E0F8E5E9585404600E124314CF
:1022100075E9FB906193E0A2E640F28088C0E0742B
:10222000F2122559A2AFE433FED2AF9061A5E0F8D7
:10223000E5BF585404600675BFFB1243560221A542
:10224000C0E074F1122559E59DA2E650FA906206AD
:10225000E0FAA2E25035A82CE890620BF0F5088570
:102260002D0974047808122C69E508906207F0853E
:102270002C08852D0974097808122C69E508543E4C
:10228000906209F0906201E0D2E0F07829EA46F627
:10229000906202E0F50875090074047808122B8733
:1022A0007829E50846F608E50946F6906204E0F567
:1022B0000875090074097808122B87782AE5094601
:1022C000F6EAA2E05003752B0174065A6003752BE1
:1022D00000E58BA2E55006758BDF752B001244FAE2
:1022E000758B00C2E87F02022615C3E498F8E499D2
:1022F000F912232B8026C3E49AFAE49BFBE920E73A
:10230000E912232BE498F8E499F922C3E498F8E45D
:1023100099F912232BE498F8E499F9C3E49AFAE4C2
:102320009BFB22EB20E7CFE920E7E0B90010BB00E0
:1023300008E88AF084F8AAF022E4FBC8FA22EB70DD
:10234000227B10C833C8C933C9335007C39AC3DBD3
:10235000F280069A50012ADBEAC833F4C8C933F484
:10236000C9FA2275F008E4C833C8C933C933C99A19
:10237000C99B5004C92AC93BD5F0ECFBC833F4C84B
:10238000E4C9FA22080808EAC0E0EBC0E086F0E7FA
:10239000A4FA180986F0E7A42AFA180986F0E7A437
:1023A0002AFA180986F0E7A42AFA1986F0E7A4FBAE
:1023B000E5F02AFA190886F0E7A42BFBE5F03AFAD3
:1023C000190886F0E7A42BFBE5F03AFA18180986FD
:1023D000F0E7A4C5F02BFBE43AFA1908E7C5F0C60C
:1023E000A426F6E5F03BFBE43AFA1886F0E7A4F6FB
:1023F000E5F00826F6E43B08F6E43A08F6D0E0FB00
:10240000D0E0FA22122CACB90003022467E479214F
:10241000780DB800028004F709D8FCE49004D17864
:10242000F7790C8002F0A3D8FCD9FA781A902086AC
:102430007A01BA00028007E493A3F608DAF9901053
:10244000C7AA82AB8390209478B879018015E49371
:10245000A3AC82AD838A828B83F0A3AA82AB838CE8
:10246000828D83D8E9D9E77582307583917405121E
:1024700029D075821875834874001229D0E4CFC022
:10248000E0E4CEC0E0E4CDC0E0E4CCC0E075F020F4
:10249000C3E633F608E633F608E633F608E633F625
:1024A000181818EC33FCED33FDEE33FEEF33FFC3A9
:1024B000EC9709ED9709EE9709EF97191919400F55
:1024C000FFEC97FC09ED97FD09EE97FE191906D56B
:1024D000F0BEECF709EDF709EEF709EFF719191956
:1024E000D0E0FCD0E0FDD0E0FED0E0FF222518C512
:1024F00082C0E0E51934FFC583C0E0E518C39582CA
:1025000024F810AF088583198582188008858319FF
:10251000858218D2AFCEF0A3E520F0A37808E608B4
:10252000F0A3DEFAEFF0A3E58124FAF8E608F0A3C1
:10253000E608F0A3E608F0A30808E608F0A3E6081A
:10254000F0A315811581D0E0FED0E0F8158115814A
:102550001581E8C0E0EEC0E022C0D02518C582C0D9
:10256000E0E51934FFC583C0E0E518C3958224F384
:1025700010AF0885831985821880088583198582A4
:1025800018D2AFC8F0A3E9F0A3EAF0A3EBF0A37967
:1025900008E709F0A3D8FAECF0A3EDF0A3EEF0A35E
:1025A000EFF0A3D0E0F0A3D0E0F0A3D0E0F0A3E5FB
:1025B00020F0A3E5F0F0A3221201000202000020A7
:1025C0005104A81609000102030109024300020197
:1025D0000080190904000001020201000524001016
:1025E000010424020205240600010524010001075C
:1025F00005820340004009040100020A00000007B0
:1026000005840240000007050402400000D32500B5
:1026100000F6250000851983851882E0C0E0A3E05C
:10262000F9A3E0FAA3E0FBA37808E0F608A3DFFA39
:10263000E0FCA3E0FDA3E0FEA3E0FFA3E0C0E0A375
:10264000E0C0E0A3E0F5D0A3E0F520A3E0A3F5F01F
:1026500010AF0885831985821880088583198582C3
:1026600018D2AFD082D083D0E0F8D0E0320E00098B
:1026700075F0108E218F228582268583258518820C
:10268000851983E0CEA3E0CF852682852583EBC91B
:10269000EAC8EDCBECCAC3E833C8E933C9EA33CAA8
:1026A000EB33CBC3EA9EF524EB9FF523B35004AB89
:1026B00023AA24EC33CCED33CDD5F0DAAE21AF2212
:1026C00022D083D082ECC0E0EDC0E0E493A3FCE430
:1026D00093A3FDED4C600D1227DCEC24FFFCED34E0
:1026E000FFFD80EFE493A3FCE493A3FDED4C600DAC
:1026F0001228B3EC24FFFCED34FFFD80EFD0E0FDA9
:10270000D0E0FCE493A3C0E0E493C0E022D083D007
:1027100082E9C0E0E493A3C386F0C5F095F0F90820
:10272000E493A386F0C5F095F0700BE493A3C399EE
:102730004005E9048002A3E475F002A42582F58235
:10274000E5F03583F583D0E0F9E493A3C0E0E493AA
:10275000C0E022851983851882E0A3FEE0A3F5205E
:102760007808E0A3F608DFFAE0A3FFE0A3C0E0E00A
:10277000A3C0E0E0A3C0E0E0A3C0E0E0A3C0E0109D
:10278000AF0885821885831980088582188583198A
:10279000D2AFD083D0820229D6C0E074F21225597C
:1027A000A2AFE433FED2AFE58AA2E250079008263A
:1027B000E0D2E0F0E58AA2E35007900826E0D2E1FB
:1027C000F0758A00C2EB7A017B00900822E0F912D2
:1027D0003B10EEA2E092AF7F01022615C0E0C3E4F9
:1027E0009396087401939618400FE4936670080856
:1027F000740193661870007019A3A3C3E49396083C
:102800007401939618A3A3400DD0E0D0E0D0E0026D
:1028100026FDA3A3A3A3A3A3D0E022D083D082C587
:10282000F0E493A3C5F0C395F0F5F0E493A3C3954A
:10283000F04005E5F0048001E475F002A42582F57E
:1028400082E5F03583F583E493A3C0E0E493C0E030
:1028500022740480087403800474028000CCC0E0F9
:10286000EDC0E0E518C39CCCAD1950011D10AF06BA
:102870008C188D1980068C188D19D2AF122952D060
:10288000E0FDD0E0FC2274028000CCC0E0EDC0E0AE
:10289000E518C39CCCAD1950011D10AF068C188DE6
:1028A0001980068C188D19D2AF122930D0E0FDD0D6
:1028B000E0FC22C0E0C0F088F0E493667008087481
:1028C000019366187000A8F0A3A3700BD0F0D0E0BD
:1028D000D0E0D0E00226FDA3A3D0F0D0E022D08348
:1028E000D082CCC0E0E493A360061229921470FA5F
:1028F000E493A36006122ABB1470FAD0E0FCE493C0
:10290000A3C0E0E493C0E022C0E074F21225597540
:102910008900C2C59010BFE0700E7A007B1090064F
:102920008CE0F9123B1080031246987F01022615B5
:10293000CAC0E0E493A3C582CCC582C583CDC5835C
:10294000F0A3C582CCC582C583CDC583DAE5D0E0CE
:10295000CA22CAC0E0E0A3C582CCC582C583CDC56A
:1029600083F0A3C582CCC582C583CDC583DAE6D00A
:10297000E0CA22C008C3E096F50808A3E096420822
:1029800008A3E096420808A3E09645087001D3D05A
:102990000822C0E0E493A3D39C5010E493A3C39C0B
:1029A000400AD0E0D0E0D0E00228FBA3A3A3D0E00F
:1029B000227009080808226016181818C6C333C602
:1029C00008C633C608C633C608C633C6D5E0EA22F1
:1029D000C09FF59FE473D09F22D083D082C09FE434
:1029E00093C0E0740193C0E0740293F59F22C0E0AD
:1029F000C0D0E8C0E0E5A8D2AFC2C7751A00A2E710
:102A000092AFD0E0F8D0D0D0E0322518F58210AFE8
:102A100008F518400215198008F51840021519D25A
:102A2000AF851983227404800A74038006740280BF
:102A3000027401C0E0F404122A0AD0E0122C8722AA
:102A4000C0D0251810AF08F518500205198008F5F8
:102A50001850020519D2AFD0D022BB0102E722C024
:102A600082C08389828A83BB0003E08002E493D022
:102A700083D082226016080808C6C313C618C6137E
:102A8000C618C613C618C613C6D5E0EA22C3E0C6E8
:102A900096F608A3E0C696F608A3E0C696F608A345
:102AA000E0C696F622BB000EC082C0838A8389826C
:102AB000F0D083D08222BB0101F722C0E0E493A3CF
:102AC0006C7009D0E0D0E0D0E00228FBA3A3D0E0F6
:102AD00022251810AF08F518400215198008F518BE
:102AE00040021519D2AF22E066701008A3E06670AC
:102AF0000A08A3E066700408A3E06622E766701087
:102B00000809E766700A0809E76670040809E766BD
:102B100022C3E09608A3E09608A3E09608A3E096F7
:102B2000A2D265D03322C3E096F008A3E096F00865
:102B3000A3E096F008A3E096F022C3E697F6080912
:102B4000E697F60809E697F60809E697F622E026E2
:102B5000F008A3E036F008A3E036F008A3E036F072
:102B600022E627F60809E637F60809E637F60809E7
:102B7000E637F622E056F608A3E056F608A3E0563C
:102B8000F608A3E056F622700422600D18C6C3337F
:102B9000C608C633C6D5E0F41822E647F60809E6AB
:102BA00047F60809E647F60809E647F622E026F662
:102BB00008A3E036F608A3E036F608A3E036F622CE
:102BC000E056F008A3E056F008A3E056F008A3E0B2
:102BD00056F022C0E0E8C0E0E58124FCF8E6A2E778
:102BE000D0E0F8D0E022E657F60809E657F60809E3
:102BF000E657F60809E657F622E4C396F608E49687
:102C0000F608E496F608E496F622C3E09608A3E0F8
:102C10009608A3E09608A3E09622C6F4C608C6F478
:102C2000C608C6F4C608C6F4C622600D08C6A2E7E8
:102C300013C618C613C6D5E0F322C3E7960809E702
:102C4000960809E7960809E7962275D00075814035
:102C50007518D175190400022404E0F608A3E0F603
:102C600008A3E0F608A3E0F622600C08C6C313C66A
:102C700018C613C6D5E0F422E6F008A3E6F008A3D0
:102C8000E6F008A3E6F022CAC0E0E6F0A308DAFA0C
:102C9000D0E0FA22E0FAA3E0FBA3E0FCA3E0FD22EF
:102CA000EAF0A3EBF0A3ECF0A3EDF022E5C754F8B3
:102CB0004401F5C77901222518F582E43519F58319
:102CC00022C2AF75D69F020000221229D9B5E303B4
:102CD0001229D90AE6031229D957E7031229D9FA8A
:102CE000E7031229D9EDE8031229D92CE9031229A7
:102CF000D922EB031229D940EB031229D967EB0340
:102D00001229D90080021229D93580021229D95BF3
:102D100080021229D99580021229D9A7800212298E
:102D2000D9F980021229D95A81021229D9E48102E3
:102D30001229D98882021229D9D082021229D90AED
:102D400083021229D92783021229D94C830212291E
:102D5000D99E83021229D9B783021229D9DD8302B1
:102D60001229D91884021229D95C84021229D98324
:102D700084021229D9D484021229D9848502122905
:102D8000D93C86021229D90487021229D9C48702A4
:102D90001229D90888021229D92D88021229D9703E
:102DA00088021229D9BD88021229D9158A0212294E
:102DB000D99B8A021229D9B98A021229D9E38A0237
:102DC0001229D9FD8A021229D90C8B021229D9178E
:102DD0008B021229D9D78B021229D9308C021229E1
:102DE000D9F28C021229D9FA8C021229D97E8D02CD
:102DF0001229D9C48D021229D9058E021229D9951A
:102E00008F021229D94D90021229D9B990021229A4
:102E1000D9E491021229D90992021229D91A9202EF
:102E20001229D99092021229D92293021229D97A11
:102E300093021229D93A94021229D95994021229DB
:102E4000D96895021229D98695021229D998950236
:102E50001229D9EB95021229D9FA95021229D982A1
:102E600096021229D9BF96021229D9CC96021229AC
:102E7000D94F98021229D9AE99021229D9C79902BD
:102E80001229D9109B021229D9A19B021229D9D843
:102E90009C021229D9119D021229D95D9D02122985
:102EA000D9799E021229D9C2A0021229D9CDA00235
:102EB0001229D9D8A0021229D9E3A0021229D9EDEA
:102EC000A0021229D9F8A0021229D912A1021229AE
:102ED000D91CA1021229D926A1021229D931A10295
:102EE0001229D93CA1021229D964A1021229D9BF01
:102EF000A1021229D9C9A1021229D9EDA1021229D0
:102F0000D911A2021229D96FA2021229D9B3A202A1
:102F10001229D9CFA2021229D946A3021229D97E99
:102F2000A3021229D9CAA3021229D927A40212295D
:102F3000D9E1A4021229D9C5A6021229D91EA702D5
:102F40001229D94EA8021229D974A8021229D9FD32
:102F5000A9021229D979AD021229D94BAF0212293F
:102F6000D914B1021229D9C1B1021229D92CB30244
:102F70001229D9CBB3021229D918B4021229D98245
:102F8000B4021229D991B4021229D918B702122910
:102F9000D946B8021229D9D8B9021229D945BA029C
:102FA0001229D924BB021229D93DBC021229D9BA4F
:102FB000BD021229D9D9BD021229D92EBE02122969
:102FC000D933BF021229D95BBF021229D9B3BF027C
:102FD0001229D992C0021229D9D6C0021229D921A8
:102FE000C1021229D98CC1021229D9CDC2021229DB
:102FF000D931C3021229D97FC4021229D9DFC602EE
:103000001229D910C7021229D9C8C8021229D91DFC
:10301000C9021229D92FCA021229D9CCCA021229EF
:10302000D925CB021229D9D8CB021229D97ACC02C0
:103030001229D91ACD021229D9BFCD021229D931AC
:1030400081011229D97A81011229D9F28301122929
:10305000D93184011229D97B84011229D9B985017A
:103060001229D91886011229D94C86011229D98A28
:1030700086011229D9FD87011229D9C08A01122996
:10308000D9F38B011229D9898C011229D9E0950134
:103090001229D97A96011229D96199011229D97B6D
:1030A0009A011229D9DC9A011229D9F89B01122917
:1030B000D93E9D011229D9209E011229D905A001CE
:1030C0001229D916A2011229D984A2011229D9568E
:1030D000A3011229D90DA4011229D917A40112297B
:1030E000D946A4011229D903A5011229D9DAA501CB
:1030F0001229D9A1A6011229D93CA7011229D9A6C2
:10310000A7011229D9C4A7011229D9EDA7011229B3
:10311000D90FA8011229D95FAA011229D937AB0109
:103120001229D97BAB011229D9E3AB011229D99B12
:10313000AC011229D9CDAC011229D911AD01122946
:10314000D947AD011229D993AD011229D9E8AD01B2
:103150001229D9EDAD011229D940AE011229D96544
:10316000AE011229D975AF011229D9EDAF0112298B
:10317000D949B0011229D9D5B0011229D9C4B30156
:103180001229D9A7B4011229D93EB6011229D9743E
:10319000B8011229D922B9011229D9D3B9011229AA
:1031A000D915BC011229D9B8BC011229D9FFBC011B
:1031B0001229D9ABBE011229D9BFBE011229D9C922
:1031C000BE011229D9F1BE011229D9FDBE01122971
:1031D000D91CBF011229D966C1011229D99BC1018D
:1031E0001229D9A5C1011229D9AFC1011229D90AC1
:1031F000C2011229D966C2011229D97AC301122942
:10320000D9DBC3011229D92AC5011229D96EC501FA
:103210001229D916C6011229D9F9C6011229D9A431
:10322000C7011229D9F0C8011229D9EEC901122902
:10323000D994CA011229D924CB011229D93BCB0137
:103240001229D972CB011229D97CCB011229D98636
:10325000CB011229D991CB011229D9AFCB01122967
:10326000D9F3CB011229D950CC011229D975CC013F
:103270001229D98FCC011229D921CD011229D94B7C
:10328000CE011229D9C2CE011229D9A9CF01122902
:10329000D9DFCF011229D953D0011229D9CDD001BC
:1032A0001229D9D1D1011229D9C7D2011229D97C29
:1032B000D3011229D98FD4011229D92BD501122972
:1032C000D9B8D5011229D996D6011229D9CED6015D
:1032D0001229D926D7011229D9EFD7011229D910DD
:1032E000D8011229D997D8011229D9BBD80112299E
:1032F000D9DDD8011229D926D9011229D93CDB01FF
:103300001229D923DC011229D9CEDC011229D90BCB
:10331000DF011229D95BDF011229D99BDF011229B4
:10332000D9DDDF011229D937E0011229D965E00181
:103330001229D989E0011229D9DCE0011229D90A20
:10334000E1011229D943E1011229D9A2E10112298F
:10335000D90FE2011229D95EE3011229D981E501D1
:103360001229D9EAE5011229D913E6011229D99EB9
:10337000E6011229D90AE7011229D955E7011229D4
:10338000D979E7011229D99DE7011229D9F9E70175
:103390001229D914E8011229D9CDE8011229D9C876
:1033A000BA051229D900BB051229D942BB05122939
:1033B000D9A8BB051229D9B2BB051229D9C2BB05B0
:1033C0001229D97C80031229D9C280031229D9A2DB
:1033D00081031229D9A482031229D9A783031229B0
:1033E000D93385031229D99185031229D94E860331
:1033F0001229D96C87031229D9DD87031229D9191B
:1034000088031229D96788031229D97188031229E0
:10341000D9B588031229D91189031229D9AC890396
:103420001229D9298A031229D9F88A031229D99194
:103430008B031229D9B18B031229D9E78B031229E7
:10344000D9188C031229D9D98C031229D9E98C03F4
:103450001229D93D8D031229D9588D031229D96A11
:103460008D031229D9738D031229D9CD8D03122909
:10347000D9298E031229D9758E031229D9908E036A
:103480001229D9C18E031229D9DE8E031229D9EA55
:103490008E031229D95E90031229D977900312293D
:1034A000D9DE90031229D9F190031229D9FF900394
:1034B0001229D9B391031229D99792031229D99DC0
:1034C00093031229D92794031229D931940312297D
:1034D000D99E94031229D9B594031229D9E79403EC
:1034E0001229D92095031229D94A95031229D9AB5B
:1034F00095031229D9CB95031229D9E995031229ED
:10350000D92F96031229D95597031229D9A29703C7
:103510001229D9D197031229D94798031229D96FB3
:1035200098031229D9A898031229D9B69803122909
:10353000D90E99031229D95D99031229D99C9903AF
:103540001229D9CC99031229D9F899031229D90340
:103550009A031229D9219A031229D9E39A0312292D
:10356000D9ED9A031229D9289B031229D93E9B032E
:103570001229D9479B031229D99C9B031229D9B040
:103580009B031229D9BE9C031229D9D19C0312296D
:10359000D9E89C031229D9FD9C031229D99F9D03C8
:1035A0001229D9229E031229D9E09E031229D9EBB0
:1035B0009E031229D917A0031229D933A003122977
:1035C000D985A0031229D9C4A0031229D9D9A003EF
:1035D0001229D93BA1031229D9CAA1031229D9154D
:1035E000A2031229D966A4031229D9E4A40312293B
:1035F000D959A5031229D97BA7031229D993A70367
:103600001229D996A7031229D9A2A7031229D9B63C
:10361000A7031229D9BEA7031229D9F1A70312299A
:10362000D9A1A8031229D917A9031229D98AA90354
:103630001229D93EAA031229D9F3AA031229D912B1
:10364000AB031229D9B2AB031229D9BEAB0312299D
:10365000D9E9AB031229D9ECAB031229D91BAC036E
:103660001229D930AC031229D99AAC031229D9C234
:10367000AD031229D99AAE031229D925AF03122915
:10368000D93EB0031229D9FBB0031229D934B103B2
:103690001229D965B1031229D923B2031229D953AA
:1036A000B2031229D92EB3031229D9C7B3031229A1
:1036B000D952B4031229D903B5031229D986B50307
:1036C0001229D9B8B5031229D9F9B5031229D92E6F
:1036D000B6031229D9AE99041229D9139A041229D2
:1036E000D9509A041229D99F9A041229D9B59C0459
:1036F0001229D9989E041229D93FA2041229D9D798
:10370000A2041229D912A3041229D934A30412291C
:10371000D997A3041229D9CBA3041229D9F3A3045E
:103720001229D916A4041229D94DA4041229D9A00A
:10373000A4041229D9ECA4041229D9FC730012297B
:10374000D97A74001229D9B074001229D91C7500D5
:103750001229D98F76001229D9AB76001229D9F017
:1037600076001229D97E77001229D9D7770012293D
:10377000D90479001229D9167A001229D9737A004E
:103780001229D9DF7A001229D9407B001229D98168
:103790007B001229D92E7C001229D9407D001229E4
:1037A000D96B7D001229D9B67D001229D9FD7D0083
:1037B0001229D98F7E001229D94A7F001229D9EA0D
:1037C00088051229D9FB88051229D94C89051229A7
:1037D000D99189051229D9408A051229D97A8A05F1
:1037E0001229D90080041229D99580041229D943BD
:1037F00081041229D9CE81041229D9AE8404122958
:10380000D95D86041229D91487041229D96987043D
:103810001229D94A8A041229D9E28B041229D99B88
:10382000FE011229D9C3FE011229D9BAFF011229BA
:10383000D992EB041229D917EC041229D92EEC04E1
:103840001229D9A3EC041229D903ED041229D92C89
:10385000ED041229D9A9ED041229D945EE04122943
:10386000D9ACEE041229D914EF041229D93BEF0484
:103870001229D974EF041229D992EF041229D9BB65
:10388000EF041229D9E9EF041229D92FF0041229E3
:10389000D995F0041229D924A5041229D9C9A5045F
:1038A0001229D9E9A5041229D909A6041229D91D7A
:1038B000A6041229D975A6041229D9A5A60412298D
:1038C000D926A8041229D9CCA8041229D9AEA90452
:1038D0001229D9FFA9041229D942AA041229D9858B
:1038E000AA041229D9EBAA041229D90CAB04122973
:1038F000D998AB041229D9C9AB041229D93DAC041B
:103900001229D9EBAD041229D9C5AE041229D90761
:10391000AF041229D961AF041229D9DFAE051229EB
:10392000D9E9AE051229D90AAF051229D92C8D047F
:103930001229D9588F041229D99390041229D960D9
:1039400092041229D9AD92041229D966930412293E
:10395000D9A793041229D9D793041229D96E9404B4
:103960001229D90895041229D97B95041229D9F571
:1039700095041229D9F795041229D9F99504122929
:10398000D9FB95041229D91896041229D91A96043C
:103990001229D93396041229D98096041229D9F311
:1039A00096041229D92497041229D99D9704122923
:1039B000D9A4DF031229D907E9011229D92DE90178
:1039C0001229D97FEA011229D9AAEA011229D91BA1
:1039D000EB011229D93FEB011229D95FEB01122922
:1039E000D9A9EB011229D9D3EB011229D9F6EC019F
:1039F0001229D92CED011229D95BED011229D99D8B
:103A0000ED011229D951EE011229D971EE011229C5
:103A1000D9C6EF011229D900E3031229D93FF101D8
:103A20001229D90FF2011229D97FF2011229D9D115
:103A3000F2011229D903F3011229D965F3011229E0
:103A4000D9D0F3011229D91AF4011229D94DF5015F
:103A50001229D982F5011229D9E2F5011229D99F3B
:103A6000F6011229D9C7F6011229D966F8011229DF
:103A7000D9D4F8011229D907F9011229D943F9013A
:103A80001229D95CF9011229D9FCF9011229D9C9E5
:103A9000FA011229D973FB011229D914FC01122948
:103AA000D9B5FC011229D938FD011229D9D3FD015C
:103AB0001229D958E5041229D9A4E5041229D912EA
:103AC000E6041229D933E6041229D94AE604122958
:103AD000D9FAE6041229D903E7041229D956E704D2
:103AE0001229D97FE7041229D9E6E7041229D977E8
:103AF000E8041229D9B9E8041229D903E9041229E2
:103B0000D962E9041229D98EE9041229D91FEA04DD
:103B10001229D95EEA041229D99DEA041229D9D2C0
:103B2000EA041229D9E4EA041229D9F6EA0412298E
:103B3000D929EB041229D969EB041229D90080058F
:103B40001229D9D380051229D9ED80051229D9FE71
:103B500080051229D91383051229D9328305122928
:103B6000D925B1051229D95BB1051229D9A4B1050E
:103B70001229D9F4B2051229D9B3E7021229D9F2D0
:103B8000E8021229D92EE9021229D9EDEA021229F6
:103B9000D916EB021229D9A9ED021229D9EDED02AD
:103BA0001229D976EF021229D90EF0021229D976FC
:103BB000F0021229D917F1021229D959F10212295A
:103BC000D999F1021229D924F3021229D994F402C5
:103BD0001229D9B9F6021229D9E7F6021229D90E0B
:103BE000F7021229D917F7021229D972F7021229FE
:103BF000D905F8021229D923FB021229D9A4FB0204
:103C00001229D967C5051229D97DC5051229D98779
:103C1000C5051229D9D7C5051229D9E99405122954
:103C2000D9FC94051229D99995051229D9D595055C
:103C30001229D9EC95051229D91196051229D953C3
:103C400096051229D98496051229D9BF96051229FD
:103C5000D93998051229D97A98051229D937BD057D
:103C60001229D98CBD051229D9E5BD051229D9C95A
:103C7000C4051229D90BC5051229D94DC50512292C
:103C8000D95DC5051229D985EB031229D9DDEB03CE
:103C90001229D9E2EC031229D9B2ED031229D9C7AE
:103CA000ED031229D911EE031229D960EE0312296E
:103CB000D973EE031229D9B4EE031229D90DEF03FB
:103CC0001229D921EF031229D900F1031229D907AA
:103CD000F2031229D942F2031229D956F403122908
:103CE000D965F4031229D9B4F4031229D9CAF4030B
:103CF0001229D9E1F4031229D910F5031229D9297F
:103D0000F5031229D9C7F5031229D9D2F5031229CF
:103D1000D92BF6031229D985F6031229D9E0F60327
:103D20001229D905F8031229D927F8031229D9AF86
:103D3000FA031229D9E4FA031229D96DFB031229D7
:103D4000D9E5FB031229D9F1FB031229D92DFC0374
:103D50001229D98CFC031229D989FD031229D9BD56
:103D6000FD031229D9C7FD031229D9CAFD0312295F
:103D7000D9D9FD031229D956FE031229D971FE03A0
:103D80001229D993FE031229D9BFFE031229D9FAA9
:103D9000FE031229D909FF031229D914FF0312299E
:103DA000D950FF031229D963FF031229D98AFF03CF
:103DB0001229D96BC0051229D97CC0051229D90452
:103DC000C1051229D965D0041229D9B4D004122909
:103DD000D956D2041229D912D4041229D95AD4049A
:103DE0001229D942D5041229D973D6041229D9959A
:103DF000D6041229D9F1D6041229D975D70412296B
:103E0000D94A4D001229D9784D001229D9C34E0044
:103E10001229D90A4F001229D95C4F001229D9D88A
:103E20004F001229D94150001229D98D5000122972
:103E3000D90E51001229D9B451001229D93C52008F
:103E40001229D97E52001229D9BB56001229D93F16
:103E500058001229D97E58001229D9C258001229B7
:103E6000D9CE5B001229D9595C001229D9305E00E5
:103E70001229D9725F001229D99060001229D90243
:103E800061001229D9CE61001229D93A62001229A3
:103E9000D93D62001229D9F162001229D9266400A5
:103EA0001229D96466001229D9E468001229D99D23
:103EB00069001229D9B96A001229D9106E00122995
:103EC000D9206E001229D9816F001229D90E7000F5
:103ED0001229D93D71001229D9D171001229D9CCEA
:103EE00072001229D96473001229D90BCE0212294B
:103EF000D9C1CE021229D933CF021229D942CF0219
:103F00001229D9BCCF021229D92BD0021229D932B9
:103F1000D1021229D95BD1021229D9FBD10212296F
:103F2000D949D2021229D9C0D2021229D9B2D50256
:103F30001229D987D6021229D9F4D6021229D974A6
:103F4000D8021229D928D9021229D9D6D902122980
:103F5000D931DA021229D99CDA021229D99CDB0262
:103F60001229D984DC021229D9C8DC021229D9F518
:103F7000DC021229D91DDD021229D952DD021229D3
:103F8000D9DBDD021229D939DF021229D906E10273
:103F90001229D91DE2021229D95AE3021229D96D38
:103FA000E4021229D906E5021229D978E50212297C
:103FB000D940E6021229D9C2D7041229D916D80449
:103FC0001229D962D8041229D9ADD8041229D9ED01
:103FD000D8041229D93DD9041229D9B3DA041229F7
:103FE000D966DB041229D9A9DB041229D9C5DB045F
:103FF0001229D925DC041229D97FDC041229D9A57C
:10400000DC041229D9CCDC041229D937DD041229A9
:10401000D93ADE041229D981AC051229D9B2AC05EE
:104020001229D96CAD051229D9D2AD051229D9436F
:10403000AE051229D9AF91051229D911930512297C
:10404000D95DC1051229D96EC1051229D90EC20543
:104050001229D9EE7F001229D9EBFF011229D98745
:10406000C3051229D997C3051229D9AFC30512294F
:10407000D91CC4051229D969BF051229D9EEBF057B
:104080001229D952C0051229D9DCC2051229D9DF5B
:10409000C2051229D918C3051229D969C3051229E5
:1040A000D97BC3051229D97EC3051229D92F8D05C5
:1040B0001229D93D8D051229D9B78D051229D99B11
:1040C0008E051229D95490051229D9B990051229C3
:1040D000D91C91051229D9F87F001229D957B305A7
:1040E0001229D979B3051229D9ACB4051229D930CE
:1040F000B5051229D96DA2051229D90BA3051229DC
:10410000D952A3051229D995A3051229D958A40576
:104110001229D984A4051229D9BBA4051229D9CE04
:10412000A4051229D9E3A4051229D9ECA405122962
:10413000D93EFB041229D993FB041229D98FFD041F
:104140001229D9C1FD041229D9E3FD041229D9FC91
:10415000FD041229D915FE041229D91FFF041229C2
:10416000D9BAFF041229D9CCB6051229D9F0B6055F
:104170001229D909B7051229D93CB7051229D96DD9
:10418000B7051229D99BB7051229D9A5B705122958
:10419000D907B8051229D916B8051229D920B805AA
:1041A0001229D92DB8051229D92EA5051229D954BD
:1041B000A5051229D991A5051229D9A0A50512296D
:1041C000D9BFA5051229D927A6051229D930A605D8
:1041D0001229D98FA6051229D9B3A6051229D97299
:1041E000A7051229D97FA7051229D990A705122959
:1041F000D9BAFF031229D9D7FF031229D94CF104E8
:104200001229D992F1041229D9F2F2041229D9FF04
:10421000F2041229D912F3041229D931F304122914
:10422000D947F3041229D95BF3041229D9D0F30436
:104230001229D935F4041229D9BDF4041229D9461A
:10424000F5041229D91BF6041229D92BF6041229D8
:10425000D93AF6041229D930C4051229D954C40513
:104260001229D97CC4051229D9A4C4051229D9BEA2
:10427000A7051229D9E5A7051229D906A8051229EB
:10428000D96BA8051229D924AA051229D93DAA0556
:104290001229D949AA051229D95DAA051229D97B63
:1042A000AA051229D985AA051229D98FAA0512298A
:1042B000D9A2AA051229D9F5AA051229D92EAB052A
:1042C0001229D95DAB051229D9ABAB051229D9FA50
:1042D000AB051229D915AC051229D91FAC05122935
:1042E000D930AC051229D976AC051229D980C6057A
:1042F0001229D9D1C6051229D975AF041229D99F1F
:10430000AF041229D9BBAF041229D9CEAF041229A8
:10431000D9E4AF041229D941B0041229D974B004E8
:104320001229D9B0B4041229D9D6B5041229D90951
:10433000B6041229D955B6041229D981B704122915
:10434000D9A9B7041229D9BEB7041229D9CEB70406
:104350001229D912B8041229D973B8041229D983A1
:10436000B8041229D904BC051229D91FBC05122989
:10437000D948BC051229D962BC051229D987BC05C8
:104380001229D9A6BC051229D9BEBC051229D9EC1F
:10439000BC051229D906BD051229D928C205122942
:1043A000D96EC2051229D98798051229D98E980588
:1043B0001229D99A99051229D9CA99051229D9F031
:1043C00099051229D9139A051229D9359A05122966
:1043D000D96F9A051229D9D59A051229D90E9B05AC
:1043E0001229D95A9B051229D9879B051229D9A7C9
:1043F0009B051229D937B8051229D959B8051229B0
:10440000D97EB9051229D981B9051229D956BE0517
:104410001229D9C8BE051229D906BF051229D947C4
:10442000BF051229D94CC1041229D952C10412293D
:10443000D998C1041229D981C3041229D9B7C30458
:104440001229D911C4041229D9F3C4041229D93864
:10445000C5041229D96BC5041229D9F5C50412293E
:10446000D90FC6041229D99BC7041229D999C804A7
:104470001229D9E2C8041229D9B1B8041229D9C71E
:10448000B8041229D95CB9041229D958BA041229DE
:10449000D95CBB041229D901BC041229D945BC043A
:1044A0001229D9C2BC041229D923BD041229D93337
:1044B000BD041229D95ABD041229D9ACBD04122950
:1044C000D939BF041229D93EBF041229D960BF04CB
:1044D0001229D900C6051229D92EC6051229D96379
:1044E000C6051229D965C6051229D967C60512293C
:1044F000D978C6051229D97AC6051229D97DC605EB
:104500001229D93AB5051229D9A8B5051229D9CA4F
:10451000B5051229D902B6051229D938B6051229CE
:10452000D93D9F051229D9809F051229D99E9F0543
:104530001229D9CFA1051229D907A2051229D92BF1
:10454000A2051229D9DDC6051229D91BC9041229D1
:10455000D9E2C9041229D9D3CA041229D9E4CA0458
:104560001229D9F5CA041229D941CB041229D93507
:10457000CD041229D992CE041229D9C2CE0412290F
:10458000D98ECF041229D9EBCF041229D9F2DE0437
:104590001229D978DF041229D96EE1041229D9042D
:1045A000E2041229D92FE2041229D9FBE2041229CC
:1045B000D975E3041229D99AE3041229D93AE404FB
:1045C0001229D981E4041229D98B84051229D99D95
:1045D00085051229D92487051229D94F8705122963
:1045E000D91288051229D9A788051229D901FC02F8
:1045F0001229D927FC021229D976FC021229D99254
:10460000FC021229D9C3FC021229D9D3FC021229B7
:10461000D9E0FC021229D9EDFC021229D9D9FD02F8
:104620001229D917FE021229D921FE021229D92EE8
:10463000FE021229D939FF021229D94BFF02122991
:10464000D956FF021229D968FF021229D971FF0237
:104650001229D97BFF021229D9F0FF021229D9733E
:10466000F6041229D9B8FA041229D9D4FA04122965
:10467000D9079C051229D91D9C051229D9A09D0591
:104680001229D9CA9D051229D9129E051229D90EBF
:104690009F051229D984B9051229D94BC7051229BA
:1046A000D9C17F001229D99EDC031229D900DA036F
:1046B0001229D9C9D8031229D91DD8031229D963BF
:1046C000D6031229D913D4031229D99AD303122954
:1046D000D941D3031229D9D1D2031229D9A8D2039F
:1046E0001229D988D0031229D954D0031229D921EB
:1046F000D0031229D905D0031229D9DDCE031229FE
:10470000D93DCE031229D9F5CD031229D940CC03C6
:104710001229D9C0CB031229D9BDCB031229D9A99B
:10472000CA031229D977CA031229D9B4C903122995
:10473000D9DFC7031229D970C7031229D91EE20392
:104740001229D9E9E1031229D9B5E1031229D9992E
:10475000E1031229D939E1031229D942C7031229E9
:10476000D93FC7031229D92CC7031229D9D7C603A9
:104770001229D9F1E0031229D9C6C6031229D9B8E2
:10478000C5031229D982C5031229D908C5031229E4
:10479000D93FE0031229D948F0011229D9D3C40323
:1047A0001229D974C4031229D943C4031229D90B7D
:1047B000C1031229D9CBC0031229D9BFC0031229C2
:1047C000D91FC0031229D95FBF031229D9D7BC034F
:1047D0001229D968BA031229D926BA031229D9FA9B
:1047E000B8031229D9AFB8031229D9EBB70312299C
:1047F000D9BEB7031229D9F6B6031229D9F6FF0399
:104800001229D9C6B6031229D9B1DF031229D98CCE
:10481000B6031229D9B4980400000080FBE4738F1A
:10482000000100F70787000100F6072400020015C9
:10483000112500020017112600020019112700029D
:10484000001B11280001001D11290001001E118408
:104850000004001F118600010023112A000100241A
:10486000112B00010025112C00010028112D00083A
:1048700000E1072E00010029112F0001002A11304C
:104880000001002B11310001002C1132000100E960
:104890000733000100EA07340001002D1136000142
:1048A00000EB07380001002E1139000100271183A9
:1048B000000200381163000100F50764000100DE0A
:1048C000076500010026116D00010037116E00021E
:1048D00000DF07430001002F1144000200301145A2
:1048E000000100321146000200331147000800EDBC
:1048F000074800010035114B00010036110400018A
:10490000003A11A10001003C11370001003B118861
:10491000000100F8073C000100EC07000000000067
:10492000000001363601010001020100010301000F
:104930000104010606050200000701003408010019
:104940000F090401010D0100FF0E0800001702000D
:1049500000190100FF1A0100011B0100FE1C0100EB
:10496000081D0200001F01000120010001210200BA
:10497000002301000F24020000260100012701008E
:1049800008280200FF2A0100072B0102402C010029
:10499000002D0100012E0100012F0100FF30010B4D
:1049A0001C310800003A0100083B01000F2F0100F4
:1049B000000300710030016000110070003102201E
:1049C00003500480001000610000001400630073B5
:1049D00000720062004300000013000600000000A7
:1049E00000040012000000000000000000040004A9
:1049F00000370037003C02440000000000000000C7
:104A00000065000000350081000000050000008303
:104A1000000000010371030103010301030103010D
:104A20000322030203010310030003000300030039
:104A300003000300030003420300032403060300F2
:104A400003000304031203250323032503230304A4
:104A500003040300030003000344030003000323D3
:104A600003000365032100350381030003050300F0
:104A700003000300030101710101010101110101A2
:104A8000013101010101018001100161013B0014AC
:104A90000063017301720162014301000113010609
:104AA000013D013500040112010001000100010077
:104AB0000104010401330133013C01440132013698
:104AC00000000100016501000135008101000105C0
:104AD00001820183010001030471040204600411D6
:104AE00004700402040204010402041004610400BE
:104AF0000414046304730472046204430400041382
:104B00000406040004000404041204000400040069
:104B10000400045104640000040004000444040080
:104B200004000400040004650400043504810464E6
:104B300000050400048304000403027102300160D4
:104B400002110270020102020202028002100261DE
:104B5000023A0041006302730272026202430200E1
:104B600002130238000002000204021202000200D6
:104B7000020002000204020402370037003C024433
:104B800002000239000002000265020002350281C3
:104B900002000205028202830200020000243F1389
:104BA000009A3E0100243F0200223E0300283E04FA
:104BB000002E3E0500343E0600403E30005E3E3191
:104BC00000583E32006A3E3300703E3500763E3477
:104BD000007C3E3600823E11008E3E1400943E154D
:104BE00000523EFFFF000036000100060000000FEB
:104BF0000000000000000000000000000003FFFFB4
:104C000000000403FFFF0000FFFF0FF4010005C4D4
:104C1000040320000100000B000000000000000061
:104C200003010F01903006C63008C0300BDE301093
:104C300000300AF63002963005B430079C300C7212
:104C4000300D8430FF000003EAF5E5D5D5C5B5A5E4
:104C50009595858575756565555545453535252584
:104C6000151505FE342E3504350A3528351C351644
:104C70003534353A3540354C351035F834F234009A
:104C8000160F00000B150B020002220F3200000667
:104C9000FA350C361236C8341836C234CE340234E3
:104CA000FC3338343E343234EA33663684368A365E
:104CB0006C36783672360C0E020B040B0A070800AD
:104CC0000F303016181920231A1C1E300001191637
:104CD0001816161523030000034948424D181725DE
:104CE0000502303017181921301B1D1F3000383CC9
:104CF0003E363B3B352B432C4E361E362436303663
:104D00002A36223546357E365235583502040201A0
:104D100001010109020E341434083444341A342CCD
:104D20003400BE040A150004007F00E8030C0028CC
:104D300000000000000308100C0A0308090004002A
:104D400001FF1E1E0C05040F1008C082C0839007CF
:104D500080E4F0A3F07CD57D047AFA7B0612441C33
:104D6000122E0E9007F6E07004790080027901128D
:104D7000480C122E1402697874F51224ED74F512A1
:104D80002AD1E9FF8A08EBFEEF705E7402650870B5
:104D90003E9007137408F0750A00780A122A31EC65
:104DA000F50A780A122A31EEF50A780A122A3190A9
:104DB000111F122851901123E0F97CED7D0790110D
:104DC00038125E1D122E387407122A40024E9A7451
:104DD0000165086003024E9F9007137408F07B0082
:104DE000EEFAF9122E74024E9A74016F6008740282
:104DF0006F6003024E9FEA6006740365087054906A
:104E000007137402124EB9122C94122E26E9F89050
:104E10000718E0A2E34019E87016900784E004F058
:104E20006404700C9080E0122C9490111F122CA03E
:104E3000740365087066900785E0F9740129F0E94C
:104E4000C3940540579080E0122C9490111F122CAF
:104E5000A0804974016508704674016F9007137053
:104E60002E740AF07401122CB7E4F07402122CB7FD
:104E70007403F09080E4122C947404122CB7122C5A
:104E8000A07408122CB7E4125C491230A28020747E
:104E90000A124EB9122C94122E5CE9F8E860107CCC
:104EA000E87D037A017B00900710E0F9123C307432
:104EB0000B122A407F03022753F0901123E0F99050
:104EC000111F2274F61224EDE9FFEAFE7AD1F912DD
:104ED0003AECEA4B702A7A027B00123AD4EA4B7021
:104EE0000E7A107B00900710E0F9123B1080188AB0
:104EF000828B8374D1F0EFA3F0EEF9123AE08007D1
:104F0000EF8A828B83A3F002508874F71224ED8914
:104F100008900675E0FEA3E080248E828F83A3A311
:104F200012622660128E828F83A3A31256881262A9
:104F300026FAA908123E0A8E828F83127314FFEE9E
:104F40004F70D790068CE0FAA908123E0A1231B6CB
:104F50009006E41258781231B002712D74F11224C7
:104F6000ED890A8C08740F122CB7125E09741112A5
:104F70002CB7125670750900750E00804AE50B12A9
:104F80005029F50CA3E0F50DE50EC333FEE433FF25
:104F9000EA2EF582EB3FF583E0650C7004A3E06533
:104FA0000D7019E509C333FEE433FFEC2EF582EDF5
:104FB0003FF583E50CF0A3E50DF00509050BE50BC6
:104FC000C3950840B8050EE50EC3950A5005750B4C
:104FD0000080EBA90902641074F41224ED890B74AB
:104FE0000C122CB7125E09750A008002050AE50A48
:104FF000C3950B502F7D0080010DEDC39C50EDE556
:105000000AC333FEE433FFEA2EF582EB3F12503938
:10501000F509ED12502965087004A3E0650970D9FF
:1050200079018002790002665AC333FEE433FFE857
:105030002EF582E93FF583E022F583E0F508A3E051
:105040002274F61224ED1250CF7003A3E06D701796
:105050007508167509077808122A2DEEFA123F2AEC
:105060007402122A40801A750802750980780812A5
:105070002A2D8C088D097808122A2D1250FA122A2E
:105080004080057402122A407F0202275374F612F0
:1050900024ED1250CF7003A3E06D701775082375CF
:1050A00009077808122A2DEEFA123F307402122AEC
:1050B00040801A7508037509807808122A2D8C081B
:1050C0008D097808122A2D1250FA122A4080B9EA66
:1050D000FEEBFF1250E7FAA3E0F9EA2400FCE43902
:1050E000FD9006E4E06C22EE12622CEF1270E2E01A
:1050F000F8A3E0F988828983E022EE127102EF12B0
:10510000725DFD7C801262DE123F4E74042274F6E2
:105110001224ED74FE122AD1EAFEEBFF8518828577
:105120001983E4F0A3F012641DFA88828983A3A393
:10513000E0F97509007508006005C394F140057534
:10514000088280439006E4E06A7003A3E06B70205D
:10515000851882851983AA82AB83123708E9F5097D
:105160008518828519831268CA701C750883801798
:105170009007F6E06004640170057508818008E01E
:105180006402700375088085188285198312567031
:10519000A908EEFAEFFB123F36E509601485188284
:1051A0008519831268CA6009851882851983126976
:1051B0008602508374F21224EDEAFEEBFF750A00BA
:1051C000750B001252281231B6EA65087003EB65C0
:1051D00009701212371AE914F50A79017A4C7B0723
:1051E0001237208003750B801270CBF50C780C12EF
:1051F0002A31750C4C750D07780C122A2D780A127D
:105200002A317808122A2DE50BF5087808122A3180
:105210001260F6F582EF125F6E7A057B80123F3CDA
:105220007407122A40025E2B1270D9125E0D88821A
:105230008983127351F508E439F5092274F61224B2
:10524000EDE9FE7F00802F8A828B8312503BF9E5C7
:10525000082400E439F509EF33F8E433F9EC28F5D4
:1052600082ED39F583E508F0A3E509F0EA24020AA6
:105270000AEB3400FB0FEFC39E40CC02508874E869
:105280001224ED74FB122AD18A168B178518828599
:105290001983E4F07403122CB7E4F0A3F004122C89
:1052A000B7E4F0126F3EF50AA3E0F50B850A82F52C
:1052B0008312734DFEE439FF850A82850B83A3A315
:1052C000E0FA850A82850B83A3A3A3E0F9EAF50837
:1052D000E439F509E50A2404F50AE50B3400F50B79
:1052E000EEFAEFFB123258E96401702C126D7C1259
:1052F0002A31E4F508F5097808122A2D7808122ACF
:10530000319006E41228597508807808122A311263
:105310005690122A4002565EEEFAEFFB123258E91E
:10532000700C9006E4E06E7003A3E06F70BE12563E
:10533000768814602EC333FAE433FB123B6A74039D
:10534000122CB71258787403122CB71268CA601363
:105350007403122CB7125668A914123E3A8A0A8BAB
:105360000B8003751400125676880F602AC333FA37
:10537000E433FB123B6A7401122CB71258787401A3
:10538000122CB71268CA600F7401122CB71256683B
:10539000A90F123E3A8003750F00900675805D8557
:1053A0000A82850B83A3A3A3A3A3A3A3A3E4F0A3CF
:1053B000F0AA0AAB0B851282851383A3A31256862B
:1053C000126226F9123AE0851082851183E0C0E06E
:1053D000851882851983E0F8744C28F582740712C9
:1053E0007307D0E012665F04F0E515A2E05007AA4B
:1053F00010AB11123B70851282851383E0F512A366
:10540000E0F513E512451370030255D68512828527
:105410001383A3A312622660DD851282851383A302
:10542000A3A3A3A3A3A3A3E0A2E050CA85128285ED
:105430001383A3A3A3A31268CA851282851383A32F
:10544000A3601F126226FA7901851282851383A355
:10545000A3A3A312623112481D8A108B1175150186
:10546000800F125686A3A3E0F510A3E0F511751581
:1054700000E510451170030253E985108285118300
:10548000A3E065087004A3E0650960030253E985A1
:105490001082851183A3A3A3A3A3A3A312285985D4
:1054A0001082851183A3A3A3A3A3A3E0FC74051218
:1054B0002CB7125E1DA914123E1C7402122A40E978
:1054C000703C851082851183A3A3A3A3A3A3A3A3E8
:1054D000A3A3122859851082851183A3A3A3A3A394
:1054E000A3A3A3A3E0FC7403122CB7125E1DA90FA3
:1054F000123E1C7402122A40E970030253E9E50FC0
:105500002514C333240AFA7B00123AD48A0A8B0B7F
:10551000EA450B70030253C78A828B8374D2F085ED
:105520001682851783A3A3125E098A828B83125C7D
:10553000518A828B83A3A3A3A3E514127357E50FAB
:10554000F0E5146038EA2405FAEB3400FBE50A24A0
:105550000AF8E50B3400F98A828B83125C537403DA
:10556000122CB71256AE122A29E514C333FCE433C9
:10557000FD8A828B83126A82122A40800D8A828B76
:1055800083A3A3A3A3A3E4F0A3F0E50F7003025346
:105590009FE514C333F8E433F9E50A28F8E50B393D
:1055A000F9E8240AFAE93400FB850A82850B83A313
:1055B000A3A3A3A3A3A3A31258787401122CB71218
:1055C00056AE122A29E50FC333FCE433FD1271A84D
:1055D000122A400253B1851882851983E060271290
:1055E0006D7C122A3175084C7509077808122A2D2E
:1055F0007403122CB7126D86122A319006E4122819
:10560000597508008029EEFAEFFB123258E9702A2A
:10561000126D7C122A3175084C7509077808122A18
:105620002D7508007808122A319006E4122859785E
:1056300008122A31125690122A407403122CB71203
:1056400068CA60087403122CB71269867401122CA0
:10565000B71268CA60087401122CB7126986740503
:10566000122A407F10022753125670AA0AAB0B224F
:10567000E0FCA3E0FD22850A82850B83E0F8A38588
:10568000820A85830B22E0F8A3E0F5838882A322B7
:10569000E5162402FCE5173400FDE51612608BE5E3
:1056A000171262EB7A067B80123F3C740722E0F50A
:1056B0000CA3E0F50D750E00780C2274F41224EDA5
:1056C00074F4122AD18A088B09ECFEEDFF740B12D8
:1056D0002CB77403F0122CB7AA82AB8312441C12AD
:1056E00031B0EAFCEBFD7403122CB7AA82AB831233
:1056F0004416E9600A1258086010E06401600B85E6
:10570000188285198374840257C08E828F83A3A365
:10571000A3A3A3A3A3A3E06017C394F1501212584C
:10572000087018EE24141270CE6005C394F1400B7B
:1057300085188285198374820257C0E508240CF508
:1057400082E5091270D164217002A3E0704F8518C0
:1057500082851983748CF01257FB122A3112581863
:105760001247A07401122A40E970568518828519E3
:1057700083E4F0123D8C12580870467401122CB765
:10578000AC82AD8312727EFB124782E970337D00DA
:105790007C00790012727EFB123EFA80241257FBC5
:1057A000122A3112581812479A7401122A40E985B8
:1057B00018828519837007E4F0123D8C8003748889
:1057C000F0127100E509125800122A317401122CEE
:1057D000B785820A85830B780A122A2DE508240CE6
:1057E000F582E50912580F4480F50B780A122A2D2C
:1057F0001261AE122A40740C026657EE125DFDEF84
:1058000012725DF50A780A221270D9E0640322123E
:105810005BB0E0F50AA3E022EE240BFCEF3400FDC0
:105820008E828F83A3A3A3A3A3A3A3A3A3125E210A
:105830008E828F83A3A3A3A3A3A3A3A3E0F922C073
:1058400082C08374F3122AD1851882851983E4F00B
:1058500004122CB71258787403122CB7AA82AB83A7
:10586000122D4E851882851983AA82AB83122D844E
:10587000740D122A40026978EAF0A3EBF02274F664
:105880001224ED12730BEF125E0688828983127068
:105890000090071EE058F508A3E059F509E5084512
:1058A00009601C7808122A2D9006E41228591270FB
:1058B000CBFD7C001262DA123F487404122A4002C7
:1058C000508874EA1224ED74DB122AD18A148B15E5
:1058D00075120075130012621FF50E851882851966
:1058E00083AC82AD837A007B00799C122E867A0489
:1058F0007900122D96EAF50C851882851983E0252A
:105900000CF0F8E50EC3984003025AF4E0C3950E7C
:10591000F509C394044003750903E50975F01AA459
:10592000FAABF0123B6A8A128B13EA45137003023A
:105930005AF7750D00AE12AF13850E080259C91241
:105940005B4B850A82850B83A3A3A3A3E0703985F3
:105950000A82850B831268CA7012125DF61270C536
:10596000EE2418F582EF127307E48016125B63F0E1
:10597000900558E014C0E0EE2418F582EF1273078A
:10598000D0E0125BA0E4803E900558E004C0E0EE59
:105990002418F582EF127307D0E0125B98C39403CA
:1059A000EE4003025A59125DF71273077402125B3C
:1059B0009864016003025A66125B44127307E4F0B4
:1059C000EE2416125B66125B6CE50DC3950940036D
:1059D000025A8AE508C3950C4003025A6FA90812BF
:1059E0002E028A0A8B0B0508900545125B78850A02
:1059F00082850B83125E09125B3D126FF3125BB45A
:105A0000850A82850B83A3A3A3A3A3A3A3A3A3A314
:105A1000E0C0E0EE2419F582EF127307D0E0F074D5
:105A200001122CB7E4126F79125E097402122CB7BE
:105A3000125C537401122CB7AA82AB83122D72E947
:105A40006401600302593F7404122CB7AC82AD8329
:105A5000EE240A125B5D025942125B64125B986489
:105A60000370030259B8EE2415125B660259BFE5B4
:105A70000CC3950E40057508008016E50EC3950C05
:105A8000F508800D125B63125B6CE50DC395095040
:105A900066740E122CB7AC82AD8385080AAA0A7B05
:105AA000007987122E8605087418122CB7125B78BD
:105AB000125B4BEE2412F8EF3400F9740E122CB77F
:105AC000125E1D88828983EAF0A3EB125BA0740347
:105AD000125BB4741D122CB7E0C0E0EE2419F582FD
:105AE000EF127307D0E01268DA7099125DF6127344
:105AF00007E48093750900750A00780A122A317844
:105B000012122A2D7809122A31E50EF509780912A8
:105B10002A317405122CB7E0FD7C00126076123F2A
:105B2000847405122A40E51245136007AA12AB13CC
:105B3000123B707425122A407F0E022753EE241266
:105B4000F582EF22EE2415F582EF227C087D0079A4
:105B5000FFEE240AFAEF3400FB123ABC22FAEF12ED
:105B60005B9122EE2414125BAD740122F0EE241A34
:105B7000FEEF3400FF050D22125E0D8E828F83E84A
:105B8000F0A3E9F07C597D05EE2402FAEF125B9157
:105B9000223400FB12441C22127291A3A3A3E02220
:105BA000F0EE2415125BC42416125BAD22F582EFD1
:105BB0001270E222F0EE2417125BC42418125BADBF
:105BC00074FFF022F5821270E17402F0EE2274F696
:105BD0001224ED74F9122AD18A088B091273CF8529
:105BE0001882851983122CA0125C41C0E074041243
:105BF0002CB7D0E01271C6E0FA7405122CB774010C
:105C0000F07406122CB77401F09006EEF09006F7CF
:105C1000041272A8A3125E099006EF125C53EA9078
:105C200006F8F0E50812608BE5091270D19006EDD8
:105C3000125C49122E2CE96003122E3274070250B6
:105C400085EE2404FE126F3422126415AA82AB83FF
:105C500022A3A3E8F0A3E9F02274F21224ED74FF6A
:105C6000122AD17508007E007F001230D28A0A8B7A
:105C70000B125DEA80050508125E02E84970F79094
:105C800007F6E0600764016003025D67125DEA8069
:105C900003125E02E849603788828983125E1D9094
:105CA0000545E06A7003A3E06B600E125DFCE9122B
:105CB0007307125E1DEA4B70D888828983125E09D1
:105CC000900545E0687003A3E0697003025D677AA0
:105CD000167B00123B6A8A0C8B0DAE0CAF0DEE4F9B
:105CE0007003025D67900545125E098E828F8312F4
:105CF0005C5390053AE08E828F83A3A3F01232406A
:105D0000E98E828F83A3A3A3A3A3F0901124E08E36
:105D1000828F83A3A3A3A3A3A3F07C597D05EE24C4
:105D20000B125B5D851882851983AA82AB8379414A
:105D30001245F6851882851983E060089006E41202
:105D40005E09800478FE79FF8E828F83A3A3A3A3CC
:105D5000A3125C51125DF6127307E50AF0A3E50B7E
:105D6000F08E0A8F0B05089006F8E0F8E508C39856
:105D700050047A008022E508C398FAC394064002D2
:105D80007A057900800DE50A125DFDE50B12580FCA
:105D9000F50B09E9C39840EE7509007809122A311C
:105DA000780A122A2DEAF5097809122A319006F8A4
:105DB000E0F5097809122A31AD087C007AEF7B06FC
:105DC0009006EDE0F9123F7E7405122A409007F626
:105DD000E060046401700BEE4F6007EEFAEFFB1217
:105DE0003B70122E3274010252221230D28A0C8B76
:105DF0000DA80CA90D22EE125DFDEF22E82414F58A
:105E00008222125DFCE9125BB0125E0D22E0F8A363
:105E1000E0F922AC82AD83851882851983125E2158
:105E200022E0FAA3E0FB22EEFAEFFB7F0602275303
:105E300074EC1224ED74FF122AD18A0A8B0B7E00B7
:105E40008E0E8E0F12621FFF851882851983AC8219
:105E5000AD837A007B00799D122E86851882851984
:105E600083E0F8EFC3984003025F0CE0C39FFEC3DA
:105E7000940B40027E0AEE75F007A4FAABF0123BD9
